{
	"LoanCalculator.sol": {
		"LoanCalculator": {
			"abi": [
				{
					"inputs": [
						{
							"internalType": "string",
							"name": "message",
							"type": "string"
						}
					],
					"name": "InvalidInterestRate",
					"type": "error"
				},
				{
					"inputs": [
						{
							"internalType": "string",
							"name": "message",
							"type": "string"
						}
					],
					"name": "InvalidLoanPeriod",
					"type": "error"
				},
				{
					"inputs": [
						{
							"internalType": "uint256",
							"name": "principal",
							"type": "uint256"
						},
						{
							"internalType": "uint256",
							"name": "interestRate",
							"type": "uint256"
						},
						{
							"internalType": "uint256",
							"name": "loanPeriodInYears",
							"type": "uint256"
						}
					],
					"name": "calculateTotalPayable",
					"outputs": [
						{
							"internalType": "uint256",
							"name": "",
							"type": "uint256"
						}
					],
					"stateMutability": "nonpayable",
					"type": "function"
				},
				{
					"inputs": [],
					"name": "total",
					"outputs": [
						{
							"internalType": "uint256",
							"name": "",
							"type": "uint256"
						}
					],
					"stateMutability": "view",
					"type": "function"
				}
			],
			"devdoc": {
				"kind": "dev",
				"methods": {},
				"version": 1
			},
			"evm": {
				"assembly": "    /* \"LoanCalculator.sol\":57:817  contract LoanCalculator {... */\n  mstore(0x40, 0x80)\n  callvalue\n  dup1\n  iszero\n  tag_1\n  jumpi\n  revert(0x00, 0x00)\ntag_1:\n  pop\n  dataSize(sub_0)\n  dup1\n  dataOffset(sub_0)\n  0x00\n  codecopy\n  0x00\n  return\nstop\n\nsub_0: assembly {\n        /* \"LoanCalculator.sol\":57:817  contract LoanCalculator {... */\n      mstore(0x40, 0x80)\n      callvalue\n      dup1\n      iszero\n      tag_1\n      jumpi\n      revert(0x00, 0x00)\n    tag_1:\n      pop\n      jumpi(tag_2, lt(calldatasize, 0x04))\n      shr(0xe0, calldataload(0x00))\n      dup1\n      0x2c499d0c\n      eq\n      tag_3\n      jumpi\n      dup1\n      0x2ddbd13a\n      eq\n      tag_4\n      jumpi\n    tag_2:\n      revert(0x00, 0x00)\n        /* \"LoanCalculator.sol\":206:815  function calculateTotalPayable(... */\n    tag_3:\n      tag_5\n      0x04\n      dup1\n      calldatasize\n      sub\n      dup2\n      add\n      swap1\n      tag_6\n      swap2\n      swap1\n      tag_7\n      jump\t// in\n    tag_6:\n      tag_8\n      jump\t// in\n    tag_5:\n      mload(0x40)\n      tag_9\n      swap2\n      swap1\n      tag_10\n      jump\t// in\n    tag_9:\n      mload(0x40)\n      dup1\n      swap2\n      sub\n      swap1\n      return\n        /* \"LoanCalculator.sol\":179:199  uint256 public total */\n    tag_4:\n      tag_11\n      tag_12\n      jump\t// in\n    tag_11:\n      mload(0x40)\n      tag_13\n      swap2\n      swap1\n      tag_10\n      jump\t// in\n    tag_13:\n      mload(0x40)\n      dup1\n      swap2\n      sub\n      swap1\n      return\n        /* \"LoanCalculator.sol\":206:815  function calculateTotalPayable(... */\n    tag_8:\n        /* \"LoanCalculator.sol\":351:358  uint256 */\n      0x00\n        /* \"LoanCalculator.sol\":389:390  0 */\n      0x00\n        /* \"LoanCalculator.sol\":374:386  interestRate */\n      dup4\n        /* \"LoanCalculator.sol\":374:390  interestRate < 0 */\n      lt\n        /* \"LoanCalculator.sol\":374:412  interestRate < 0 || interestRate > 100 */\n      dup1\n      tag_15\n      jumpi\n      pop\n        /* \"LoanCalculator.sol\":409:412  100 */\n      0x64\n        /* \"LoanCalculator.sol\":394:406  interestRate */\n      dup4\n        /* \"LoanCalculator.sol\":394:412  interestRate > 100 */\n      gt\n        /* \"LoanCalculator.sol\":374:412  interestRate < 0 || interestRate > 100 */\n    tag_15:\n        /* \"LoanCalculator.sol\":370:540  if (interestRate < 0 || interestRate > 100) {... */\n      iszero\n      tag_16\n      jumpi\n        /* \"LoanCalculator.sol\":435:529  InvalidInterestRate(... */\n      mload(0x40)\n      0xe1788b8f00000000000000000000000000000000000000000000000000000000\n      dup2\n      mstore\n      0x04\n      add\n      tag_17\n      swap1\n      tag_18\n      jump\t// in\n    tag_17:\n      mload(0x40)\n      dup1\n      swap2\n      sub\n      swap1\n      revert\n        /* \"LoanCalculator.sol\":370:540  if (interestRate < 0 || interestRate > 100) {... */\n    tag_16:\n        /* \"LoanCalculator.sol\":574:575  1 */\n      0x01\n        /* \"LoanCalculator.sol\":554:571  loanPeriodInYears */\n      dup3\n        /* \"LoanCalculator.sol\":554:575  loanPeriodInYears < 1 */\n      lt\n        /* \"LoanCalculator.sol\":550:668  if (loanPeriodInYears < 1) {... */\n      iszero\n      tag_19\n      jumpi\n        /* \"LoanCalculator.sol\":598:657  InvalidLoanPeriod(\"Loan period should be one year minimum\") */\n      mload(0x40)\n      0xe3341e5200000000000000000000000000000000000000000000000000000000\n      dup2\n      mstore\n      0x04\n      add\n      tag_20\n      swap1\n      tag_21\n      jump\t// in\n    tag_20:\n      mload(0x40)\n      dup1\n      swap2\n      sub\n      swap1\n      revert\n        /* \"LoanCalculator.sol\":550:668  if (loanPeriodInYears < 1) {... */\n    tag_19:\n        /* \"LoanCalculator.sol\":783:786  100 */\n      0x64\n        /* \"LoanCalculator.sol\":750:767  loanPeriodInYears */\n      dup3\n        /* \"LoanCalculator.sol\":735:747  interestRate */\n      dup5\n        /* \"LoanCalculator.sol\":723:732  principal */\n      dup7\n        /* \"LoanCalculator.sol\":723:747  principal * interestRate */\n      tag_22\n      swap2\n      swap1\n      tag_23\n      jump\t// in\n    tag_22:\n        /* \"LoanCalculator.sol\":723:767  principal * interestRate * loanPeriodInYears */\n      tag_24\n      swap2\n      swap1\n      tag_23\n      jump\t// in\n    tag_24:\n        /* \"LoanCalculator.sol\":722:786  (principal * interestRate * loanPeriodInYears) /... */\n      tag_25\n      swap2\n      swap1\n      tag_26\n      jump\t// in\n    tag_25:\n        /* \"LoanCalculator.sol\":698:707  principal */\n      dup5\n        /* \"LoanCalculator.sol\":698:786  principal +... */\n      tag_27\n      swap2\n      swap1\n      tag_28\n      jump\t// in\n    tag_27:\n        /* \"LoanCalculator.sol\":678:683  total */\n      0x00\n        /* \"LoanCalculator.sol\":678:786  total =... */\n      dup2\n      swap1\n      sstore\n      pop\n        /* \"LoanCalculator.sol\":803:808  total */\n      sload(0x00)\n        /* \"LoanCalculator.sol\":796:808  return total */\n      swap1\n      pop\n        /* \"LoanCalculator.sol\":206:815  function calculateTotalPayable(... */\n      swap4\n      swap3\n      pop\n      pop\n      pop\n      jump\t// out\n        /* \"LoanCalculator.sol\":179:199  uint256 public total */\n    tag_12:\n      sload(0x00)\n      dup2\n      jump\t// out\n        /* \"#utility.yul\":88:205   */\n    tag_30:\n        /* \"#utility.yul\":197:198   */\n      0x00\n        /* \"#utility.yul\":194:195   */\n      0x00\n        /* \"#utility.yul\":187:199   */\n      revert\n        /* \"#utility.yul\":334:411   */\n    tag_32:\n        /* \"#utility.yul\":371:378   */\n      0x00\n        /* \"#utility.yul\":400:405   */\n      dup2\n        /* \"#utility.yul\":389:405   */\n      swap1\n      pop\n        /* \"#utility.yul\":334:411   */\n      swap2\n      swap1\n      pop\n      jump\t// out\n        /* \"#utility.yul\":417:539   */\n    tag_33:\n        /* \"#utility.yul\":490:514   */\n      tag_49\n        /* \"#utility.yul\":508:513   */\n      dup2\n        /* \"#utility.yul\":490:514   */\n      tag_32\n      jump\t// in\n    tag_49:\n        /* \"#utility.yul\":483:488   */\n      dup2\n        /* \"#utility.yul\":480:515   */\n      eq\n        /* \"#utility.yul\":470:533   */\n      tag_50\n      jumpi\n        /* \"#utility.yul\":529:530   */\n      0x00\n        /* \"#utility.yul\":526:527   */\n      0x00\n        /* \"#utility.yul\":519:531   */\n      revert\n        /* \"#utility.yul\":470:533   */\n    tag_50:\n        /* \"#utility.yul\":417:539   */\n      pop\n      jump\t// out\n        /* \"#utility.yul\":545:684   */\n    tag_34:\n        /* \"#utility.yul\":591:596   */\n      0x00\n        /* \"#utility.yul\":629:635   */\n      dup2\n        /* \"#utility.yul\":616:636   */\n      calldataload\n        /* \"#utility.yul\":607:636   */\n      swap1\n      pop\n        /* \"#utility.yul\":645:678   */\n      tag_52\n        /* \"#utility.yul\":672:677   */\n      dup2\n        /* \"#utility.yul\":645:678   */\n      tag_33\n      jump\t// in\n    tag_52:\n        /* \"#utility.yul\":545:684   */\n      swap3\n      swap2\n      pop\n      pop\n      jump\t// out\n        /* \"#utility.yul\":690:1309   */\n    tag_7:\n        /* \"#utility.yul\":767:773   */\n      0x00\n        /* \"#utility.yul\":775:781   */\n      0x00\n        /* \"#utility.yul\":783:789   */\n      0x00\n        /* \"#utility.yul\":832:834   */\n      0x60\n        /* \"#utility.yul\":820:829   */\n      dup5\n        /* \"#utility.yul\":811:818   */\n      dup7\n        /* \"#utility.yul\":807:830   */\n      sub\n        /* \"#utility.yul\":803:835   */\n      slt\n        /* \"#utility.yul\":800:919   */\n      iszero\n      tag_54\n      jumpi\n        /* \"#utility.yul\":838:917   */\n      tag_55\n      tag_30\n      jump\t// in\n    tag_55:\n        /* \"#utility.yul\":800:919   */\n    tag_54:\n        /* \"#utility.yul\":958:959   */\n      0x00\n        /* \"#utility.yul\":983:1036   */\n      tag_56\n        /* \"#utility.yul\":1028:1035   */\n      dup7\n        /* \"#utility.yul\":1019:1025   */\n      dup3\n        /* \"#utility.yul\":1008:1017   */\n      dup8\n        /* \"#utility.yul\":1004:1026   */\n      add\n        /* \"#utility.yul\":983:1036   */\n      tag_34\n      jump\t// in\n    tag_56:\n        /* \"#utility.yul\":973:1036   */\n      swap4\n      pop\n        /* \"#utility.yul\":929:1046   */\n      pop\n        /* \"#utility.yul\":1085:1087   */\n      0x20\n        /* \"#utility.yul\":1111:1164   */\n      tag_57\n        /* \"#utility.yul\":1156:1163   */\n      dup7\n        /* \"#utility.yul\":1147:1153   */\n      dup3\n        /* \"#utility.yul\":1136:1145   */\n      dup8\n        /* \"#utility.yul\":1132:1154   */\n      add\n        /* \"#utility.yul\":1111:1164   */\n      tag_34\n      jump\t// in\n    tag_57:\n        /* \"#utility.yul\":1101:1164   */\n      swap3\n      pop\n        /* \"#utility.yul\":1056:1174   */\n      pop\n        /* \"#utility.yul\":1213:1215   */\n      0x40\n        /* \"#utility.yul\":1239:1292   */\n      tag_58\n        /* \"#utility.yul\":1284:1291   */\n      dup7\n        /* \"#utility.yul\":1275:1281   */\n      dup3\n        /* \"#utility.yul\":1264:1273   */\n      dup8\n        /* \"#utility.yul\":1260:1282   */\n      add\n        /* \"#utility.yul\":1239:1292   */\n      tag_34\n      jump\t// in\n    tag_58:\n        /* \"#utility.yul\":1229:1292   */\n      swap2\n      pop\n        /* \"#utility.yul\":1184:1302   */\n      pop\n        /* \"#utility.yul\":690:1309   */\n      swap3\n      pop\n      swap3\n      pop\n      swap3\n      jump\t// out\n        /* \"#utility.yul\":1315:1433   */\n    tag_35:\n        /* \"#utility.yul\":1402:1426   */\n      tag_60\n        /* \"#utility.yul\":1420:1425   */\n      dup2\n        /* \"#utility.yul\":1402:1426   */\n      tag_32\n      jump\t// in\n    tag_60:\n        /* \"#utility.yul\":1397:1400   */\n      dup3\n        /* \"#utility.yul\":1390:1427   */\n      mstore\n        /* \"#utility.yul\":1315:1433   */\n      pop\n      pop\n      jump\t// out\n        /* \"#utility.yul\":1439:1661   */\n    tag_10:\n        /* \"#utility.yul\":1532:1536   */\n      0x00\n        /* \"#utility.yul\":1570:1572   */\n      0x20\n        /* \"#utility.yul\":1559:1568   */\n      dup3\n        /* \"#utility.yul\":1555:1573   */\n      add\n        /* \"#utility.yul\":1547:1573   */\n      swap1\n      pop\n        /* \"#utility.yul\":1583:1654   */\n      tag_62\n        /* \"#utility.yul\":1651:1652   */\n      0x00\n        /* \"#utility.yul\":1640:1649   */\n      dup4\n        /* \"#utility.yul\":1636:1653   */\n      add\n        /* \"#utility.yul\":1627:1633   */\n      dup5\n        /* \"#utility.yul\":1583:1654   */\n      tag_35\n      jump\t// in\n    tag_62:\n        /* \"#utility.yul\":1439:1661   */\n      swap3\n      swap2\n      pop\n      pop\n      jump\t// out\n        /* \"#utility.yul\":1667:1836   */\n    tag_36:\n        /* \"#utility.yul\":1751:1762   */\n      0x00\n        /* \"#utility.yul\":1785:1791   */\n      dup3\n        /* \"#utility.yul\":1780:1783   */\n      dup3\n        /* \"#utility.yul\":1773:1792   */\n      mstore\n        /* \"#utility.yul\":1825:1829   */\n      0x20\n        /* \"#utility.yul\":1820:1823   */\n      dup3\n        /* \"#utility.yul\":1816:1830   */\n      add\n        /* \"#utility.yul\":1801:1830   */\n      swap1\n      pop\n        /* \"#utility.yul\":1667:1836   */\n      swap3\n      swap2\n      pop\n      pop\n      jump\t// out\n        /* \"#utility.yul\":1842:2070   */\n    tag_37:\n        /* \"#utility.yul\":1982:2016   */\n      0x496e74657265737420726174652073686f756c64206265206265747765656e20\n        /* \"#utility.yul\":1978:1979   */\n      0x00\n        /* \"#utility.yul\":1970:1976   */\n      dup3\n        /* \"#utility.yul\":1966:1980   */\n      add\n        /* \"#utility.yul\":1959:2017   */\n      mstore\n        /* \"#utility.yul\":2051:2062   */\n      0x3020616e64203130300000000000000000000000000000000000000000000000\n        /* \"#utility.yul\":2046:2048   */\n      0x20\n        /* \"#utility.yul\":2038:2044   */\n      dup3\n        /* \"#utility.yul\":2034:2049   */\n      add\n        /* \"#utility.yul\":2027:2063   */\n      mstore\n        /* \"#utility.yul\":1842:2070   */\n      pop\n      jump\t// out\n        /* \"#utility.yul\":2076:2442   */\n    tag_38:\n        /* \"#utility.yul\":2218:2221   */\n      0x00\n        /* \"#utility.yul\":2239:2306   */\n      tag_66\n        /* \"#utility.yul\":2303:2305   */\n      0x29\n        /* \"#utility.yul\":2298:2301   */\n      dup4\n        /* \"#utility.yul\":2239:2306   */\n      tag_36\n      jump\t// in\n    tag_66:\n        /* \"#utility.yul\":2232:2306   */\n      swap2\n      pop\n        /* \"#utility.yul\":2315:2408   */\n      tag_67\n        /* \"#utility.yul\":2404:2407   */\n      dup3\n        /* \"#utility.yul\":2315:2408   */\n      tag_37\n      jump\t// in\n    tag_67:\n        /* \"#utility.yul\":2433:2435   */\n      0x40\n        /* \"#utility.yul\":2428:2431   */\n      dup3\n        /* \"#utility.yul\":2424:2436   */\n      add\n        /* \"#utility.yul\":2417:2436   */\n      swap1\n      pop\n        /* \"#utility.yul\":2076:2442   */\n      swap2\n      swap1\n      pop\n      jump\t// out\n        /* \"#utility.yul\":2448:2867   */\n    tag_18:\n        /* \"#utility.yul\":2614:2618   */\n      0x00\n        /* \"#utility.yul\":2652:2654   */\n      0x20\n        /* \"#utility.yul\":2641:2650   */\n      dup3\n        /* \"#utility.yul\":2637:2655   */\n      add\n        /* \"#utility.yul\":2629:2655   */\n      swap1\n      pop\n        /* \"#utility.yul\":2701:2710   */\n      dup2\n        /* \"#utility.yul\":2695:2699   */\n      dup2\n        /* \"#utility.yul\":2691:2711   */\n      sub\n        /* \"#utility.yul\":2687:2688   */\n      0x00\n        /* \"#utility.yul\":2676:2685   */\n      dup4\n        /* \"#utility.yul\":2672:2689   */\n      add\n        /* \"#utility.yul\":2665:2712   */\n      mstore\n        /* \"#utility.yul\":2729:2860   */\n      tag_69\n        /* \"#utility.yul\":2855:2859   */\n      dup2\n        /* \"#utility.yul\":2729:2860   */\n      tag_38\n      jump\t// in\n    tag_69:\n        /* \"#utility.yul\":2721:2860   */\n      swap1\n      pop\n        /* \"#utility.yul\":2448:2867   */\n      swap2\n      swap1\n      pop\n      jump\t// out\n        /* \"#utility.yul\":2873:3098   */\n    tag_39:\n        /* \"#utility.yul\":3013:3047   */\n      0x4c6f616e20706572696f642073686f756c64206265206f6e652079656172206d\n        /* \"#utility.yul\":3009:3010   */\n      0x00\n        /* \"#utility.yul\":3001:3007   */\n      dup3\n        /* \"#utility.yul\":2997:3011   */\n      add\n        /* \"#utility.yul\":2990:3048   */\n      mstore\n        /* \"#utility.yul\":3082:3090   */\n      0x696e696d756d0000000000000000000000000000000000000000000000000000\n        /* \"#utility.yul\":3077:3079   */\n      0x20\n        /* \"#utility.yul\":3069:3075   */\n      dup3\n        /* \"#utility.yul\":3065:3080   */\n      add\n        /* \"#utility.yul\":3058:3091   */\n      mstore\n        /* \"#utility.yul\":2873:3098   */\n      pop\n      jump\t// out\n        /* \"#utility.yul\":3104:3470   */\n    tag_40:\n        /* \"#utility.yul\":3246:3249   */\n      0x00\n        /* \"#utility.yul\":3267:3334   */\n      tag_72\n        /* \"#utility.yul\":3331:3333   */\n      0x26\n        /* \"#utility.yul\":3326:3329   */\n      dup4\n        /* \"#utility.yul\":3267:3334   */\n      tag_36\n      jump\t// in\n    tag_72:\n        /* \"#utility.yul\":3260:3334   */\n      swap2\n      pop\n        /* \"#utility.yul\":3343:3436   */\n      tag_73\n        /* \"#utility.yul\":3432:3435   */\n      dup3\n        /* \"#utility.yul\":3343:3436   */\n      tag_39\n      jump\t// in\n    tag_73:\n        /* \"#utility.yul\":3461:3463   */\n      0x40\n        /* \"#utility.yul\":3456:3459   */\n      dup3\n        /* \"#utility.yul\":3452:3464   */\n      add\n        /* \"#utility.yul\":3445:3464   */\n      swap1\n      pop\n        /* \"#utility.yul\":3104:3470   */\n      swap2\n      swap1\n      pop\n      jump\t// out\n        /* \"#utility.yul\":3476:3895   */\n    tag_21:\n        /* \"#utility.yul\":3642:3646   */\n      0x00\n        /* \"#utility.yul\":3680:3682   */\n      0x20\n        /* \"#utility.yul\":3669:3678   */\n      dup3\n        /* \"#utility.yul\":3665:3683   */\n      add\n        /* \"#utility.yul\":3657:3683   */\n      swap1\n      pop\n        /* \"#utility.yul\":3729:3738   */\n      dup2\n        /* \"#utility.yul\":3723:3727   */\n      dup2\n        /* \"#utility.yul\":3719:3739   */\n      sub\n        /* \"#utility.yul\":3715:3716   */\n      0x00\n        /* \"#utility.yul\":3704:3713   */\n      dup4\n        /* \"#utility.yul\":3700:3717   */\n      add\n        /* \"#utility.yul\":3693:3740   */\n      mstore\n        /* \"#utility.yul\":3757:3888   */\n      tag_75\n        /* \"#utility.yul\":3883:3887   */\n      dup2\n        /* \"#utility.yul\":3757:3888   */\n      tag_40\n      jump\t// in\n    tag_75:\n        /* \"#utility.yul\":3749:3888   */\n      swap1\n      pop\n        /* \"#utility.yul\":3476:3895   */\n      swap2\n      swap1\n      pop\n      jump\t// out\n        /* \"#utility.yul\":3901:4081   */\n    tag_41:\n        /* \"#utility.yul\":3949:4026   */\n      0x4e487b7100000000000000000000000000000000000000000000000000000000\n        /* \"#utility.yul\":3946:3947   */\n      0x00\n        /* \"#utility.yul\":3939:4027   */\n      mstore\n        /* \"#utility.yul\":4046:4050   */\n      0x11\n        /* \"#utility.yul\":4043:4044   */\n      0x04\n        /* \"#utility.yul\":4036:4051   */\n      mstore\n        /* \"#utility.yul\":4070:4074   */\n      0x24\n        /* \"#utility.yul\":4067:4068   */\n      0x00\n        /* \"#utility.yul\":4060:4075   */\n      revert\n        /* \"#utility.yul\":4087:4497   */\n    tag_23:\n        /* \"#utility.yul\":4127:4134   */\n      0x00\n        /* \"#utility.yul\":4150:4170   */\n      tag_78\n        /* \"#utility.yul\":4168:4169   */\n      dup3\n        /* \"#utility.yul\":4150:4170   */\n      tag_32\n      jump\t// in\n    tag_78:\n        /* \"#utility.yul\":4145:4170   */\n      swap2\n      pop\n        /* \"#utility.yul\":4184:4204   */\n      tag_79\n        /* \"#utility.yul\":4202:4203   */\n      dup4\n        /* \"#utility.yul\":4184:4204   */\n      tag_32\n      jump\t// in\n    tag_79:\n        /* \"#utility.yul\":4179:4204   */\n      swap3\n      pop\n        /* \"#utility.yul\":4239:4240   */\n      dup3\n        /* \"#utility.yul\":4236:4237   */\n      dup3\n        /* \"#utility.yul\":4232:4241   */\n      mul\n        /* \"#utility.yul\":4261:4291   */\n      tag_80\n        /* \"#utility.yul\":4279:4290   */\n      dup2\n        /* \"#utility.yul\":4261:4291   */\n      tag_32\n      jump\t// in\n    tag_80:\n        /* \"#utility.yul\":4250:4291   */\n      swap2\n      pop\n        /* \"#utility.yul\":4440:4441   */\n      dup3\n        /* \"#utility.yul\":4431:4438   */\n      dup3\n        /* \"#utility.yul\":4427:4442   */\n      div\n        /* \"#utility.yul\":4424:4425   */\n      dup5\n        /* \"#utility.yul\":4421:4443   */\n      eq\n        /* \"#utility.yul\":4401:4402   */\n      dup4\n        /* \"#utility.yul\":4394:4403   */\n      iszero\n        /* \"#utility.yul\":4374:4457   */\n      or\n        /* \"#utility.yul\":4351:4490   */\n      tag_81\n      jumpi\n        /* \"#utility.yul\":4470:4488   */\n      tag_82\n      tag_41\n      jump\t// in\n    tag_82:\n        /* \"#utility.yul\":4351:4490   */\n    tag_81:\n        /* \"#utility.yul\":4135:4497   */\n      pop\n        /* \"#utility.yul\":4087:4497   */\n      swap3\n      swap2\n      pop\n      pop\n      jump\t// out\n        /* \"#utility.yul\":4503:4683   */\n    tag_42:\n        /* \"#utility.yul\":4551:4628   */\n      0x4e487b7100000000000000000000000000000000000000000000000000000000\n        /* \"#utility.yul\":4548:4549   */\n      0x00\n        /* \"#utility.yul\":4541:4629   */\n      mstore\n        /* \"#utility.yul\":4648:4652   */\n      0x12\n        /* \"#utility.yul\":4645:4646   */\n      0x04\n        /* \"#utility.yul\":4638:4653   */\n      mstore\n        /* \"#utility.yul\":4672:4676   */\n      0x24\n        /* \"#utility.yul\":4669:4670   */\n      0x00\n        /* \"#utility.yul\":4662:4677   */\n      revert\n        /* \"#utility.yul\":4689:4874   */\n    tag_26:\n        /* \"#utility.yul\":4729:4730   */\n      0x00\n        /* \"#utility.yul\":4746:4766   */\n      tag_85\n        /* \"#utility.yul\":4764:4765   */\n      dup3\n        /* \"#utility.yul\":4746:4766   */\n      tag_32\n      jump\t// in\n    tag_85:\n        /* \"#utility.yul\":4741:4766   */\n      swap2\n      pop\n        /* \"#utility.yul\":4780:4800   */\n      tag_86\n        /* \"#utility.yul\":4798:4799   */\n      dup4\n        /* \"#utility.yul\":4780:4800   */\n      tag_32\n      jump\t// in\n    tag_86:\n        /* \"#utility.yul\":4775:4800   */\n      swap3\n      pop\n        /* \"#utility.yul\":4819:4820   */\n      dup3\n        /* \"#utility.yul\":4809:4844   */\n      tag_87\n      jumpi\n        /* \"#utility.yul\":4824:4842   */\n      tag_88\n      tag_42\n      jump\t// in\n    tag_88:\n        /* \"#utility.yul\":4809:4844   */\n    tag_87:\n        /* \"#utility.yul\":4866:4867   */\n      dup3\n        /* \"#utility.yul\":4863:4864   */\n      dup3\n        /* \"#utility.yul\":4859:4868   */\n      div\n        /* \"#utility.yul\":4854:4868   */\n      swap1\n      pop\n        /* \"#utility.yul\":4689:4874   */\n      swap3\n      swap2\n      pop\n      pop\n      jump\t// out\n        /* \"#utility.yul\":4880:5071   */\n    tag_28:\n        /* \"#utility.yul\":4920:4923   */\n      0x00\n        /* \"#utility.yul\":4939:4959   */\n      tag_90\n        /* \"#utility.yul\":4957:4958   */\n      dup3\n        /* \"#utility.yul\":4939:4959   */\n      tag_32\n      jump\t// in\n    tag_90:\n        /* \"#utility.yul\":4934:4959   */\n      swap2\n      pop\n        /* \"#utility.yul\":4973:4993   */\n      tag_91\n        /* \"#utility.yul\":4991:4992   */\n      dup4\n        /* \"#utility.yul\":4973:4993   */\n      tag_32\n      jump\t// in\n    tag_91:\n        /* \"#utility.yul\":4968:4993   */\n      swap3\n      pop\n        /* \"#utility.yul\":5016:5017   */\n      dup3\n        /* \"#utility.yul\":5013:5014   */\n      dup3\n        /* \"#utility.yul\":5009:5018   */\n      add\n        /* \"#utility.yul\":5002:5018   */\n      swap1\n      pop\n        /* \"#utility.yul\":5037:5040   */\n      dup1\n        /* \"#utility.yul\":5034:5035   */\n      dup3\n        /* \"#utility.yul\":5031:5041   */\n      gt\n        /* \"#utility.yul\":5028:5064   */\n      iszero\n      tag_92\n      jumpi\n        /* \"#utility.yul\":5044:5062   */\n      tag_93\n      tag_41\n      jump\t// in\n    tag_93:\n        /* \"#utility.yul\":5028:5064   */\n    tag_92:\n        /* \"#utility.yul\":4880:5071   */\n      swap3\n      swap2\n      pop\n      pop\n      jump\t// out\n\n    auxdata: 0xa2646970667358221220c1bfecf09710892768d7700baa6c128eddc813f3b4cd00f6fd26d3cf3b27e9dc64736f6c634300081c0033\n}\n",
				"bytecode": {
					"linkReferences": {},
					"object": "6080604052348015600e575f5ffd5b5061046b8061001c5f395ff3fe608060405234801561000f575f5ffd5b5060043610610034575f3560e01c80632c499d0c146100385780632ddbd13a14610068575b5f5ffd5b610052600480360381019061004d9190610193565b610086565b60405161005f91906101f2565b60405180910390f35b610070610157565b60405161007d91906101f2565b60405180910390f35b5f5f8310806100955750606483115b156100d5576040517fe1788b8f0000000000000000000000000000000000000000000000000000000081526004016100cc9061028b565b60405180910390fd5b6001821015610119576040517fe3341e5200000000000000000000000000000000000000000000000000000000815260040161011090610319565b60405180910390fd5b60648284866101289190610364565b6101329190610364565b61013c91906103d2565b846101479190610402565b5f819055505f5490509392505050565b5f5481565b5f5ffd5b5f819050919050565b61017281610160565b811461017c575f5ffd5b50565b5f8135905061018d81610169565b92915050565b5f5f5f606084860312156101aa576101a961015c565b5b5f6101b78682870161017f565b93505060206101c88682870161017f565b92505060406101d98682870161017f565b9150509250925092565b6101ec81610160565b82525050565b5f6020820190506102055f8301846101e3565b92915050565b5f82825260208201905092915050565b7f496e74657265737420726174652073686f756c64206265206265747765656e205f8201527f3020616e64203130300000000000000000000000000000000000000000000000602082015250565b5f61027560298361020b565b91506102808261021b565b604082019050919050565b5f6020820190508181035f8301526102a281610269565b9050919050565b7f4c6f616e20706572696f642073686f756c64206265206f6e652079656172206d5f8201527f696e696d756d0000000000000000000000000000000000000000000000000000602082015250565b5f61030360268361020b565b915061030e826102a9565b604082019050919050565b5f6020820190508181035f830152610330816102f7565b9050919050565b7f4e487b71000000000000000000000000000000000000000000000000000000005f52601160045260245ffd5b5f61036e82610160565b915061037983610160565b925082820261038781610160565b9150828204841483151761039e5761039d610337565b5b5092915050565b7f4e487b71000000000000000000000000000000000000000000000000000000005f52601260045260245ffd5b5f6103dc82610160565b91506103e783610160565b9250826103f7576103f66103a5565b5b828204905092915050565b5f61040c82610160565b915061041783610160565b925082820190508082111561042f5761042e610337565b5b9291505056fea2646970667358221220c1bfecf09710892768d7700baa6c128eddc813f3b4cd00f6fd26d3cf3b27e9dc64736f6c634300081c0033",
					"opcodes": "PUSH1 0x80 PUSH1 0x40 MSTORE CALLVALUE DUP1 ISZERO PUSH1 0xE JUMPI PUSH0 PUSH0 REVERT JUMPDEST POP PUSH2 0x46B DUP1 PUSH2 0x1C PUSH0 CODECOPY PUSH0 RETURN INVALID PUSH1 0x80 PUSH1 0x40 MSTORE CALLVALUE DUP1 ISZERO PUSH2 0xF JUMPI PUSH0 PUSH0 REVERT JUMPDEST POP PUSH1 0x4 CALLDATASIZE LT PUSH2 0x34 JUMPI PUSH0 CALLDATALOAD PUSH1 0xE0 SHR DUP1 PUSH4 0x2C499D0C EQ PUSH2 0x38 JUMPI DUP1 PUSH4 0x2DDBD13A EQ PUSH2 0x68 JUMPI JUMPDEST PUSH0 PUSH0 REVERT JUMPDEST PUSH2 0x52 PUSH1 0x4 DUP1 CALLDATASIZE SUB DUP2 ADD SWAP1 PUSH2 0x4D SWAP2 SWAP1 PUSH2 0x193 JUMP JUMPDEST PUSH2 0x86 JUMP JUMPDEST PUSH1 0x40 MLOAD PUSH2 0x5F SWAP2 SWAP1 PUSH2 0x1F2 JUMP JUMPDEST PUSH1 0x40 MLOAD DUP1 SWAP2 SUB SWAP1 RETURN JUMPDEST PUSH2 0x70 PUSH2 0x157 JUMP JUMPDEST PUSH1 0x40 MLOAD PUSH2 0x7D SWAP2 SWAP1 PUSH2 0x1F2 JUMP JUMPDEST PUSH1 0x40 MLOAD DUP1 SWAP2 SUB SWAP1 RETURN JUMPDEST PUSH0 PUSH0 DUP4 LT DUP1 PUSH2 0x95 JUMPI POP PUSH1 0x64 DUP4 GT JUMPDEST ISZERO PUSH2 0xD5 JUMPI PUSH1 0x40 MLOAD PUSH32 0xE1788B8F00000000000000000000000000000000000000000000000000000000 DUP2 MSTORE PUSH1 0x4 ADD PUSH2 0xCC SWAP1 PUSH2 0x28B JUMP JUMPDEST PUSH1 0x40 MLOAD DUP1 SWAP2 SUB SWAP1 REVERT JUMPDEST PUSH1 0x1 DUP3 LT ISZERO PUSH2 0x119 JUMPI PUSH1 0x40 MLOAD PUSH32 0xE3341E5200000000000000000000000000000000000000000000000000000000 DUP2 MSTORE PUSH1 0x4 ADD PUSH2 0x110 SWAP1 PUSH2 0x319 JUMP JUMPDEST PUSH1 0x40 MLOAD DUP1 SWAP2 SUB SWAP1 REVERT JUMPDEST PUSH1 0x64 DUP3 DUP5 DUP7 PUSH2 0x128 SWAP2 SWAP1 PUSH2 0x364 JUMP JUMPDEST PUSH2 0x132 SWAP2 SWAP1 PUSH2 0x364 JUMP JUMPDEST PUSH2 0x13C SWAP2 SWAP1 PUSH2 0x3D2 JUMP JUMPDEST DUP5 PUSH2 0x147 SWAP2 SWAP1 PUSH2 0x402 JUMP JUMPDEST PUSH0 DUP2 SWAP1 SSTORE POP PUSH0 SLOAD SWAP1 POP SWAP4 SWAP3 POP POP POP JUMP JUMPDEST PUSH0 SLOAD DUP2 JUMP JUMPDEST PUSH0 PUSH0 REVERT JUMPDEST PUSH0 DUP2 SWAP1 POP SWAP2 SWAP1 POP JUMP JUMPDEST PUSH2 0x172 DUP2 PUSH2 0x160 JUMP JUMPDEST DUP2 EQ PUSH2 0x17C JUMPI PUSH0 PUSH0 REVERT JUMPDEST POP JUMP JUMPDEST PUSH0 DUP2 CALLDATALOAD SWAP1 POP PUSH2 0x18D DUP2 PUSH2 0x169 JUMP JUMPDEST SWAP3 SWAP2 POP POP JUMP JUMPDEST PUSH0 PUSH0 PUSH0 PUSH1 0x60 DUP5 DUP7 SUB SLT ISZERO PUSH2 0x1AA JUMPI PUSH2 0x1A9 PUSH2 0x15C JUMP JUMPDEST JUMPDEST PUSH0 PUSH2 0x1B7 DUP7 DUP3 DUP8 ADD PUSH2 0x17F JUMP JUMPDEST SWAP4 POP POP PUSH1 0x20 PUSH2 0x1C8 DUP7 DUP3 DUP8 ADD PUSH2 0x17F JUMP JUMPDEST SWAP3 POP POP PUSH1 0x40 PUSH2 0x1D9 DUP7 DUP3 DUP8 ADD PUSH2 0x17F JUMP JUMPDEST SWAP2 POP POP SWAP3 POP SWAP3 POP SWAP3 JUMP JUMPDEST PUSH2 0x1EC DUP2 PUSH2 0x160 JUMP JUMPDEST DUP3 MSTORE POP POP JUMP JUMPDEST PUSH0 PUSH1 0x20 DUP3 ADD SWAP1 POP PUSH2 0x205 PUSH0 DUP4 ADD DUP5 PUSH2 0x1E3 JUMP JUMPDEST SWAP3 SWAP2 POP POP JUMP JUMPDEST PUSH0 DUP3 DUP3 MSTORE PUSH1 0x20 DUP3 ADD SWAP1 POP SWAP3 SWAP2 POP POP JUMP JUMPDEST PUSH32 0x496E74657265737420726174652073686F756C64206265206265747765656E20 PUSH0 DUP3 ADD MSTORE PUSH32 0x3020616E64203130300000000000000000000000000000000000000000000000 PUSH1 0x20 DUP3 ADD MSTORE POP JUMP JUMPDEST PUSH0 PUSH2 0x275 PUSH1 0x29 DUP4 PUSH2 0x20B JUMP JUMPDEST SWAP2 POP PUSH2 0x280 DUP3 PUSH2 0x21B JUMP JUMPDEST PUSH1 0x40 DUP3 ADD SWAP1 POP SWAP2 SWAP1 POP JUMP JUMPDEST PUSH0 PUSH1 0x20 DUP3 ADD SWAP1 POP DUP2 DUP2 SUB PUSH0 DUP4 ADD MSTORE PUSH2 0x2A2 DUP2 PUSH2 0x269 JUMP JUMPDEST SWAP1 POP SWAP2 SWAP1 POP JUMP JUMPDEST PUSH32 0x4C6F616E20706572696F642073686F756C64206265206F6E652079656172206D PUSH0 DUP3 ADD MSTORE PUSH32 0x696E696D756D0000000000000000000000000000000000000000000000000000 PUSH1 0x20 DUP3 ADD MSTORE POP JUMP JUMPDEST PUSH0 PUSH2 0x303 PUSH1 0x26 DUP4 PUSH2 0x20B JUMP JUMPDEST SWAP2 POP PUSH2 0x30E DUP3 PUSH2 0x2A9 JUMP JUMPDEST PUSH1 0x40 DUP3 ADD SWAP1 POP SWAP2 SWAP1 POP JUMP JUMPDEST PUSH0 PUSH1 0x20 DUP3 ADD SWAP1 POP DUP2 DUP2 SUB PUSH0 DUP4 ADD MSTORE PUSH2 0x330 DUP2 PUSH2 0x2F7 JUMP JUMPDEST SWAP1 POP SWAP2 SWAP1 POP JUMP JUMPDEST PUSH32 0x4E487B7100000000000000000000000000000000000000000000000000000000 PUSH0 MSTORE PUSH1 0x11 PUSH1 0x4 MSTORE PUSH1 0x24 PUSH0 REVERT JUMPDEST PUSH0 PUSH2 0x36E DUP3 PUSH2 0x160 JUMP JUMPDEST SWAP2 POP PUSH2 0x379 DUP4 PUSH2 0x160 JUMP JUMPDEST SWAP3 POP DUP3 DUP3 MUL PUSH2 0x387 DUP2 PUSH2 0x160 JUMP JUMPDEST SWAP2 POP DUP3 DUP3 DIV DUP5 EQ DUP4 ISZERO OR PUSH2 0x39E JUMPI PUSH2 0x39D PUSH2 0x337 JUMP JUMPDEST JUMPDEST POP SWAP3 SWAP2 POP POP JUMP JUMPDEST PUSH32 0x4E487B7100000000000000000000000000000000000000000000000000000000 PUSH0 MSTORE PUSH1 0x12 PUSH1 0x4 MSTORE PUSH1 0x24 PUSH0 REVERT JUMPDEST PUSH0 PUSH2 0x3DC DUP3 PUSH2 0x160 JUMP JUMPDEST SWAP2 POP PUSH2 0x3E7 DUP4 PUSH2 0x160 JUMP JUMPDEST SWAP3 POP DUP3 PUSH2 0x3F7 JUMPI PUSH2 0x3F6 PUSH2 0x3A5 JUMP JUMPDEST JUMPDEST DUP3 DUP3 DIV SWAP1 POP SWAP3 SWAP2 POP POP JUMP JUMPDEST PUSH0 PUSH2 0x40C DUP3 PUSH2 0x160 JUMP JUMPDEST SWAP2 POP PUSH2 0x417 DUP4 PUSH2 0x160 JUMP JUMPDEST SWAP3 POP DUP3 DUP3 ADD SWAP1 POP DUP1 DUP3 GT ISZERO PUSH2 0x42F JUMPI PUSH2 0x42E PUSH2 0x337 JUMP JUMPDEST JUMPDEST SWAP3 SWAP2 POP POP JUMP INVALID LOG2 PUSH5 0x6970667358 0x22 SLT KECCAK256 0xC1 0xBF 0xEC CREATE SWAP8 LT DUP10 0x27 PUSH9 0xD7700BAA6C128EDDC8 SGT RETURN 0xB4 0xCD STOP 0xF6 REVERT 0x26 0xD3 0xCF EXTCODESIZE 0x27 0xE9 0xDC PUSH5 0x736F6C6343 STOP ADDMOD SHR STOP CALLER "
				},
				"gasEstimates": {
					"creation": {
						"codeDepositCost": "226200",
						"executionCost": "267",
						"totalCost": "226467"
					},
					"external": {
						"calculateTotalPayable(uint256,uint256,uint256)": "infinite",
						"total()": "2424"
					}
				},
				"methodIdentifiers": {
					"calculateTotalPayable(uint256,uint256,uint256)": "2c499d0c",
					"total()": "2ddbd13a"
				}
			},
			"storageLayout": {
				"storage": [
					{
						"astId": 11,
						"contract": "LoanCalculator.sol:LoanCalculator",
						"label": "total",
						"offset": 0,
						"slot": "0",
						"type": "t_uint256"
					}
				],
				"types": {
					"t_uint256": {
						"encoding": "inplace",
						"label": "uint256",
						"numberOfBytes": "32"
					}
				}
			},
			"userdoc": {
				"kind": "user",
				"methods": {},
				"version": 1
			}
		}
	}
}