{
	"Libraries and Tools/CollectibleCard.sol": {
		"CollectibleCardLibrary": {
			"abi": [
				{
					"inputs": [],
					"name": "AlreadyExist",
					"type": "error"
				},
				{
					"inputs": [
						{
							"internalType": "uint256",
							"name": "id",
							"type": "uint256"
						},
						{
							"internalType": "uint256",
							"name": "power",
							"type": "uint256"
						},
						{
							"internalType": "string",
							"name": "name",
							"type": "string"
						}
					],
					"name": "addCard",
					"outputs": [],
					"stateMutability": "nonpayable",
					"type": "function"
				},
				{
					"inputs": [
						{
							"internalType": "address",
							"name": "",
							"type": "address"
						},
						{
							"internalType": "uint256",
							"name": "",
							"type": "uint256"
						}
					],
					"name": "collections",
					"outputs": [
						{
							"internalType": "uint256",
							"name": "id",
							"type": "uint256"
						},
						{
							"internalType": "uint256",
							"name": "power",
							"type": "uint256"
						},
						{
							"internalType": "string",
							"name": "name",
							"type": "string"
						}
					],
					"stateMutability": "view",
					"type": "function"
				}
			],
			"devdoc": {
				"kind": "dev",
				"methods": {},
				"version": 1
			},
			"evm": {
				"assembly": "    /* \"Libraries and Tools/CollectibleCard.sol\":504:972  contract CollectibleCardLibrary {... */\n  mstore(0x40, 0x80)\n  callvalue\n  dup1\n  iszero\n  tag_1\n  jumpi\n  revert(0x00, 0x00)\ntag_1:\n  pop\n  dataSize(sub_0)\n  dup1\n  dataOffset(sub_0)\n  0x00\n  codecopy\n  0x00\n  return\nstop\n\nsub_0: assembly {\n        /* \"Libraries and Tools/CollectibleCard.sol\":504:972  contract CollectibleCardLibrary {... */\n      mstore(0x40, 0x80)\n      callvalue\n      dup1\n      iszero\n      tag_1\n      jumpi\n      revert(0x00, 0x00)\n    tag_1:\n      pop\n      jumpi(tag_2, lt(calldatasize, 0x04))\n      shr(0xe0, calldataload(0x00))\n      dup1\n      0x49a764cd\n      eq\n      tag_3\n      jumpi\n      dup1\n      0xb503ef19\n      eq\n      tag_4\n      jumpi\n    tag_2:\n      revert(0x00, 0x00)\n        /* \"Libraries and Tools/CollectibleCard.sol\":578:623  mapping(address => Card[]) public collections */\n    tag_3:\n      tag_5\n      0x04\n      dup1\n      calldatasize\n      sub\n      dup2\n      add\n      swap1\n      tag_6\n      swap2\n      swap1\n      tag_7\n      jump\t// in\n    tag_6:\n      tag_8\n      jump\t// in\n    tag_5:\n      mload(0x40)\n      tag_9\n      swap4\n      swap3\n      swap2\n      swap1\n      tag_10\n      jump\t// in\n    tag_9:\n      mload(0x40)\n      dup1\n      swap2\n      sub\n      swap1\n      return\n        /* \"Libraries and Tools/CollectibleCard.sol\":657:970  function addCard(... */\n    tag_4:\n      tag_11\n      0x04\n      dup1\n      calldatasize\n      sub\n      dup2\n      add\n      swap1\n      tag_12\n      swap2\n      swap1\n      tag_13\n      jump\t// in\n    tag_12:\n      tag_14\n      jump\t// in\n    tag_11:\n      stop\n        /* \"Libraries and Tools/CollectibleCard.sol\":578:623  mapping(address => Card[]) public collections */\n    tag_8:\n      mstore(0x20, 0x00)\n      dup2\n      0x00\n      mstore\n      keccak256(0x00, 0x40)\n      dup2\n      dup2\n      sload\n      dup2\n      lt\n      tag_15\n      jumpi\n      0x00\n      dup1\n      revert\n    tag_15:\n      swap1\n      0x00\n      mstore\n      keccak256(0x00, 0x20)\n      swap1\n      0x03\n      mul\n      add\n      0x00\n      swap2\n      pop\n      swap2\n      pop\n      pop\n      dup1\n      0x00\n      add\n      sload\n      swap1\n      dup1\n      0x01\n      add\n      sload\n      swap1\n      dup1\n      0x02\n      add\n      dup1\n      sload\n      tag_17\n      swap1\n      tag_18\n      jump\t// in\n    tag_17:\n      dup1\n      0x1f\n      add\n      0x20\n      dup1\n      swap2\n      div\n      mul\n      0x20\n      add\n      mload(0x40)\n      swap1\n      dup2\n      add\n      0x40\n      mstore\n      dup1\n      swap3\n      swap2\n      swap1\n      dup2\n      dup2\n      mstore\n      0x20\n      add\n      dup3\n      dup1\n      sload\n      tag_19\n      swap1\n      tag_18\n      jump\t// in\n    tag_19:\n      dup1\n      iszero\n      tag_20\n      jumpi\n      dup1\n      0x1f\n      lt\n      tag_21\n      jumpi\n      0x0100\n      dup1\n      dup4\n      sload\n      div\n      mul\n      dup4\n      mstore\n      swap2\n      0x20\n      add\n      swap2\n      jump(tag_20)\n    tag_21:\n      dup3\n      add\n      swap2\n      swap1\n      0x00\n      mstore\n      keccak256(0x00, 0x20)\n      swap1\n    tag_22:\n      dup2\n      sload\n      dup2\n      mstore\n      swap1\n      0x01\n      add\n      swap1\n      0x20\n      add\n      dup1\n      dup4\n      gt\n      tag_22\n      jumpi\n      dup3\n      swap1\n      sub\n      0x1f\n      and\n      dup3\n      add\n      swap2\n    tag_20:\n      pop\n      pop\n      pop\n      pop\n      pop\n      swap1\n      pop\n      dup4\n      jump\t// out\n        /* \"Libraries and Tools/CollectibleCard.sol\":657:970  function addCard(... */\n    tag_14:\n        /* \"Libraries and Tools/CollectibleCard.sol\":776:810  collections[msg.sender].exists(id) */\n      tag_24\n        /* \"Libraries and Tools/CollectibleCard.sol\":807:809  id */\n      dup5\n        /* \"Libraries and Tools/CollectibleCard.sol\":776:787  collections */\n      0x00\n        /* \"Libraries and Tools/CollectibleCard.sol\":776:799  collections[msg.sender] */\n      0x00\n        /* \"Libraries and Tools/CollectibleCard.sol\":788:798  msg.sender */\n      caller\n        /* \"Libraries and Tools/CollectibleCard.sol\":776:799  collections[msg.sender] */\n      0xffffffffffffffffffffffffffffffffffffffff\n      and\n      0xffffffffffffffffffffffffffffffffffffffff\n      and\n      dup2\n      mstore\n      0x20\n      add\n      swap1\n      dup2\n      mstore\n      0x20\n      add\n      0x00\n      keccak256\n        /* \"Libraries and Tools/CollectibleCard.sol\":776:806  collections[msg.sender].exists */\n      dup1\n      sload\n      dup1\n      0x20\n      mul\n      0x20\n      add\n      mload(0x40)\n      swap1\n      dup2\n      add\n      0x40\n      mstore\n      dup1\n      swap3\n      swap2\n      swap1\n      dup2\n      dup2\n      mstore\n      0x20\n      add\n      0x00\n      swap1\n    tag_25:\n      dup3\n      dup3\n      lt\n      iszero\n      tag_26\n      jumpi\n      dup4\n      dup3\n      swap1\n      0x00\n      mstore\n      keccak256(0x00, 0x20)\n      swap1\n      0x03\n      mul\n      add\n      mload(0x40)\n      dup1\n      0x60\n      add\n      0x40\n      mstore\n      swap1\n      dup2\n      0x00\n      dup3\n      add\n      sload\n      dup2\n      mstore\n      0x20\n      add\n      0x01\n      dup3\n      add\n      sload\n      dup2\n      mstore\n      0x20\n      add\n      0x02\n      dup3\n      add\n      dup1\n      sload\n      tag_28\n      swap1\n      tag_18\n      jump\t// in\n    tag_28:\n      dup1\n      0x1f\n      add\n      0x20\n      dup1\n      swap2\n      div\n      mul\n      0x20\n      add\n      mload(0x40)\n      swap1\n      dup2\n      add\n      0x40\n      mstore\n      dup1\n      swap3\n      swap2\n      swap1\n      dup2\n      dup2\n      mstore\n      0x20\n      add\n      dup3\n      dup1\n      sload\n      tag_29\n      swap1\n      tag_18\n      jump\t// in\n    tag_29:\n      dup1\n      iszero\n      tag_30\n      jumpi\n      dup1\n      0x1f\n      lt\n      tag_31\n      jumpi\n      0x0100\n      dup1\n      dup4\n      sload\n      div\n      mul\n      dup4\n      mstore\n      swap2\n      0x20\n      add\n      swap2\n      jump(tag_30)\n    tag_31:\n      dup3\n      add\n      swap2\n      swap1\n      0x00\n      mstore\n      keccak256(0x00, 0x20)\n      swap1\n    tag_32:\n      dup2\n      sload\n      dup2\n      mstore\n      swap1\n      0x01\n      add\n      swap1\n      0x20\n      add\n      dup1\n      dup4\n      gt\n      tag_32\n      jumpi\n      dup3\n      swap1\n      sub\n      0x1f\n      and\n      dup3\n      add\n      swap2\n    tag_30:\n      pop\n      pop\n      pop\n      pop\n      pop\n      dup2\n      mstore\n      pop\n      pop\n      dup2\n      mstore\n      0x20\n      add\n      swap1\n      0x01\n      add\n      swap1\n      jump(tag_25)\n    tag_26:\n      pop\n      pop\n      pop\n      pop\n      tag_33\n      swap1\n        /* \"Libraries and Tools/CollectibleCard.sol\":776:810  collections[msg.sender].exists(id) */\n      swap2\n      swap1\n      0xffffffff\n      and\n      jump\t// in\n    tag_24:\n        /* \"Libraries and Tools/CollectibleCard.sol\":772:845  if (collections[msg.sender].exists(id)) {... */\n      iszero\n      tag_34\n      jumpi\n        /* \"Libraries and Tools/CollectibleCard.sol\":826:834  revert() */\n      revert(0x00, 0x00)\n        /* \"Libraries and Tools/CollectibleCard.sol\":772:845  if (collections[msg.sender].exists(id)) {... */\n    tag_34:\n        /* \"Libraries and Tools/CollectibleCard.sol\":854:873  Card memory newCard */\n      0x00\n        /* \"Libraries and Tools/CollectibleCard.sol\":876:916  Card({id: id, power: power, name: name}) */\n      mload(0x40)\n      dup1\n      0x60\n      add\n      0x40\n      mstore\n      dup1\n        /* \"Libraries and Tools/CollectibleCard.sol\":886:888  id */\n      dup7\n        /* \"Libraries and Tools/CollectibleCard.sol\":876:916  Card({id: id, power: power, name: name}) */\n      dup2\n      mstore\n      0x20\n      add\n        /* \"Libraries and Tools/CollectibleCard.sol\":897:902  power */\n      dup6\n        /* \"Libraries and Tools/CollectibleCard.sol\":876:916  Card({id: id, power: power, name: name}) */\n      dup2\n      mstore\n      0x20\n      add\n        /* \"Libraries and Tools/CollectibleCard.sol\":910:914  name */\n      dup5\n      dup5\n        /* \"Libraries and Tools/CollectibleCard.sol\":876:916  Card({id: id, power: power, name: name}) */\n      dup1\n      dup1\n      0x1f\n      add\n      0x20\n      dup1\n      swap2\n      div\n      mul\n      0x20\n      add\n      mload(0x40)\n      swap1\n      dup2\n      add\n      0x40\n      mstore\n      dup1\n      swap4\n      swap3\n      swap2\n      swap1\n      dup2\n      dup2\n      mstore\n      0x20\n      add\n      dup4\n      dup4\n      dup1\n      dup3\n      dup5\n      calldatacopy\n      0x00\n      dup2\n      dup5\n      add\n      mstore\n      not(0x1f)\n      0x1f\n      dup3\n      add\n      and\n      swap1\n      pop\n      dup1\n      dup4\n      add\n      swap3\n      pop\n      pop\n      pop\n      pop\n      pop\n      pop\n      pop\n      dup2\n      mstore\n      pop\n        /* \"Libraries and Tools/CollectibleCard.sol\":854:916  Card memory newCard = Card({id: id, power: power, name: name}) */\n      swap1\n      pop\n        /* \"Libraries and Tools/CollectibleCard.sol\":926:937  collections */\n      0x00\n        /* \"Libraries and Tools/CollectibleCard.sol\":926:949  collections[msg.sender] */\n      0x00\n        /* \"Libraries and Tools/CollectibleCard.sol\":938:948  msg.sender */\n      caller\n        /* \"Libraries and Tools/CollectibleCard.sol\":926:949  collections[msg.sender] */\n      0xffffffffffffffffffffffffffffffffffffffff\n      and\n      0xffffffffffffffffffffffffffffffffffffffff\n      and\n      dup2\n      mstore\n      0x20\n      add\n      swap1\n      dup2\n      mstore\n      0x20\n      add\n      0x00\n      keccak256\n        /* \"Libraries and Tools/CollectibleCard.sol\":955:962  newCard */\n      dup2\n        /* \"Libraries and Tools/CollectibleCard.sol\":926:963  collections[msg.sender].push(newCard) */\n      swap1\n      dup1\n      0x01\n      dup2\n      sload\n      add\n      dup1\n      dup3\n      sstore\n      dup1\n      swap2\n      pop\n      pop\n      0x01\n      swap1\n      sub\n      swap1\n      0x00\n      mstore\n      keccak256(0x00, 0x20)\n      swap1\n      0x03\n      mul\n      add\n      0x00\n      swap1\n      swap2\n      swap1\n      swap2\n      swap1\n      swap2\n      pop\n      0x00\n      dup3\n      add\n      mload\n      dup2\n      0x00\n      add\n      sstore\n      0x20\n      dup3\n      add\n      mload\n      dup2\n      0x01\n      add\n      sstore\n      0x40\n      dup3\n      add\n      mload\n      dup2\n      0x02\n      add\n      swap1\n      dup2\n      tag_36\n      swap2\n      swap1\n      tag_37\n      jump\t// in\n    tag_36:\n      pop\n      pop\n      pop\n        /* \"Libraries and Tools/CollectibleCard.sol\":762:970  {... */\n      pop\n        /* \"Libraries and Tools/CollectibleCard.sol\":657:970  function addCard(... */\n      pop\n      pop\n      pop\n      pop\n      jump\t// out\n        /* \"Libraries and Tools/CollectibleCard.sol\":154:500  function exists(Card[] memory cards, uint256 id)... */\n    tag_33:\n        /* \"Libraries and Tools/CollectibleCard.sol\":250:264  bool doesExist */\n      0x00\n        /* \"Libraries and Tools/CollectibleCard.sol\":280:299  uint256 cardsLength */\n      0x00\n        /* \"Libraries and Tools/CollectibleCard.sol\":302:307  cards */\n      dup4\n        /* \"Libraries and Tools/CollectibleCard.sol\":302:314  cards.length */\n      mload\n        /* \"Libraries and Tools/CollectibleCard.sol\":280:314  uint256 cardsLength = cards.length */\n      swap1\n      pop\n        /* \"Libraries and Tools/CollectibleCard.sol\":345:350  10000 */\n      0x2710\n        /* \"Libraries and Tools/CollectibleCard.sol\":331:342  cardsLength */\n      dup2\n        /* \"Libraries and Tools/CollectibleCard.sol\":331:350  cardsLength < 10000 */\n      lt\n        /* \"Libraries and Tools/CollectibleCard.sol\":324:351  assert(cardsLength < 10000) */\n      tag_39\n      jumpi\n      tag_40\n      tag_41\n      jump\t// in\n    tag_40:\n    tag_39:\n        /* \"Libraries and Tools/CollectibleCard.sol\":366:375  uint256 i */\n      0x00\n        /* \"Libraries and Tools/CollectibleCard.sol\":378:379  0 */\n      0x00\n        /* \"Libraries and Tools/CollectibleCard.sol\":366:379  uint256 i = 0 */\n      swap1\n      pop\n        /* \"Libraries and Tools/CollectibleCard.sol\":361:494  for (uint256 i = 0; i < cardsLength; i++) {... */\n    tag_42:\n        /* \"Libraries and Tools/CollectibleCard.sol\":385:396  cardsLength */\n      dup2\n        /* \"Libraries and Tools/CollectibleCard.sol\":381:382  i */\n      dup2\n        /* \"Libraries and Tools/CollectibleCard.sol\":381:396  i < cardsLength */\n      lt\n        /* \"Libraries and Tools/CollectibleCard.sol\":361:494  for (uint256 i = 0; i < cardsLength; i++) {... */\n      iszero\n      tag_43\n      jumpi\n        /* \"Libraries and Tools/CollectibleCard.sol\":436:438  id */\n      dup4\n        /* \"Libraries and Tools/CollectibleCard.sol\":421:426  cards */\n      dup6\n        /* \"Libraries and Tools/CollectibleCard.sol\":427:428  i */\n      dup3\n        /* \"Libraries and Tools/CollectibleCard.sol\":421:429  cards[i] */\n      dup2\n      mload\n      dup2\n      lt\n      tag_45\n      jumpi\n      tag_46\n      tag_47\n      jump\t// in\n    tag_46:\n    tag_45:\n      0x20\n      mul\n      0x20\n      add\n      add\n      mload\n        /* \"Libraries and Tools/CollectibleCard.sol\":421:432  cards[i].id */\n      0x00\n      add\n      mload\n        /* \"Libraries and Tools/CollectibleCard.sol\":421:438  cards[i].id == id */\n      sub\n        /* \"Libraries and Tools/CollectibleCard.sol\":417:484  if (cards[i].id == id) {... */\n      tag_48\n      jumpi\n        /* \"Libraries and Tools/CollectibleCard.sol\":465:469  true */\n      0x01\n        /* \"Libraries and Tools/CollectibleCard.sol\":458:469  return true */\n      swap3\n      pop\n      pop\n      pop\n      jump(tag_38)\n        /* \"Libraries and Tools/CollectibleCard.sol\":417:484  if (cards[i].id == id) {... */\n    tag_48:\n        /* \"Libraries and Tools/CollectibleCard.sol\":398:401  i++ */\n      dup1\n      dup1\n      0x01\n      add\n      swap2\n      pop\n      pop\n        /* \"Libraries and Tools/CollectibleCard.sol\":361:494  for (uint256 i = 0; i < cardsLength; i++) {... */\n      jump(tag_42)\n    tag_43:\n      pop\n        /* \"Libraries and Tools/CollectibleCard.sol\":270:500  {... */\n      pop\n        /* \"Libraries and Tools/CollectibleCard.sol\":154:500  function exists(Card[] memory cards, uint256 id)... */\n    tag_38:\n      swap3\n      swap2\n      pop\n      pop\n      jump\t// out\n        /* \"#utility.yul\":88:205   */\n    tag_50:\n        /* \"#utility.yul\":197:198   */\n      0x00\n        /* \"#utility.yul\":194:195   */\n      0x00\n        /* \"#utility.yul\":187:199   */\n      revert\n        /* \"#utility.yul\":211:328   */\n    tag_51:\n        /* \"#utility.yul\":320:321   */\n      0x00\n        /* \"#utility.yul\":317:318   */\n      0x00\n        /* \"#utility.yul\":310:322   */\n      revert\n        /* \"#utility.yul\":334:460   */\n    tag_52:\n        /* \"#utility.yul\":371:378   */\n      0x00\n        /* \"#utility.yul\":411:453   */\n      0xffffffffffffffffffffffffffffffffffffffff\n        /* \"#utility.yul\":404:409   */\n      dup3\n        /* \"#utility.yul\":400:454   */\n      and\n        /* \"#utility.yul\":389:454   */\n      swap1\n      pop\n        /* \"#utility.yul\":334:460   */\n      swap2\n      swap1\n      pop\n      jump\t// out\n        /* \"#utility.yul\":466:562   */\n    tag_53:\n        /* \"#utility.yul\":503:510   */\n      0x00\n        /* \"#utility.yul\":532:556   */\n      tag_92\n        /* \"#utility.yul\":550:555   */\n      dup3\n        /* \"#utility.yul\":532:556   */\n      tag_52\n      jump\t// in\n    tag_92:\n        /* \"#utility.yul\":521:556   */\n      swap1\n      pop\n        /* \"#utility.yul\":466:562   */\n      swap2\n      swap1\n      pop\n      jump\t// out\n        /* \"#utility.yul\":568:690   */\n    tag_54:\n        /* \"#utility.yul\":641:665   */\n      tag_94\n        /* \"#utility.yul\":659:664   */\n      dup2\n        /* \"#utility.yul\":641:665   */\n      tag_53\n      jump\t// in\n    tag_94:\n        /* \"#utility.yul\":634:639   */\n      dup2\n        /* \"#utility.yul\":631:666   */\n      eq\n        /* \"#utility.yul\":621:684   */\n      tag_95\n      jumpi\n        /* \"#utility.yul\":680:681   */\n      0x00\n        /* \"#utility.yul\":677:678   */\n      0x00\n        /* \"#utility.yul\":670:682   */\n      revert\n        /* \"#utility.yul\":621:684   */\n    tag_95:\n        /* \"#utility.yul\":568:690   */\n      pop\n      jump\t// out\n        /* \"#utility.yul\":696:835   */\n    tag_55:\n        /* \"#utility.yul\":742:747   */\n      0x00\n        /* \"#utility.yul\":780:786   */\n      dup2\n        /* \"#utility.yul\":767:787   */\n      calldataload\n        /* \"#utility.yul\":758:787   */\n      swap1\n      pop\n        /* \"#utility.yul\":796:829   */\n      tag_97\n        /* \"#utility.yul\":823:828   */\n      dup2\n        /* \"#utility.yul\":796:829   */\n      tag_54\n      jump\t// in\n    tag_97:\n        /* \"#utility.yul\":696:835   */\n      swap3\n      swap2\n      pop\n      pop\n      jump\t// out\n        /* \"#utility.yul\":841:918   */\n    tag_56:\n        /* \"#utility.yul\":878:885   */\n      0x00\n        /* \"#utility.yul\":907:912   */\n      dup2\n        /* \"#utility.yul\":896:912   */\n      swap1\n      pop\n        /* \"#utility.yul\":841:918   */\n      swap2\n      swap1\n      pop\n      jump\t// out\n        /* \"#utility.yul\":924:1046   */\n    tag_57:\n        /* \"#utility.yul\":997:1021   */\n      tag_100\n        /* \"#utility.yul\":1015:1020   */\n      dup2\n        /* \"#utility.yul\":997:1021   */\n      tag_56\n      jump\t// in\n    tag_100:\n        /* \"#utility.yul\":990:995   */\n      dup2\n        /* \"#utility.yul\":987:1022   */\n      eq\n        /* \"#utility.yul\":977:1040   */\n      tag_101\n      jumpi\n        /* \"#utility.yul\":1036:1037   */\n      0x00\n        /* \"#utility.yul\":1033:1034   */\n      0x00\n        /* \"#utility.yul\":1026:1038   */\n      revert\n        /* \"#utility.yul\":977:1040   */\n    tag_101:\n        /* \"#utility.yul\":924:1046   */\n      pop\n      jump\t// out\n        /* \"#utility.yul\":1052:1191   */\n    tag_58:\n        /* \"#utility.yul\":1098:1103   */\n      0x00\n        /* \"#utility.yul\":1136:1142   */\n      dup2\n        /* \"#utility.yul\":1123:1143   */\n      calldataload\n        /* \"#utility.yul\":1114:1143   */\n      swap1\n      pop\n        /* \"#utility.yul\":1152:1185   */\n      tag_103\n        /* \"#utility.yul\":1179:1184   */\n      dup2\n        /* \"#utility.yul\":1152:1185   */\n      tag_57\n      jump\t// in\n    tag_103:\n        /* \"#utility.yul\":1052:1191   */\n      swap3\n      swap2\n      pop\n      pop\n      jump\t// out\n        /* \"#utility.yul\":1197:1671   */\n    tag_7:\n        /* \"#utility.yul\":1265:1271   */\n      0x00\n        /* \"#utility.yul\":1273:1279   */\n      0x00\n        /* \"#utility.yul\":1322:1324   */\n      0x40\n        /* \"#utility.yul\":1310:1319   */\n      dup4\n        /* \"#utility.yul\":1301:1308   */\n      dup6\n        /* \"#utility.yul\":1297:1320   */\n      sub\n        /* \"#utility.yul\":1293:1325   */\n      slt\n        /* \"#utility.yul\":1290:1409   */\n      iszero\n      tag_105\n      jumpi\n        /* \"#utility.yul\":1328:1407   */\n      tag_106\n      tag_50\n      jump\t// in\n    tag_106:\n        /* \"#utility.yul\":1290:1409   */\n    tag_105:\n        /* \"#utility.yul\":1448:1449   */\n      0x00\n        /* \"#utility.yul\":1473:1526   */\n      tag_107\n        /* \"#utility.yul\":1518:1525   */\n      dup6\n        /* \"#utility.yul\":1509:1515   */\n      dup3\n        /* \"#utility.yul\":1498:1507   */\n      dup7\n        /* \"#utility.yul\":1494:1516   */\n      add\n        /* \"#utility.yul\":1473:1526   */\n      tag_55\n      jump\t// in\n    tag_107:\n        /* \"#utility.yul\":1463:1526   */\n      swap3\n      pop\n        /* \"#utility.yul\":1419:1536   */\n      pop\n        /* \"#utility.yul\":1575:1577   */\n      0x20\n        /* \"#utility.yul\":1601:1654   */\n      tag_108\n        /* \"#utility.yul\":1646:1653   */\n      dup6\n        /* \"#utility.yul\":1637:1643   */\n      dup3\n        /* \"#utility.yul\":1626:1635   */\n      dup7\n        /* \"#utility.yul\":1622:1644   */\n      add\n        /* \"#utility.yul\":1601:1654   */\n      tag_58\n      jump\t// in\n    tag_108:\n        /* \"#utility.yul\":1591:1654   */\n      swap2\n      pop\n        /* \"#utility.yul\":1546:1664   */\n      pop\n        /* \"#utility.yul\":1197:1671   */\n      swap3\n      pop\n      swap3\n      swap1\n      pop\n      jump\t// out\n        /* \"#utility.yul\":1677:1795   */\n    tag_59:\n        /* \"#utility.yul\":1764:1788   */\n      tag_110\n        /* \"#utility.yul\":1782:1787   */\n      dup2\n        /* \"#utility.yul\":1764:1788   */\n      tag_56\n      jump\t// in\n    tag_110:\n        /* \"#utility.yul\":1759:1762   */\n      dup3\n        /* \"#utility.yul\":1752:1789   */\n      mstore\n        /* \"#utility.yul\":1677:1795   */\n      pop\n      pop\n      jump\t// out\n        /* \"#utility.yul\":1801:1900   */\n    tag_60:\n        /* \"#utility.yul\":1853:1859   */\n      0x00\n        /* \"#utility.yul\":1887:1892   */\n      dup2\n        /* \"#utility.yul\":1881:1893   */\n      mload\n        /* \"#utility.yul\":1871:1893   */\n      swap1\n      pop\n        /* \"#utility.yul\":1801:1900   */\n      swap2\n      swap1\n      pop\n      jump\t// out\n        /* \"#utility.yul\":1906:2075   */\n    tag_61:\n        /* \"#utility.yul\":1990:2001   */\n      0x00\n        /* \"#utility.yul\":2024:2030   */\n      dup3\n        /* \"#utility.yul\":2019:2022   */\n      dup3\n        /* \"#utility.yul\":2012:2031   */\n      mstore\n        /* \"#utility.yul\":2064:2068   */\n      0x20\n        /* \"#utility.yul\":2059:2062   */\n      dup3\n        /* \"#utility.yul\":2055:2069   */\n      add\n        /* \"#utility.yul\":2040:2069   */\n      swap1\n      pop\n        /* \"#utility.yul\":1906:2075   */\n      swap3\n      swap2\n      pop\n      pop\n      jump\t// out\n        /* \"#utility.yul\":2081:2220   */\n    tag_62:\n        /* \"#utility.yul\":2170:2176   */\n      dup3\n        /* \"#utility.yul\":2165:2168   */\n      dup2\n        /* \"#utility.yul\":2160:2163   */\n      dup4\n        /* \"#utility.yul\":2154:2177   */\n      mcopy\n        /* \"#utility.yul\":2211:2212   */\n      0x00\n        /* \"#utility.yul\":2202:2208   */\n      dup4\n        /* \"#utility.yul\":2197:2200   */\n      dup4\n        /* \"#utility.yul\":2193:2209   */\n      add\n        /* \"#utility.yul\":2186:2213   */\n      mstore\n        /* \"#utility.yul\":2081:2220   */\n      pop\n      pop\n      pop\n      jump\t// out\n        /* \"#utility.yul\":2226:2328   */\n    tag_63:\n        /* \"#utility.yul\":2267:2273   */\n      0x00\n        /* \"#utility.yul\":2318:2320   */\n      0x1f\n        /* \"#utility.yul\":2314:2321   */\n      not\n        /* \"#utility.yul\":2309:2311   */\n      0x1f\n        /* \"#utility.yul\":2302:2307   */\n      dup4\n        /* \"#utility.yul\":2298:2312   */\n      add\n        /* \"#utility.yul\":2294:2322   */\n      and\n        /* \"#utility.yul\":2284:2322   */\n      swap1\n      pop\n        /* \"#utility.yul\":2226:2328   */\n      swap2\n      swap1\n      pop\n      jump\t// out\n        /* \"#utility.yul\":2334:2711   */\n    tag_64:\n        /* \"#utility.yul\":2422:2425   */\n      0x00\n        /* \"#utility.yul\":2450:2489   */\n      tag_116\n        /* \"#utility.yul\":2483:2488   */\n      dup3\n        /* \"#utility.yul\":2450:2489   */\n      tag_60\n      jump\t// in\n    tag_116:\n        /* \"#utility.yul\":2505:2576   */\n      tag_117\n        /* \"#utility.yul\":2569:2575   */\n      dup2\n        /* \"#utility.yul\":2564:2567   */\n      dup6\n        /* \"#utility.yul\":2505:2576   */\n      tag_61\n      jump\t// in\n    tag_117:\n        /* \"#utility.yul\":2498:2576   */\n      swap4\n      pop\n        /* \"#utility.yul\":2585:2650   */\n      tag_118\n        /* \"#utility.yul\":2643:2649   */\n      dup2\n        /* \"#utility.yul\":2638:2641   */\n      dup6\n        /* \"#utility.yul\":2631:2635   */\n      0x20\n        /* \"#utility.yul\":2624:2629   */\n      dup7\n        /* \"#utility.yul\":2620:2636   */\n      add\n        /* \"#utility.yul\":2585:2650   */\n      tag_62\n      jump\t// in\n    tag_118:\n        /* \"#utility.yul\":2675:2704   */\n      tag_119\n        /* \"#utility.yul\":2697:2703   */\n      dup2\n        /* \"#utility.yul\":2675:2704   */\n      tag_63\n      jump\t// in\n    tag_119:\n        /* \"#utility.yul\":2670:2673   */\n      dup5\n        /* \"#utility.yul\":2666:2705   */\n      add\n        /* \"#utility.yul\":2659:2705   */\n      swap2\n      pop\n        /* \"#utility.yul\":2426:2711   */\n      pop\n        /* \"#utility.yul\":2334:2711   */\n      swap3\n      swap2\n      pop\n      pop\n      jump\t// out\n        /* \"#utility.yul\":2717:3250   */\n    tag_10:\n        /* \"#utility.yul\":2886:2890   */\n      0x00\n        /* \"#utility.yul\":2924:2926   */\n      0x60\n        /* \"#utility.yul\":2913:2922   */\n      dup3\n        /* \"#utility.yul\":2909:2927   */\n      add\n        /* \"#utility.yul\":2901:2927   */\n      swap1\n      pop\n        /* \"#utility.yul\":2937:3008   */\n      tag_121\n        /* \"#utility.yul\":3005:3006   */\n      0x00\n        /* \"#utility.yul\":2994:3003   */\n      dup4\n        /* \"#utility.yul\":2990:3007   */\n      add\n        /* \"#utility.yul\":2981:2987   */\n      dup7\n        /* \"#utility.yul\":2937:3008   */\n      tag_59\n      jump\t// in\n    tag_121:\n        /* \"#utility.yul\":3018:3090   */\n      tag_122\n        /* \"#utility.yul\":3086:3088   */\n      0x20\n        /* \"#utility.yul\":3075:3084   */\n      dup4\n        /* \"#utility.yul\":3071:3089   */\n      add\n        /* \"#utility.yul\":3062:3068   */\n      dup6\n        /* \"#utility.yul\":3018:3090   */\n      tag_59\n      jump\t// in\n    tag_122:\n        /* \"#utility.yul\":3137:3146   */\n      dup2\n        /* \"#utility.yul\":3131:3135   */\n      dup2\n        /* \"#utility.yul\":3127:3147   */\n      sub\n        /* \"#utility.yul\":3122:3124   */\n      0x40\n        /* \"#utility.yul\":3111:3120   */\n      dup4\n        /* \"#utility.yul\":3107:3125   */\n      add\n        /* \"#utility.yul\":3100:3148   */\n      mstore\n        /* \"#utility.yul\":3165:3243   */\n      tag_123\n        /* \"#utility.yul\":3238:3242   */\n      dup2\n        /* \"#utility.yul\":3229:3235   */\n      dup5\n        /* \"#utility.yul\":3165:3243   */\n      tag_64\n      jump\t// in\n    tag_123:\n        /* \"#utility.yul\":3157:3243   */\n      swap1\n      pop\n        /* \"#utility.yul\":2717:3250   */\n      swap5\n      swap4\n      pop\n      pop\n      pop\n      pop\n      jump\t// out\n        /* \"#utility.yul\":3256:3373   */\n    tag_65:\n        /* \"#utility.yul\":3365:3366   */\n      0x00\n        /* \"#utility.yul\":3362:3363   */\n      0x00\n        /* \"#utility.yul\":3355:3367   */\n      revert\n        /* \"#utility.yul\":3379:3496   */\n    tag_66:\n        /* \"#utility.yul\":3488:3489   */\n      0x00\n        /* \"#utility.yul\":3485:3486   */\n      0x00\n        /* \"#utility.yul\":3478:3490   */\n      revert\n        /* \"#utility.yul\":3502:3619   */\n    tag_67:\n        /* \"#utility.yul\":3611:3612   */\n      0x00\n        /* \"#utility.yul\":3608:3609   */\n      0x00\n        /* \"#utility.yul\":3601:3613   */\n      revert\n        /* \"#utility.yul\":3639:4192   */\n    tag_68:\n        /* \"#utility.yul\":3697:3705   */\n      0x00\n        /* \"#utility.yul\":3707:3713   */\n      0x00\n        /* \"#utility.yul\":3757:3760   */\n      dup4\n        /* \"#utility.yul\":3750:3754   */\n      0x1f\n        /* \"#utility.yul\":3742:3748   */\n      dup5\n        /* \"#utility.yul\":3738:3755   */\n      add\n        /* \"#utility.yul\":3734:3761   */\n      slt\n        /* \"#utility.yul\":3724:3846   */\n      tag_128\n      jumpi\n        /* \"#utility.yul\":3765:3844   */\n      tag_129\n      tag_65\n      jump\t// in\n    tag_129:\n        /* \"#utility.yul\":3724:3846   */\n    tag_128:\n        /* \"#utility.yul\":3878:3884   */\n      dup3\n        /* \"#utility.yul\":3865:3885   */\n      calldataload\n        /* \"#utility.yul\":3855:3885   */\n      swap1\n      pop\n        /* \"#utility.yul\":3908:3926   */\n      0xffffffffffffffff\n        /* \"#utility.yul\":3900:3906   */\n      dup2\n        /* \"#utility.yul\":3897:3927   */\n      gt\n        /* \"#utility.yul\":3894:4011   */\n      iszero\n      tag_130\n      jumpi\n        /* \"#utility.yul\":3930:4009   */\n      tag_131\n      tag_66\n      jump\t// in\n    tag_131:\n        /* \"#utility.yul\":3894:4011   */\n    tag_130:\n        /* \"#utility.yul\":4044:4048   */\n      0x20\n        /* \"#utility.yul\":4036:4042   */\n      dup4\n        /* \"#utility.yul\":4032:4049   */\n      add\n        /* \"#utility.yul\":4020:4049   */\n      swap2\n      pop\n        /* \"#utility.yul\":4098:4101   */\n      dup4\n        /* \"#utility.yul\":4090:4094   */\n      0x01\n        /* \"#utility.yul\":4082:4088   */\n      dup3\n        /* \"#utility.yul\":4078:4095   */\n      mul\n        /* \"#utility.yul\":4068:4076   */\n      dup4\n        /* \"#utility.yul\":4064:4096   */\n      add\n        /* \"#utility.yul\":4061:4102   */\n      gt\n        /* \"#utility.yul\":4058:4186   */\n      iszero\n      tag_132\n      jumpi\n        /* \"#utility.yul\":4105:4184   */\n      tag_133\n      tag_67\n      jump\t// in\n    tag_133:\n        /* \"#utility.yul\":4058:4186   */\n    tag_132:\n        /* \"#utility.yul\":3639:4192   */\n      swap3\n      pop\n      swap3\n      swap1\n      pop\n      jump\t// out\n        /* \"#utility.yul\":4198:5017   */\n    tag_13:\n        /* \"#utility.yul\":4287:4293   */\n      0x00\n        /* \"#utility.yul\":4295:4301   */\n      0x00\n        /* \"#utility.yul\":4303:4309   */\n      0x00\n        /* \"#utility.yul\":4311:4317   */\n      0x00\n        /* \"#utility.yul\":4360:4362   */\n      0x60\n        /* \"#utility.yul\":4348:4357   */\n      dup6\n        /* \"#utility.yul\":4339:4346   */\n      dup8\n        /* \"#utility.yul\":4335:4358   */\n      sub\n        /* \"#utility.yul\":4331:4363   */\n      slt\n        /* \"#utility.yul\":4328:4447   */\n      iszero\n      tag_135\n      jumpi\n        /* \"#utility.yul\":4366:4445   */\n      tag_136\n      tag_50\n      jump\t// in\n    tag_136:\n        /* \"#utility.yul\":4328:4447   */\n    tag_135:\n        /* \"#utility.yul\":4486:4487   */\n      0x00\n        /* \"#utility.yul\":4511:4564   */\n      tag_137\n        /* \"#utility.yul\":4556:4563   */\n      dup8\n        /* \"#utility.yul\":4547:4553   */\n      dup3\n        /* \"#utility.yul\":4536:4545   */\n      dup9\n        /* \"#utility.yul\":4532:4554   */\n      add\n        /* \"#utility.yul\":4511:4564   */\n      tag_58\n      jump\t// in\n    tag_137:\n        /* \"#utility.yul\":4501:4564   */\n      swap5\n      pop\n        /* \"#utility.yul\":4457:4574   */\n      pop\n        /* \"#utility.yul\":4613:4615   */\n      0x20\n        /* \"#utility.yul\":4639:4692   */\n      tag_138\n        /* \"#utility.yul\":4684:4691   */\n      dup8\n        /* \"#utility.yul\":4675:4681   */\n      dup3\n        /* \"#utility.yul\":4664:4673   */\n      dup9\n        /* \"#utility.yul\":4660:4682   */\n      add\n        /* \"#utility.yul\":4639:4692   */\n      tag_58\n      jump\t// in\n    tag_138:\n        /* \"#utility.yul\":4629:4692   */\n      swap4\n      pop\n        /* \"#utility.yul\":4584:4702   */\n      pop\n        /* \"#utility.yul\":4769:4771   */\n      0x40\n        /* \"#utility.yul\":4758:4767   */\n      dup6\n        /* \"#utility.yul\":4754:4772   */\n      add\n        /* \"#utility.yul\":4741:4773   */\n      calldataload\n        /* \"#utility.yul\":4800:4818   */\n      0xffffffffffffffff\n        /* \"#utility.yul\":4792:4798   */\n      dup2\n        /* \"#utility.yul\":4789:4819   */\n      gt\n        /* \"#utility.yul\":4786:4903   */\n      iszero\n      tag_139\n      jumpi\n        /* \"#utility.yul\":4822:4901   */\n      tag_140\n      tag_51\n      jump\t// in\n    tag_140:\n        /* \"#utility.yul\":4786:4903   */\n    tag_139:\n        /* \"#utility.yul\":4935:5000   */\n      tag_141\n        /* \"#utility.yul\":4992:4999   */\n      dup8\n        /* \"#utility.yul\":4983:4989   */\n      dup3\n        /* \"#utility.yul\":4972:4981   */\n      dup9\n        /* \"#utility.yul\":4968:4990   */\n      add\n        /* \"#utility.yul\":4935:5000   */\n      tag_68\n      jump\t// in\n    tag_141:\n        /* \"#utility.yul\":4917:5000   */\n      swap3\n      pop\n      swap3\n      pop\n        /* \"#utility.yul\":4712:5010   */\n      pop\n        /* \"#utility.yul\":4198:5017   */\n      swap3\n      swap6\n      swap2\n      swap5\n      pop\n      swap3\n      pop\n      jump\t// out\n        /* \"#utility.yul\":5023:5203   */\n    tag_69:\n        /* \"#utility.yul\":5071:5148   */\n      0x4e487b7100000000000000000000000000000000000000000000000000000000\n        /* \"#utility.yul\":5068:5069   */\n      0x00\n        /* \"#utility.yul\":5061:5149   */\n      mstore\n        /* \"#utility.yul\":5168:5172   */\n      0x22\n        /* \"#utility.yul\":5165:5166   */\n      0x04\n        /* \"#utility.yul\":5158:5173   */\n      mstore\n        /* \"#utility.yul\":5192:5196   */\n      0x24\n        /* \"#utility.yul\":5189:5190   */\n      0x00\n        /* \"#utility.yul\":5182:5197   */\n      revert\n        /* \"#utility.yul\":5209:5529   */\n    tag_18:\n        /* \"#utility.yul\":5253:5259   */\n      0x00\n        /* \"#utility.yul\":5290:5291   */\n      0x02\n        /* \"#utility.yul\":5284:5288   */\n      dup3\n        /* \"#utility.yul\":5280:5292   */\n      div\n        /* \"#utility.yul\":5270:5292   */\n      swap1\n      pop\n        /* \"#utility.yul\":5337:5338   */\n      0x01\n        /* \"#utility.yul\":5331:5335   */\n      dup3\n        /* \"#utility.yul\":5327:5339   */\n      and\n        /* \"#utility.yul\":5358:5376   */\n      dup1\n        /* \"#utility.yul\":5348:5429   */\n      tag_144\n      jumpi\n        /* \"#utility.yul\":5414:5418   */\n      0x7f\n        /* \"#utility.yul\":5406:5412   */\n      dup3\n        /* \"#utility.yul\":5402:5419   */\n      and\n        /* \"#utility.yul\":5392:5419   */\n      swap2\n      pop\n        /* \"#utility.yul\":5348:5429   */\n    tag_144:\n        /* \"#utility.yul\":5476:5478   */\n      0x20\n        /* \"#utility.yul\":5468:5474   */\n      dup3\n        /* \"#utility.yul\":5465:5479   */\n      lt\n        /* \"#utility.yul\":5445:5463   */\n      dup2\n        /* \"#utility.yul\":5442:5480   */\n      sub\n        /* \"#utility.yul\":5439:5523   */\n      tag_145\n      jumpi\n        /* \"#utility.yul\":5495:5513   */\n      tag_146\n      tag_69\n      jump\t// in\n    tag_146:\n        /* \"#utility.yul\":5439:5523   */\n    tag_145:\n        /* \"#utility.yul\":5260:5529   */\n      pop\n        /* \"#utility.yul\":5209:5529   */\n      swap2\n      swap1\n      pop\n      jump\t// out\n        /* \"#utility.yul\":5535:5715   */\n    tag_70:\n        /* \"#utility.yul\":5583:5660   */\n      0x4e487b7100000000000000000000000000000000000000000000000000000000\n        /* \"#utility.yul\":5580:5581   */\n      0x00\n        /* \"#utility.yul\":5573:5661   */\n      mstore\n        /* \"#utility.yul\":5680:5684   */\n      0x41\n        /* \"#utility.yul\":5677:5678   */\n      0x04\n        /* \"#utility.yul\":5670:5685   */\n      mstore\n        /* \"#utility.yul\":5704:5708   */\n      0x24\n        /* \"#utility.yul\":5701:5702   */\n      0x00\n        /* \"#utility.yul\":5694:5709   */\n      revert\n        /* \"#utility.yul\":5721:5862   */\n    tag_71:\n        /* \"#utility.yul\":5770:5774   */\n      0x00\n        /* \"#utility.yul\":5793:5796   */\n      dup2\n        /* \"#utility.yul\":5785:5796   */\n      swap1\n      pop\n        /* \"#utility.yul\":5816:5819   */\n      dup2\n        /* \"#utility.yul\":5813:5814   */\n      0x00\n        /* \"#utility.yul\":5806:5820   */\n      mstore\n        /* \"#utility.yul\":5850:5854   */\n      0x20\n        /* \"#utility.yul\":5847:5848   */\n      0x00\n        /* \"#utility.yul\":5837:5855   */\n      keccak256\n        /* \"#utility.yul\":5829:5855   */\n      swap1\n      pop\n        /* \"#utility.yul\":5721:5862   */\n      swap2\n      swap1\n      pop\n      jump\t// out\n        /* \"#utility.yul\":5868:5961   */\n    tag_72:\n        /* \"#utility.yul\":5905:5911   */\n      0x00\n        /* \"#utility.yul\":5952:5954   */\n      0x20\n        /* \"#utility.yul\":5947:5949   */\n      0x1f\n        /* \"#utility.yul\":5940:5945   */\n      dup4\n        /* \"#utility.yul\":5936:5950   */\n      add\n        /* \"#utility.yul\":5932:5955   */\n      div\n        /* \"#utility.yul\":5922:5955   */\n      swap1\n      pop\n        /* \"#utility.yul\":5868:5961   */\n      swap2\n      swap1\n      pop\n      jump\t// out\n        /* \"#utility.yul\":5967:6074   */\n    tag_73:\n        /* \"#utility.yul\":6011:6019   */\n      0x00\n        /* \"#utility.yul\":6061:6066   */\n      dup3\n        /* \"#utility.yul\":6055:6059   */\n      dup3\n        /* \"#utility.yul\":6051:6067   */\n      shl\n        /* \"#utility.yul\":6030:6067   */\n      swap1\n      pop\n        /* \"#utility.yul\":5967:6074   */\n      swap3\n      swap2\n      pop\n      pop\n      jump\t// out\n        /* \"#utility.yul\":6080:6473   */\n    tag_74:\n        /* \"#utility.yul\":6149:6155   */\n      0x00\n        /* \"#utility.yul\":6199:6200   */\n      0x08\n        /* \"#utility.yul\":6187:6197   */\n      dup4\n        /* \"#utility.yul\":6183:6201   */\n      mul\n        /* \"#utility.yul\":6222:6319   */\n      tag_152\n        /* \"#utility.yul\":6252:6318   */\n      0xffffffffffffffffffffffffffffffffffffffffffffffffffffffffffffffff\n        /* \"#utility.yul\":6241:6250   */\n      dup3\n        /* \"#utility.yul\":6222:6319   */\n      tag_73\n      jump\t// in\n    tag_152:\n        /* \"#utility.yul\":6340:6379   */\n      tag_153\n        /* \"#utility.yul\":6370:6378   */\n      dup7\n        /* \"#utility.yul\":6359:6368   */\n      dup4\n        /* \"#utility.yul\":6340:6379   */\n      tag_73\n      jump\t// in\n    tag_153:\n        /* \"#utility.yul\":6328:6379   */\n      swap6\n      pop\n        /* \"#utility.yul\":6412:6416   */\n      dup1\n        /* \"#utility.yul\":6408:6417   */\n      not\n        /* \"#utility.yul\":6401:6406   */\n      dup5\n        /* \"#utility.yul\":6397:6418   */\n      and\n        /* \"#utility.yul\":6388:6418   */\n      swap4\n      pop\n        /* \"#utility.yul\":6461:6465   */\n      dup1\n        /* \"#utility.yul\":6451:6459   */\n      dup7\n        /* \"#utility.yul\":6447:6466   */\n      and\n        /* \"#utility.yul\":6440:6445   */\n      dup5\n        /* \"#utility.yul\":6437:6467   */\n      or\n        /* \"#utility.yul\":6427:6467   */\n      swap3\n      pop\n        /* \"#utility.yul\":6156:6473   */\n      pop\n      pop\n        /* \"#utility.yul\":6080:6473   */\n      swap4\n      swap3\n      pop\n      pop\n      pop\n      jump\t// out\n        /* \"#utility.yul\":6479:6539   */\n    tag_75:\n        /* \"#utility.yul\":6507:6510   */\n      0x00\n        /* \"#utility.yul\":6528:6533   */\n      dup2\n        /* \"#utility.yul\":6521:6533   */\n      swap1\n      pop\n        /* \"#utility.yul\":6479:6539   */\n      swap2\n      swap1\n      pop\n      jump\t// out\n        /* \"#utility.yul\":6545:6687   */\n    tag_76:\n        /* \"#utility.yul\":6595:6604   */\n      0x00\n        /* \"#utility.yul\":6628:6681   */\n      tag_156\n        /* \"#utility.yul\":6646:6680   */\n      tag_157\n        /* \"#utility.yul\":6655:6679   */\n      tag_158\n        /* \"#utility.yul\":6673:6678   */\n      dup5\n        /* \"#utility.yul\":6655:6679   */\n      tag_56\n      jump\t// in\n    tag_158:\n        /* \"#utility.yul\":6646:6680   */\n      tag_75\n      jump\t// in\n    tag_157:\n        /* \"#utility.yul\":6628:6681   */\n      tag_56\n      jump\t// in\n    tag_156:\n        /* \"#utility.yul\":6615:6681   */\n      swap1\n      pop\n        /* \"#utility.yul\":6545:6687   */\n      swap2\n      swap1\n      pop\n      jump\t// out\n        /* \"#utility.yul\":6693:6768   */\n    tag_77:\n        /* \"#utility.yul\":6736:6739   */\n      0x00\n        /* \"#utility.yul\":6757:6762   */\n      dup2\n        /* \"#utility.yul\":6750:6762   */\n      swap1\n      pop\n        /* \"#utility.yul\":6693:6768   */\n      swap2\n      swap1\n      pop\n      jump\t// out\n        /* \"#utility.yul\":6774:7043   */\n    tag_78:\n        /* \"#utility.yul\":6884:6923   */\n      tag_161\n        /* \"#utility.yul\":6915:6922   */\n      dup4\n        /* \"#utility.yul\":6884:6923   */\n      tag_76\n      jump\t// in\n    tag_161:\n        /* \"#utility.yul\":6945:7036   */\n      tag_162\n        /* \"#utility.yul\":6994:7035   */\n      tag_163\n        /* \"#utility.yul\":7018:7034   */\n      dup3\n        /* \"#utility.yul\":6994:7035   */\n      tag_77\n      jump\t// in\n    tag_163:\n        /* \"#utility.yul\":6986:6992   */\n      dup5\n        /* \"#utility.yul\":6979:6983   */\n      dup5\n        /* \"#utility.yul\":6973:6984   */\n      sload\n        /* \"#utility.yul\":6945:7036   */\n      tag_74\n      jump\t// in\n    tag_162:\n        /* \"#utility.yul\":6939:6943   */\n      dup3\n        /* \"#utility.yul\":6932:7037   */\n      sstore\n        /* \"#utility.yul\":6850:7043   */\n      pop\n        /* \"#utility.yul\":6774:7043   */\n      pop\n      pop\n      pop\n      jump\t// out\n        /* \"#utility.yul\":7049:7122   */\n    tag_79:\n        /* \"#utility.yul\":7094:7097   */\n      0x00\n        /* \"#utility.yul\":7115:7116   */\n      0x00\n        /* \"#utility.yul\":7108:7116   */\n      swap1\n      pop\n        /* \"#utility.yul\":7049:7122   */\n      swap1\n      jump\t// out\n        /* \"#utility.yul\":7128:7317   */\n    tag_80:\n        /* \"#utility.yul\":7205:7237   */\n      tag_166\n      tag_79\n      jump\t// in\n    tag_166:\n        /* \"#utility.yul\":7246:7311   */\n      tag_167\n        /* \"#utility.yul\":7304:7310   */\n      dup2\n        /* \"#utility.yul\":7296:7302   */\n      dup5\n        /* \"#utility.yul\":7290:7294   */\n      dup5\n        /* \"#utility.yul\":7246:7311   */\n      tag_78\n      jump\t// in\n    tag_167:\n        /* \"#utility.yul\":7181:7317   */\n      pop\n        /* \"#utility.yul\":7128:7317   */\n      pop\n      pop\n      jump\t// out\n        /* \"#utility.yul\":7323:7509   */\n    tag_81:\n        /* \"#utility.yul\":7383:7503   */\n    tag_169:\n        /* \"#utility.yul\":7400:7403   */\n      dup2\n        /* \"#utility.yul\":7393:7398   */\n      dup2\n        /* \"#utility.yul\":7390:7404   */\n      lt\n        /* \"#utility.yul\":7383:7503   */\n      iszero\n      tag_171\n      jumpi\n        /* \"#utility.yul\":7454:7493   */\n      tag_172\n        /* \"#utility.yul\":7491:7492   */\n      0x00\n        /* \"#utility.yul\":7484:7489   */\n      dup3\n        /* \"#utility.yul\":7454:7493   */\n      tag_80\n      jump\t// in\n    tag_172:\n        /* \"#utility.yul\":7427:7428   */\n      0x01\n        /* \"#utility.yul\":7420:7425   */\n      dup2\n        /* \"#utility.yul\":7416:7429   */\n      add\n        /* \"#utility.yul\":7407:7429   */\n      swap1\n      pop\n        /* \"#utility.yul\":7383:7503   */\n      jump(tag_169)\n    tag_171:\n        /* \"#utility.yul\":7323:7509   */\n      pop\n      pop\n      jump\t// out\n        /* \"#utility.yul\":7515:8058   */\n    tag_82:\n        /* \"#utility.yul\":7616:7618   */\n      0x1f\n        /* \"#utility.yul\":7611:7614   */\n      dup3\n        /* \"#utility.yul\":7608:7619   */\n      gt\n        /* \"#utility.yul\":7605:8051   */\n      iszero\n      tag_174\n      jumpi\n        /* \"#utility.yul\":7650:7688   */\n      tag_175\n        /* \"#utility.yul\":7682:7687   */\n      dup2\n        /* \"#utility.yul\":7650:7688   */\n      tag_71\n      jump\t// in\n    tag_175:\n        /* \"#utility.yul\":7734:7763   */\n      tag_176\n        /* \"#utility.yul\":7752:7762   */\n      dup5\n        /* \"#utility.yul\":7734:7763   */\n      tag_72\n      jump\t// in\n    tag_176:\n        /* \"#utility.yul\":7724:7732   */\n      dup2\n        /* \"#utility.yul\":7720:7764   */\n      add\n        /* \"#utility.yul\":7917:7919   */\n      0x20\n        /* \"#utility.yul\":7905:7915   */\n      dup6\n        /* \"#utility.yul\":7902:7920   */\n      lt\n        /* \"#utility.yul\":7899:7948   */\n      iszero\n      tag_177\n      jumpi\n        /* \"#utility.yul\":7938:7946   */\n      dup2\n        /* \"#utility.yul\":7923:7946   */\n      swap1\n      pop\n        /* \"#utility.yul\":7899:7948   */\n    tag_177:\n        /* \"#utility.yul\":7961:8041   */\n      tag_178\n        /* \"#utility.yul\":8017:8039   */\n      tag_179\n        /* \"#utility.yul\":8035:8038   */\n      dup6\n        /* \"#utility.yul\":8017:8039   */\n      tag_72\n      jump\t// in\n    tag_179:\n        /* \"#utility.yul\":8007:8015   */\n      dup4\n        /* \"#utility.yul\":8003:8040   */\n      add\n        /* \"#utility.yul\":7990:8001   */\n      dup3\n        /* \"#utility.yul\":7961:8041   */\n      tag_81\n      jump\t// in\n    tag_178:\n        /* \"#utility.yul\":7620:8051   */\n      pop\n      pop\n        /* \"#utility.yul\":7605:8051   */\n    tag_174:\n        /* \"#utility.yul\":7515:8058   */\n      pop\n      pop\n      pop\n      jump\t// out\n        /* \"#utility.yul\":8064:8181   */\n    tag_83:\n        /* \"#utility.yul\":8118:8126   */\n      0x00\n        /* \"#utility.yul\":8168:8173   */\n      dup3\n        /* \"#utility.yul\":8162:8166   */\n      dup3\n        /* \"#utility.yul\":8158:8174   */\n      shr\n        /* \"#utility.yul\":8137:8174   */\n      swap1\n      pop\n        /* \"#utility.yul\":8064:8181   */\n      swap3\n      swap2\n      pop\n      pop\n      jump\t// out\n        /* \"#utility.yul\":8187:8356   */\n    tag_84:\n        /* \"#utility.yul\":8231:8237   */\n      0x00\n        /* \"#utility.yul\":8264:8315   */\n      tag_182\n        /* \"#utility.yul\":8312:8313   */\n      0x00\n        /* \"#utility.yul\":8308:8314   */\n      not\n        /* \"#utility.yul\":8300:8305   */\n      dup5\n        /* \"#utility.yul\":8297:8298   */\n      0x08\n        /* \"#utility.yul\":8293:8306   */\n      mul\n        /* \"#utility.yul\":8264:8315   */\n      tag_83\n      jump\t// in\n    tag_182:\n        /* \"#utility.yul\":8260:8316   */\n      not\n        /* \"#utility.yul\":8345:8349   */\n      dup1\n        /* \"#utility.yul\":8339:8343   */\n      dup4\n        /* \"#utility.yul\":8335:8350   */\n      and\n        /* \"#utility.yul\":8325:8350   */\n      swap2\n      pop\n        /* \"#utility.yul\":8238:8356   */\n      pop\n        /* \"#utility.yul\":8187:8356   */\n      swap3\n      swap2\n      pop\n      pop\n      jump\t// out\n        /* \"#utility.yul\":8361:8656   */\n    tag_85:\n        /* \"#utility.yul\":8437:8441   */\n      0x00\n        /* \"#utility.yul\":8583:8612   */\n      tag_184\n        /* \"#utility.yul\":8608:8611   */\n      dup4\n        /* \"#utility.yul\":8602:8606   */\n      dup4\n        /* \"#utility.yul\":8583:8612   */\n      tag_84\n      jump\t// in\n    tag_184:\n        /* \"#utility.yul\":8575:8612   */\n      swap2\n      pop\n        /* \"#utility.yul\":8645:8648   */\n      dup3\n        /* \"#utility.yul\":8642:8643   */\n      0x02\n        /* \"#utility.yul\":8638:8649   */\n      mul\n        /* \"#utility.yul\":8632:8636   */\n      dup3\n        /* \"#utility.yul\":8629:8650   */\n      or\n        /* \"#utility.yul\":8621:8650   */\n      swap1\n      pop\n        /* \"#utility.yul\":8361:8656   */\n      swap3\n      swap2\n      pop\n      pop\n      jump\t// out\n        /* \"#utility.yul\":8661:10056   */\n    tag_37:\n        /* \"#utility.yul\":8778:8815   */\n      tag_186\n        /* \"#utility.yul\":8811:8814   */\n      dup3\n        /* \"#utility.yul\":8778:8815   */\n      tag_60\n      jump\t// in\n    tag_186:\n        /* \"#utility.yul\":8880:8898   */\n      0xffffffffffffffff\n        /* \"#utility.yul\":8872:8878   */\n      dup2\n        /* \"#utility.yul\":8869:8899   */\n      gt\n        /* \"#utility.yul\":8866:8922   */\n      iszero\n      tag_187\n      jumpi\n        /* \"#utility.yul\":8902:8920   */\n      tag_188\n      tag_70\n      jump\t// in\n    tag_188:\n        /* \"#utility.yul\":8866:8922   */\n    tag_187:\n        /* \"#utility.yul\":8946:8984   */\n      tag_189\n        /* \"#utility.yul\":8978:8982   */\n      dup3\n        /* \"#utility.yul\":8972:8983   */\n      sload\n        /* \"#utility.yul\":8946:8984   */\n      tag_18\n      jump\t// in\n    tag_189:\n        /* \"#utility.yul\":9031:9098   */\n      tag_190\n        /* \"#utility.yul\":9091:9097   */\n      dup3\n        /* \"#utility.yul\":9083:9089   */\n      dup3\n        /* \"#utility.yul\":9077:9081   */\n      dup6\n        /* \"#utility.yul\":9031:9098   */\n      tag_82\n      jump\t// in\n    tag_190:\n        /* \"#utility.yul\":9125:9126   */\n      0x00\n        /* \"#utility.yul\":9149:9153   */\n      0x20\n        /* \"#utility.yul\":9136:9153   */\n      swap1\n      pop\n        /* \"#utility.yul\":9181:9183   */\n      0x1f\n        /* \"#utility.yul\":9173:9179   */\n      dup4\n        /* \"#utility.yul\":9170:9184   */\n      gt\n        /* \"#utility.yul\":9198:9199   */\n      0x01\n        /* \"#utility.yul\":9193:9811   */\n      dup2\n      eq\n      tag_192\n      jumpi\n        /* \"#utility.yul\":9855:9856   */\n      0x00\n        /* \"#utility.yul\":9872:9878   */\n      dup5\n        /* \"#utility.yul\":9869:9946   */\n      iszero\n      tag_193\n      jumpi\n        /* \"#utility.yul\":9921:9930   */\n      dup3\n        /* \"#utility.yul\":9916:9919   */\n      dup8\n        /* \"#utility.yul\":9912:9931   */\n      add\n        /* \"#utility.yul\":9906:9932   */\n      mload\n        /* \"#utility.yul\":9897:9932   */\n      swap1\n      pop\n        /* \"#utility.yul\":9869:9946   */\n    tag_193:\n        /* \"#utility.yul\":9972:10039   */\n      tag_194\n        /* \"#utility.yul\":10032:10038   */\n      dup6\n        /* \"#utility.yul\":10025:10030   */\n      dup3\n        /* \"#utility.yul\":9972:10039   */\n      tag_85\n      jump\t// in\n    tag_194:\n        /* \"#utility.yul\":9966:9970   */\n      dup7\n        /* \"#utility.yul\":9959:10040   */\n      sstore\n        /* \"#utility.yul\":9828:10050   */\n      pop\n        /* \"#utility.yul\":9163:10050   */\n      jump(tag_191)\n        /* \"#utility.yul\":9193:9811   */\n    tag_192:\n        /* \"#utility.yul\":9245:9249   */\n      0x1f\n        /* \"#utility.yul\":9241:9250   */\n      not\n        /* \"#utility.yul\":9233:9239   */\n      dup5\n        /* \"#utility.yul\":9229:9251   */\n      and\n        /* \"#utility.yul\":9279:9316   */\n      tag_195\n        /* \"#utility.yul\":9311:9315   */\n      dup7\n        /* \"#utility.yul\":9279:9316   */\n      tag_71\n      jump\t// in\n    tag_195:\n        /* \"#utility.yul\":9338:9339   */\n      0x00\n        /* \"#utility.yul\":9352:9560   */\n    tag_196:\n        /* \"#utility.yul\":9366:9373   */\n      dup3\n        /* \"#utility.yul\":9363:9364   */\n      dup2\n        /* \"#utility.yul\":9360:9374   */\n      lt\n        /* \"#utility.yul\":9352:9560   */\n      iszero\n      tag_198\n      jumpi\n        /* \"#utility.yul\":9445:9454   */\n      dup5\n        /* \"#utility.yul\":9440:9443   */\n      dup10\n        /* \"#utility.yul\":9436:9455   */\n      add\n        /* \"#utility.yul\":9430:9456   */\n      mload\n        /* \"#utility.yul\":9422:9428   */\n      dup3\n        /* \"#utility.yul\":9415:9457   */\n      sstore\n        /* \"#utility.yul\":9496:9497   */\n      0x01\n        /* \"#utility.yul\":9488:9494   */\n      dup3\n        /* \"#utility.yul\":9484:9498   */\n      add\n        /* \"#utility.yul\":9474:9498   */\n      swap2\n      pop\n        /* \"#utility.yul\":9543:9545   */\n      0x20\n        /* \"#utility.yul\":9532:9541   */\n      dup6\n        /* \"#utility.yul\":9528:9546   */\n      add\n        /* \"#utility.yul\":9515:9546   */\n      swap5\n      pop\n        /* \"#utility.yul\":9389:9393   */\n      0x20\n        /* \"#utility.yul\":9386:9387   */\n      dup2\n        /* \"#utility.yul\":9382:9394   */\n      add\n        /* \"#utility.yul\":9377:9394   */\n      swap1\n      pop\n        /* \"#utility.yul\":9352:9560   */\n      jump(tag_196)\n    tag_198:\n        /* \"#utility.yul\":9588:9594   */\n      dup7\n        /* \"#utility.yul\":9579:9586   */\n      dup4\n        /* \"#utility.yul\":9576:9595   */\n      lt\n        /* \"#utility.yul\":9573:9752   */\n      iszero\n      tag_199\n      jumpi\n        /* \"#utility.yul\":9646:9655   */\n      dup5\n        /* \"#utility.yul\":9641:9644   */\n      dup10\n        /* \"#utility.yul\":9637:9656   */\n      add\n        /* \"#utility.yul\":9631:9657   */\n      mload\n        /* \"#utility.yul\":9689:9737   */\n      tag_200\n        /* \"#utility.yul\":9731:9735   */\n      0x1f\n        /* \"#utility.yul\":9723:9729   */\n      dup10\n        /* \"#utility.yul\":9719:9736   */\n      and\n        /* \"#utility.yul\":9708:9717   */\n      dup3\n        /* \"#utility.yul\":9689:9737   */\n      tag_84\n      jump\t// in\n    tag_200:\n        /* \"#utility.yul\":9681:9687   */\n      dup4\n        /* \"#utility.yul\":9674:9738   */\n      sstore\n        /* \"#utility.yul\":9596:9752   */\n      pop\n        /* \"#utility.yul\":9573:9752   */\n    tag_199:\n        /* \"#utility.yul\":9798:9799   */\n      0x01\n        /* \"#utility.yul\":9794:9795   */\n      0x02\n        /* \"#utility.yul\":9786:9792   */\n      dup9\n        /* \"#utility.yul\":9782:9796   */\n      mul\n        /* \"#utility.yul\":9778:9800   */\n      add\n        /* \"#utility.yul\":9772:9776   */\n      dup9\n        /* \"#utility.yul\":9765:9801   */\n      sstore\n        /* \"#utility.yul\":9200:9811   */\n      pop\n      pop\n      pop\n        /* \"#utility.yul\":9163:10050   */\n    tag_191:\n      pop\n        /* \"#utility.yul\":8753:10056   */\n      pop\n      pop\n      pop\n        /* \"#utility.yul\":8661:10056   */\n      pop\n      pop\n      jump\t// out\n        /* \"#utility.yul\":10062:10242   */\n    tag_41:\n        /* \"#utility.yul\":10110:10187   */\n      0x4e487b7100000000000000000000000000000000000000000000000000000000\n        /* \"#utility.yul\":10107:10108   */\n      0x00\n        /* \"#utility.yul\":10100:10188   */\n      mstore\n        /* \"#utility.yul\":10207:10211   */\n      0x01\n        /* \"#utility.yul\":10204:10205   */\n      0x04\n        /* \"#utility.yul\":10197:10212   */\n      mstore\n        /* \"#utility.yul\":10231:10235   */\n      0x24\n        /* \"#utility.yul\":10228:10229   */\n      0x00\n        /* \"#utility.yul\":10221:10236   */\n      revert\n        /* \"#utility.yul\":10248:10428   */\n    tag_47:\n        /* \"#utility.yul\":10296:10373   */\n      0x4e487b7100000000000000000000000000000000000000000000000000000000\n        /* \"#utility.yul\":10293:10294   */\n      0x00\n        /* \"#utility.yul\":10286:10374   */\n      mstore\n        /* \"#utility.yul\":10393:10397   */\n      0x32\n        /* \"#utility.yul\":10390:10391   */\n      0x04\n        /* \"#utility.yul\":10383:10398   */\n      mstore\n        /* \"#utility.yul\":10417:10421   */\n      0x24\n        /* \"#utility.yul\":10414:10415   */\n      0x00\n        /* \"#utility.yul\":10407:10422   */\n      revert\n\n    auxdata: 0xa26469706673582212201389ae792a63c4bdbe81d96546608a30be9bf9e20d00a636afbb4d743101d40164736f6c634300081c0033\n}\n",
				"bytecode": {
					"linkReferences": {},
					"object": "6080604052348015600e575f5ffd5b506109e08061001c5f395ff3fe608060405234801561000f575f5ffd5b5060043610610034575f3560e01c806349a764cd14610038578063b503ef191461006a575b5f5ffd5b610052600480360381019061004d919061048c565b610086565b60405161006193929190610549565b60405180910390f35b610084600480360381019061007f91906105e6565b61014b565b005b5f602052815f5260405f20818154811061009e575f80fd5b905f5260205f2090600302015f9150915050805f0154908060010154908060020180546100ca90610684565b80601f01602080910402602001604051908101604052809291908181526020018280546100f690610684565b80156101415780601f1061011857610100808354040283529160200191610141565b820191905f5260205f20905b81548152906001019060200180831161012457829003601f168201915b5050505050905083565b61028f845f5f3373ffffffffffffffffffffffffffffffffffffffff1673ffffffffffffffffffffffffffffffffffffffff1681526020019081526020015f20805480602002602001604051908101604052809291908181526020015f905b8282101561027d578382905f5260205f2090600302016040518060600160405290815f8201548152602001600182015481526020016002820180546101ee90610684565b80601f016020809104026020016040519081016040528092919081815260200182805461021a90610684565b80156102655780601f1061023c57610100808354040283529160200191610265565b820191905f5260205f20905b81548152906001019060200180831161024857829003601f168201915b505050505081525050815260200190600101906101aa565b5050505061038d90919063ffffffff16565b15610298575f5ffd5b5f604051806060016040528086815260200185815260200184848080601f0160208091040260200160405190810160405280939291908181526020018383808284375f81840152601f19601f8201169050808301925050505050505081525090505f5f3373ffffffffffffffffffffffffffffffffffffffff1673ffffffffffffffffffffffffffffffffffffffff1681526020019081526020015f2081908060018154018082558091505060019003905f5260205f2090600302015f909190919091505f820151815f01556020820151816001015560408201518160020190816103839190610881565b5050505050505050565b5f5f8351905061271081106103a5576103a4610950565b5b5f5f90505b818110156103ee57838582815181106103c6576103c561097d565b5b60200260200101515f0151036103e1576001925050506103f1565b80806001019150506103aa565b50505b92915050565b5f5ffd5b5f5ffd5b5f73ffffffffffffffffffffffffffffffffffffffff82169050919050565b5f610428826103ff565b9050919050565b6104388161041e565b8114610442575f5ffd5b50565b5f813590506104538161042f565b92915050565b5f819050919050565b61046b81610459565b8114610475575f5ffd5b50565b5f8135905061048681610462565b92915050565b5f5f604083850312156104a2576104a16103f7565b5b5f6104af85828601610445565b92505060206104c085828601610478565b9150509250929050565b6104d381610459565b82525050565b5f81519050919050565b5f82825260208201905092915050565b8281835e5f83830152505050565b5f601f19601f8301169050919050565b5f61051b826104d9565b61052581856104e3565b93506105358185602086016104f3565b61053e81610501565b840191505092915050565b5f60608201905061055c5f8301866104ca565b61056960208301856104ca565b818103604083015261057b8184610511565b9050949350505050565b5f5ffd5b5f5ffd5b5f5ffd5b5f5f83601f8401126105a6576105a5610585565b5b8235905067ffffffffffffffff8111156105c3576105c2610589565b5b6020830191508360018202830111156105df576105de61058d565b5b9250929050565b5f5f5f5f606085870312156105fe576105fd6103f7565b5b5f61060b87828801610478565b945050602061061c87828801610478565b935050604085013567ffffffffffffffff81111561063d5761063c6103fb565b5b61064987828801610591565b925092505092959194509250565b7f4e487b71000000000000000000000000000000000000000000000000000000005f52602260045260245ffd5b5f600282049050600182168061069b57607f821691505b6020821081036106ae576106ad610657565b5b50919050565b7f4e487b71000000000000000000000000000000000000000000000000000000005f52604160045260245ffd5b5f819050815f5260205f209050919050565b5f6020601f8301049050919050565b5f82821b905092915050565b5f6008830261073d7fffffffffffffffffffffffffffffffffffffffffffffffffffffffffffffffff82610702565b6107478683610702565b95508019841693508086168417925050509392505050565b5f819050919050565b5f61078261077d61077884610459565b61075f565b610459565b9050919050565b5f819050919050565b61079b83610768565b6107af6107a782610789565b84845461070e565b825550505050565b5f5f905090565b6107c66107b7565b6107d1818484610792565b505050565b5b818110156107f4576107e95f826107be565b6001810190506107d7565b5050565b601f8211156108395761080a816106e1565b610813846106f3565b81016020851015610822578190505b61083661082e856106f3565b8301826107d6565b50505b505050565b5f82821c905092915050565b5f6108595f198460080261083e565b1980831691505092915050565b5f610871838361084a565b9150826002028217905092915050565b61088a826104d9565b67ffffffffffffffff8111156108a3576108a26106b4565b5b6108ad8254610684565b6108b88282856107f8565b5f60209050601f8311600181146108e9575f84156108d7578287015190505b6108e18582610866565b865550610948565b601f1984166108f7866106e1565b5f5b8281101561091e578489015182556001820191506020850194506020810190506108f9565b8683101561093b5784890151610937601f89168261084a565b8355505b6001600288020188555050505b505050505050565b7f4e487b71000000000000000000000000000000000000000000000000000000005f52600160045260245ffd5b7f4e487b71000000000000000000000000000000000000000000000000000000005f52603260045260245ffdfea26469706673582212201389ae792a63c4bdbe81d96546608a30be9bf9e20d00a636afbb4d743101d40164736f6c634300081c0033",
					"opcodes": "PUSH1 0x80 PUSH1 0x40 MSTORE CALLVALUE DUP1 ISZERO PUSH1 0xE JUMPI PUSH0 PUSH0 REVERT JUMPDEST POP PUSH2 0x9E0 DUP1 PUSH2 0x1C PUSH0 CODECOPY PUSH0 RETURN INVALID PUSH1 0x80 PUSH1 0x40 MSTORE CALLVALUE DUP1 ISZERO PUSH2 0xF JUMPI PUSH0 PUSH0 REVERT JUMPDEST POP PUSH1 0x4 CALLDATASIZE LT PUSH2 0x34 JUMPI PUSH0 CALLDATALOAD PUSH1 0xE0 SHR DUP1 PUSH4 0x49A764CD EQ PUSH2 0x38 JUMPI DUP1 PUSH4 0xB503EF19 EQ PUSH2 0x6A JUMPI JUMPDEST PUSH0 PUSH0 REVERT JUMPDEST PUSH2 0x52 PUSH1 0x4 DUP1 CALLDATASIZE SUB DUP2 ADD SWAP1 PUSH2 0x4D SWAP2 SWAP1 PUSH2 0x48C JUMP JUMPDEST PUSH2 0x86 JUMP JUMPDEST PUSH1 0x40 MLOAD PUSH2 0x61 SWAP4 SWAP3 SWAP2 SWAP1 PUSH2 0x549 JUMP JUMPDEST PUSH1 0x40 MLOAD DUP1 SWAP2 SUB SWAP1 RETURN JUMPDEST PUSH2 0x84 PUSH1 0x4 DUP1 CALLDATASIZE SUB DUP2 ADD SWAP1 PUSH2 0x7F SWAP2 SWAP1 PUSH2 0x5E6 JUMP JUMPDEST PUSH2 0x14B JUMP JUMPDEST STOP JUMPDEST PUSH0 PUSH1 0x20 MSTORE DUP2 PUSH0 MSTORE PUSH1 0x40 PUSH0 KECCAK256 DUP2 DUP2 SLOAD DUP2 LT PUSH2 0x9E JUMPI PUSH0 DUP1 REVERT JUMPDEST SWAP1 PUSH0 MSTORE PUSH1 0x20 PUSH0 KECCAK256 SWAP1 PUSH1 0x3 MUL ADD PUSH0 SWAP2 POP SWAP2 POP POP DUP1 PUSH0 ADD SLOAD SWAP1 DUP1 PUSH1 0x1 ADD SLOAD SWAP1 DUP1 PUSH1 0x2 ADD DUP1 SLOAD PUSH2 0xCA SWAP1 PUSH2 0x684 JUMP JUMPDEST DUP1 PUSH1 0x1F ADD PUSH1 0x20 DUP1 SWAP2 DIV MUL PUSH1 0x20 ADD PUSH1 0x40 MLOAD SWAP1 DUP2 ADD PUSH1 0x40 MSTORE DUP1 SWAP3 SWAP2 SWAP1 DUP2 DUP2 MSTORE PUSH1 0x20 ADD DUP3 DUP1 SLOAD PUSH2 0xF6 SWAP1 PUSH2 0x684 JUMP JUMPDEST DUP1 ISZERO PUSH2 0x141 JUMPI DUP1 PUSH1 0x1F LT PUSH2 0x118 JUMPI PUSH2 0x100 DUP1 DUP4 SLOAD DIV MUL DUP4 MSTORE SWAP2 PUSH1 0x20 ADD SWAP2 PUSH2 0x141 JUMP JUMPDEST DUP3 ADD SWAP2 SWAP1 PUSH0 MSTORE PUSH1 0x20 PUSH0 KECCAK256 SWAP1 JUMPDEST DUP2 SLOAD DUP2 MSTORE SWAP1 PUSH1 0x1 ADD SWAP1 PUSH1 0x20 ADD DUP1 DUP4 GT PUSH2 0x124 JUMPI DUP3 SWAP1 SUB PUSH1 0x1F AND DUP3 ADD SWAP2 JUMPDEST POP POP POP POP POP SWAP1 POP DUP4 JUMP JUMPDEST PUSH2 0x28F DUP5 PUSH0 PUSH0 CALLER PUSH20 0xFFFFFFFFFFFFFFFFFFFFFFFFFFFFFFFFFFFFFFFF AND PUSH20 0xFFFFFFFFFFFFFFFFFFFFFFFFFFFFFFFFFFFFFFFF AND DUP2 MSTORE PUSH1 0x20 ADD SWAP1 DUP2 MSTORE PUSH1 0x20 ADD PUSH0 KECCAK256 DUP1 SLOAD DUP1 PUSH1 0x20 MUL PUSH1 0x20 ADD PUSH1 0x40 MLOAD SWAP1 DUP2 ADD PUSH1 0x40 MSTORE DUP1 SWAP3 SWAP2 SWAP1 DUP2 DUP2 MSTORE PUSH1 0x20 ADD PUSH0 SWAP1 JUMPDEST DUP3 DUP3 LT ISZERO PUSH2 0x27D JUMPI DUP4 DUP3 SWAP1 PUSH0 MSTORE PUSH1 0x20 PUSH0 KECCAK256 SWAP1 PUSH1 0x3 MUL ADD PUSH1 0x40 MLOAD DUP1 PUSH1 0x60 ADD PUSH1 0x40 MSTORE SWAP1 DUP2 PUSH0 DUP3 ADD SLOAD DUP2 MSTORE PUSH1 0x20 ADD PUSH1 0x1 DUP3 ADD SLOAD DUP2 MSTORE PUSH1 0x20 ADD PUSH1 0x2 DUP3 ADD DUP1 SLOAD PUSH2 0x1EE SWAP1 PUSH2 0x684 JUMP JUMPDEST DUP1 PUSH1 0x1F ADD PUSH1 0x20 DUP1 SWAP2 DIV MUL PUSH1 0x20 ADD PUSH1 0x40 MLOAD SWAP1 DUP2 ADD PUSH1 0x40 MSTORE DUP1 SWAP3 SWAP2 SWAP1 DUP2 DUP2 MSTORE PUSH1 0x20 ADD DUP3 DUP1 SLOAD PUSH2 0x21A SWAP1 PUSH2 0x684 JUMP JUMPDEST DUP1 ISZERO PUSH2 0x265 JUMPI DUP1 PUSH1 0x1F LT PUSH2 0x23C JUMPI PUSH2 0x100 DUP1 DUP4 SLOAD DIV MUL DUP4 MSTORE SWAP2 PUSH1 0x20 ADD SWAP2 PUSH2 0x265 JUMP JUMPDEST DUP3 ADD SWAP2 SWAP1 PUSH0 MSTORE PUSH1 0x20 PUSH0 KECCAK256 SWAP1 JUMPDEST DUP2 SLOAD DUP2 MSTORE SWAP1 PUSH1 0x1 ADD SWAP1 PUSH1 0x20 ADD DUP1 DUP4 GT PUSH2 0x248 JUMPI DUP3 SWAP1 SUB PUSH1 0x1F AND DUP3 ADD SWAP2 JUMPDEST POP POP POP POP POP DUP2 MSTORE POP POP DUP2 MSTORE PUSH1 0x20 ADD SWAP1 PUSH1 0x1 ADD SWAP1 PUSH2 0x1AA JUMP JUMPDEST POP POP POP POP PUSH2 0x38D SWAP1 SWAP2 SWAP1 PUSH4 0xFFFFFFFF AND JUMP JUMPDEST ISZERO PUSH2 0x298 JUMPI PUSH0 PUSH0 REVERT JUMPDEST PUSH0 PUSH1 0x40 MLOAD DUP1 PUSH1 0x60 ADD PUSH1 0x40 MSTORE DUP1 DUP7 DUP2 MSTORE PUSH1 0x20 ADD DUP6 DUP2 MSTORE PUSH1 0x20 ADD DUP5 DUP5 DUP1 DUP1 PUSH1 0x1F ADD PUSH1 0x20 DUP1 SWAP2 DIV MUL PUSH1 0x20 ADD PUSH1 0x40 MLOAD SWAP1 DUP2 ADD PUSH1 0x40 MSTORE DUP1 SWAP4 SWAP3 SWAP2 SWAP1 DUP2 DUP2 MSTORE PUSH1 0x20 ADD DUP4 DUP4 DUP1 DUP3 DUP5 CALLDATACOPY PUSH0 DUP2 DUP5 ADD MSTORE PUSH1 0x1F NOT PUSH1 0x1F DUP3 ADD AND SWAP1 POP DUP1 DUP4 ADD SWAP3 POP POP POP POP POP POP POP DUP2 MSTORE POP SWAP1 POP PUSH0 PUSH0 CALLER PUSH20 0xFFFFFFFFFFFFFFFFFFFFFFFFFFFFFFFFFFFFFFFF AND PUSH20 0xFFFFFFFFFFFFFFFFFFFFFFFFFFFFFFFFFFFFFFFF AND DUP2 MSTORE PUSH1 0x20 ADD SWAP1 DUP2 MSTORE PUSH1 0x20 ADD PUSH0 KECCAK256 DUP2 SWAP1 DUP1 PUSH1 0x1 DUP2 SLOAD ADD DUP1 DUP3 SSTORE DUP1 SWAP2 POP POP PUSH1 0x1 SWAP1 SUB SWAP1 PUSH0 MSTORE PUSH1 0x20 PUSH0 KECCAK256 SWAP1 PUSH1 0x3 MUL ADD PUSH0 SWAP1 SWAP2 SWAP1 SWAP2 SWAP1 SWAP2 POP PUSH0 DUP3 ADD MLOAD DUP2 PUSH0 ADD SSTORE PUSH1 0x20 DUP3 ADD MLOAD DUP2 PUSH1 0x1 ADD SSTORE PUSH1 0x40 DUP3 ADD MLOAD DUP2 PUSH1 0x2 ADD SWAP1 DUP2 PUSH2 0x383 SWAP2 SWAP1 PUSH2 0x881 JUMP JUMPDEST POP POP POP POP POP POP POP POP JUMP JUMPDEST PUSH0 PUSH0 DUP4 MLOAD SWAP1 POP PUSH2 0x2710 DUP2 LT PUSH2 0x3A5 JUMPI PUSH2 0x3A4 PUSH2 0x950 JUMP JUMPDEST JUMPDEST PUSH0 PUSH0 SWAP1 POP JUMPDEST DUP2 DUP2 LT ISZERO PUSH2 0x3EE JUMPI DUP4 DUP6 DUP3 DUP2 MLOAD DUP2 LT PUSH2 0x3C6 JUMPI PUSH2 0x3C5 PUSH2 0x97D JUMP JUMPDEST JUMPDEST PUSH1 0x20 MUL PUSH1 0x20 ADD ADD MLOAD PUSH0 ADD MLOAD SUB PUSH2 0x3E1 JUMPI PUSH1 0x1 SWAP3 POP POP POP PUSH2 0x3F1 JUMP JUMPDEST DUP1 DUP1 PUSH1 0x1 ADD SWAP2 POP POP PUSH2 0x3AA JUMP JUMPDEST POP POP JUMPDEST SWAP3 SWAP2 POP POP JUMP JUMPDEST PUSH0 PUSH0 REVERT JUMPDEST PUSH0 PUSH0 REVERT JUMPDEST PUSH0 PUSH20 0xFFFFFFFFFFFFFFFFFFFFFFFFFFFFFFFFFFFFFFFF DUP3 AND SWAP1 POP SWAP2 SWAP1 POP JUMP JUMPDEST PUSH0 PUSH2 0x428 DUP3 PUSH2 0x3FF JUMP JUMPDEST SWAP1 POP SWAP2 SWAP1 POP JUMP JUMPDEST PUSH2 0x438 DUP2 PUSH2 0x41E JUMP JUMPDEST DUP2 EQ PUSH2 0x442 JUMPI PUSH0 PUSH0 REVERT JUMPDEST POP JUMP JUMPDEST PUSH0 DUP2 CALLDATALOAD SWAP1 POP PUSH2 0x453 DUP2 PUSH2 0x42F JUMP JUMPDEST SWAP3 SWAP2 POP POP JUMP JUMPDEST PUSH0 DUP2 SWAP1 POP SWAP2 SWAP1 POP JUMP JUMPDEST PUSH2 0x46B DUP2 PUSH2 0x459 JUMP JUMPDEST DUP2 EQ PUSH2 0x475 JUMPI PUSH0 PUSH0 REVERT JUMPDEST POP JUMP JUMPDEST PUSH0 DUP2 CALLDATALOAD SWAP1 POP PUSH2 0x486 DUP2 PUSH2 0x462 JUMP JUMPDEST SWAP3 SWAP2 POP POP JUMP JUMPDEST PUSH0 PUSH0 PUSH1 0x40 DUP4 DUP6 SUB SLT ISZERO PUSH2 0x4A2 JUMPI PUSH2 0x4A1 PUSH2 0x3F7 JUMP JUMPDEST JUMPDEST PUSH0 PUSH2 0x4AF DUP6 DUP3 DUP7 ADD PUSH2 0x445 JUMP JUMPDEST SWAP3 POP POP PUSH1 0x20 PUSH2 0x4C0 DUP6 DUP3 DUP7 ADD PUSH2 0x478 JUMP JUMPDEST SWAP2 POP POP SWAP3 POP SWAP3 SWAP1 POP JUMP JUMPDEST PUSH2 0x4D3 DUP2 PUSH2 0x459 JUMP JUMPDEST DUP3 MSTORE POP POP JUMP JUMPDEST PUSH0 DUP2 MLOAD SWAP1 POP SWAP2 SWAP1 POP JUMP JUMPDEST PUSH0 DUP3 DUP3 MSTORE PUSH1 0x20 DUP3 ADD SWAP1 POP SWAP3 SWAP2 POP POP JUMP JUMPDEST DUP3 DUP2 DUP4 MCOPY PUSH0 DUP4 DUP4 ADD MSTORE POP POP POP JUMP JUMPDEST PUSH0 PUSH1 0x1F NOT PUSH1 0x1F DUP4 ADD AND SWAP1 POP SWAP2 SWAP1 POP JUMP JUMPDEST PUSH0 PUSH2 0x51B DUP3 PUSH2 0x4D9 JUMP JUMPDEST PUSH2 0x525 DUP2 DUP6 PUSH2 0x4E3 JUMP JUMPDEST SWAP4 POP PUSH2 0x535 DUP2 DUP6 PUSH1 0x20 DUP7 ADD PUSH2 0x4F3 JUMP JUMPDEST PUSH2 0x53E DUP2 PUSH2 0x501 JUMP JUMPDEST DUP5 ADD SWAP2 POP POP SWAP3 SWAP2 POP POP JUMP JUMPDEST PUSH0 PUSH1 0x60 DUP3 ADD SWAP1 POP PUSH2 0x55C PUSH0 DUP4 ADD DUP7 PUSH2 0x4CA JUMP JUMPDEST PUSH2 0x569 PUSH1 0x20 DUP4 ADD DUP6 PUSH2 0x4CA JUMP JUMPDEST DUP2 DUP2 SUB PUSH1 0x40 DUP4 ADD MSTORE PUSH2 0x57B DUP2 DUP5 PUSH2 0x511 JUMP JUMPDEST SWAP1 POP SWAP5 SWAP4 POP POP POP POP JUMP JUMPDEST PUSH0 PUSH0 REVERT JUMPDEST PUSH0 PUSH0 REVERT JUMPDEST PUSH0 PUSH0 REVERT JUMPDEST PUSH0 PUSH0 DUP4 PUSH1 0x1F DUP5 ADD SLT PUSH2 0x5A6 JUMPI PUSH2 0x5A5 PUSH2 0x585 JUMP JUMPDEST JUMPDEST DUP3 CALLDATALOAD SWAP1 POP PUSH8 0xFFFFFFFFFFFFFFFF DUP2 GT ISZERO PUSH2 0x5C3 JUMPI PUSH2 0x5C2 PUSH2 0x589 JUMP JUMPDEST JUMPDEST PUSH1 0x20 DUP4 ADD SWAP2 POP DUP4 PUSH1 0x1 DUP3 MUL DUP4 ADD GT ISZERO PUSH2 0x5DF JUMPI PUSH2 0x5DE PUSH2 0x58D JUMP JUMPDEST JUMPDEST SWAP3 POP SWAP3 SWAP1 POP JUMP JUMPDEST PUSH0 PUSH0 PUSH0 PUSH0 PUSH1 0x60 DUP6 DUP8 SUB SLT ISZERO PUSH2 0x5FE JUMPI PUSH2 0x5FD PUSH2 0x3F7 JUMP JUMPDEST JUMPDEST PUSH0 PUSH2 0x60B DUP8 DUP3 DUP9 ADD PUSH2 0x478 JUMP JUMPDEST SWAP5 POP POP PUSH1 0x20 PUSH2 0x61C DUP8 DUP3 DUP9 ADD PUSH2 0x478 JUMP JUMPDEST SWAP4 POP POP PUSH1 0x40 DUP6 ADD CALLDATALOAD PUSH8 0xFFFFFFFFFFFFFFFF DUP2 GT ISZERO PUSH2 0x63D JUMPI PUSH2 0x63C PUSH2 0x3FB JUMP JUMPDEST JUMPDEST PUSH2 0x649 DUP8 DUP3 DUP9 ADD PUSH2 0x591 JUMP JUMPDEST SWAP3 POP SWAP3 POP POP SWAP3 SWAP6 SWAP2 SWAP5 POP SWAP3 POP JUMP JUMPDEST PUSH32 0x4E487B7100000000000000000000000000000000000000000000000000000000 PUSH0 MSTORE PUSH1 0x22 PUSH1 0x4 MSTORE PUSH1 0x24 PUSH0 REVERT JUMPDEST PUSH0 PUSH1 0x2 DUP3 DIV SWAP1 POP PUSH1 0x1 DUP3 AND DUP1 PUSH2 0x69B JUMPI PUSH1 0x7F DUP3 AND SWAP2 POP JUMPDEST PUSH1 0x20 DUP3 LT DUP2 SUB PUSH2 0x6AE JUMPI PUSH2 0x6AD PUSH2 0x657 JUMP JUMPDEST JUMPDEST POP SWAP2 SWAP1 POP JUMP JUMPDEST PUSH32 0x4E487B7100000000000000000000000000000000000000000000000000000000 PUSH0 MSTORE PUSH1 0x41 PUSH1 0x4 MSTORE PUSH1 0x24 PUSH0 REVERT JUMPDEST PUSH0 DUP2 SWAP1 POP DUP2 PUSH0 MSTORE PUSH1 0x20 PUSH0 KECCAK256 SWAP1 POP SWAP2 SWAP1 POP JUMP JUMPDEST PUSH0 PUSH1 0x20 PUSH1 0x1F DUP4 ADD DIV SWAP1 POP SWAP2 SWAP1 POP JUMP JUMPDEST PUSH0 DUP3 DUP3 SHL SWAP1 POP SWAP3 SWAP2 POP POP JUMP JUMPDEST PUSH0 PUSH1 0x8 DUP4 MUL PUSH2 0x73D PUSH32 0xFFFFFFFFFFFFFFFFFFFFFFFFFFFFFFFFFFFFFFFFFFFFFFFFFFFFFFFFFFFFFFFF DUP3 PUSH2 0x702 JUMP JUMPDEST PUSH2 0x747 DUP7 DUP4 PUSH2 0x702 JUMP JUMPDEST SWAP6 POP DUP1 NOT DUP5 AND SWAP4 POP DUP1 DUP7 AND DUP5 OR SWAP3 POP POP POP SWAP4 SWAP3 POP POP POP JUMP JUMPDEST PUSH0 DUP2 SWAP1 POP SWAP2 SWAP1 POP JUMP JUMPDEST PUSH0 PUSH2 0x782 PUSH2 0x77D PUSH2 0x778 DUP5 PUSH2 0x459 JUMP JUMPDEST PUSH2 0x75F JUMP JUMPDEST PUSH2 0x459 JUMP JUMPDEST SWAP1 POP SWAP2 SWAP1 POP JUMP JUMPDEST PUSH0 DUP2 SWAP1 POP SWAP2 SWAP1 POP JUMP JUMPDEST PUSH2 0x79B DUP4 PUSH2 0x768 JUMP JUMPDEST PUSH2 0x7AF PUSH2 0x7A7 DUP3 PUSH2 0x789 JUMP JUMPDEST DUP5 DUP5 SLOAD PUSH2 0x70E JUMP JUMPDEST DUP3 SSTORE POP POP POP POP JUMP JUMPDEST PUSH0 PUSH0 SWAP1 POP SWAP1 JUMP JUMPDEST PUSH2 0x7C6 PUSH2 0x7B7 JUMP JUMPDEST PUSH2 0x7D1 DUP2 DUP5 DUP5 PUSH2 0x792 JUMP JUMPDEST POP POP POP JUMP JUMPDEST JUMPDEST DUP2 DUP2 LT ISZERO PUSH2 0x7F4 JUMPI PUSH2 0x7E9 PUSH0 DUP3 PUSH2 0x7BE JUMP JUMPDEST PUSH1 0x1 DUP2 ADD SWAP1 POP PUSH2 0x7D7 JUMP JUMPDEST POP POP JUMP JUMPDEST PUSH1 0x1F DUP3 GT ISZERO PUSH2 0x839 JUMPI PUSH2 0x80A DUP2 PUSH2 0x6E1 JUMP JUMPDEST PUSH2 0x813 DUP5 PUSH2 0x6F3 JUMP JUMPDEST DUP2 ADD PUSH1 0x20 DUP6 LT ISZERO PUSH2 0x822 JUMPI DUP2 SWAP1 POP JUMPDEST PUSH2 0x836 PUSH2 0x82E DUP6 PUSH2 0x6F3 JUMP JUMPDEST DUP4 ADD DUP3 PUSH2 0x7D6 JUMP JUMPDEST POP POP JUMPDEST POP POP POP JUMP JUMPDEST PUSH0 DUP3 DUP3 SHR SWAP1 POP SWAP3 SWAP2 POP POP JUMP JUMPDEST PUSH0 PUSH2 0x859 PUSH0 NOT DUP5 PUSH1 0x8 MUL PUSH2 0x83E JUMP JUMPDEST NOT DUP1 DUP4 AND SWAP2 POP POP SWAP3 SWAP2 POP POP JUMP JUMPDEST PUSH0 PUSH2 0x871 DUP4 DUP4 PUSH2 0x84A JUMP JUMPDEST SWAP2 POP DUP3 PUSH1 0x2 MUL DUP3 OR SWAP1 POP SWAP3 SWAP2 POP POP JUMP JUMPDEST PUSH2 0x88A DUP3 PUSH2 0x4D9 JUMP JUMPDEST PUSH8 0xFFFFFFFFFFFFFFFF DUP2 GT ISZERO PUSH2 0x8A3 JUMPI PUSH2 0x8A2 PUSH2 0x6B4 JUMP JUMPDEST JUMPDEST PUSH2 0x8AD DUP3 SLOAD PUSH2 0x684 JUMP JUMPDEST PUSH2 0x8B8 DUP3 DUP3 DUP6 PUSH2 0x7F8 JUMP JUMPDEST PUSH0 PUSH1 0x20 SWAP1 POP PUSH1 0x1F DUP4 GT PUSH1 0x1 DUP2 EQ PUSH2 0x8E9 JUMPI PUSH0 DUP5 ISZERO PUSH2 0x8D7 JUMPI DUP3 DUP8 ADD MLOAD SWAP1 POP JUMPDEST PUSH2 0x8E1 DUP6 DUP3 PUSH2 0x866 JUMP JUMPDEST DUP7 SSTORE POP PUSH2 0x948 JUMP JUMPDEST PUSH1 0x1F NOT DUP5 AND PUSH2 0x8F7 DUP7 PUSH2 0x6E1 JUMP JUMPDEST PUSH0 JUMPDEST DUP3 DUP2 LT ISZERO PUSH2 0x91E JUMPI DUP5 DUP10 ADD MLOAD DUP3 SSTORE PUSH1 0x1 DUP3 ADD SWAP2 POP PUSH1 0x20 DUP6 ADD SWAP5 POP PUSH1 0x20 DUP2 ADD SWAP1 POP PUSH2 0x8F9 JUMP JUMPDEST DUP7 DUP4 LT ISZERO PUSH2 0x93B JUMPI DUP5 DUP10 ADD MLOAD PUSH2 0x937 PUSH1 0x1F DUP10 AND DUP3 PUSH2 0x84A JUMP JUMPDEST DUP4 SSTORE POP JUMPDEST PUSH1 0x1 PUSH1 0x2 DUP9 MUL ADD DUP9 SSTORE POP POP POP JUMPDEST POP POP POP POP POP POP JUMP JUMPDEST PUSH32 0x4E487B7100000000000000000000000000000000000000000000000000000000 PUSH0 MSTORE PUSH1 0x1 PUSH1 0x4 MSTORE PUSH1 0x24 PUSH0 REVERT JUMPDEST PUSH32 0x4E487B7100000000000000000000000000000000000000000000000000000000 PUSH0 MSTORE PUSH1 0x32 PUSH1 0x4 MSTORE PUSH1 0x24 PUSH0 REVERT INVALID LOG2 PUSH5 0x6970667358 0x22 SLT KECCAK256 SGT DUP10 0xAE PUSH26 0x2A63C4BDBE81D96546608A30BE9BF9E20D00A636AFBB4D743101 0xD4 ADD PUSH5 0x736F6C6343 STOP ADDMOD SHR STOP CALLER "
				},
				"gasEstimates": {
					"creation": {
						"codeDepositCost": "505600",
						"executionCost": "535",
						"totalCost": "506135"
					},
					"external": {
						"addCard(uint256,uint256,string)": "infinite",
						"collections(address,uint256)": "infinite"
					}
				},
				"methodIdentifiers": {
					"addCard(uint256,uint256,string)": "b503ef19",
					"collections(address,uint256)": "49a764cd"
				}
			},
			"storageLayout": {
				"storage": [
					{
						"astId": 65,
						"contract": "Libraries and Tools/CollectibleCard.sol:CollectibleCardLibrary",
						"label": "collections",
						"offset": 0,
						"slot": "0",
						"type": "t_mapping(t_address,t_array(t_struct(Card)8_storage)dyn_storage)"
					}
				],
				"types": {
					"t_address": {
						"encoding": "inplace",
						"label": "address",
						"numberOfBytes": "20"
					},
					"t_array(t_struct(Card)8_storage)dyn_storage": {
						"base": "t_struct(Card)8_storage",
						"encoding": "dynamic_array",
						"label": "struct Card[]",
						"numberOfBytes": "32"
					},
					"t_mapping(t_address,t_array(t_struct(Card)8_storage)dyn_storage)": {
						"encoding": "mapping",
						"key": "t_address",
						"label": "mapping(address => struct Card[])",
						"numberOfBytes": "32",
						"value": "t_array(t_struct(Card)8_storage)dyn_storage"
					},
					"t_string_storage": {
						"encoding": "bytes",
						"label": "string",
						"numberOfBytes": "32"
					},
					"t_struct(Card)8_storage": {
						"encoding": "inplace",
						"label": "struct Card",
						"members": [
							{
								"astId": 3,
								"contract": "Libraries and Tools/CollectibleCard.sol:CollectibleCardLibrary",
								"label": "id",
								"offset": 0,
								"slot": "0",
								"type": "t_uint256"
							},
							{
								"astId": 5,
								"contract": "Libraries and Tools/CollectibleCard.sol:CollectibleCardLibrary",
								"label": "power",
								"offset": 0,
								"slot": "1",
								"type": "t_uint256"
							},
							{
								"astId": 7,
								"contract": "Libraries and Tools/CollectibleCard.sol:CollectibleCardLibrary",
								"label": "name",
								"offset": 0,
								"slot": "2",
								"type": "t_string_storage"
							}
						],
						"numberOfBytes": "96"
					},
					"t_uint256": {
						"encoding": "inplace",
						"label": "uint256",
						"numberOfBytes": "32"
					}
				}
			},
			"userdoc": {
				"kind": "user",
				"methods": {},
				"version": 1
			}
		}
	}
}