{
	"SolidityFund/MessageBoard.sol": {
		"MessageBoard": {
			"abi": [
				{
					"inputs": [
						{
							"internalType": "string",
							"name": "message",
							"type": "string"
						}
					],
					"name": "keepMessages",
					"outputs": [],
					"stateMutability": "nonpayable",
					"type": "function"
				},
				{
					"inputs": [
						{
							"internalType": "address",
							"name": "",
							"type": "address"
						},
						{
							"internalType": "uint256",
							"name": "",
							"type": "uint256"
						}
					],
					"name": "messages",
					"outputs": [
						{
							"internalType": "string",
							"name": "",
							"type": "string"
						}
					],
					"stateMutability": "view",
					"type": "function"
				},
				{
					"inputs": [
						{
							"internalType": "string",
							"name": "message",
							"type": "string"
						}
					],
					"name": "previewMessage",
					"outputs": [
						{
							"internalType": "string",
							"name": "",
							"type": "string"
						}
					],
					"stateMutability": "pure",
					"type": "function"
				}
			],
			"devdoc": {
				"kind": "dev",
				"methods": {},
				"version": 1
			},
			"evm": {
				"assembly": "    /* \"SolidityFund/MessageBoard.sol\":57:400  contract MessageBoard {... */\n  mstore(0x40, 0x80)\n  callvalue\n  dup1\n  iszero\n  tag_1\n  jumpi\n  revert(0x00, 0x00)\ntag_1:\n  pop\n  dataSize(sub_0)\n  dup1\n  dataOffset(sub_0)\n  0x00\n  codecopy\n  0x00\n  return\nstop\n\nsub_0: assembly {\n        /* \"SolidityFund/MessageBoard.sol\":57:400  contract MessageBoard {... */\n      mstore(0x40, 0x80)\n      callvalue\n      dup1\n      iszero\n      tag_1\n      jumpi\n      revert(0x00, 0x00)\n    tag_1:\n      pop\n      jumpi(tag_2, lt(calldatasize, 0x04))\n      shr(0xe0, calldataload(0x00))\n      dup1\n      0x64682bf0\n      eq\n      tag_3\n      jumpi\n      dup1\n      0xbff3e651\n      eq\n      tag_4\n      jumpi\n      dup1\n      0xc45d9bea\n      eq\n      tag_5\n      jumpi\n    tag_2:\n      revert(0x00, 0x00)\n        /* \"SolidityFund/MessageBoard.sol\":248:397  function previewMessage(string calldata message) external pure returns (string memory) {... */\n    tag_3:\n      tag_6\n      0x04\n      dup1\n      calldatasize\n      sub\n      dup2\n      add\n      swap1\n      tag_7\n      swap2\n      swap1\n      tag_8\n      jump\t// in\n    tag_7:\n      tag_9\n      jump\t// in\n    tag_6:\n      mload(0x40)\n      tag_10\n      swap2\n      swap1\n      tag_11\n      jump\t// in\n    tag_10:\n      mload(0x40)\n      dup1\n      swap2\n      sub\n      swap1\n      return\n        /* \"SolidityFund/MessageBoard.sol\":136:243  function keepMessages(string calldata message) external {... */\n    tag_4:\n      tag_12\n      0x04\n      dup1\n      calldatasize\n      sub\n      dup2\n      add\n      swap1\n      tag_13\n      swap2\n      swap1\n      tag_8\n      jump\t// in\n    tag_13:\n      tag_14\n      jump\t// in\n    tag_12:\n      stop\n        /* \"SolidityFund/MessageBoard.sol\":85:129  mapping(address => string[]) public messages */\n    tag_5:\n      tag_15\n      0x04\n      dup1\n      calldatasize\n      sub\n      dup2\n      add\n      swap1\n      tag_16\n      swap2\n      swap1\n      tag_17\n      jump\t// in\n    tag_16:\n      tag_18\n      jump\t// in\n    tag_15:\n      mload(0x40)\n      tag_19\n      swap2\n      swap1\n      tag_11\n      jump\t// in\n    tag_19:\n      mload(0x40)\n      dup1\n      swap2\n      sub\n      swap1\n      return\n        /* \"SolidityFund/MessageBoard.sol\":248:397  function previewMessage(string calldata message) external pure returns (string memory) {... */\n    tag_9:\n        /* \"SolidityFund/MessageBoard.sol\":320:333  string memory */\n      0x60\n        /* \"SolidityFund/MessageBoard.sol\":381:388  message */\n      dup3\n      dup3\n        /* \"SolidityFund/MessageBoard.sol\":359:389  abi.encode(\"Draft: \", message) */\n      add(0x20, mload(0x40))\n      tag_21\n      swap3\n      swap2\n      swap1\n      tag_22\n      jump\t// in\n    tag_21:\n      mload(0x40)\n      0x20\n      dup2\n      dup4\n      sub\n      sub\n      dup2\n      mstore\n      swap1\n      0x40\n      mstore\n        /* \"SolidityFund/MessageBoard.sol\":345:390  return string(abi.encode(\"Draft: \", message)) */\n      swap1\n      pop\n        /* \"SolidityFund/MessageBoard.sol\":248:397  function previewMessage(string calldata message) external pure returns (string memory) {... */\n      swap3\n      swap2\n      pop\n      pop\n      jump\t// out\n        /* \"SolidityFund/MessageBoard.sol\":136:243  function keepMessages(string calldata message) external {... */\n    tag_14:\n        /* \"SolidityFund/MessageBoard.sol\":202:210  messages */\n      0x00\n        /* \"SolidityFund/MessageBoard.sol\":202:222  messages[msg.sender] */\n      0x00\n        /* \"SolidityFund/MessageBoard.sol\":211:221  msg.sender */\n      caller\n        /* \"SolidityFund/MessageBoard.sol\":202:222  messages[msg.sender] */\n      0xffffffffffffffffffffffffffffffffffffffff\n      and\n      0xffffffffffffffffffffffffffffffffffffffff\n      and\n      dup2\n      mstore\n      0x20\n      add\n      swap1\n      dup2\n      mstore\n      0x20\n      add\n      0x00\n      keccak256\n        /* \"SolidityFund/MessageBoard.sol\":228:235  message */\n      dup3\n      dup3\n        /* \"SolidityFund/MessageBoard.sol\":202:236  messages[msg.sender].push(message) */\n      swap1\n      swap2\n      dup1\n      0x01\n      dup2\n      sload\n      add\n      dup1\n      dup3\n      sstore\n      dup1\n      swap2\n      pop\n      pop\n      0x01\n      swap1\n      sub\n      swap1\n      0x00\n      mstore\n      keccak256(0x00, 0x20)\n      add\n      0x00\n      swap1\n      swap2\n      swap3\n      swap1\n      swap2\n      swap3\n      swap1\n      swap2\n      swap3\n      swap1\n      swap2\n      swap3\n      pop\n      swap2\n      dup3\n      tag_25\n      swap3\n      swap2\n      swap1\n      tag_26\n      jump\t// in\n    tag_25:\n      pop\n        /* \"SolidityFund/MessageBoard.sol\":136:243  function keepMessages(string calldata message) external {... */\n      pop\n      pop\n      jump\t// out\n        /* \"SolidityFund/MessageBoard.sol\":85:129  mapping(address => string[]) public messages */\n    tag_18:\n      mstore(0x20, 0x00)\n      dup2\n      0x00\n      mstore\n      keccak256(0x00, 0x40)\n      dup2\n      dup2\n      sload\n      dup2\n      lt\n      tag_27\n      jumpi\n      0x00\n      dup1\n      revert\n    tag_27:\n      swap1\n      0x00\n      mstore\n      keccak256(0x00, 0x20)\n      add\n      0x00\n      swap2\n      pop\n      swap2\n      pop\n      pop\n      dup1\n      sload\n      tag_29\n      swap1\n      tag_30\n      jump\t// in\n    tag_29:\n      dup1\n      0x1f\n      add\n      0x20\n      dup1\n      swap2\n      div\n      mul\n      0x20\n      add\n      mload(0x40)\n      swap1\n      dup2\n      add\n      0x40\n      mstore\n      dup1\n      swap3\n      swap2\n      swap1\n      dup2\n      dup2\n      mstore\n      0x20\n      add\n      dup3\n      dup1\n      sload\n      tag_31\n      swap1\n      tag_30\n      jump\t// in\n    tag_31:\n      dup1\n      iszero\n      tag_32\n      jumpi\n      dup1\n      0x1f\n      lt\n      tag_33\n      jumpi\n      0x0100\n      dup1\n      dup4\n      sload\n      div\n      mul\n      dup4\n      mstore\n      swap2\n      0x20\n      add\n      swap2\n      jump(tag_32)\n    tag_33:\n      dup3\n      add\n      swap2\n      swap1\n      0x00\n      mstore\n      keccak256(0x00, 0x20)\n      swap1\n    tag_34:\n      dup2\n      sload\n      dup2\n      mstore\n      swap1\n      0x01\n      add\n      swap1\n      0x20\n      add\n      dup1\n      dup4\n      gt\n      tag_34\n      jumpi\n      dup3\n      swap1\n      sub\n      0x1f\n      and\n      dup3\n      add\n      swap2\n    tag_32:\n      pop\n      pop\n      pop\n      pop\n      pop\n      dup2\n      jump\t// out\n        /* \"#utility.yul\":88:205   */\n    tag_36:\n        /* \"#utility.yul\":197:198   */\n      0x00\n        /* \"#utility.yul\":194:195   */\n      0x00\n        /* \"#utility.yul\":187:199   */\n      revert\n        /* \"#utility.yul\":211:328   */\n    tag_37:\n        /* \"#utility.yul\":320:321   */\n      0x00\n        /* \"#utility.yul\":317:318   */\n      0x00\n        /* \"#utility.yul\":310:322   */\n      revert\n        /* \"#utility.yul\":334:451   */\n    tag_38:\n        /* \"#utility.yul\":443:444   */\n      0x00\n        /* \"#utility.yul\":440:441   */\n      0x00\n        /* \"#utility.yul\":433:445   */\n      revert\n        /* \"#utility.yul\":457:574   */\n    tag_39:\n        /* \"#utility.yul\":566:567   */\n      0x00\n        /* \"#utility.yul\":563:564   */\n      0x00\n        /* \"#utility.yul\":556:568   */\n      revert\n        /* \"#utility.yul\":580:697   */\n    tag_40:\n        /* \"#utility.yul\":689:690   */\n      0x00\n        /* \"#utility.yul\":686:687   */\n      0x00\n        /* \"#utility.yul\":679:691   */\n      revert\n        /* \"#utility.yul\":717:1270   */\n    tag_41:\n        /* \"#utility.yul\":775:783   */\n      0x00\n        /* \"#utility.yul\":785:791   */\n      0x00\n        /* \"#utility.yul\":835:838   */\n      dup4\n        /* \"#utility.yul\":828:832   */\n      0x1f\n        /* \"#utility.yul\":820:826   */\n      dup5\n        /* \"#utility.yul\":816:833   */\n      add\n        /* \"#utility.yul\":812:839   */\n      slt\n        /* \"#utility.yul\":802:924   */\n      tag_84\n      jumpi\n        /* \"#utility.yul\":843:922   */\n      tag_85\n      tag_38\n      jump\t// in\n    tag_85:\n        /* \"#utility.yul\":802:924   */\n    tag_84:\n        /* \"#utility.yul\":956:962   */\n      dup3\n        /* \"#utility.yul\":943:963   */\n      calldataload\n        /* \"#utility.yul\":933:963   */\n      swap1\n      pop\n        /* \"#utility.yul\":986:1004   */\n      0xffffffffffffffff\n        /* \"#utility.yul\":978:984   */\n      dup2\n        /* \"#utility.yul\":975:1005   */\n      gt\n        /* \"#utility.yul\":972:1089   */\n      iszero\n      tag_86\n      jumpi\n        /* \"#utility.yul\":1008:1087   */\n      tag_87\n      tag_39\n      jump\t// in\n    tag_87:\n        /* \"#utility.yul\":972:1089   */\n    tag_86:\n        /* \"#utility.yul\":1122:1126   */\n      0x20\n        /* \"#utility.yul\":1114:1120   */\n      dup4\n        /* \"#utility.yul\":1110:1127   */\n      add\n        /* \"#utility.yul\":1098:1127   */\n      swap2\n      pop\n        /* \"#utility.yul\":1176:1179   */\n      dup4\n        /* \"#utility.yul\":1168:1172   */\n      0x01\n        /* \"#utility.yul\":1160:1166   */\n      dup3\n        /* \"#utility.yul\":1156:1173   */\n      mul\n        /* \"#utility.yul\":1146:1154   */\n      dup4\n        /* \"#utility.yul\":1142:1174   */\n      add\n        /* \"#utility.yul\":1139:1180   */\n      gt\n        /* \"#utility.yul\":1136:1264   */\n      iszero\n      tag_88\n      jumpi\n        /* \"#utility.yul\":1183:1262   */\n      tag_89\n      tag_40\n      jump\t// in\n    tag_89:\n        /* \"#utility.yul\":1136:1264   */\n    tag_88:\n        /* \"#utility.yul\":717:1270   */\n      swap3\n      pop\n      swap3\n      swap1\n      pop\n      jump\t// out\n        /* \"#utility.yul\":1276:1805   */\n    tag_8:\n        /* \"#utility.yul\":1347:1353   */\n      0x00\n        /* \"#utility.yul\":1355:1361   */\n      0x00\n        /* \"#utility.yul\":1404:1406   */\n      0x20\n        /* \"#utility.yul\":1392:1401   */\n      dup4\n        /* \"#utility.yul\":1383:1390   */\n      dup6\n        /* \"#utility.yul\":1379:1402   */\n      sub\n        /* \"#utility.yul\":1375:1407   */\n      slt\n        /* \"#utility.yul\":1372:1491   */\n      iszero\n      tag_91\n      jumpi\n        /* \"#utility.yul\":1410:1489   */\n      tag_92\n      tag_36\n      jump\t// in\n    tag_92:\n        /* \"#utility.yul\":1372:1491   */\n    tag_91:\n        /* \"#utility.yul\":1558:1559   */\n      0x00\n        /* \"#utility.yul\":1547:1556   */\n      dup4\n        /* \"#utility.yul\":1543:1560   */\n      add\n        /* \"#utility.yul\":1530:1561   */\n      calldataload\n        /* \"#utility.yul\":1588:1606   */\n      0xffffffffffffffff\n        /* \"#utility.yul\":1580:1586   */\n      dup2\n        /* \"#utility.yul\":1577:1607   */\n      gt\n        /* \"#utility.yul\":1574:1691   */\n      iszero\n      tag_93\n      jumpi\n        /* \"#utility.yul\":1610:1689   */\n      tag_94\n      tag_37\n      jump\t// in\n    tag_94:\n        /* \"#utility.yul\":1574:1691   */\n    tag_93:\n        /* \"#utility.yul\":1723:1788   */\n      tag_95\n        /* \"#utility.yul\":1780:1787   */\n      dup6\n        /* \"#utility.yul\":1771:1777   */\n      dup3\n        /* \"#utility.yul\":1760:1769   */\n      dup7\n        /* \"#utility.yul\":1756:1778   */\n      add\n        /* \"#utility.yul\":1723:1788   */\n      tag_41\n      jump\t// in\n    tag_95:\n        /* \"#utility.yul\":1705:1788   */\n      swap3\n      pop\n      swap3\n      pop\n        /* \"#utility.yul\":1501:1798   */\n      pop\n        /* \"#utility.yul\":1276:1805   */\n      swap3\n      pop\n      swap3\n      swap1\n      pop\n      jump\t// out\n        /* \"#utility.yul\":1811:1910   */\n    tag_42:\n        /* \"#utility.yul\":1863:1869   */\n      0x00\n        /* \"#utility.yul\":1897:1902   */\n      dup2\n        /* \"#utility.yul\":1891:1903   */\n      mload\n        /* \"#utility.yul\":1881:1903   */\n      swap1\n      pop\n        /* \"#utility.yul\":1811:1910   */\n      swap2\n      swap1\n      pop\n      jump\t// out\n        /* \"#utility.yul\":1916:2085   */\n    tag_43:\n        /* \"#utility.yul\":2000:2011   */\n      0x00\n        /* \"#utility.yul\":2034:2040   */\n      dup3\n        /* \"#utility.yul\":2029:2032   */\n      dup3\n        /* \"#utility.yul\":2022:2041   */\n      mstore\n        /* \"#utility.yul\":2074:2078   */\n      0x20\n        /* \"#utility.yul\":2069:2072   */\n      dup3\n        /* \"#utility.yul\":2065:2079   */\n      add\n        /* \"#utility.yul\":2050:2079   */\n      swap1\n      pop\n        /* \"#utility.yul\":1916:2085   */\n      swap3\n      swap2\n      pop\n      pop\n      jump\t// out\n        /* \"#utility.yul\":2091:2230   */\n    tag_44:\n        /* \"#utility.yul\":2180:2186   */\n      dup3\n        /* \"#utility.yul\":2175:2178   */\n      dup2\n        /* \"#utility.yul\":2170:2173   */\n      dup4\n        /* \"#utility.yul\":2164:2187   */\n      mcopy\n        /* \"#utility.yul\":2221:2222   */\n      0x00\n        /* \"#utility.yul\":2212:2218   */\n      dup4\n        /* \"#utility.yul\":2207:2210   */\n      dup4\n        /* \"#utility.yul\":2203:2219   */\n      add\n        /* \"#utility.yul\":2196:2223   */\n      mstore\n        /* \"#utility.yul\":2091:2230   */\n      pop\n      pop\n      pop\n      jump\t// out\n        /* \"#utility.yul\":2236:2338   */\n    tag_45:\n        /* \"#utility.yul\":2277:2283   */\n      0x00\n        /* \"#utility.yul\":2328:2330   */\n      0x1f\n        /* \"#utility.yul\":2324:2331   */\n      not\n        /* \"#utility.yul\":2319:2321   */\n      0x1f\n        /* \"#utility.yul\":2312:2317   */\n      dup4\n        /* \"#utility.yul\":2308:2322   */\n      add\n        /* \"#utility.yul\":2304:2332   */\n      and\n        /* \"#utility.yul\":2294:2332   */\n      swap1\n      pop\n        /* \"#utility.yul\":2236:2338   */\n      swap2\n      swap1\n      pop\n      jump\t// out\n        /* \"#utility.yul\":2344:2721   */\n    tag_46:\n        /* \"#utility.yul\":2432:2435   */\n      0x00\n        /* \"#utility.yul\":2460:2499   */\n      tag_101\n        /* \"#utility.yul\":2493:2498   */\n      dup3\n        /* \"#utility.yul\":2460:2499   */\n      tag_42\n      jump\t// in\n    tag_101:\n        /* \"#utility.yul\":2515:2586   */\n      tag_102\n        /* \"#utility.yul\":2579:2585   */\n      dup2\n        /* \"#utility.yul\":2574:2577   */\n      dup6\n        /* \"#utility.yul\":2515:2586   */\n      tag_43\n      jump\t// in\n    tag_102:\n        /* \"#utility.yul\":2508:2586   */\n      swap4\n      pop\n        /* \"#utility.yul\":2595:2660   */\n      tag_103\n        /* \"#utility.yul\":2653:2659   */\n      dup2\n        /* \"#utility.yul\":2648:2651   */\n      dup6\n        /* \"#utility.yul\":2641:2645   */\n      0x20\n        /* \"#utility.yul\":2634:2639   */\n      dup7\n        /* \"#utility.yul\":2630:2646   */\n      add\n        /* \"#utility.yul\":2595:2660   */\n      tag_44\n      jump\t// in\n    tag_103:\n        /* \"#utility.yul\":2685:2714   */\n      tag_104\n        /* \"#utility.yul\":2707:2713   */\n      dup2\n        /* \"#utility.yul\":2685:2714   */\n      tag_45\n      jump\t// in\n    tag_104:\n        /* \"#utility.yul\":2680:2683   */\n      dup5\n        /* \"#utility.yul\":2676:2715   */\n      add\n        /* \"#utility.yul\":2669:2715   */\n      swap2\n      pop\n        /* \"#utility.yul\":2436:2721   */\n      pop\n        /* \"#utility.yul\":2344:2721   */\n      swap3\n      swap2\n      pop\n      pop\n      jump\t// out\n        /* \"#utility.yul\":2727:3040   */\n    tag_11:\n        /* \"#utility.yul\":2840:2844   */\n      0x00\n        /* \"#utility.yul\":2878:2880   */\n      0x20\n        /* \"#utility.yul\":2867:2876   */\n      dup3\n        /* \"#utility.yul\":2863:2881   */\n      add\n        /* \"#utility.yul\":2855:2881   */\n      swap1\n      pop\n        /* \"#utility.yul\":2927:2936   */\n      dup2\n        /* \"#utility.yul\":2921:2925   */\n      dup2\n        /* \"#utility.yul\":2917:2937   */\n      sub\n        /* \"#utility.yul\":2913:2914   */\n      0x00\n        /* \"#utility.yul\":2902:2911   */\n      dup4\n        /* \"#utility.yul\":2898:2915   */\n      add\n        /* \"#utility.yul\":2891:2938   */\n      mstore\n        /* \"#utility.yul\":2955:3033   */\n      tag_106\n        /* \"#utility.yul\":3028:3032   */\n      dup2\n        /* \"#utility.yul\":3019:3025   */\n      dup5\n        /* \"#utility.yul\":2955:3033   */\n      tag_46\n      jump\t// in\n    tag_106:\n        /* \"#utility.yul\":2947:3033   */\n      swap1\n      pop\n        /* \"#utility.yul\":2727:3040   */\n      swap3\n      swap2\n      pop\n      pop\n      jump\t// out\n        /* \"#utility.yul\":3046:3172   */\n    tag_47:\n        /* \"#utility.yul\":3083:3090   */\n      0x00\n        /* \"#utility.yul\":3123:3165   */\n      0xffffffffffffffffffffffffffffffffffffffff\n        /* \"#utility.yul\":3116:3121   */\n      dup3\n        /* \"#utility.yul\":3112:3166   */\n      and\n        /* \"#utility.yul\":3101:3166   */\n      swap1\n      pop\n        /* \"#utility.yul\":3046:3172   */\n      swap2\n      swap1\n      pop\n      jump\t// out\n        /* \"#utility.yul\":3178:3274   */\n    tag_48:\n        /* \"#utility.yul\":3215:3222   */\n      0x00\n        /* \"#utility.yul\":3244:3268   */\n      tag_109\n        /* \"#utility.yul\":3262:3267   */\n      dup3\n        /* \"#utility.yul\":3244:3268   */\n      tag_47\n      jump\t// in\n    tag_109:\n        /* \"#utility.yul\":3233:3268   */\n      swap1\n      pop\n        /* \"#utility.yul\":3178:3274   */\n      swap2\n      swap1\n      pop\n      jump\t// out\n        /* \"#utility.yul\":3280:3402   */\n    tag_49:\n        /* \"#utility.yul\":3353:3377   */\n      tag_111\n        /* \"#utility.yul\":3371:3376   */\n      dup2\n        /* \"#utility.yul\":3353:3377   */\n      tag_48\n      jump\t// in\n    tag_111:\n        /* \"#utility.yul\":3346:3351   */\n      dup2\n        /* \"#utility.yul\":3343:3378   */\n      eq\n        /* \"#utility.yul\":3333:3396   */\n      tag_112\n      jumpi\n        /* \"#utility.yul\":3392:3393   */\n      0x00\n        /* \"#utility.yul\":3389:3390   */\n      0x00\n        /* \"#utility.yul\":3382:3394   */\n      revert\n        /* \"#utility.yul\":3333:3396   */\n    tag_112:\n        /* \"#utility.yul\":3280:3402   */\n      pop\n      jump\t// out\n        /* \"#utility.yul\":3408:3547   */\n    tag_50:\n        /* \"#utility.yul\":3454:3459   */\n      0x00\n        /* \"#utility.yul\":3492:3498   */\n      dup2\n        /* \"#utility.yul\":3479:3499   */\n      calldataload\n        /* \"#utility.yul\":3470:3499   */\n      swap1\n      pop\n        /* \"#utility.yul\":3508:3541   */\n      tag_114\n        /* \"#utility.yul\":3535:3540   */\n      dup2\n        /* \"#utility.yul\":3508:3541   */\n      tag_49\n      jump\t// in\n    tag_114:\n        /* \"#utility.yul\":3408:3547   */\n      swap3\n      swap2\n      pop\n      pop\n      jump\t// out\n        /* \"#utility.yul\":3553:3630   */\n    tag_51:\n        /* \"#utility.yul\":3590:3597   */\n      0x00\n        /* \"#utility.yul\":3619:3624   */\n      dup2\n        /* \"#utility.yul\":3608:3624   */\n      swap1\n      pop\n        /* \"#utility.yul\":3553:3630   */\n      swap2\n      swap1\n      pop\n      jump\t// out\n        /* \"#utility.yul\":3636:3758   */\n    tag_52:\n        /* \"#utility.yul\":3709:3733   */\n      tag_117\n        /* \"#utility.yul\":3727:3732   */\n      dup2\n        /* \"#utility.yul\":3709:3733   */\n      tag_51\n      jump\t// in\n    tag_117:\n        /* \"#utility.yul\":3702:3707   */\n      dup2\n        /* \"#utility.yul\":3699:3734   */\n      eq\n        /* \"#utility.yul\":3689:3752   */\n      tag_118\n      jumpi\n        /* \"#utility.yul\":3748:3749   */\n      0x00\n        /* \"#utility.yul\":3745:3746   */\n      0x00\n        /* \"#utility.yul\":3738:3750   */\n      revert\n        /* \"#utility.yul\":3689:3752   */\n    tag_118:\n        /* \"#utility.yul\":3636:3758   */\n      pop\n      jump\t// out\n        /* \"#utility.yul\":3764:3903   */\n    tag_53:\n        /* \"#utility.yul\":3810:3815   */\n      0x00\n        /* \"#utility.yul\":3848:3854   */\n      dup2\n        /* \"#utility.yul\":3835:3855   */\n      calldataload\n        /* \"#utility.yul\":3826:3855   */\n      swap1\n      pop\n        /* \"#utility.yul\":3864:3897   */\n      tag_120\n        /* \"#utility.yul\":3891:3896   */\n      dup2\n        /* \"#utility.yul\":3864:3897   */\n      tag_52\n      jump\t// in\n    tag_120:\n        /* \"#utility.yul\":3764:3903   */\n      swap3\n      swap2\n      pop\n      pop\n      jump\t// out\n        /* \"#utility.yul\":3909:4383   */\n    tag_17:\n        /* \"#utility.yul\":3977:3983   */\n      0x00\n        /* \"#utility.yul\":3985:3991   */\n      0x00\n        /* \"#utility.yul\":4034:4036   */\n      0x40\n        /* \"#utility.yul\":4022:4031   */\n      dup4\n        /* \"#utility.yul\":4013:4020   */\n      dup6\n        /* \"#utility.yul\":4009:4032   */\n      sub\n        /* \"#utility.yul\":4005:4037   */\n      slt\n        /* \"#utility.yul\":4002:4121   */\n      iszero\n      tag_122\n      jumpi\n        /* \"#utility.yul\":4040:4119   */\n      tag_123\n      tag_36\n      jump\t// in\n    tag_123:\n        /* \"#utility.yul\":4002:4121   */\n    tag_122:\n        /* \"#utility.yul\":4160:4161   */\n      0x00\n        /* \"#utility.yul\":4185:4238   */\n      tag_124\n        /* \"#utility.yul\":4230:4237   */\n      dup6\n        /* \"#utility.yul\":4221:4227   */\n      dup3\n        /* \"#utility.yul\":4210:4219   */\n      dup7\n        /* \"#utility.yul\":4206:4228   */\n      add\n        /* \"#utility.yul\":4185:4238   */\n      tag_50\n      jump\t// in\n    tag_124:\n        /* \"#utility.yul\":4175:4238   */\n      swap3\n      pop\n        /* \"#utility.yul\":4131:4248   */\n      pop\n        /* \"#utility.yul\":4287:4289   */\n      0x20\n        /* \"#utility.yul\":4313:4366   */\n      tag_125\n        /* \"#utility.yul\":4358:4365   */\n      dup6\n        /* \"#utility.yul\":4349:4355   */\n      dup3\n        /* \"#utility.yul\":4338:4347   */\n      dup7\n        /* \"#utility.yul\":4334:4356   */\n      add\n        /* \"#utility.yul\":4313:4366   */\n      tag_53\n      jump\t// in\n    tag_125:\n        /* \"#utility.yul\":4303:4366   */\n      swap2\n      pop\n        /* \"#utility.yul\":4258:4376   */\n      pop\n        /* \"#utility.yul\":3909:4383   */\n      swap3\n      pop\n      swap3\n      swap1\n      pop\n      jump\t// out\n        /* \"#utility.yul\":4389:4546   */\n    tag_54:\n        /* \"#utility.yul\":4529:4538   */\n      0x44726166743a2000000000000000000000000000000000000000000000000000\n        /* \"#utility.yul\":4525:4526   */\n      0x00\n        /* \"#utility.yul\":4517:4523   */\n      dup3\n        /* \"#utility.yul\":4513:4527   */\n      add\n        /* \"#utility.yul\":4506:4539   */\n      mstore\n        /* \"#utility.yul\":4389:4546   */\n      pop\n      jump\t// out\n        /* \"#utility.yul\":4552:4917   */\n    tag_55:\n        /* \"#utility.yul\":4694:4697   */\n      0x00\n        /* \"#utility.yul\":4715:4781   */\n      tag_128\n        /* \"#utility.yul\":4779:4780   */\n      0x07\n        /* \"#utility.yul\":4774:4777   */\n      dup4\n        /* \"#utility.yul\":4715:4781   */\n      tag_43\n      jump\t// in\n    tag_128:\n        /* \"#utility.yul\":4708:4781   */\n      swap2\n      pop\n        /* \"#utility.yul\":4790:4883   */\n      tag_129\n        /* \"#utility.yul\":4879:4882   */\n      dup3\n        /* \"#utility.yul\":4790:4883   */\n      tag_54\n      jump\t// in\n    tag_129:\n        /* \"#utility.yul\":4908:4910   */\n      0x20\n        /* \"#utility.yul\":4903:4906   */\n      dup3\n        /* \"#utility.yul\":4899:4911   */\n      add\n        /* \"#utility.yul\":4892:4911   */\n      swap1\n      pop\n        /* \"#utility.yul\":4552:4917   */\n      swap2\n      swap1\n      pop\n      jump\t// out\n        /* \"#utility.yul\":4923:5071   */\n    tag_56:\n        /* \"#utility.yul\":5021:5027   */\n      dup3\n        /* \"#utility.yul\":5016:5019   */\n      dup2\n        /* \"#utility.yul\":5011:5014   */\n      dup4\n        /* \"#utility.yul\":4998:5028   */\n      calldatacopy\n        /* \"#utility.yul\":5062:5063   */\n      0x00\n        /* \"#utility.yul\":5053:5059   */\n      dup4\n        /* \"#utility.yul\":5048:5051   */\n      dup4\n        /* \"#utility.yul\":5044:5060   */\n      add\n        /* \"#utility.yul\":5037:5064   */\n      mstore\n        /* \"#utility.yul\":4923:5071   */\n      pop\n      pop\n      pop\n      jump\t// out\n        /* \"#utility.yul\":5101:5418   */\n    tag_57:\n        /* \"#utility.yul\":5199:5202   */\n      0x00\n        /* \"#utility.yul\":5220:5291   */\n      tag_132\n        /* \"#utility.yul\":5284:5290   */\n      dup4\n        /* \"#utility.yul\":5279:5282   */\n      dup6\n        /* \"#utility.yul\":5220:5291   */\n      tag_43\n      jump\t// in\n    tag_132:\n        /* \"#utility.yul\":5213:5291   */\n      swap4\n      pop\n        /* \"#utility.yul\":5301:5357   */\n      tag_133\n        /* \"#utility.yul\":5350:5356   */\n      dup4\n        /* \"#utility.yul\":5345:5348   */\n      dup6\n        /* \"#utility.yul\":5338:5343   */\n      dup5\n        /* \"#utility.yul\":5301:5357   */\n      tag_56\n      jump\t// in\n    tag_133:\n        /* \"#utility.yul\":5382:5411   */\n      tag_134\n        /* \"#utility.yul\":5404:5410   */\n      dup4\n        /* \"#utility.yul\":5382:5411   */\n      tag_45\n      jump\t// in\n    tag_134:\n        /* \"#utility.yul\":5377:5380   */\n      dup5\n        /* \"#utility.yul\":5373:5412   */\n      add\n        /* \"#utility.yul\":5366:5412   */\n      swap1\n      pop\n        /* \"#utility.yul\":5101:5418   */\n      swap4\n      swap3\n      pop\n      pop\n      pop\n      jump\t// out\n        /* \"#utility.yul\":5424:6064   */\n    tag_22:\n        /* \"#utility.yul\":5648:5652   */\n      0x00\n        /* \"#utility.yul\":5686:5688   */\n      0x40\n        /* \"#utility.yul\":5675:5684   */\n      dup3\n        /* \"#utility.yul\":5671:5689   */\n      add\n        /* \"#utility.yul\":5663:5689   */\n      swap1\n      pop\n        /* \"#utility.yul\":5735:5744   */\n      dup2\n        /* \"#utility.yul\":5729:5733   */\n      dup2\n        /* \"#utility.yul\":5725:5745   */\n      sub\n        /* \"#utility.yul\":5721:5722   */\n      0x00\n        /* \"#utility.yul\":5710:5719   */\n      dup4\n        /* \"#utility.yul\":5706:5723   */\n      add\n        /* \"#utility.yul\":5699:5746   */\n      mstore\n        /* \"#utility.yul\":5763:5894   */\n      tag_136\n        /* \"#utility.yul\":5889:5893   */\n      dup2\n        /* \"#utility.yul\":5763:5894   */\n      tag_55\n      jump\t// in\n    tag_136:\n        /* \"#utility.yul\":5755:5894   */\n      swap1\n      pop\n        /* \"#utility.yul\":5941:5950   */\n      dup2\n        /* \"#utility.yul\":5935:5939   */\n      dup2\n        /* \"#utility.yul\":5931:5951   */\n      sub\n        /* \"#utility.yul\":5926:5928   */\n      0x20\n        /* \"#utility.yul\":5915:5924   */\n      dup4\n        /* \"#utility.yul\":5911:5929   */\n      add\n        /* \"#utility.yul\":5904:5952   */\n      mstore\n        /* \"#utility.yul\":5969:6057   */\n      tag_137\n        /* \"#utility.yul\":6052:6056   */\n      dup2\n        /* \"#utility.yul\":6043:6049   */\n      dup5\n        /* \"#utility.yul\":6035:6041   */\n      dup7\n        /* \"#utility.yul\":5969:6057   */\n      tag_57\n      jump\t// in\n    tag_137:\n        /* \"#utility.yul\":5961:6057   */\n      swap1\n      pop\n        /* \"#utility.yul\":5424:6064   */\n      swap4\n      swap3\n      pop\n      pop\n      pop\n      jump\t// out\n        /* \"#utility.yul\":6070:6167   */\n    tag_58:\n        /* \"#utility.yul\":6129:6135   */\n      0x00\n        /* \"#utility.yul\":6157:6160   */\n      dup3\n        /* \"#utility.yul\":6147:6160   */\n      swap1\n      pop\n        /* \"#utility.yul\":6070:6167   */\n      swap3\n      swap2\n      pop\n      pop\n      jump\t// out\n        /* \"#utility.yul\":6173:6353   */\n    tag_59:\n        /* \"#utility.yul\":6221:6298   */\n      0x4e487b7100000000000000000000000000000000000000000000000000000000\n        /* \"#utility.yul\":6218:6219   */\n      0x00\n        /* \"#utility.yul\":6211:6299   */\n      mstore\n        /* \"#utility.yul\":6318:6322   */\n      0x41\n        /* \"#utility.yul\":6315:6316   */\n      0x04\n        /* \"#utility.yul\":6308:6323   */\n      mstore\n        /* \"#utility.yul\":6342:6346   */\n      0x24\n        /* \"#utility.yul\":6339:6340   */\n      0x00\n        /* \"#utility.yul\":6332:6347   */\n      revert\n        /* \"#utility.yul\":6359:6539   */\n    tag_60:\n        /* \"#utility.yul\":6407:6484   */\n      0x4e487b7100000000000000000000000000000000000000000000000000000000\n        /* \"#utility.yul\":6404:6405   */\n      0x00\n        /* \"#utility.yul\":6397:6485   */\n      mstore\n        /* \"#utility.yul\":6504:6508   */\n      0x22\n        /* \"#utility.yul\":6501:6502   */\n      0x04\n        /* \"#utility.yul\":6494:6509   */\n      mstore\n        /* \"#utility.yul\":6528:6532   */\n      0x24\n        /* \"#utility.yul\":6525:6526   */\n      0x00\n        /* \"#utility.yul\":6518:6533   */\n      revert\n        /* \"#utility.yul\":6545:6865   */\n    tag_30:\n        /* \"#utility.yul\":6589:6595   */\n      0x00\n        /* \"#utility.yul\":6626:6627   */\n      0x02\n        /* \"#utility.yul\":6620:6624   */\n      dup3\n        /* \"#utility.yul\":6616:6628   */\n      div\n        /* \"#utility.yul\":6606:6628   */\n      swap1\n      pop\n        /* \"#utility.yul\":6673:6674   */\n      0x01\n        /* \"#utility.yul\":6667:6671   */\n      dup3\n        /* \"#utility.yul\":6663:6675   */\n      and\n        /* \"#utility.yul\":6694:6712   */\n      dup1\n        /* \"#utility.yul\":6684:6765   */\n      tag_142\n      jumpi\n        /* \"#utility.yul\":6750:6754   */\n      0x7f\n        /* \"#utility.yul\":6742:6748   */\n      dup3\n        /* \"#utility.yul\":6738:6755   */\n      and\n        /* \"#utility.yul\":6728:6755   */\n      swap2\n      pop\n        /* \"#utility.yul\":6684:6765   */\n    tag_142:\n        /* \"#utility.yul\":6812:6814   */\n      0x20\n        /* \"#utility.yul\":6804:6810   */\n      dup3\n        /* \"#utility.yul\":6801:6815   */\n      lt\n        /* \"#utility.yul\":6781:6799   */\n      dup2\n        /* \"#utility.yul\":6778:6816   */\n      sub\n        /* \"#utility.yul\":6775:6859   */\n      tag_143\n      jumpi\n        /* \"#utility.yul\":6831:6849   */\n      tag_144\n      tag_60\n      jump\t// in\n    tag_144:\n        /* \"#utility.yul\":6775:6859   */\n    tag_143:\n        /* \"#utility.yul\":6596:6865   */\n      pop\n        /* \"#utility.yul\":6545:6865   */\n      swap2\n      swap1\n      pop\n      jump\t// out\n        /* \"#utility.yul\":6871:7012   */\n    tag_61:\n        /* \"#utility.yul\":6920:6924   */\n      0x00\n        /* \"#utility.yul\":6943:6946   */\n      dup2\n        /* \"#utility.yul\":6935:6946   */\n      swap1\n      pop\n        /* \"#utility.yul\":6966:6969   */\n      dup2\n        /* \"#utility.yul\":6963:6964   */\n      0x00\n        /* \"#utility.yul\":6956:6970   */\n      mstore\n        /* \"#utility.yul\":7000:7004   */\n      0x20\n        /* \"#utility.yul\":6997:6998   */\n      0x00\n        /* \"#utility.yul\":6987:7005   */\n      keccak256\n        /* \"#utility.yul\":6979:7005   */\n      swap1\n      pop\n        /* \"#utility.yul\":6871:7012   */\n      swap2\n      swap1\n      pop\n      jump\t// out\n        /* \"#utility.yul\":7018:7111   */\n    tag_62:\n        /* \"#utility.yul\":7055:7061   */\n      0x00\n        /* \"#utility.yul\":7102:7104   */\n      0x20\n        /* \"#utility.yul\":7097:7099   */\n      0x1f\n        /* \"#utility.yul\":7090:7095   */\n      dup4\n        /* \"#utility.yul\":7086:7100   */\n      add\n        /* \"#utility.yul\":7082:7105   */\n      div\n        /* \"#utility.yul\":7072:7105   */\n      swap1\n      pop\n        /* \"#utility.yul\":7018:7111   */\n      swap2\n      swap1\n      pop\n      jump\t// out\n        /* \"#utility.yul\":7117:7224   */\n    tag_63:\n        /* \"#utility.yul\":7161:7169   */\n      0x00\n        /* \"#utility.yul\":7211:7216   */\n      dup3\n        /* \"#utility.yul\":7205:7209   */\n      dup3\n        /* \"#utility.yul\":7201:7217   */\n      shl\n        /* \"#utility.yul\":7180:7217   */\n      swap1\n      pop\n        /* \"#utility.yul\":7117:7224   */\n      swap3\n      swap2\n      pop\n      pop\n      jump\t// out\n        /* \"#utility.yul\":7230:7623   */\n    tag_64:\n        /* \"#utility.yul\":7299:7305   */\n      0x00\n        /* \"#utility.yul\":7349:7350   */\n      0x08\n        /* \"#utility.yul\":7337:7347   */\n      dup4\n        /* \"#utility.yul\":7333:7351   */\n      mul\n        /* \"#utility.yul\":7372:7469   */\n      tag_149\n        /* \"#utility.yul\":7402:7468   */\n      0xffffffffffffffffffffffffffffffffffffffffffffffffffffffffffffffff\n        /* \"#utility.yul\":7391:7400   */\n      dup3\n        /* \"#utility.yul\":7372:7469   */\n      tag_63\n      jump\t// in\n    tag_149:\n        /* \"#utility.yul\":7490:7529   */\n      tag_150\n        /* \"#utility.yul\":7520:7528   */\n      dup7\n        /* \"#utility.yul\":7509:7518   */\n      dup4\n        /* \"#utility.yul\":7490:7529   */\n      tag_63\n      jump\t// in\n    tag_150:\n        /* \"#utility.yul\":7478:7529   */\n      swap6\n      pop\n        /* \"#utility.yul\":7562:7566   */\n      dup1\n        /* \"#utility.yul\":7558:7567   */\n      not\n        /* \"#utility.yul\":7551:7556   */\n      dup5\n        /* \"#utility.yul\":7547:7568   */\n      and\n        /* \"#utility.yul\":7538:7568   */\n      swap4\n      pop\n        /* \"#utility.yul\":7611:7615   */\n      dup1\n        /* \"#utility.yul\":7601:7609   */\n      dup7\n        /* \"#utility.yul\":7597:7616   */\n      and\n        /* \"#utility.yul\":7590:7595   */\n      dup5\n        /* \"#utility.yul\":7587:7617   */\n      or\n        /* \"#utility.yul\":7577:7617   */\n      swap3\n      pop\n        /* \"#utility.yul\":7306:7623   */\n      pop\n      pop\n        /* \"#utility.yul\":7230:7623   */\n      swap4\n      swap3\n      pop\n      pop\n      pop\n      jump\t// out\n        /* \"#utility.yul\":7629:7689   */\n    tag_65:\n        /* \"#utility.yul\":7657:7660   */\n      0x00\n        /* \"#utility.yul\":7678:7683   */\n      dup2\n        /* \"#utility.yul\":7671:7683   */\n      swap1\n      pop\n        /* \"#utility.yul\":7629:7689   */\n      swap2\n      swap1\n      pop\n      jump\t// out\n        /* \"#utility.yul\":7695:7837   */\n    tag_66:\n        /* \"#utility.yul\":7745:7754   */\n      0x00\n        /* \"#utility.yul\":7778:7831   */\n      tag_153\n        /* \"#utility.yul\":7796:7830   */\n      tag_154\n        /* \"#utility.yul\":7805:7829   */\n      tag_155\n        /* \"#utility.yul\":7823:7828   */\n      dup5\n        /* \"#utility.yul\":7805:7829   */\n      tag_51\n      jump\t// in\n    tag_155:\n        /* \"#utility.yul\":7796:7830   */\n      tag_65\n      jump\t// in\n    tag_154:\n        /* \"#utility.yul\":7778:7831   */\n      tag_51\n      jump\t// in\n    tag_153:\n        /* \"#utility.yul\":7765:7831   */\n      swap1\n      pop\n        /* \"#utility.yul\":7695:7837   */\n      swap2\n      swap1\n      pop\n      jump\t// out\n        /* \"#utility.yul\":7843:7918   */\n    tag_67:\n        /* \"#utility.yul\":7886:7889   */\n      0x00\n        /* \"#utility.yul\":7907:7912   */\n      dup2\n        /* \"#utility.yul\":7900:7912   */\n      swap1\n      pop\n        /* \"#utility.yul\":7843:7918   */\n      swap2\n      swap1\n      pop\n      jump\t// out\n        /* \"#utility.yul\":7924:8193   */\n    tag_68:\n        /* \"#utility.yul\":8034:8073   */\n      tag_158\n        /* \"#utility.yul\":8065:8072   */\n      dup4\n        /* \"#utility.yul\":8034:8073   */\n      tag_66\n      jump\t// in\n    tag_158:\n        /* \"#utility.yul\":8095:8186   */\n      tag_159\n        /* \"#utility.yul\":8144:8185   */\n      tag_160\n        /* \"#utility.yul\":8168:8184   */\n      dup3\n        /* \"#utility.yul\":8144:8185   */\n      tag_67\n      jump\t// in\n    tag_160:\n        /* \"#utility.yul\":8136:8142   */\n      dup5\n        /* \"#utility.yul\":8129:8133   */\n      dup5\n        /* \"#utility.yul\":8123:8134   */\n      sload\n        /* \"#utility.yul\":8095:8186   */\n      tag_64\n      jump\t// in\n    tag_159:\n        /* \"#utility.yul\":8089:8093   */\n      dup3\n        /* \"#utility.yul\":8082:8187   */\n      sstore\n        /* \"#utility.yul\":8000:8193   */\n      pop\n        /* \"#utility.yul\":7924:8193   */\n      pop\n      pop\n      pop\n      jump\t// out\n        /* \"#utility.yul\":8199:8272   */\n    tag_69:\n        /* \"#utility.yul\":8244:8247   */\n      0x00\n        /* \"#utility.yul\":8265:8266   */\n      0x00\n        /* \"#utility.yul\":8258:8266   */\n      swap1\n      pop\n        /* \"#utility.yul\":8199:8272   */\n      swap1\n      jump\t// out\n        /* \"#utility.yul\":8278:8467   */\n    tag_70:\n        /* \"#utility.yul\":8355:8387   */\n      tag_163\n      tag_69\n      jump\t// in\n    tag_163:\n        /* \"#utility.yul\":8396:8461   */\n      tag_164\n        /* \"#utility.yul\":8454:8460   */\n      dup2\n        /* \"#utility.yul\":8446:8452   */\n      dup5\n        /* \"#utility.yul\":8440:8444   */\n      dup5\n        /* \"#utility.yul\":8396:8461   */\n      tag_68\n      jump\t// in\n    tag_164:\n        /* \"#utility.yul\":8331:8467   */\n      pop\n        /* \"#utility.yul\":8278:8467   */\n      pop\n      pop\n      jump\t// out\n        /* \"#utility.yul\":8473:8659   */\n    tag_71:\n        /* \"#utility.yul\":8533:8653   */\n    tag_166:\n        /* \"#utility.yul\":8550:8553   */\n      dup2\n        /* \"#utility.yul\":8543:8548   */\n      dup2\n        /* \"#utility.yul\":8540:8554   */\n      lt\n        /* \"#utility.yul\":8533:8653   */\n      iszero\n      tag_168\n      jumpi\n        /* \"#utility.yul\":8604:8643   */\n      tag_169\n        /* \"#utility.yul\":8641:8642   */\n      0x00\n        /* \"#utility.yul\":8634:8639   */\n      dup3\n        /* \"#utility.yul\":8604:8643   */\n      tag_70\n      jump\t// in\n    tag_169:\n        /* \"#utility.yul\":8577:8578   */\n      0x01\n        /* \"#utility.yul\":8570:8575   */\n      dup2\n        /* \"#utility.yul\":8566:8579   */\n      add\n        /* \"#utility.yul\":8557:8579   */\n      swap1\n      pop\n        /* \"#utility.yul\":8533:8653   */\n      jump(tag_166)\n    tag_168:\n        /* \"#utility.yul\":8473:8659   */\n      pop\n      pop\n      jump\t// out\n        /* \"#utility.yul\":8665:9208   */\n    tag_72:\n        /* \"#utility.yul\":8766:8768   */\n      0x1f\n        /* \"#utility.yul\":8761:8764   */\n      dup3\n        /* \"#utility.yul\":8758:8769   */\n      gt\n        /* \"#utility.yul\":8755:9201   */\n      iszero\n      tag_171\n      jumpi\n        /* \"#utility.yul\":8800:8838   */\n      tag_172\n        /* \"#utility.yul\":8832:8837   */\n      dup2\n        /* \"#utility.yul\":8800:8838   */\n      tag_61\n      jump\t// in\n    tag_172:\n        /* \"#utility.yul\":8884:8913   */\n      tag_173\n        /* \"#utility.yul\":8902:8912   */\n      dup5\n        /* \"#utility.yul\":8884:8913   */\n      tag_62\n      jump\t// in\n    tag_173:\n        /* \"#utility.yul\":8874:8882   */\n      dup2\n        /* \"#utility.yul\":8870:8914   */\n      add\n        /* \"#utility.yul\":9067:9069   */\n      0x20\n        /* \"#utility.yul\":9055:9065   */\n      dup6\n        /* \"#utility.yul\":9052:9070   */\n      lt\n        /* \"#utility.yul\":9049:9098   */\n      iszero\n      tag_174\n      jumpi\n        /* \"#utility.yul\":9088:9096   */\n      dup2\n        /* \"#utility.yul\":9073:9096   */\n      swap1\n      pop\n        /* \"#utility.yul\":9049:9098   */\n    tag_174:\n        /* \"#utility.yul\":9111:9191   */\n      tag_175\n        /* \"#utility.yul\":9167:9189   */\n      tag_176\n        /* \"#utility.yul\":9185:9188   */\n      dup6\n        /* \"#utility.yul\":9167:9189   */\n      tag_62\n      jump\t// in\n    tag_176:\n        /* \"#utility.yul\":9157:9165   */\n      dup4\n        /* \"#utility.yul\":9153:9190   */\n      add\n        /* \"#utility.yul\":9140:9151   */\n      dup3\n        /* \"#utility.yul\":9111:9191   */\n      tag_71\n      jump\t// in\n    tag_175:\n        /* \"#utility.yul\":8770:9201   */\n      pop\n      pop\n        /* \"#utility.yul\":8755:9201   */\n    tag_171:\n        /* \"#utility.yul\":8665:9208   */\n      pop\n      pop\n      pop\n      jump\t// out\n        /* \"#utility.yul\":9214:9331   */\n    tag_73:\n        /* \"#utility.yul\":9268:9276   */\n      0x00\n        /* \"#utility.yul\":9318:9323   */\n      dup3\n        /* \"#utility.yul\":9312:9316   */\n      dup3\n        /* \"#utility.yul\":9308:9324   */\n      shr\n        /* \"#utility.yul\":9287:9324   */\n      swap1\n      pop\n        /* \"#utility.yul\":9214:9331   */\n      swap3\n      swap2\n      pop\n      pop\n      jump\t// out\n        /* \"#utility.yul\":9337:9506   */\n    tag_74:\n        /* \"#utility.yul\":9381:9387   */\n      0x00\n        /* \"#utility.yul\":9414:9465   */\n      tag_179\n        /* \"#utility.yul\":9462:9463   */\n      0x00\n        /* \"#utility.yul\":9458:9464   */\n      not\n        /* \"#utility.yul\":9450:9455   */\n      dup5\n        /* \"#utility.yul\":9447:9448   */\n      0x08\n        /* \"#utility.yul\":9443:9456   */\n      mul\n        /* \"#utility.yul\":9414:9465   */\n      tag_73\n      jump\t// in\n    tag_179:\n        /* \"#utility.yul\":9410:9466   */\n      not\n        /* \"#utility.yul\":9495:9499   */\n      dup1\n        /* \"#utility.yul\":9489:9493   */\n      dup4\n        /* \"#utility.yul\":9485:9500   */\n      and\n        /* \"#utility.yul\":9475:9500   */\n      swap2\n      pop\n        /* \"#utility.yul\":9388:9506   */\n      pop\n        /* \"#utility.yul\":9337:9506   */\n      swap3\n      swap2\n      pop\n      pop\n      jump\t// out\n        /* \"#utility.yul\":9511:9806   */\n    tag_75:\n        /* \"#utility.yul\":9587:9591   */\n      0x00\n        /* \"#utility.yul\":9733:9762   */\n      tag_181\n        /* \"#utility.yul\":9758:9761   */\n      dup4\n        /* \"#utility.yul\":9752:9756   */\n      dup4\n        /* \"#utility.yul\":9733:9762   */\n      tag_74\n      jump\t// in\n    tag_181:\n        /* \"#utility.yul\":9725:9762   */\n      swap2\n      pop\n        /* \"#utility.yul\":9795:9798   */\n      dup3\n        /* \"#utility.yul\":9792:9793   */\n      0x02\n        /* \"#utility.yul\":9788:9799   */\n      mul\n        /* \"#utility.yul\":9782:9786   */\n      dup3\n        /* \"#utility.yul\":9779:9800   */\n      or\n        /* \"#utility.yul\":9771:9800   */\n      swap1\n      pop\n        /* \"#utility.yul\":9511:9806   */\n      swap3\n      swap2\n      pop\n      pop\n      jump\t// out\n        /* \"#utility.yul\":9811:11214   */\n    tag_26:\n        /* \"#utility.yul\":9935:9979   */\n      tag_183\n        /* \"#utility.yul\":9975:9978   */\n      dup4\n        /* \"#utility.yul\":9970:9973   */\n      dup4\n        /* \"#utility.yul\":9935:9979   */\n      tag_58\n      jump\t// in\n    tag_183:\n        /* \"#utility.yul\":10044:10062   */\n      0xffffffffffffffff\n        /* \"#utility.yul\":10036:10042   */\n      dup2\n        /* \"#utility.yul\":10033:10063   */\n      gt\n        /* \"#utility.yul\":10030:10086   */\n      iszero\n      tag_184\n      jumpi\n        /* \"#utility.yul\":10066:10084   */\n      tag_185\n      tag_59\n      jump\t// in\n    tag_185:\n        /* \"#utility.yul\":10030:10086   */\n    tag_184:\n        /* \"#utility.yul\":10110:10148   */\n      tag_186\n        /* \"#utility.yul\":10142:10146   */\n      dup3\n        /* \"#utility.yul\":10136:10147   */\n      sload\n        /* \"#utility.yul\":10110:10148   */\n      tag_30\n      jump\t// in\n    tag_186:\n        /* \"#utility.yul\":10195:10262   */\n      tag_187\n        /* \"#utility.yul\":10255:10261   */\n      dup3\n        /* \"#utility.yul\":10247:10253   */\n      dup3\n        /* \"#utility.yul\":10241:10245   */\n      dup6\n        /* \"#utility.yul\":10195:10262   */\n      tag_72\n      jump\t// in\n    tag_187:\n        /* \"#utility.yul\":10289:10290   */\n      0x00\n        /* \"#utility.yul\":10318:10320   */\n      0x1f\n        /* \"#utility.yul\":10310:10316   */\n      dup4\n        /* \"#utility.yul\":10307:10321   */\n      gt\n        /* \"#utility.yul\":10335:10336   */\n      0x01\n        /* \"#utility.yul\":10330:10962   */\n      dup2\n      eq\n      tag_189\n      jumpi\n        /* \"#utility.yul\":11006:11007   */\n      0x00\n        /* \"#utility.yul\":11023:11029   */\n      dup5\n        /* \"#utility.yul\":11020:11104   */\n      iszero\n      tag_190\n      jumpi\n        /* \"#utility.yul\":11079:11088   */\n      dup3\n        /* \"#utility.yul\":11074:11077   */\n      dup8\n        /* \"#utility.yul\":11070:11089   */\n      add\n        /* \"#utility.yul\":11057:11090   */\n      calldataload\n        /* \"#utility.yul\":11048:11090   */\n      swap1\n      pop\n        /* \"#utility.yul\":11020:11104   */\n    tag_190:\n        /* \"#utility.yul\":11130:11197   */\n      tag_191\n        /* \"#utility.yul\":11190:11196   */\n      dup6\n        /* \"#utility.yul\":11183:11188   */\n      dup3\n        /* \"#utility.yul\":11130:11197   */\n      tag_75\n      jump\t// in\n    tag_191:\n        /* \"#utility.yul\":11124:11128   */\n      dup7\n        /* \"#utility.yul\":11117:11198   */\n      sstore\n        /* \"#utility.yul\":10979:11208   */\n      pop\n        /* \"#utility.yul\":10300:11208   */\n      jump(tag_188)\n        /* \"#utility.yul\":10330:10962   */\n    tag_189:\n        /* \"#utility.yul\":10382:10386   */\n      0x1f\n        /* \"#utility.yul\":10378:10387   */\n      not\n        /* \"#utility.yul\":10370:10376   */\n      dup5\n        /* \"#utility.yul\":10366:10388   */\n      and\n        /* \"#utility.yul\":10416:10453   */\n      tag_192\n        /* \"#utility.yul\":10448:10452   */\n      dup7\n        /* \"#utility.yul\":10416:10453   */\n      tag_61\n      jump\t// in\n    tag_192:\n        /* \"#utility.yul\":10475:10476   */\n      0x00\n        /* \"#utility.yul\":10489:10704   */\n    tag_193:\n        /* \"#utility.yul\":10503:10510   */\n      dup3\n        /* \"#utility.yul\":10500:10501   */\n      dup2\n        /* \"#utility.yul\":10497:10511   */\n      lt\n        /* \"#utility.yul\":10489:10704   */\n      iszero\n      tag_195\n      jumpi\n        /* \"#utility.yul\":10589:10598   */\n      dup5\n        /* \"#utility.yul\":10584:10587   */\n      dup10\n        /* \"#utility.yul\":10580:10599   */\n      add\n        /* \"#utility.yul\":10567:10600   */\n      calldataload\n        /* \"#utility.yul\":10559:10565   */\n      dup3\n        /* \"#utility.yul\":10552:10601   */\n      sstore\n        /* \"#utility.yul\":10640:10641   */\n      0x01\n        /* \"#utility.yul\":10632:10638   */\n      dup3\n        /* \"#utility.yul\":10628:10642   */\n      add\n        /* \"#utility.yul\":10618:10642   */\n      swap2\n      pop\n        /* \"#utility.yul\":10687:10689   */\n      0x20\n        /* \"#utility.yul\":10676:10685   */\n      dup6\n        /* \"#utility.yul\":10672:10690   */\n      add\n        /* \"#utility.yul\":10659:10690   */\n      swap5\n      pop\n        /* \"#utility.yul\":10526:10530   */\n      0x20\n        /* \"#utility.yul\":10523:10524   */\n      dup2\n        /* \"#utility.yul\":10519:10531   */\n      add\n        /* \"#utility.yul\":10514:10531   */\n      swap1\n      pop\n        /* \"#utility.yul\":10489:10704   */\n      jump(tag_193)\n    tag_195:\n        /* \"#utility.yul\":10732:10738   */\n      dup7\n        /* \"#utility.yul\":10723:10730   */\n      dup4\n        /* \"#utility.yul\":10720:10739   */\n      lt\n        /* \"#utility.yul\":10717:10903   */\n      iszero\n      tag_196\n      jumpi\n        /* \"#utility.yul\":10797:10806   */\n      dup5\n        /* \"#utility.yul\":10792:10795   */\n      dup10\n        /* \"#utility.yul\":10788:10807   */\n      add\n        /* \"#utility.yul\":10775:10808   */\n      calldataload\n        /* \"#utility.yul\":10840:10888   */\n      tag_197\n        /* \"#utility.yul\":10882:10886   */\n      0x1f\n        /* \"#utility.yul\":10874:10880   */\n      dup10\n        /* \"#utility.yul\":10870:10887   */\n      and\n        /* \"#utility.yul\":10859:10868   */\n      dup3\n        /* \"#utility.yul\":10840:10888   */\n      tag_74\n      jump\t// in\n    tag_197:\n        /* \"#utility.yul\":10832:10838   */\n      dup4\n        /* \"#utility.yul\":10825:10889   */\n      sstore\n        /* \"#utility.yul\":10740:10903   */\n      pop\n        /* \"#utility.yul\":10717:10903   */\n    tag_196:\n        /* \"#utility.yul\":10949:10950   */\n      0x01\n        /* \"#utility.yul\":10945:10946   */\n      0x02\n        /* \"#utility.yul\":10937:10943   */\n      dup9\n        /* \"#utility.yul\":10933:10947   */\n      mul\n        /* \"#utility.yul\":10929:10951   */\n      add\n        /* \"#utility.yul\":10923:10927   */\n      dup9\n        /* \"#utility.yul\":10916:10952   */\n      sstore\n        /* \"#utility.yul\":10337:10962   */\n      pop\n      pop\n      pop\n        /* \"#utility.yul\":10300:11208   */\n    tag_188:\n      pop\n        /* \"#utility.yul\":9910:11214   */\n      pop\n      pop\n      pop\n        /* \"#utility.yul\":9811:11214   */\n      pop\n      pop\n      pop\n      jump\t// out\n\n    auxdata: 0xa2646970667358221220e3db8b0c1171a347e76a94c2c011a367347d9fd46aa46f94122692d84c1404d564736f6c634300081c0033\n}\n",
				"bytecode": {
					"linkReferences": {},
					"object": "6080604052348015600e575f5ffd5b506108138061001c5f395ff3fe608060405234801561000f575f5ffd5b506004361061003f575f3560e01c806364682bf014610043578063bff3e65114610073578063c45d9bea1461008f575b5f5ffd5b61005d6004803603810190610058919061027d565b6100bf565b60405161006a9190610338565b60405180910390f35b61008d6004803603810190610088919061027d565b6100eb565b005b6100a960048036038101906100a491906103e5565b610164565b6040516100b69190610338565b60405180910390f35b606082826040516020016100d49291906104a7565b604051602081830303815290604052905092915050565b5f5f3373ffffffffffffffffffffffffffffffffffffffff1673ffffffffffffffffffffffffffffffffffffffff1681526020019081526020015f20828290918060018154018082558091505060019003905f5260205f20015f90919290919290919290919250918261015f929190610710565b505050565b5f602052815f5260405f20818154811061017c575f80fd5b905f5260205f20015f9150915050805461019590610540565b80601f01602080910402602001604051908101604052809291908181526020018280546101c190610540565b801561020c5780601f106101e35761010080835404028352916020019161020c565b820191905f5260205f20905b8154815290600101906020018083116101ef57829003601f168201915b505050505081565b5f5ffd5b5f5ffd5b5f5ffd5b5f5ffd5b5f5ffd5b5f5f83601f84011261023d5761023c61021c565b5b8235905067ffffffffffffffff81111561025a57610259610220565b5b60208301915083600182028301111561027657610275610224565b5b9250929050565b5f5f6020838503121561029357610292610214565b5b5f83013567ffffffffffffffff8111156102b0576102af610218565b5b6102bc85828601610228565b92509250509250929050565b5f81519050919050565b5f82825260208201905092915050565b8281835e5f83830152505050565b5f601f19601f8301169050919050565b5f61030a826102c8565b61031481856102d2565b93506103248185602086016102e2565b61032d816102f0565b840191505092915050565b5f6020820190508181035f8301526103508184610300565b905092915050565b5f73ffffffffffffffffffffffffffffffffffffffff82169050919050565b5f61038182610358565b9050919050565b61039181610377565b811461039b575f5ffd5b50565b5f813590506103ac81610388565b92915050565b5f819050919050565b6103c4816103b2565b81146103ce575f5ffd5b50565b5f813590506103df816103bb565b92915050565b5f5f604083850312156103fb576103fa610214565b5b5f6104088582860161039e565b9250506020610419858286016103d1565b9150509250929050565b7f44726166743a20000000000000000000000000000000000000000000000000005f82015250565b5f6104576007836102d2565b915061046282610423565b602082019050919050565b828183375f83830152505050565b5f61048683856102d2565b935061049383858461046d565b61049c836102f0565b840190509392505050565b5f6040820190508181035f8301526104be8161044b565b905081810360208301526104d381848661047b565b90509392505050565b5f82905092915050565b7f4e487b71000000000000000000000000000000000000000000000000000000005f52604160045260245ffd5b7f4e487b71000000000000000000000000000000000000000000000000000000005f52602260045260245ffd5b5f600282049050600182168061055757607f821691505b60208210810361056a57610569610513565b5b50919050565b5f819050815f5260205f209050919050565b5f6020601f8301049050919050565b5f82821b905092915050565b5f600883026105cc7fffffffffffffffffffffffffffffffffffffffffffffffffffffffffffffffff82610591565b6105d68683610591565b95508019841693508086168417925050509392505050565b5f819050919050565b5f61061161060c610607846103b2565b6105ee565b6103b2565b9050919050565b5f819050919050565b61062a836105f7565b61063e61063682610618565b84845461059d565b825550505050565b5f5f905090565b610655610646565b610660818484610621565b505050565b5b81811015610683576106785f8261064d565b600181019050610666565b5050565b601f8211156106c85761069981610570565b6106a284610582565b810160208510156106b1578190505b6106c56106bd85610582565b830182610665565b50505b505050565b5f82821c905092915050565b5f6106e85f19846008026106cd565b1980831691505092915050565b5f61070083836106d9565b9150826002028217905092915050565b61071a83836104dc565b67ffffffffffffffff811115610733576107326104e6565b5b61073d8254610540565b610748828285610687565b5f601f831160018114610775575f8415610763578287013590505b61076d85826106f5565b8655506107d4565b601f19841661078386610570565b5f5b828110156107aa57848901358255600182019150602085019450602081019050610785565b868310156107c757848901356107c3601f8916826106d9565b8355505b6001600288020188555050505b5050505050505056fea2646970667358221220e3db8b0c1171a347e76a94c2c011a367347d9fd46aa46f94122692d84c1404d564736f6c634300081c0033",
					"opcodes": "PUSH1 0x80 PUSH1 0x40 MSTORE CALLVALUE DUP1 ISZERO PUSH1 0xE JUMPI PUSH0 PUSH0 REVERT JUMPDEST POP PUSH2 0x813 DUP1 PUSH2 0x1C PUSH0 CODECOPY PUSH0 RETURN INVALID PUSH1 0x80 PUSH1 0x40 MSTORE CALLVALUE DUP1 ISZERO PUSH2 0xF JUMPI PUSH0 PUSH0 REVERT JUMPDEST POP PUSH1 0x4 CALLDATASIZE LT PUSH2 0x3F JUMPI PUSH0 CALLDATALOAD PUSH1 0xE0 SHR DUP1 PUSH4 0x64682BF0 EQ PUSH2 0x43 JUMPI DUP1 PUSH4 0xBFF3E651 EQ PUSH2 0x73 JUMPI DUP1 PUSH4 0xC45D9BEA EQ PUSH2 0x8F JUMPI JUMPDEST PUSH0 PUSH0 REVERT JUMPDEST PUSH2 0x5D PUSH1 0x4 DUP1 CALLDATASIZE SUB DUP2 ADD SWAP1 PUSH2 0x58 SWAP2 SWAP1 PUSH2 0x27D JUMP JUMPDEST PUSH2 0xBF JUMP JUMPDEST PUSH1 0x40 MLOAD PUSH2 0x6A SWAP2 SWAP1 PUSH2 0x338 JUMP JUMPDEST PUSH1 0x40 MLOAD DUP1 SWAP2 SUB SWAP1 RETURN JUMPDEST PUSH2 0x8D PUSH1 0x4 DUP1 CALLDATASIZE SUB DUP2 ADD SWAP1 PUSH2 0x88 SWAP2 SWAP1 PUSH2 0x27D JUMP JUMPDEST PUSH2 0xEB JUMP JUMPDEST STOP JUMPDEST PUSH2 0xA9 PUSH1 0x4 DUP1 CALLDATASIZE SUB DUP2 ADD SWAP1 PUSH2 0xA4 SWAP2 SWAP1 PUSH2 0x3E5 JUMP JUMPDEST PUSH2 0x164 JUMP JUMPDEST PUSH1 0x40 MLOAD PUSH2 0xB6 SWAP2 SWAP1 PUSH2 0x338 JUMP JUMPDEST PUSH1 0x40 MLOAD DUP1 SWAP2 SUB SWAP1 RETURN JUMPDEST PUSH1 0x60 DUP3 DUP3 PUSH1 0x40 MLOAD PUSH1 0x20 ADD PUSH2 0xD4 SWAP3 SWAP2 SWAP1 PUSH2 0x4A7 JUMP JUMPDEST PUSH1 0x40 MLOAD PUSH1 0x20 DUP2 DUP4 SUB SUB DUP2 MSTORE SWAP1 PUSH1 0x40 MSTORE SWAP1 POP SWAP3 SWAP2 POP POP JUMP JUMPDEST PUSH0 PUSH0 CALLER PUSH20 0xFFFFFFFFFFFFFFFFFFFFFFFFFFFFFFFFFFFFFFFF AND PUSH20 0xFFFFFFFFFFFFFFFFFFFFFFFFFFFFFFFFFFFFFFFF AND DUP2 MSTORE PUSH1 0x20 ADD SWAP1 DUP2 MSTORE PUSH1 0x20 ADD PUSH0 KECCAK256 DUP3 DUP3 SWAP1 SWAP2 DUP1 PUSH1 0x1 DUP2 SLOAD ADD DUP1 DUP3 SSTORE DUP1 SWAP2 POP POP PUSH1 0x1 SWAP1 SUB SWAP1 PUSH0 MSTORE PUSH1 0x20 PUSH0 KECCAK256 ADD PUSH0 SWAP1 SWAP2 SWAP3 SWAP1 SWAP2 SWAP3 SWAP1 SWAP2 SWAP3 SWAP1 SWAP2 SWAP3 POP SWAP2 DUP3 PUSH2 0x15F SWAP3 SWAP2 SWAP1 PUSH2 0x710 JUMP JUMPDEST POP POP POP JUMP JUMPDEST PUSH0 PUSH1 0x20 MSTORE DUP2 PUSH0 MSTORE PUSH1 0x40 PUSH0 KECCAK256 DUP2 DUP2 SLOAD DUP2 LT PUSH2 0x17C JUMPI PUSH0 DUP1 REVERT JUMPDEST SWAP1 PUSH0 MSTORE PUSH1 0x20 PUSH0 KECCAK256 ADD PUSH0 SWAP2 POP SWAP2 POP POP DUP1 SLOAD PUSH2 0x195 SWAP1 PUSH2 0x540 JUMP JUMPDEST DUP1 PUSH1 0x1F ADD PUSH1 0x20 DUP1 SWAP2 DIV MUL PUSH1 0x20 ADD PUSH1 0x40 MLOAD SWAP1 DUP2 ADD PUSH1 0x40 MSTORE DUP1 SWAP3 SWAP2 SWAP1 DUP2 DUP2 MSTORE PUSH1 0x20 ADD DUP3 DUP1 SLOAD PUSH2 0x1C1 SWAP1 PUSH2 0x540 JUMP JUMPDEST DUP1 ISZERO PUSH2 0x20C JUMPI DUP1 PUSH1 0x1F LT PUSH2 0x1E3 JUMPI PUSH2 0x100 DUP1 DUP4 SLOAD DIV MUL DUP4 MSTORE SWAP2 PUSH1 0x20 ADD SWAP2 PUSH2 0x20C JUMP JUMPDEST DUP3 ADD SWAP2 SWAP1 PUSH0 MSTORE PUSH1 0x20 PUSH0 KECCAK256 SWAP1 JUMPDEST DUP2 SLOAD DUP2 MSTORE SWAP1 PUSH1 0x1 ADD SWAP1 PUSH1 0x20 ADD DUP1 DUP4 GT PUSH2 0x1EF JUMPI DUP3 SWAP1 SUB PUSH1 0x1F AND DUP3 ADD SWAP2 JUMPDEST POP POP POP POP POP DUP2 JUMP JUMPDEST PUSH0 PUSH0 REVERT JUMPDEST PUSH0 PUSH0 REVERT JUMPDEST PUSH0 PUSH0 REVERT JUMPDEST PUSH0 PUSH0 REVERT JUMPDEST PUSH0 PUSH0 REVERT JUMPDEST PUSH0 PUSH0 DUP4 PUSH1 0x1F DUP5 ADD SLT PUSH2 0x23D JUMPI PUSH2 0x23C PUSH2 0x21C JUMP JUMPDEST JUMPDEST DUP3 CALLDATALOAD SWAP1 POP PUSH8 0xFFFFFFFFFFFFFFFF DUP2 GT ISZERO PUSH2 0x25A JUMPI PUSH2 0x259 PUSH2 0x220 JUMP JUMPDEST JUMPDEST PUSH1 0x20 DUP4 ADD SWAP2 POP DUP4 PUSH1 0x1 DUP3 MUL DUP4 ADD GT ISZERO PUSH2 0x276 JUMPI PUSH2 0x275 PUSH2 0x224 JUMP JUMPDEST JUMPDEST SWAP3 POP SWAP3 SWAP1 POP JUMP JUMPDEST PUSH0 PUSH0 PUSH1 0x20 DUP4 DUP6 SUB SLT ISZERO PUSH2 0x293 JUMPI PUSH2 0x292 PUSH2 0x214 JUMP JUMPDEST JUMPDEST PUSH0 DUP4 ADD CALLDATALOAD PUSH8 0xFFFFFFFFFFFFFFFF DUP2 GT ISZERO PUSH2 0x2B0 JUMPI PUSH2 0x2AF PUSH2 0x218 JUMP JUMPDEST JUMPDEST PUSH2 0x2BC DUP6 DUP3 DUP7 ADD PUSH2 0x228 JUMP JUMPDEST SWAP3 POP SWAP3 POP POP SWAP3 POP SWAP3 SWAP1 POP JUMP JUMPDEST PUSH0 DUP2 MLOAD SWAP1 POP SWAP2 SWAP1 POP JUMP JUMPDEST PUSH0 DUP3 DUP3 MSTORE PUSH1 0x20 DUP3 ADD SWAP1 POP SWAP3 SWAP2 POP POP JUMP JUMPDEST DUP3 DUP2 DUP4 MCOPY PUSH0 DUP4 DUP4 ADD MSTORE POP POP POP JUMP JUMPDEST PUSH0 PUSH1 0x1F NOT PUSH1 0x1F DUP4 ADD AND SWAP1 POP SWAP2 SWAP1 POP JUMP JUMPDEST PUSH0 PUSH2 0x30A DUP3 PUSH2 0x2C8 JUMP JUMPDEST PUSH2 0x314 DUP2 DUP6 PUSH2 0x2D2 JUMP JUMPDEST SWAP4 POP PUSH2 0x324 DUP2 DUP6 PUSH1 0x20 DUP7 ADD PUSH2 0x2E2 JUMP JUMPDEST PUSH2 0x32D DUP2 PUSH2 0x2F0 JUMP JUMPDEST DUP5 ADD SWAP2 POP POP SWAP3 SWAP2 POP POP JUMP JUMPDEST PUSH0 PUSH1 0x20 DUP3 ADD SWAP1 POP DUP2 DUP2 SUB PUSH0 DUP4 ADD MSTORE PUSH2 0x350 DUP2 DUP5 PUSH2 0x300 JUMP JUMPDEST SWAP1 POP SWAP3 SWAP2 POP POP JUMP JUMPDEST PUSH0 PUSH20 0xFFFFFFFFFFFFFFFFFFFFFFFFFFFFFFFFFFFFFFFF DUP3 AND SWAP1 POP SWAP2 SWAP1 POP JUMP JUMPDEST PUSH0 PUSH2 0x381 DUP3 PUSH2 0x358 JUMP JUMPDEST SWAP1 POP SWAP2 SWAP1 POP JUMP JUMPDEST PUSH2 0x391 DUP2 PUSH2 0x377 JUMP JUMPDEST DUP2 EQ PUSH2 0x39B JUMPI PUSH0 PUSH0 REVERT JUMPDEST POP JUMP JUMPDEST PUSH0 DUP2 CALLDATALOAD SWAP1 POP PUSH2 0x3AC DUP2 PUSH2 0x388 JUMP JUMPDEST SWAP3 SWAP2 POP POP JUMP JUMPDEST PUSH0 DUP2 SWAP1 POP SWAP2 SWAP1 POP JUMP JUMPDEST PUSH2 0x3C4 DUP2 PUSH2 0x3B2 JUMP JUMPDEST DUP2 EQ PUSH2 0x3CE JUMPI PUSH0 PUSH0 REVERT JUMPDEST POP JUMP JUMPDEST PUSH0 DUP2 CALLDATALOAD SWAP1 POP PUSH2 0x3DF DUP2 PUSH2 0x3BB JUMP JUMPDEST SWAP3 SWAP2 POP POP JUMP JUMPDEST PUSH0 PUSH0 PUSH1 0x40 DUP4 DUP6 SUB SLT ISZERO PUSH2 0x3FB JUMPI PUSH2 0x3FA PUSH2 0x214 JUMP JUMPDEST JUMPDEST PUSH0 PUSH2 0x408 DUP6 DUP3 DUP7 ADD PUSH2 0x39E JUMP JUMPDEST SWAP3 POP POP PUSH1 0x20 PUSH2 0x419 DUP6 DUP3 DUP7 ADD PUSH2 0x3D1 JUMP JUMPDEST SWAP2 POP POP SWAP3 POP SWAP3 SWAP1 POP JUMP JUMPDEST PUSH32 0x44726166743A2000000000000000000000000000000000000000000000000000 PUSH0 DUP3 ADD MSTORE POP JUMP JUMPDEST PUSH0 PUSH2 0x457 PUSH1 0x7 DUP4 PUSH2 0x2D2 JUMP JUMPDEST SWAP2 POP PUSH2 0x462 DUP3 PUSH2 0x423 JUMP JUMPDEST PUSH1 0x20 DUP3 ADD SWAP1 POP SWAP2 SWAP1 POP JUMP JUMPDEST DUP3 DUP2 DUP4 CALLDATACOPY PUSH0 DUP4 DUP4 ADD MSTORE POP POP POP JUMP JUMPDEST PUSH0 PUSH2 0x486 DUP4 DUP6 PUSH2 0x2D2 JUMP JUMPDEST SWAP4 POP PUSH2 0x493 DUP4 DUP6 DUP5 PUSH2 0x46D JUMP JUMPDEST PUSH2 0x49C DUP4 PUSH2 0x2F0 JUMP JUMPDEST DUP5 ADD SWAP1 POP SWAP4 SWAP3 POP POP POP JUMP JUMPDEST PUSH0 PUSH1 0x40 DUP3 ADD SWAP1 POP DUP2 DUP2 SUB PUSH0 DUP4 ADD MSTORE PUSH2 0x4BE DUP2 PUSH2 0x44B JUMP JUMPDEST SWAP1 POP DUP2 DUP2 SUB PUSH1 0x20 DUP4 ADD MSTORE PUSH2 0x4D3 DUP2 DUP5 DUP7 PUSH2 0x47B JUMP JUMPDEST SWAP1 POP SWAP4 SWAP3 POP POP POP JUMP JUMPDEST PUSH0 DUP3 SWAP1 POP SWAP3 SWAP2 POP POP JUMP JUMPDEST PUSH32 0x4E487B7100000000000000000000000000000000000000000000000000000000 PUSH0 MSTORE PUSH1 0x41 PUSH1 0x4 MSTORE PUSH1 0x24 PUSH0 REVERT JUMPDEST PUSH32 0x4E487B7100000000000000000000000000000000000000000000000000000000 PUSH0 MSTORE PUSH1 0x22 PUSH1 0x4 MSTORE PUSH1 0x24 PUSH0 REVERT JUMPDEST PUSH0 PUSH1 0x2 DUP3 DIV SWAP1 POP PUSH1 0x1 DUP3 AND DUP1 PUSH2 0x557 JUMPI PUSH1 0x7F DUP3 AND SWAP2 POP JUMPDEST PUSH1 0x20 DUP3 LT DUP2 SUB PUSH2 0x56A JUMPI PUSH2 0x569 PUSH2 0x513 JUMP JUMPDEST JUMPDEST POP SWAP2 SWAP1 POP JUMP JUMPDEST PUSH0 DUP2 SWAP1 POP DUP2 PUSH0 MSTORE PUSH1 0x20 PUSH0 KECCAK256 SWAP1 POP SWAP2 SWAP1 POP JUMP JUMPDEST PUSH0 PUSH1 0x20 PUSH1 0x1F DUP4 ADD DIV SWAP1 POP SWAP2 SWAP1 POP JUMP JUMPDEST PUSH0 DUP3 DUP3 SHL SWAP1 POP SWAP3 SWAP2 POP POP JUMP JUMPDEST PUSH0 PUSH1 0x8 DUP4 MUL PUSH2 0x5CC PUSH32 0xFFFFFFFFFFFFFFFFFFFFFFFFFFFFFFFFFFFFFFFFFFFFFFFFFFFFFFFFFFFFFFFF DUP3 PUSH2 0x591 JUMP JUMPDEST PUSH2 0x5D6 DUP7 DUP4 PUSH2 0x591 JUMP JUMPDEST SWAP6 POP DUP1 NOT DUP5 AND SWAP4 POP DUP1 DUP7 AND DUP5 OR SWAP3 POP POP POP SWAP4 SWAP3 POP POP POP JUMP JUMPDEST PUSH0 DUP2 SWAP1 POP SWAP2 SWAP1 POP JUMP JUMPDEST PUSH0 PUSH2 0x611 PUSH2 0x60C PUSH2 0x607 DUP5 PUSH2 0x3B2 JUMP JUMPDEST PUSH2 0x5EE JUMP JUMPDEST PUSH2 0x3B2 JUMP JUMPDEST SWAP1 POP SWAP2 SWAP1 POP JUMP JUMPDEST PUSH0 DUP2 SWAP1 POP SWAP2 SWAP1 POP JUMP JUMPDEST PUSH2 0x62A DUP4 PUSH2 0x5F7 JUMP JUMPDEST PUSH2 0x63E PUSH2 0x636 DUP3 PUSH2 0x618 JUMP JUMPDEST DUP5 DUP5 SLOAD PUSH2 0x59D JUMP JUMPDEST DUP3 SSTORE POP POP POP POP JUMP JUMPDEST PUSH0 PUSH0 SWAP1 POP SWAP1 JUMP JUMPDEST PUSH2 0x655 PUSH2 0x646 JUMP JUMPDEST PUSH2 0x660 DUP2 DUP5 DUP5 PUSH2 0x621 JUMP JUMPDEST POP POP POP JUMP JUMPDEST JUMPDEST DUP2 DUP2 LT ISZERO PUSH2 0x683 JUMPI PUSH2 0x678 PUSH0 DUP3 PUSH2 0x64D JUMP JUMPDEST PUSH1 0x1 DUP2 ADD SWAP1 POP PUSH2 0x666 JUMP JUMPDEST POP POP JUMP JUMPDEST PUSH1 0x1F DUP3 GT ISZERO PUSH2 0x6C8 JUMPI PUSH2 0x699 DUP2 PUSH2 0x570 JUMP JUMPDEST PUSH2 0x6A2 DUP5 PUSH2 0x582 JUMP JUMPDEST DUP2 ADD PUSH1 0x20 DUP6 LT ISZERO PUSH2 0x6B1 JUMPI DUP2 SWAP1 POP JUMPDEST PUSH2 0x6C5 PUSH2 0x6BD DUP6 PUSH2 0x582 JUMP JUMPDEST DUP4 ADD DUP3 PUSH2 0x665 JUMP JUMPDEST POP POP JUMPDEST POP POP POP JUMP JUMPDEST PUSH0 DUP3 DUP3 SHR SWAP1 POP SWAP3 SWAP2 POP POP JUMP JUMPDEST PUSH0 PUSH2 0x6E8 PUSH0 NOT DUP5 PUSH1 0x8 MUL PUSH2 0x6CD JUMP JUMPDEST NOT DUP1 DUP4 AND SWAP2 POP POP SWAP3 SWAP2 POP POP JUMP JUMPDEST PUSH0 PUSH2 0x700 DUP4 DUP4 PUSH2 0x6D9 JUMP JUMPDEST SWAP2 POP DUP3 PUSH1 0x2 MUL DUP3 OR SWAP1 POP SWAP3 SWAP2 POP POP JUMP JUMPDEST PUSH2 0x71A DUP4 DUP4 PUSH2 0x4DC JUMP JUMPDEST PUSH8 0xFFFFFFFFFFFFFFFF DUP2 GT ISZERO PUSH2 0x733 JUMPI PUSH2 0x732 PUSH2 0x4E6 JUMP JUMPDEST JUMPDEST PUSH2 0x73D DUP3 SLOAD PUSH2 0x540 JUMP JUMPDEST PUSH2 0x748 DUP3 DUP3 DUP6 PUSH2 0x687 JUMP JUMPDEST PUSH0 PUSH1 0x1F DUP4 GT PUSH1 0x1 DUP2 EQ PUSH2 0x775 JUMPI PUSH0 DUP5 ISZERO PUSH2 0x763 JUMPI DUP3 DUP8 ADD CALLDATALOAD SWAP1 POP JUMPDEST PUSH2 0x76D DUP6 DUP3 PUSH2 0x6F5 JUMP JUMPDEST DUP7 SSTORE POP PUSH2 0x7D4 JUMP JUMPDEST PUSH1 0x1F NOT DUP5 AND PUSH2 0x783 DUP7 PUSH2 0x570 JUMP JUMPDEST PUSH0 JUMPDEST DUP3 DUP2 LT ISZERO PUSH2 0x7AA JUMPI DUP5 DUP10 ADD CALLDATALOAD DUP3 SSTORE PUSH1 0x1 DUP3 ADD SWAP2 POP PUSH1 0x20 DUP6 ADD SWAP5 POP PUSH1 0x20 DUP2 ADD SWAP1 POP PUSH2 0x785 JUMP JUMPDEST DUP7 DUP4 LT ISZERO PUSH2 0x7C7 JUMPI DUP5 DUP10 ADD CALLDATALOAD PUSH2 0x7C3 PUSH1 0x1F DUP10 AND DUP3 PUSH2 0x6D9 JUMP JUMPDEST DUP4 SSTORE POP JUMPDEST PUSH1 0x1 PUSH1 0x2 DUP9 MUL ADD DUP9 SSTORE POP POP POP JUMPDEST POP POP POP POP POP POP POP JUMP INVALID LOG2 PUSH5 0x6970667358 0x22 SLT KECCAK256 0xE3 0xDB DUP12 0xC GT PUSH18 0xA347E76A94C2C011A367347D9FD46AA46F94 SLT 0x26 SWAP3 0xD8 0x4C EQ DIV 0xD5 PUSH5 0x736F6C6343 STOP ADDMOD SHR STOP CALLER "
				},
				"gasEstimates": {
					"creation": {
						"codeDepositCost": "413400",
						"executionCost": "447",
						"totalCost": "413847"
					},
					"external": {
						"keepMessages(string)": "infinite",
						"messages(address,uint256)": "infinite",
						"previewMessage(string)": "infinite"
					}
				},
				"methodIdentifiers": {
					"keepMessages(string)": "bff3e651",
					"messages(address,uint256)": "c45d9bea",
					"previewMessage(string)": "64682bf0"
				}
			},
			"storageLayout": {
				"storage": [
					{
						"astId": 6,
						"contract": "SolidityFund/MessageBoard.sol:MessageBoard",
						"label": "messages",
						"offset": 0,
						"slot": "0",
						"type": "t_mapping(t_address,t_array(t_string_storage)dyn_storage)"
					}
				],
				"types": {
					"t_address": {
						"encoding": "inplace",
						"label": "address",
						"numberOfBytes": "20"
					},
					"t_array(t_string_storage)dyn_storage": {
						"base": "t_string_storage",
						"encoding": "dynamic_array",
						"label": "string[]",
						"numberOfBytes": "32"
					},
					"t_mapping(t_address,t_array(t_string_storage)dyn_storage)": {
						"encoding": "mapping",
						"key": "t_address",
						"label": "mapping(address => string[])",
						"numberOfBytes": "32",
						"value": "t_array(t_string_storage)dyn_storage"
					},
					"t_string_storage": {
						"encoding": "bytes",
						"label": "string",
						"numberOfBytes": "32"
					}
				}
			},
			"userdoc": {
				"kind": "user",
				"methods": {},
				"version": 1
			}
		}
	}
}