{
	"Inheritance and Modularity/ExternalCall.sol": {
		"Consumer": {
			"abi": [
				{
					"inputs": [],
					"name": "callFeed",
					"outputs": [
						{
							"internalType": "uint256",
							"name": "feedResult",
							"type": "uint256"
						}
					],
					"stateMutability": "payable",
					"type": "function"
				},
				{
					"inputs": [
						{
							"internalType": "contract InfoFeed",
							"name": "addr",
							"type": "address"
						}
					],
					"name": "setFeed",
					"outputs": [],
					"stateMutability": "nonpayable",
					"type": "function"
				}
			],
			"devdoc": {
				"kind": "dev",
				"methods": {},
				"version": 1
			},
			"evm": {
				"assembly": "    /* \"Inheritance and Modularity/ExternalCall.sol\":171:416  contract Consumer {... */\n  mstore(0x40, 0x80)\n  callvalue\n  dup1\n  iszero\n  tag_1\n  jumpi\n  revert(0x00, 0x00)\ntag_1:\n  pop\n  dataSize(sub_0)\n  dup1\n  dataOffset(sub_0)\n  0x00\n  codecopy\n  0x00\n  return\nstop\n\nsub_0: assembly {\n        /* \"Inheritance and Modularity/ExternalCall.sol\":171:416  contract Consumer {... */\n      mstore(0x40, 0x80)\n      jumpi(tag_1, lt(calldatasize, 0x04))\n      shr(0xe0, calldataload(0x00))\n      dup1\n      0x55b775ea\n      eq\n      tag_2\n      jumpi\n      dup1\n      0xf198f5df\n      eq\n      tag_3\n      jumpi\n    tag_1:\n      revert(0x00, 0x00)\n        /* \"Inheritance and Modularity/ExternalCall.sol\":215:282  function setFeed(InfoFeed addr) public {... */\n    tag_2:\n      callvalue\n      dup1\n      iszero\n      tag_4\n      jumpi\n      revert(0x00, 0x00)\n    tag_4:\n      pop\n      tag_5\n      0x04\n      dup1\n      calldatasize\n      sub\n      dup2\n      add\n      swap1\n      tag_6\n      swap2\n      swap1\n      tag_7\n      jump\t// in\n    tag_6:\n      tag_8\n      jump\t// in\n    tag_5:\n      stop\n        /* \"Inheritance and Modularity/ExternalCall.sol\":288:414  function callFeed() public payable returns (uint256 feedResult) {... */\n    tag_3:\n      tag_9\n      tag_10\n      jump\t// in\n    tag_9:\n      mload(0x40)\n      tag_11\n      swap2\n      swap1\n      tag_12\n      jump\t// in\n    tag_11:\n      mload(0x40)\n      dup1\n      swap2\n      sub\n      swap1\n      return\n        /* \"Inheritance and Modularity/ExternalCall.sol\":215:282  function setFeed(InfoFeed addr) public {... */\n    tag_8:\n        /* \"Inheritance and Modularity/ExternalCall.sol\":271:275  addr */\n      dup1\n        /* \"Inheritance and Modularity/ExternalCall.sol\":264:268  feed */\n      0x00\n      0x00\n        /* \"Inheritance and Modularity/ExternalCall.sol\":264:275  feed = addr */\n      0x0100\n      exp\n      dup2\n      sload\n      dup2\n      0xffffffffffffffffffffffffffffffffffffffff\n      mul\n      not\n      and\n      swap1\n      dup4\n      0xffffffffffffffffffffffffffffffffffffffff\n      and\n      mul\n      or\n      swap1\n      sstore\n      pop\n        /* \"Inheritance and Modularity/ExternalCall.sol\":215:282  function setFeed(InfoFeed addr) public {... */\n      pop\n      jump\t// out\n        /* \"Inheritance and Modularity/ExternalCall.sol\":288:414  function callFeed() public payable returns (uint256 feedResult) {... */\n    tag_10:\n        /* \"Inheritance and Modularity/ExternalCall.sol\":332:350  uint256 feedResult */\n      0x00\n        /* \"Inheritance and Modularity/ExternalCall.sol\":375:379  feed */\n      0x00\n      0x00\n      swap1\n      sload\n      swap1\n      0x0100\n      exp\n      swap1\n      div\n      0xffffffffffffffffffffffffffffffffffffffff\n      and\n        /* \"Inheritance and Modularity/ExternalCall.sol\":375:384  feed.info */\n      0xffffffffffffffffffffffffffffffffffffffff\n      and\n      0x370158ea\n        /* \"Inheritance and Modularity/ExternalCall.sol\":392:394  10 */\n      0x0a\n        /* \"Inheritance and Modularity/ExternalCall.sol\":401:404  800 */\n      0x0320\n        /* \"Inheritance and Modularity/ExternalCall.sol\":375:407  feed.info{value: 10, gas: 800}() */\n      swap1\n      mload(0x40)\n      dup4\n      0xffffffff\n      and\n      0xe0\n      shl\n      dup2\n      mstore\n      0x04\n      add\n      0x20\n      mload(0x40)\n      dup1\n      dup4\n      sub\n      dup2\n      dup6\n      dup10\n      dup9\n      call\n      iszero\n      dup1\n      iszero\n      tag_16\n      jumpi\n      returndatacopy(0x00, 0x00, returndatasize)\n      revert(0x00, returndatasize)\n    tag_16:\n      pop\n      pop\n      pop\n      pop\n      pop\n      pop\n      mload(0x40)\n      returndatasize\n      not(0x1f)\n      0x1f\n      dup3\n      add\n      and\n      dup3\n      add\n      dup1\n      0x40\n      mstore\n      pop\n      dup2\n      add\n      swap1\n      tag_17\n      swap2\n      swap1\n      tag_18\n      jump\t// in\n    tag_17:\n        /* \"Inheritance and Modularity/ExternalCall.sol\":362:407  feedResult = feed.info{value: 10, gas: 800}() */\n      swap1\n      pop\n        /* \"Inheritance and Modularity/ExternalCall.sol\":288:414  function callFeed() public payable returns (uint256 feedResult) {... */\n      swap1\n      jump\t// out\n        /* \"#utility.yul\":88:205   */\n    tag_20:\n        /* \"#utility.yul\":197:198   */\n      0x00\n        /* \"#utility.yul\":194:195   */\n      0x00\n        /* \"#utility.yul\":187:199   */\n      revert\n        /* \"#utility.yul\":334:460   */\n    tag_22:\n        /* \"#utility.yul\":371:378   */\n      0x00\n        /* \"#utility.yul\":411:453   */\n      0xffffffffffffffffffffffffffffffffffffffff\n        /* \"#utility.yul\":404:409   */\n      dup3\n        /* \"#utility.yul\":400:454   */\n      and\n        /* \"#utility.yul\":389:454   */\n      swap1\n      pop\n        /* \"#utility.yul\":334:460   */\n      swap2\n      swap1\n      pop\n      jump\t// out\n        /* \"#utility.yul\":466:562   */\n    tag_23:\n        /* \"#utility.yul\":503:510   */\n      0x00\n        /* \"#utility.yul\":532:556   */\n      tag_37\n        /* \"#utility.yul\":550:555   */\n      dup3\n        /* \"#utility.yul\":532:556   */\n      tag_22\n      jump\t// in\n    tag_37:\n        /* \"#utility.yul\":521:556   */\n      swap1\n      pop\n        /* \"#utility.yul\":466:562   */\n      swap2\n      swap1\n      pop\n      jump\t// out\n        /* \"#utility.yul\":568:679   */\n    tag_24:\n        /* \"#utility.yul\":620:627   */\n      0x00\n        /* \"#utility.yul\":649:673   */\n      tag_39\n        /* \"#utility.yul\":667:672   */\n      dup3\n        /* \"#utility.yul\":649:673   */\n      tag_23\n      jump\t// in\n    tag_39:\n        /* \"#utility.yul\":638:673   */\n      swap1\n      pop\n        /* \"#utility.yul\":568:679   */\n      swap2\n      swap1\n      pop\n      jump\t// out\n        /* \"#utility.yul\":685:837   */\n    tag_25:\n        /* \"#utility.yul\":773:812   */\n      tag_41\n        /* \"#utility.yul\":806:811   */\n      dup2\n        /* \"#utility.yul\":773:812   */\n      tag_24\n      jump\t// in\n    tag_41:\n        /* \"#utility.yul\":766:771   */\n      dup2\n        /* \"#utility.yul\":763:813   */\n      eq\n        /* \"#utility.yul\":753:831   */\n      tag_42\n      jumpi\n        /* \"#utility.yul\":827:828   */\n      0x00\n        /* \"#utility.yul\":824:825   */\n      0x00\n        /* \"#utility.yul\":817:829   */\n      revert\n        /* \"#utility.yul\":753:831   */\n    tag_42:\n        /* \"#utility.yul\":685:837   */\n      pop\n      jump\t// out\n        /* \"#utility.yul\":843:1012   */\n    tag_26:\n        /* \"#utility.yul\":904:909   */\n      0x00\n        /* \"#utility.yul\":942:948   */\n      dup2\n        /* \"#utility.yul\":929:949   */\n      calldataload\n        /* \"#utility.yul\":920:949   */\n      swap1\n      pop\n        /* \"#utility.yul\":958:1006   */\n      tag_44\n        /* \"#utility.yul\":1000:1005   */\n      dup2\n        /* \"#utility.yul\":958:1006   */\n      tag_25\n      jump\t// in\n    tag_44:\n        /* \"#utility.yul\":843:1012   */\n      swap3\n      swap2\n      pop\n      pop\n      jump\t// out\n        /* \"#utility.yul\":1018:1377   */\n    tag_7:\n        /* \"#utility.yul\":1092:1098   */\n      0x00\n        /* \"#utility.yul\":1141:1143   */\n      0x20\n        /* \"#utility.yul\":1129:1138   */\n      dup3\n        /* \"#utility.yul\":1120:1127   */\n      dup5\n        /* \"#utility.yul\":1116:1139   */\n      sub\n        /* \"#utility.yul\":1112:1144   */\n      slt\n        /* \"#utility.yul\":1109:1228   */\n      iszero\n      tag_46\n      jumpi\n        /* \"#utility.yul\":1147:1226   */\n      tag_47\n      tag_20\n      jump\t// in\n    tag_47:\n        /* \"#utility.yul\":1109:1228   */\n    tag_46:\n        /* \"#utility.yul\":1267:1268   */\n      0x00\n        /* \"#utility.yul\":1292:1360   */\n      tag_48\n        /* \"#utility.yul\":1352:1359   */\n      dup5\n        /* \"#utility.yul\":1343:1349   */\n      dup3\n        /* \"#utility.yul\":1332:1341   */\n      dup6\n        /* \"#utility.yul\":1328:1350   */\n      add\n        /* \"#utility.yul\":1292:1360   */\n      tag_26\n      jump\t// in\n    tag_48:\n        /* \"#utility.yul\":1282:1360   */\n      swap2\n      pop\n        /* \"#utility.yul\":1238:1370   */\n      pop\n        /* \"#utility.yul\":1018:1377   */\n      swap3\n      swap2\n      pop\n      pop\n      jump\t// out\n        /* \"#utility.yul\":1383:1460   */\n    tag_27:\n        /* \"#utility.yul\":1420:1427   */\n      0x00\n        /* \"#utility.yul\":1449:1454   */\n      dup2\n        /* \"#utility.yul\":1438:1454   */\n      swap1\n      pop\n        /* \"#utility.yul\":1383:1460   */\n      swap2\n      swap1\n      pop\n      jump\t// out\n        /* \"#utility.yul\":1466:1584   */\n    tag_28:\n        /* \"#utility.yul\":1553:1577   */\n      tag_51\n        /* \"#utility.yul\":1571:1576   */\n      dup2\n        /* \"#utility.yul\":1553:1577   */\n      tag_27\n      jump\t// in\n    tag_51:\n        /* \"#utility.yul\":1548:1551   */\n      dup3\n        /* \"#utility.yul\":1541:1578   */\n      mstore\n        /* \"#utility.yul\":1466:1584   */\n      pop\n      pop\n      jump\t// out\n        /* \"#utility.yul\":1590:1812   */\n    tag_12:\n        /* \"#utility.yul\":1683:1687   */\n      0x00\n        /* \"#utility.yul\":1721:1723   */\n      0x20\n        /* \"#utility.yul\":1710:1719   */\n      dup3\n        /* \"#utility.yul\":1706:1724   */\n      add\n        /* \"#utility.yul\":1698:1724   */\n      swap1\n      pop\n        /* \"#utility.yul\":1734:1805   */\n      tag_53\n        /* \"#utility.yul\":1802:1803   */\n      0x00\n        /* \"#utility.yul\":1791:1800   */\n      dup4\n        /* \"#utility.yul\":1787:1804   */\n      add\n        /* \"#utility.yul\":1778:1784   */\n      dup5\n        /* \"#utility.yul\":1734:1805   */\n      tag_28\n      jump\t// in\n    tag_53:\n        /* \"#utility.yul\":1590:1812   */\n      swap3\n      swap2\n      pop\n      pop\n      jump\t// out\n        /* \"#utility.yul\":1818:1940   */\n    tag_29:\n        /* \"#utility.yul\":1891:1915   */\n      tag_55\n        /* \"#utility.yul\":1909:1914   */\n      dup2\n        /* \"#utility.yul\":1891:1915   */\n      tag_27\n      jump\t// in\n    tag_55:\n        /* \"#utility.yul\":1884:1889   */\n      dup2\n        /* \"#utility.yul\":1881:1916   */\n      eq\n        /* \"#utility.yul\":1871:1934   */\n      tag_56\n      jumpi\n        /* \"#utility.yul\":1930:1931   */\n      0x00\n        /* \"#utility.yul\":1927:1928   */\n      0x00\n        /* \"#utility.yul\":1920:1932   */\n      revert\n        /* \"#utility.yul\":1871:1934   */\n    tag_56:\n        /* \"#utility.yul\":1818:1940   */\n      pop\n      jump\t// out\n        /* \"#utility.yul\":1946:2089   */\n    tag_30:\n        /* \"#utility.yul\":2003:2008   */\n      0x00\n        /* \"#utility.yul\":2034:2040   */\n      dup2\n        /* \"#utility.yul\":2028:2041   */\n      mload\n        /* \"#utility.yul\":2019:2041   */\n      swap1\n      pop\n        /* \"#utility.yul\":2050:2083   */\n      tag_58\n        /* \"#utility.yul\":2077:2082   */\n      dup2\n        /* \"#utility.yul\":2050:2083   */\n      tag_29\n      jump\t// in\n    tag_58:\n        /* \"#utility.yul\":1946:2089   */\n      swap3\n      swap2\n      pop\n      pop\n      jump\t// out\n        /* \"#utility.yul\":2095:2446   */\n    tag_18:\n        /* \"#utility.yul\":2165:2171   */\n      0x00\n        /* \"#utility.yul\":2214:2216   */\n      0x20\n        /* \"#utility.yul\":2202:2211   */\n      dup3\n        /* \"#utility.yul\":2193:2200   */\n      dup5\n        /* \"#utility.yul\":2189:2212   */\n      sub\n        /* \"#utility.yul\":2185:2217   */\n      slt\n        /* \"#utility.yul\":2182:2301   */\n      iszero\n      tag_60\n      jumpi\n        /* \"#utility.yul\":2220:2299   */\n      tag_61\n      tag_20\n      jump\t// in\n    tag_61:\n        /* \"#utility.yul\":2182:2301   */\n    tag_60:\n        /* \"#utility.yul\":2340:2341   */\n      0x00\n        /* \"#utility.yul\":2365:2429   */\n      tag_62\n        /* \"#utility.yul\":2421:2428   */\n      dup5\n        /* \"#utility.yul\":2412:2418   */\n      dup3\n        /* \"#utility.yul\":2401:2410   */\n      dup6\n        /* \"#utility.yul\":2397:2419   */\n      add\n        /* \"#utility.yul\":2365:2429   */\n      tag_30\n      jump\t// in\n    tag_62:\n        /* \"#utility.yul\":2355:2429   */\n      swap2\n      pop\n        /* \"#utility.yul\":2311:2439   */\n      pop\n        /* \"#utility.yul\":2095:2446   */\n      swap3\n      swap2\n      pop\n      pop\n      jump\t// out\n\n    auxdata: 0xa2646970667358221220ceb1c555ade2c06f8d73edbc56811d12942105e6d11624e84aa22c72ccf93ebd64736f6c634300081c0033\n}\n",
				"bytecode": {
					"linkReferences": {},
					"object": "6080604052348015600e575f5ffd5b506102a68061001c5f395ff3fe608060405260043610610028575f3560e01c806355b775ea1461002c578063f198f5df14610054575b5f5ffd5b348015610037575f5ffd5b50610052600480360381019061004d91906101bf565b610072565b005b61005c6100b4565b6040516100699190610202565b60405180910390f35b805f5f6101000a81548173ffffffffffffffffffffffffffffffffffffffff021916908373ffffffffffffffffffffffffffffffffffffffff16021790555050565b5f5f5f9054906101000a900473ffffffffffffffffffffffffffffffffffffffff1673ffffffffffffffffffffffffffffffffffffffff1663370158ea600a610320906040518363ffffffff1660e01b8152600401602060405180830381858988f1158015610125573d5f5f3e3d5ffd5b5050505050506040513d601f19601f8201168201806040525081019061014b9190610245565b905090565b5f5ffd5b5f73ffffffffffffffffffffffffffffffffffffffff82169050919050565b5f61017d82610154565b9050919050565b5f61018e82610173565b9050919050565b61019e81610184565b81146101a8575f5ffd5b50565b5f813590506101b981610195565b92915050565b5f602082840312156101d4576101d3610150565b5b5f6101e1848285016101ab565b91505092915050565b5f819050919050565b6101fc816101ea565b82525050565b5f6020820190506102155f8301846101f3565b92915050565b610224816101ea565b811461022e575f5ffd5b50565b5f8151905061023f8161021b565b92915050565b5f6020828403121561025a57610259610150565b5b5f61026784828501610231565b9150509291505056fea2646970667358221220ceb1c555ade2c06f8d73edbc56811d12942105e6d11624e84aa22c72ccf93ebd64736f6c634300081c0033",
					"opcodes": "PUSH1 0x80 PUSH1 0x40 MSTORE CALLVALUE DUP1 ISZERO PUSH1 0xE JUMPI PUSH0 PUSH0 REVERT JUMPDEST POP PUSH2 0x2A6 DUP1 PUSH2 0x1C PUSH0 CODECOPY PUSH0 RETURN INVALID PUSH1 0x80 PUSH1 0x40 MSTORE PUSH1 0x4 CALLDATASIZE LT PUSH2 0x28 JUMPI PUSH0 CALLDATALOAD PUSH1 0xE0 SHR DUP1 PUSH4 0x55B775EA EQ PUSH2 0x2C JUMPI DUP1 PUSH4 0xF198F5DF EQ PUSH2 0x54 JUMPI JUMPDEST PUSH0 PUSH0 REVERT JUMPDEST CALLVALUE DUP1 ISZERO PUSH2 0x37 JUMPI PUSH0 PUSH0 REVERT JUMPDEST POP PUSH2 0x52 PUSH1 0x4 DUP1 CALLDATASIZE SUB DUP2 ADD SWAP1 PUSH2 0x4D SWAP2 SWAP1 PUSH2 0x1BF JUMP JUMPDEST PUSH2 0x72 JUMP JUMPDEST STOP JUMPDEST PUSH2 0x5C PUSH2 0xB4 JUMP JUMPDEST PUSH1 0x40 MLOAD PUSH2 0x69 SWAP2 SWAP1 PUSH2 0x202 JUMP JUMPDEST PUSH1 0x40 MLOAD DUP1 SWAP2 SUB SWAP1 RETURN JUMPDEST DUP1 PUSH0 PUSH0 PUSH2 0x100 EXP DUP2 SLOAD DUP2 PUSH20 0xFFFFFFFFFFFFFFFFFFFFFFFFFFFFFFFFFFFFFFFF MUL NOT AND SWAP1 DUP4 PUSH20 0xFFFFFFFFFFFFFFFFFFFFFFFFFFFFFFFFFFFFFFFF AND MUL OR SWAP1 SSTORE POP POP JUMP JUMPDEST PUSH0 PUSH0 PUSH0 SWAP1 SLOAD SWAP1 PUSH2 0x100 EXP SWAP1 DIV PUSH20 0xFFFFFFFFFFFFFFFFFFFFFFFFFFFFFFFFFFFFFFFF AND PUSH20 0xFFFFFFFFFFFFFFFFFFFFFFFFFFFFFFFFFFFFFFFF AND PUSH4 0x370158EA PUSH1 0xA PUSH2 0x320 SWAP1 PUSH1 0x40 MLOAD DUP4 PUSH4 0xFFFFFFFF AND PUSH1 0xE0 SHL DUP2 MSTORE PUSH1 0x4 ADD PUSH1 0x20 PUSH1 0x40 MLOAD DUP1 DUP4 SUB DUP2 DUP6 DUP10 DUP9 CALL ISZERO DUP1 ISZERO PUSH2 0x125 JUMPI RETURNDATASIZE PUSH0 PUSH0 RETURNDATACOPY RETURNDATASIZE PUSH0 REVERT JUMPDEST POP POP POP POP POP POP PUSH1 0x40 MLOAD RETURNDATASIZE PUSH1 0x1F NOT PUSH1 0x1F DUP3 ADD AND DUP3 ADD DUP1 PUSH1 0x40 MSTORE POP DUP2 ADD SWAP1 PUSH2 0x14B SWAP2 SWAP1 PUSH2 0x245 JUMP JUMPDEST SWAP1 POP SWAP1 JUMP JUMPDEST PUSH0 PUSH0 REVERT JUMPDEST PUSH0 PUSH20 0xFFFFFFFFFFFFFFFFFFFFFFFFFFFFFFFFFFFFFFFF DUP3 AND SWAP1 POP SWAP2 SWAP1 POP JUMP JUMPDEST PUSH0 PUSH2 0x17D DUP3 PUSH2 0x154 JUMP JUMPDEST SWAP1 POP SWAP2 SWAP1 POP JUMP JUMPDEST PUSH0 PUSH2 0x18E DUP3 PUSH2 0x173 JUMP JUMPDEST SWAP1 POP SWAP2 SWAP1 POP JUMP JUMPDEST PUSH2 0x19E DUP2 PUSH2 0x184 JUMP JUMPDEST DUP2 EQ PUSH2 0x1A8 JUMPI PUSH0 PUSH0 REVERT JUMPDEST POP JUMP JUMPDEST PUSH0 DUP2 CALLDATALOAD SWAP1 POP PUSH2 0x1B9 DUP2 PUSH2 0x195 JUMP JUMPDEST SWAP3 SWAP2 POP POP JUMP JUMPDEST PUSH0 PUSH1 0x20 DUP3 DUP5 SUB SLT ISZERO PUSH2 0x1D4 JUMPI PUSH2 0x1D3 PUSH2 0x150 JUMP JUMPDEST JUMPDEST PUSH0 PUSH2 0x1E1 DUP5 DUP3 DUP6 ADD PUSH2 0x1AB JUMP JUMPDEST SWAP2 POP POP SWAP3 SWAP2 POP POP JUMP JUMPDEST PUSH0 DUP2 SWAP1 POP SWAP2 SWAP1 POP JUMP JUMPDEST PUSH2 0x1FC DUP2 PUSH2 0x1EA JUMP JUMPDEST DUP3 MSTORE POP POP JUMP JUMPDEST PUSH0 PUSH1 0x20 DUP3 ADD SWAP1 POP PUSH2 0x215 PUSH0 DUP4 ADD DUP5 PUSH2 0x1F3 JUMP JUMPDEST SWAP3 SWAP2 POP POP JUMP JUMPDEST PUSH2 0x224 DUP2 PUSH2 0x1EA JUMP JUMPDEST DUP2 EQ PUSH2 0x22E JUMPI PUSH0 PUSH0 REVERT JUMPDEST POP JUMP JUMPDEST PUSH0 DUP2 MLOAD SWAP1 POP PUSH2 0x23F DUP2 PUSH2 0x21B JUMP JUMPDEST SWAP3 SWAP2 POP POP JUMP JUMPDEST PUSH0 PUSH1 0x20 DUP3 DUP5 SUB SLT ISZERO PUSH2 0x25A JUMPI PUSH2 0x259 PUSH2 0x150 JUMP JUMPDEST JUMPDEST PUSH0 PUSH2 0x267 DUP5 DUP3 DUP6 ADD PUSH2 0x231 JUMP JUMPDEST SWAP2 POP POP SWAP3 SWAP2 POP POP JUMP INVALID LOG2 PUSH5 0x6970667358 0x22 SLT KECCAK256 0xCE 0xB1 0xC5 SSTORE 0xAD 0xE2 0xC0 PUSH16 0x8D73EDBC56811D12942105E6D11624E8 BLOBBASEFEE LOG2 0x2C PUSH19 0xCCF93EBD64736F6C634300081C003300000000 "
				},
				"gasEstimates": {
					"creation": {
						"codeDepositCost": "135600",
						"executionCost": "181",
						"totalCost": "135781"
					},
					"external": {
						"callFeed()": "infinite",
						"setFeed(address)": "24734"
					}
				},
				"methodIdentifiers": {
					"callFeed()": "f198f5df",
					"setFeed(address)": "55b775ea"
				}
			},
			"storageLayout": {
				"storage": [
					{
						"astId": 15,
						"contract": "Inheritance and Modularity/ExternalCall.sol:Consumer",
						"label": "feed",
						"offset": 0,
						"slot": "0",
						"type": "t_contract(InfoFeed)12"
					}
				],
				"types": {
					"t_contract(InfoFeed)12": {
						"encoding": "inplace",
						"label": "contract InfoFeed",
						"numberOfBytes": "20"
					}
				}
			},
			"userdoc": {
				"kind": "user",
				"methods": {},
				"version": 1
			}
		}
	}
}