{
	"Inheritance and Modularity/ExternalCall.sol": {
		"Consumer": {
			"abi": [
				{
					"inputs": [],
					"name": "callFeed",
					"outputs": [
						{
							"internalType": "uint256",
							"name": "feedResult",
							"type": "uint256"
						}
					],
					"stateMutability": "payable",
					"type": "function"
				},
				{
					"inputs": [
						{
							"internalType": "address payable",
							"name": "_to",
							"type": "address"
						}
					],
					"name": "sendViaSend",
					"outputs": [],
					"stateMutability": "payable",
					"type": "function"
				},
				{
					"inputs": [
						{
							"internalType": "contract IMyInfoFeed",
							"name": "addr",
							"type": "address"
						}
					],
					"name": "setFeed",
					"outputs": [],
					"stateMutability": "nonpayable",
					"type": "function"
				}
			],
			"devdoc": {
				"kind": "dev",
				"methods": {},
				"version": 1
			},
			"evm": {
				"assembly": "    /* \"Inheritance and Modularity/ExternalCall.sol\":406:901  contract Consumer {... */\n  mstore(0x40, 0x80)\n  callvalue\n  dup1\n  iszero\n  tag_1\n  jumpi\n  revert(0x00, 0x00)\ntag_1:\n  pop\n  dataSize(sub_0)\n  dup1\n  dataOffset(sub_0)\n  0x00\n  codecopy\n  0x00\n  return\nstop\n\nsub_0: assembly {\n        /* \"Inheritance and Modularity/ExternalCall.sol\":406:901  contract Consumer {... */\n      mstore(0x40, 0x80)\n      jumpi(tag_1, lt(calldatasize, 0x04))\n      shr(0xe0, calldataload(0x00))\n      dup1\n      0x55b775ea\n      eq\n      tag_2\n      jumpi\n      dup1\n      0x74be4806\n      eq\n      tag_3\n      jumpi\n      dup1\n      0xf198f5df\n      eq\n      tag_4\n      jumpi\n    tag_1:\n      revert(0x00, 0x00)\n        /* \"Inheritance and Modularity/ExternalCall.sol\":453:523  function setFeed(IMyInfoFeed addr) public {... */\n    tag_2:\n      callvalue\n      dup1\n      iszero\n      tag_5\n      jumpi\n      revert(0x00, 0x00)\n    tag_5:\n      pop\n      tag_6\n      0x04\n      dup1\n      calldatasize\n      sub\n      dup2\n      add\n      swap1\n      tag_7\n      swap2\n      swap1\n      tag_8\n      jump\t// in\n    tag_7:\n      tag_9\n      jump\t// in\n    tag_6:\n      stop\n        /* \"Inheritance and Modularity/ExternalCall.sol\":670:767  function sendViaSend(address payable _to) public payable {... */\n    tag_3:\n      tag_10\n      0x04\n      dup1\n      calldatasize\n      sub\n      dup2\n      add\n      swap1\n      tag_11\n      swap2\n      swap1\n      tag_12\n      jump\t// in\n    tag_11:\n      tag_13\n      jump\t// in\n    tag_10:\n      stop\n        /* \"Inheritance and Modularity/ExternalCall.sol\":773:899  function callFeed() public payable returns (uint256 feedResult) {... */\n    tag_4:\n      tag_14\n      tag_15\n      jump\t// in\n    tag_14:\n      mload(0x40)\n      tag_16\n      swap2\n      swap1\n      tag_17\n      jump\t// in\n    tag_16:\n      mload(0x40)\n      dup1\n      swap2\n      sub\n      swap1\n      return\n        /* \"Inheritance and Modularity/ExternalCall.sol\":453:523  function setFeed(IMyInfoFeed addr) public {... */\n    tag_9:\n        /* \"Inheritance and Modularity/ExternalCall.sol\":512:516  addr */\n      dup1\n        /* \"Inheritance and Modularity/ExternalCall.sol\":505:509  feed */\n      0x00\n      0x00\n        /* \"Inheritance and Modularity/ExternalCall.sol\":505:516  feed = addr */\n      0x0100\n      exp\n      dup2\n      sload\n      dup2\n      0xffffffffffffffffffffffffffffffffffffffff\n      mul\n      not\n      and\n      swap1\n      dup4\n      0xffffffffffffffffffffffffffffffffffffffff\n      and\n      mul\n      or\n      swap1\n      sstore\n      pop\n        /* \"Inheritance and Modularity/ExternalCall.sol\":453:523  function setFeed(IMyInfoFeed addr) public {... */\n      pop\n      jump\t// out\n        /* \"Inheritance and Modularity/ExternalCall.sol\":670:767  function sendViaSend(address payable _to) public payable {... */\n    tag_13:\n        /* \"Inheritance and Modularity/ExternalCall.sol\":737:740  _to */\n      dup1\n        /* \"Inheritance and Modularity/ExternalCall.sol\":737:749  _to.transfer */\n      0xffffffffffffffffffffffffffffffffffffffff\n      and\n        /* \"Inheritance and Modularity/ExternalCall.sol\":737:760  _to.transfer(msg.value) */\n      0x08fc\n        /* \"Inheritance and Modularity/ExternalCall.sol\":750:759  msg.value */\n      callvalue\n        /* \"Inheritance and Modularity/ExternalCall.sol\":737:760  _to.transfer(msg.value) */\n      swap1\n      dup2\n      iszero\n      mul\n      swap1\n      mload(0x40)\n      0x00\n      mload(0x40)\n      dup1\n      dup4\n      sub\n      dup2\n      dup6\n      dup9\n      dup9\n      call\n      swap4\n      pop\n      pop\n      pop\n      pop\n      iszero\n      dup1\n      iszero\n      tag_21\n      jumpi\n      returndatacopy(0x00, 0x00, returndatasize)\n      revert(0x00, returndatasize)\n    tag_21:\n      pop\n        /* \"Inheritance and Modularity/ExternalCall.sol\":670:767  function sendViaSend(address payable _to) public payable {... */\n      pop\n      jump\t// out\n        /* \"Inheritance and Modularity/ExternalCall.sol\":773:899  function callFeed() public payable returns (uint256 feedResult) {... */\n    tag_15:\n        /* \"Inheritance and Modularity/ExternalCall.sol\":817:835  uint256 feedResult */\n      0x00\n        /* \"Inheritance and Modularity/ExternalCall.sol\":860:864  feed */\n      0x00\n      0x00\n      swap1\n      sload\n      swap1\n      0x0100\n      exp\n      swap1\n      div\n      0xffffffffffffffffffffffffffffffffffffffff\n      and\n        /* \"Inheritance and Modularity/ExternalCall.sol\":860:872  feed.infoTwo */\n      0xffffffffffffffffffffffffffffffffffffffff\n      and\n      0xd37969b9\n        /* \"Inheritance and Modularity/ExternalCall.sol\":880:889  msg.value */\n      callvalue\n        /* \"Inheritance and Modularity/ExternalCall.sol\":860:892  feed.infoTwo{value: msg.value}() */\n      mload(0x40)\n      dup3\n      0xffffffff\n      and\n      0xe0\n      shl\n      dup2\n      mstore\n      0x04\n      add\n      0x20\n      mload(0x40)\n      dup1\n      dup4\n      sub\n      dup2\n      dup6\n      dup9\n      gas\n      call\n      iszero\n      dup1\n      iszero\n      tag_24\n      jumpi\n      returndatacopy(0x00, 0x00, returndatasize)\n      revert(0x00, returndatasize)\n    tag_24:\n      pop\n      pop\n      pop\n      pop\n      pop\n      mload(0x40)\n      returndatasize\n      not(0x1f)\n      0x1f\n      dup3\n      add\n      and\n      dup3\n      add\n      dup1\n      0x40\n      mstore\n      pop\n      dup2\n      add\n      swap1\n      tag_25\n      swap2\n      swap1\n      tag_26\n      jump\t// in\n    tag_25:\n        /* \"Inheritance and Modularity/ExternalCall.sol\":847:892  feedResult = feed.infoTwo{value: msg.value}() */\n      swap1\n      pop\n        /* \"Inheritance and Modularity/ExternalCall.sol\":773:899  function callFeed() public payable returns (uint256 feedResult) {... */\n      swap1\n      jump\t// out\n        /* \"#utility.yul\":88:205   */\n    tag_28:\n        /* \"#utility.yul\":197:198   */\n      0x00\n        /* \"#utility.yul\":194:195   */\n      0x00\n        /* \"#utility.yul\":187:199   */\n      revert\n        /* \"#utility.yul\":334:460   */\n    tag_30:\n        /* \"#utility.yul\":371:378   */\n      0x00\n        /* \"#utility.yul\":411:453   */\n      0xffffffffffffffffffffffffffffffffffffffff\n        /* \"#utility.yul\":404:409   */\n      dup3\n        /* \"#utility.yul\":400:454   */\n      and\n        /* \"#utility.yul\":389:454   */\n      swap1\n      pop\n        /* \"#utility.yul\":334:460   */\n      swap2\n      swap1\n      pop\n      jump\t// out\n        /* \"#utility.yul\":466:562   */\n    tag_31:\n        /* \"#utility.yul\":503:510   */\n      0x00\n        /* \"#utility.yul\":532:556   */\n      tag_48\n        /* \"#utility.yul\":550:555   */\n      dup3\n        /* \"#utility.yul\":532:556   */\n      tag_30\n      jump\t// in\n    tag_48:\n        /* \"#utility.yul\":521:556   */\n      swap1\n      pop\n        /* \"#utility.yul\":466:562   */\n      swap2\n      swap1\n      pop\n      jump\t// out\n        /* \"#utility.yul\":568:682   */\n    tag_32:\n        /* \"#utility.yul\":623:630   */\n      0x00\n        /* \"#utility.yul\":652:676   */\n      tag_50\n        /* \"#utility.yul\":670:675   */\n      dup3\n        /* \"#utility.yul\":652:676   */\n      tag_31\n      jump\t// in\n    tag_50:\n        /* \"#utility.yul\":641:676   */\n      swap1\n      pop\n        /* \"#utility.yul\":568:682   */\n      swap2\n      swap1\n      pop\n      jump\t// out\n        /* \"#utility.yul\":688:846   */\n    tag_33:\n        /* \"#utility.yul\":779:821   */\n      tag_52\n        /* \"#utility.yul\":815:820   */\n      dup2\n        /* \"#utility.yul\":779:821   */\n      tag_32\n      jump\t// in\n    tag_52:\n        /* \"#utility.yul\":772:777   */\n      dup2\n        /* \"#utility.yul\":769:822   */\n      eq\n        /* \"#utility.yul\":759:840   */\n      tag_53\n      jumpi\n        /* \"#utility.yul\":836:837   */\n      0x00\n        /* \"#utility.yul\":833:834   */\n      0x00\n        /* \"#utility.yul\":826:838   */\n      revert\n        /* \"#utility.yul\":759:840   */\n    tag_53:\n        /* \"#utility.yul\":688:846   */\n      pop\n      jump\t// out\n        /* \"#utility.yul\":852:1027   */\n    tag_34:\n        /* \"#utility.yul\":916:921   */\n      0x00\n        /* \"#utility.yul\":954:960   */\n      dup2\n        /* \"#utility.yul\":941:961   */\n      calldataload\n        /* \"#utility.yul\":932:961   */\n      swap1\n      pop\n        /* \"#utility.yul\":970:1021   */\n      tag_55\n        /* \"#utility.yul\":1015:1020   */\n      dup2\n        /* \"#utility.yul\":970:1021   */\n      tag_33\n      jump\t// in\n    tag_55:\n        /* \"#utility.yul\":852:1027   */\n      swap3\n      swap2\n      pop\n      pop\n      jump\t// out\n        /* \"#utility.yul\":1033:1398   */\n    tag_8:\n        /* \"#utility.yul\":1110:1116   */\n      0x00\n        /* \"#utility.yul\":1159:1161   */\n      0x20\n        /* \"#utility.yul\":1147:1156   */\n      dup3\n        /* \"#utility.yul\":1138:1145   */\n      dup5\n        /* \"#utility.yul\":1134:1157   */\n      sub\n        /* \"#utility.yul\":1130:1162   */\n      slt\n        /* \"#utility.yul\":1127:1246   */\n      iszero\n      tag_57\n      jumpi\n        /* \"#utility.yul\":1165:1244   */\n      tag_58\n      tag_28\n      jump\t// in\n    tag_58:\n        /* \"#utility.yul\":1127:1246   */\n    tag_57:\n        /* \"#utility.yul\":1285:1286   */\n      0x00\n        /* \"#utility.yul\":1310:1381   */\n      tag_59\n        /* \"#utility.yul\":1373:1380   */\n      dup5\n        /* \"#utility.yul\":1364:1370   */\n      dup3\n        /* \"#utility.yul\":1353:1362   */\n      dup6\n        /* \"#utility.yul\":1349:1371   */\n      add\n        /* \"#utility.yul\":1310:1381   */\n      tag_34\n      jump\t// in\n    tag_59:\n        /* \"#utility.yul\":1300:1381   */\n      swap2\n      pop\n        /* \"#utility.yul\":1256:1391   */\n      pop\n        /* \"#utility.yul\":1033:1398   */\n      swap3\n      swap2\n      pop\n      pop\n      jump\t// out\n        /* \"#utility.yul\":1404:1508   */\n    tag_35:\n        /* \"#utility.yul\":1449:1456   */\n      0x00\n        /* \"#utility.yul\":1478:1502   */\n      tag_61\n        /* \"#utility.yul\":1496:1501   */\n      dup3\n        /* \"#utility.yul\":1478:1502   */\n      tag_30\n      jump\t// in\n    tag_61:\n        /* \"#utility.yul\":1467:1502   */\n      swap1\n      pop\n        /* \"#utility.yul\":1404:1508   */\n      swap2\n      swap1\n      pop\n      jump\t// out\n        /* \"#utility.yul\":1514:1652   */\n    tag_36:\n        /* \"#utility.yul\":1595:1627   */\n      tag_63\n        /* \"#utility.yul\":1621:1626   */\n      dup2\n        /* \"#utility.yul\":1595:1627   */\n      tag_35\n      jump\t// in\n    tag_63:\n        /* \"#utility.yul\":1588:1593   */\n      dup2\n        /* \"#utility.yul\":1585:1628   */\n      eq\n        /* \"#utility.yul\":1575:1646   */\n      tag_64\n      jumpi\n        /* \"#utility.yul\":1642:1643   */\n      0x00\n        /* \"#utility.yul\":1639:1640   */\n      0x00\n        /* \"#utility.yul\":1632:1644   */\n      revert\n        /* \"#utility.yul\":1575:1646   */\n    tag_64:\n        /* \"#utility.yul\":1514:1652   */\n      pop\n      jump\t// out\n        /* \"#utility.yul\":1658:1813   */\n    tag_37:\n        /* \"#utility.yul\":1712:1717   */\n      0x00\n        /* \"#utility.yul\":1750:1756   */\n      dup2\n        /* \"#utility.yul\":1737:1757   */\n      calldataload\n        /* \"#utility.yul\":1728:1757   */\n      swap1\n      pop\n        /* \"#utility.yul\":1766:1807   */\n      tag_66\n        /* \"#utility.yul\":1801:1806   */\n      dup2\n        /* \"#utility.yul\":1766:1807   */\n      tag_36\n      jump\t// in\n    tag_66:\n        /* \"#utility.yul\":1658:1813   */\n      swap3\n      swap2\n      pop\n      pop\n      jump\t// out\n        /* \"#utility.yul\":1819:2164   */\n    tag_12:\n        /* \"#utility.yul\":1886:1892   */\n      0x00\n        /* \"#utility.yul\":1935:1937   */\n      0x20\n        /* \"#utility.yul\":1923:1932   */\n      dup3\n        /* \"#utility.yul\":1914:1921   */\n      dup5\n        /* \"#utility.yul\":1910:1933   */\n      sub\n        /* \"#utility.yul\":1906:1938   */\n      slt\n        /* \"#utility.yul\":1903:2022   */\n      iszero\n      tag_68\n      jumpi\n        /* \"#utility.yul\":1941:2020   */\n      tag_69\n      tag_28\n      jump\t// in\n    tag_69:\n        /* \"#utility.yul\":1903:2022   */\n    tag_68:\n        /* \"#utility.yul\":2061:2062   */\n      0x00\n        /* \"#utility.yul\":2086:2147   */\n      tag_70\n        /* \"#utility.yul\":2139:2146   */\n      dup5\n        /* \"#utility.yul\":2130:2136   */\n      dup3\n        /* \"#utility.yul\":2119:2128   */\n      dup6\n        /* \"#utility.yul\":2115:2137   */\n      add\n        /* \"#utility.yul\":2086:2147   */\n      tag_37\n      jump\t// in\n    tag_70:\n        /* \"#utility.yul\":2076:2147   */\n      swap2\n      pop\n        /* \"#utility.yul\":2032:2157   */\n      pop\n        /* \"#utility.yul\":1819:2164   */\n      swap3\n      swap2\n      pop\n      pop\n      jump\t// out\n        /* \"#utility.yul\":2170:2247   */\n    tag_38:\n        /* \"#utility.yul\":2207:2214   */\n      0x00\n        /* \"#utility.yul\":2236:2241   */\n      dup2\n        /* \"#utility.yul\":2225:2241   */\n      swap1\n      pop\n        /* \"#utility.yul\":2170:2247   */\n      swap2\n      swap1\n      pop\n      jump\t// out\n        /* \"#utility.yul\":2253:2371   */\n    tag_39:\n        /* \"#utility.yul\":2340:2364   */\n      tag_73\n        /* \"#utility.yul\":2358:2363   */\n      dup2\n        /* \"#utility.yul\":2340:2364   */\n      tag_38\n      jump\t// in\n    tag_73:\n        /* \"#utility.yul\":2335:2338   */\n      dup3\n        /* \"#utility.yul\":2328:2365   */\n      mstore\n        /* \"#utility.yul\":2253:2371   */\n      pop\n      pop\n      jump\t// out\n        /* \"#utility.yul\":2377:2599   */\n    tag_17:\n        /* \"#utility.yul\":2470:2474   */\n      0x00\n        /* \"#utility.yul\":2508:2510   */\n      0x20\n        /* \"#utility.yul\":2497:2506   */\n      dup3\n        /* \"#utility.yul\":2493:2511   */\n      add\n        /* \"#utility.yul\":2485:2511   */\n      swap1\n      pop\n        /* \"#utility.yul\":2521:2592   */\n      tag_75\n        /* \"#utility.yul\":2589:2590   */\n      0x00\n        /* \"#utility.yul\":2578:2587   */\n      dup4\n        /* \"#utility.yul\":2574:2591   */\n      add\n        /* \"#utility.yul\":2565:2571   */\n      dup5\n        /* \"#utility.yul\":2521:2592   */\n      tag_39\n      jump\t// in\n    tag_75:\n        /* \"#utility.yul\":2377:2599   */\n      swap3\n      swap2\n      pop\n      pop\n      jump\t// out\n        /* \"#utility.yul\":2605:2727   */\n    tag_40:\n        /* \"#utility.yul\":2678:2702   */\n      tag_77\n        /* \"#utility.yul\":2696:2701   */\n      dup2\n        /* \"#utility.yul\":2678:2702   */\n      tag_38\n      jump\t// in\n    tag_77:\n        /* \"#utility.yul\":2671:2676   */\n      dup2\n        /* \"#utility.yul\":2668:2703   */\n      eq\n        /* \"#utility.yul\":2658:2721   */\n      tag_78\n      jumpi\n        /* \"#utility.yul\":2717:2718   */\n      0x00\n        /* \"#utility.yul\":2714:2715   */\n      0x00\n        /* \"#utility.yul\":2707:2719   */\n      revert\n        /* \"#utility.yul\":2658:2721   */\n    tag_78:\n        /* \"#utility.yul\":2605:2727   */\n      pop\n      jump\t// out\n        /* \"#utility.yul\":2733:2876   */\n    tag_41:\n        /* \"#utility.yul\":2790:2795   */\n      0x00\n        /* \"#utility.yul\":2821:2827   */\n      dup2\n        /* \"#utility.yul\":2815:2828   */\n      mload\n        /* \"#utility.yul\":2806:2828   */\n      swap1\n      pop\n        /* \"#utility.yul\":2837:2870   */\n      tag_80\n        /* \"#utility.yul\":2864:2869   */\n      dup2\n        /* \"#utility.yul\":2837:2870   */\n      tag_40\n      jump\t// in\n    tag_80:\n        /* \"#utility.yul\":2733:2876   */\n      swap3\n      swap2\n      pop\n      pop\n      jump\t// out\n        /* \"#utility.yul\":2882:3233   */\n    tag_26:\n        /* \"#utility.yul\":2952:2958   */\n      0x00\n        /* \"#utility.yul\":3001:3003   */\n      0x20\n        /* \"#utility.yul\":2989:2998   */\n      dup3\n        /* \"#utility.yul\":2980:2987   */\n      dup5\n        /* \"#utility.yul\":2976:2999   */\n      sub\n        /* \"#utility.yul\":2972:3004   */\n      slt\n        /* \"#utility.yul\":2969:3088   */\n      iszero\n      tag_82\n      jumpi\n        /* \"#utility.yul\":3007:3086   */\n      tag_83\n      tag_28\n      jump\t// in\n    tag_83:\n        /* \"#utility.yul\":2969:3088   */\n    tag_82:\n        /* \"#utility.yul\":3127:3128   */\n      0x00\n        /* \"#utility.yul\":3152:3216   */\n      tag_84\n        /* \"#utility.yul\":3208:3215   */\n      dup5\n        /* \"#utility.yul\":3199:3205   */\n      dup3\n        /* \"#utility.yul\":3188:3197   */\n      dup6\n        /* \"#utility.yul\":3184:3206   */\n      add\n        /* \"#utility.yul\":3152:3216   */\n      tag_41\n      jump\t// in\n    tag_84:\n        /* \"#utility.yul\":3142:3216   */\n      swap2\n      pop\n        /* \"#utility.yul\":3098:3226   */\n      pop\n        /* \"#utility.yul\":2882:3233   */\n      swap3\n      swap2\n      pop\n      pop\n      jump\t// out\n\n    auxdata: 0xa26469706673582212208014b45fd0008824a39062fec051b58b242f9d3eaab077c44c79aa5bfd03ea5664736f6c634300081c0033\n}\n",
				"bytecode": {
					"linkReferences": {},
					"object": "6080604052348015600e575f5ffd5b506103748061001c5f395ff3fe608060405260043610610033575f3560e01c806355b775ea1461003757806374be48061461005f578063f198f5df1461007b575b5f5ffd5b348015610042575f5ffd5b5061005d60048036038101906100589190610227565b610099565b005b6100796004803603810190610074919061028d565b6100db565b005b610083610122565b60405161009091906102d0565b60405180910390f35b805f5f6101000a81548173ffffffffffffffffffffffffffffffffffffffff021916908373ffffffffffffffffffffffffffffffffffffffff16021790555050565b8073ffffffffffffffffffffffffffffffffffffffff166108fc3490811502906040515f60405180830381858888f1935050505015801561011e573d5f5f3e3d5ffd5b5050565b5f5f5f9054906101000a900473ffffffffffffffffffffffffffffffffffffffff1673ffffffffffffffffffffffffffffffffffffffff1663d37969b9346040518263ffffffff1660e01b815260040160206040518083038185885af115801561018e573d5f5f3e3d5ffd5b50505050506040513d601f19601f820116820180604052508101906101b39190610313565b905090565b5f5ffd5b5f73ffffffffffffffffffffffffffffffffffffffff82169050919050565b5f6101e5826101bc565b9050919050565b5f6101f6826101db565b9050919050565b610206816101ec565b8114610210575f5ffd5b50565b5f81359050610221816101fd565b92915050565b5f6020828403121561023c5761023b6101b8565b5b5f61024984828501610213565b91505092915050565b5f61025c826101bc565b9050919050565b61026c81610252565b8114610276575f5ffd5b50565b5f8135905061028781610263565b92915050565b5f602082840312156102a2576102a16101b8565b5b5f6102af84828501610279565b91505092915050565b5f819050919050565b6102ca816102b8565b82525050565b5f6020820190506102e35f8301846102c1565b92915050565b6102f2816102b8565b81146102fc575f5ffd5b50565b5f8151905061030d816102e9565b92915050565b5f60208284031215610328576103276101b8565b5b5f610335848285016102ff565b9150509291505056fea26469706673582212208014b45fd0008824a39062fec051b58b242f9d3eaab077c44c79aa5bfd03ea5664736f6c634300081c0033",
					"opcodes": "PUSH1 0x80 PUSH1 0x40 MSTORE CALLVALUE DUP1 ISZERO PUSH1 0xE JUMPI PUSH0 PUSH0 REVERT JUMPDEST POP PUSH2 0x374 DUP1 PUSH2 0x1C PUSH0 CODECOPY PUSH0 RETURN INVALID PUSH1 0x80 PUSH1 0x40 MSTORE PUSH1 0x4 CALLDATASIZE LT PUSH2 0x33 JUMPI PUSH0 CALLDATALOAD PUSH1 0xE0 SHR DUP1 PUSH4 0x55B775EA EQ PUSH2 0x37 JUMPI DUP1 PUSH4 0x74BE4806 EQ PUSH2 0x5F JUMPI DUP1 PUSH4 0xF198F5DF EQ PUSH2 0x7B JUMPI JUMPDEST PUSH0 PUSH0 REVERT JUMPDEST CALLVALUE DUP1 ISZERO PUSH2 0x42 JUMPI PUSH0 PUSH0 REVERT JUMPDEST POP PUSH2 0x5D PUSH1 0x4 DUP1 CALLDATASIZE SUB DUP2 ADD SWAP1 PUSH2 0x58 SWAP2 SWAP1 PUSH2 0x227 JUMP JUMPDEST PUSH2 0x99 JUMP JUMPDEST STOP JUMPDEST PUSH2 0x79 PUSH1 0x4 DUP1 CALLDATASIZE SUB DUP2 ADD SWAP1 PUSH2 0x74 SWAP2 SWAP1 PUSH2 0x28D JUMP JUMPDEST PUSH2 0xDB JUMP JUMPDEST STOP JUMPDEST PUSH2 0x83 PUSH2 0x122 JUMP JUMPDEST PUSH1 0x40 MLOAD PUSH2 0x90 SWAP2 SWAP1 PUSH2 0x2D0 JUMP JUMPDEST PUSH1 0x40 MLOAD DUP1 SWAP2 SUB SWAP1 RETURN JUMPDEST DUP1 PUSH0 PUSH0 PUSH2 0x100 EXP DUP2 SLOAD DUP2 PUSH20 0xFFFFFFFFFFFFFFFFFFFFFFFFFFFFFFFFFFFFFFFF MUL NOT AND SWAP1 DUP4 PUSH20 0xFFFFFFFFFFFFFFFFFFFFFFFFFFFFFFFFFFFFFFFF AND MUL OR SWAP1 SSTORE POP POP JUMP JUMPDEST DUP1 PUSH20 0xFFFFFFFFFFFFFFFFFFFFFFFFFFFFFFFFFFFFFFFF AND PUSH2 0x8FC CALLVALUE SWAP1 DUP2 ISZERO MUL SWAP1 PUSH1 0x40 MLOAD PUSH0 PUSH1 0x40 MLOAD DUP1 DUP4 SUB DUP2 DUP6 DUP9 DUP9 CALL SWAP4 POP POP POP POP ISZERO DUP1 ISZERO PUSH2 0x11E JUMPI RETURNDATASIZE PUSH0 PUSH0 RETURNDATACOPY RETURNDATASIZE PUSH0 REVERT JUMPDEST POP POP JUMP JUMPDEST PUSH0 PUSH0 PUSH0 SWAP1 SLOAD SWAP1 PUSH2 0x100 EXP SWAP1 DIV PUSH20 0xFFFFFFFFFFFFFFFFFFFFFFFFFFFFFFFFFFFFFFFF AND PUSH20 0xFFFFFFFFFFFFFFFFFFFFFFFFFFFFFFFFFFFFFFFF AND PUSH4 0xD37969B9 CALLVALUE PUSH1 0x40 MLOAD DUP3 PUSH4 0xFFFFFFFF AND PUSH1 0xE0 SHL DUP2 MSTORE PUSH1 0x4 ADD PUSH1 0x20 PUSH1 0x40 MLOAD DUP1 DUP4 SUB DUP2 DUP6 DUP9 GAS CALL ISZERO DUP1 ISZERO PUSH2 0x18E JUMPI RETURNDATASIZE PUSH0 PUSH0 RETURNDATACOPY RETURNDATASIZE PUSH0 REVERT JUMPDEST POP POP POP POP POP PUSH1 0x40 MLOAD RETURNDATASIZE PUSH1 0x1F NOT PUSH1 0x1F DUP3 ADD AND DUP3 ADD DUP1 PUSH1 0x40 MSTORE POP DUP2 ADD SWAP1 PUSH2 0x1B3 SWAP2 SWAP1 PUSH2 0x313 JUMP JUMPDEST SWAP1 POP SWAP1 JUMP JUMPDEST PUSH0 PUSH0 REVERT JUMPDEST PUSH0 PUSH20 0xFFFFFFFFFFFFFFFFFFFFFFFFFFFFFFFFFFFFFFFF DUP3 AND SWAP1 POP SWAP2 SWAP1 POP JUMP JUMPDEST PUSH0 PUSH2 0x1E5 DUP3 PUSH2 0x1BC JUMP JUMPDEST SWAP1 POP SWAP2 SWAP1 POP JUMP JUMPDEST PUSH0 PUSH2 0x1F6 DUP3 PUSH2 0x1DB JUMP JUMPDEST SWAP1 POP SWAP2 SWAP1 POP JUMP JUMPDEST PUSH2 0x206 DUP2 PUSH2 0x1EC JUMP JUMPDEST DUP2 EQ PUSH2 0x210 JUMPI PUSH0 PUSH0 REVERT JUMPDEST POP JUMP JUMPDEST PUSH0 DUP2 CALLDATALOAD SWAP1 POP PUSH2 0x221 DUP2 PUSH2 0x1FD JUMP JUMPDEST SWAP3 SWAP2 POP POP JUMP JUMPDEST PUSH0 PUSH1 0x20 DUP3 DUP5 SUB SLT ISZERO PUSH2 0x23C JUMPI PUSH2 0x23B PUSH2 0x1B8 JUMP JUMPDEST JUMPDEST PUSH0 PUSH2 0x249 DUP5 DUP3 DUP6 ADD PUSH2 0x213 JUMP JUMPDEST SWAP2 POP POP SWAP3 SWAP2 POP POP JUMP JUMPDEST PUSH0 PUSH2 0x25C DUP3 PUSH2 0x1BC JUMP JUMPDEST SWAP1 POP SWAP2 SWAP1 POP JUMP JUMPDEST PUSH2 0x26C DUP2 PUSH2 0x252 JUMP JUMPDEST DUP2 EQ PUSH2 0x276 JUMPI PUSH0 PUSH0 REVERT JUMPDEST POP JUMP JUMPDEST PUSH0 DUP2 CALLDATALOAD SWAP1 POP PUSH2 0x287 DUP2 PUSH2 0x263 JUMP JUMPDEST SWAP3 SWAP2 POP POP JUMP JUMPDEST PUSH0 PUSH1 0x20 DUP3 DUP5 SUB SLT ISZERO PUSH2 0x2A2 JUMPI PUSH2 0x2A1 PUSH2 0x1B8 JUMP JUMPDEST JUMPDEST PUSH0 PUSH2 0x2AF DUP5 DUP3 DUP6 ADD PUSH2 0x279 JUMP JUMPDEST SWAP2 POP POP SWAP3 SWAP2 POP POP JUMP JUMPDEST PUSH0 DUP2 SWAP1 POP SWAP2 SWAP1 POP JUMP JUMPDEST PUSH2 0x2CA DUP2 PUSH2 0x2B8 JUMP JUMPDEST DUP3 MSTORE POP POP JUMP JUMPDEST PUSH0 PUSH1 0x20 DUP3 ADD SWAP1 POP PUSH2 0x2E3 PUSH0 DUP4 ADD DUP5 PUSH2 0x2C1 JUMP JUMPDEST SWAP3 SWAP2 POP POP JUMP JUMPDEST PUSH2 0x2F2 DUP2 PUSH2 0x2B8 JUMP JUMPDEST DUP2 EQ PUSH2 0x2FC JUMPI PUSH0 PUSH0 REVERT JUMPDEST POP JUMP JUMPDEST PUSH0 DUP2 MLOAD SWAP1 POP PUSH2 0x30D DUP2 PUSH2 0x2E9 JUMP JUMPDEST SWAP3 SWAP2 POP POP JUMP JUMPDEST PUSH0 PUSH1 0x20 DUP3 DUP5 SUB SLT ISZERO PUSH2 0x328 JUMPI PUSH2 0x327 PUSH2 0x1B8 JUMP JUMPDEST JUMPDEST PUSH0 PUSH2 0x335 DUP5 DUP3 DUP6 ADD PUSH2 0x2FF JUMP JUMPDEST SWAP2 POP POP SWAP3 SWAP2 POP POP JUMP INVALID LOG2 PUSH5 0x6970667358 0x22 SLT KECCAK256 DUP1 EQ 0xB4 PUSH0 0xD0 STOP DUP9 0x24 LOG3 SWAP1 PUSH3 0xFEC051 0xB5 DUP12 0x24 0x2F SWAP14 RETURNDATACOPY 0xAA 0xB0 PUSH24 0xC44C79AA5BFD03EA5664736F6C634300081C003300000000 "
				},
				"gasEstimates": {
					"creation": {
						"codeDepositCost": "176800",
						"executionCost": "218",
						"totalCost": "177018"
					},
					"external": {
						"callFeed()": "infinite",
						"sendViaSend(address)": "infinite",
						"setFeed(address)": "24734"
					}
				},
				"methodIdentifiers": {
					"callFeed()": "f198f5df",
					"sendViaSend(address)": "74be4806",
					"setFeed(address)": "55b775ea"
				}
			},
			"storageLayout": {
				"storage": [
					{
						"astId": 39,
						"contract": "Inheritance and Modularity/ExternalCall.sol:Consumer",
						"label": "feed",
						"offset": 0,
						"slot": "0",
						"type": "t_contract(IMyInfoFeed)36"
					}
				],
				"types": {
					"t_contract(IMyInfoFeed)36": {
						"encoding": "inplace",
						"label": "contract IMyInfoFeed",
						"numberOfBytes": "20"
					}
				}
			},
			"userdoc": {
				"kind": "user",
				"methods": {},
				"version": 1
			}
		}
	}
}