{
	"Inheritance and Modularity/CustomModifier.sol": {
		"Onwed": {
			"abi": [
				{
					"inputs": [],
					"stateMutability": "nonpayable",
					"type": "constructor"
				},
				{
					"inputs": [],
					"name": "register",
					"outputs": [],
					"stateMutability": "payable",
					"type": "function"
				}
			],
			"devdoc": {
				"kind": "dev",
				"methods": {},
				"version": 1
			},
			"evm": {
				"assembly": "    /* \"Inheritance and Modularity/CustomModifier.sol\":57:533  contract Onwed {... */\n  mstore(0x40, 0x80)\n    /* \"Inheritance and Modularity/CustomModifier.sol\":106:164  constructor() {... */\n  callvalue\n  dup1\n  iszero\n  tag_1\n  jumpi\n  revert(0x00, 0x00)\ntag_1:\n  pop\n    /* \"Inheritance and Modularity/CustomModifier.sol\":146:156  msg.sender */\n  caller\n    /* \"Inheritance and Modularity/CustomModifier.sol\":130:135  owner */\n  0x00\n  0x00\n    /* \"Inheritance and Modularity/CustomModifier.sol\":130:157  owner = payable(msg.sender) */\n  0x0100\n  exp\n  dup2\n  sload\n  dup2\n  0xffffffffffffffffffffffffffffffffffffffff\n  mul\n  not\n  and\n  swap1\n  dup4\n  0xffffffffffffffffffffffffffffffffffffffff\n  and\n  mul\n  or\n  swap1\n  sstore\n  pop\n    /* \"Inheritance and Modularity/CustomModifier.sol\":57:533  contract Onwed {... */\n  dataSize(sub_0)\n  dup1\n  dataOffset(sub_0)\n  0x00\n  codecopy\n  0x00\n  return\nstop\n\nsub_0: assembly {\n        /* \"Inheritance and Modularity/CustomModifier.sol\":57:533  contract Onwed {... */\n      mstore(0x40, 0x80)\n      jumpi(tag_1, lt(calldatasize, 0x04))\n      shr(0xe0, calldataload(0x00))\n      dup1\n      0x1aa3a008\n      eq\n      tag_2\n      jumpi\n    tag_1:\n      revert(0x00, 0x00)\n        /* \"Inheritance and Modularity/CustomModifier.sol\":438:531  function register() public payable onlyOwner valueBiggerThanOne(1 ether) {... */\n    tag_2:\n      tag_3\n      tag_4\n      jump\t// in\n    tag_3:\n      stop\n    tag_4:\n        /* \"Inheritance and Modularity/CustomModifier.sol\":235:240  owner */\n      0x00\n      0x00\n      swap1\n      sload\n      swap1\n      0x0100\n      exp\n      swap1\n      div\n      0xffffffffffffffffffffffffffffffffffffffff\n      and\n        /* \"Inheritance and Modularity/CustomModifier.sol\":221:240  msg.sender == owner */\n      0xffffffffffffffffffffffffffffffffffffffff\n      and\n        /* \"Inheritance and Modularity/CustomModifier.sol\":221:231  msg.sender */\n      caller\n        /* \"Inheritance and Modularity/CustomModifier.sol\":221:240  msg.sender == owner */\n      0xffffffffffffffffffffffffffffffffffffffff\n      and\n      eq\n        /* \"Inheritance and Modularity/CustomModifier.sol\":213:258  require(msg.sender == owner, \"Not the owner\") */\n      tag_6\n      jumpi\n      mload(0x40)\n      0x08c379a000000000000000000000000000000000000000000000000000000000\n      dup2\n      mstore\n      0x04\n      add\n      tag_7\n      swap1\n      tag_8\n      jump\t// in\n    tag_7:\n      mload(0x40)\n      dup1\n      swap2\n      sub\n      swap1\n      revert\n    tag_6:\n        /* \"Inheritance and Modularity/CustomModifier.sol\":502:509  1 ether */\n      0x0de0b6b3a7640000\n        /* \"Inheritance and Modularity/CustomModifier.sol\":390:391  1 */\n      0x01\n        /* \"Inheritance and Modularity/CustomModifier.sol\":377:386  msg.value */\n      callvalue\n        /* \"Inheritance and Modularity/CustomModifier.sol\":377:391  msg.value >= 1 */\n      lt\n      iszero\n        /* \"Inheritance and Modularity/CustomModifier.sol\":369:425  require(msg.value >= 1, \"Value should be bigger tnah 1\") */\n      tag_11\n      jumpi\n      mload(0x40)\n      0x08c379a000000000000000000000000000000000000000000000000000000000\n      dup2\n      mstore\n      0x04\n      add\n      tag_12\n      swap1\n      tag_13\n      jump\t// in\n    tag_12:\n      mload(0x40)\n      dup1\n      swap2\n      sub\n      swap1\n      revert\n    tag_11:\n        /* \"Inheritance and Modularity/CustomModifier.sol\":268:269  _ */\n      pop\n        /* \"Inheritance and Modularity/CustomModifier.sol\":438:531  function register() public payable onlyOwner valueBiggerThanOne(1 ether) {... */\n      jump\t// out\n        /* \"#utility.yul\":7:176   */\n    tag_14:\n        /* \"#utility.yul\":91:102   */\n      0x00\n        /* \"#utility.yul\":125:131   */\n      dup3\n        /* \"#utility.yul\":120:123   */\n      dup3\n        /* \"#utility.yul\":113:132   */\n      mstore\n        /* \"#utility.yul\":165:169   */\n      0x20\n        /* \"#utility.yul\":160:163   */\n      dup3\n        /* \"#utility.yul\":156:170   */\n      add\n        /* \"#utility.yul\":141:170   */\n      swap1\n      pop\n        /* \"#utility.yul\":7:176   */\n      swap3\n      swap2\n      pop\n      pop\n      jump\t// out\n        /* \"#utility.yul\":182:345   */\n    tag_15:\n        /* \"#utility.yul\":322:337   */\n      0x4e6f7420746865206f776e657200000000000000000000000000000000000000\n        /* \"#utility.yul\":318:319   */\n      0x00\n        /* \"#utility.yul\":310:316   */\n      dup3\n        /* \"#utility.yul\":306:320   */\n      add\n        /* \"#utility.yul\":299:338   */\n      mstore\n        /* \"#utility.yul\":182:345   */\n      pop\n      jump\t// out\n        /* \"#utility.yul\":351:717   */\n    tag_16:\n        /* \"#utility.yul\":493:496   */\n      0x00\n        /* \"#utility.yul\":514:581   */\n      tag_23\n        /* \"#utility.yul\":578:580   */\n      0x0d\n        /* \"#utility.yul\":573:576   */\n      dup4\n        /* \"#utility.yul\":514:581   */\n      tag_14\n      jump\t// in\n    tag_23:\n        /* \"#utility.yul\":507:581   */\n      swap2\n      pop\n        /* \"#utility.yul\":590:683   */\n      tag_24\n        /* \"#utility.yul\":679:682   */\n      dup3\n        /* \"#utility.yul\":590:683   */\n      tag_15\n      jump\t// in\n    tag_24:\n        /* \"#utility.yul\":708:710   */\n      0x20\n        /* \"#utility.yul\":703:706   */\n      dup3\n        /* \"#utility.yul\":699:711   */\n      add\n        /* \"#utility.yul\":692:711   */\n      swap1\n      pop\n        /* \"#utility.yul\":351:717   */\n      swap2\n      swap1\n      pop\n      jump\t// out\n        /* \"#utility.yul\":723:1142   */\n    tag_8:\n        /* \"#utility.yul\":889:893   */\n      0x00\n        /* \"#utility.yul\":927:929   */\n      0x20\n        /* \"#utility.yul\":916:925   */\n      dup3\n        /* \"#utility.yul\":912:930   */\n      add\n        /* \"#utility.yul\":904:930   */\n      swap1\n      pop\n        /* \"#utility.yul\":976:985   */\n      dup2\n        /* \"#utility.yul\":970:974   */\n      dup2\n        /* \"#utility.yul\":966:986   */\n      sub\n        /* \"#utility.yul\":962:963   */\n      0x00\n        /* \"#utility.yul\":951:960   */\n      dup4\n        /* \"#utility.yul\":947:964   */\n      add\n        /* \"#utility.yul\":940:987   */\n      mstore\n        /* \"#utility.yul\":1004:1135   */\n      tag_26\n        /* \"#utility.yul\":1130:1134   */\n      dup2\n        /* \"#utility.yul\":1004:1135   */\n      tag_16\n      jump\t// in\n    tag_26:\n        /* \"#utility.yul\":996:1135   */\n      swap1\n      pop\n        /* \"#utility.yul\":723:1142   */\n      swap2\n      swap1\n      pop\n      jump\t// out\n        /* \"#utility.yul\":1148:1327   */\n    tag_17:\n        /* \"#utility.yul\":1288:1319   */\n      0x56616c75652073686f756c642062652062696767657220746e61682031000000\n        /* \"#utility.yul\":1284:1285   */\n      0x00\n        /* \"#utility.yul\":1276:1282   */\n      dup3\n        /* \"#utility.yul\":1272:1286   */\n      add\n        /* \"#utility.yul\":1265:1320   */\n      mstore\n        /* \"#utility.yul\":1148:1327   */\n      pop\n      jump\t// out\n        /* \"#utility.yul\":1333:1699   */\n    tag_18:\n        /* \"#utility.yul\":1475:1478   */\n      0x00\n        /* \"#utility.yul\":1496:1563   */\n      tag_29\n        /* \"#utility.yul\":1560:1562   */\n      0x1d\n        /* \"#utility.yul\":1555:1558   */\n      dup4\n        /* \"#utility.yul\":1496:1563   */\n      tag_14\n      jump\t// in\n    tag_29:\n        /* \"#utility.yul\":1489:1563   */\n      swap2\n      pop\n        /* \"#utility.yul\":1572:1665   */\n      tag_30\n        /* \"#utility.yul\":1661:1664   */\n      dup3\n        /* \"#utility.yul\":1572:1665   */\n      tag_17\n      jump\t// in\n    tag_30:\n        /* \"#utility.yul\":1690:1692   */\n      0x20\n        /* \"#utility.yul\":1685:1688   */\n      dup3\n        /* \"#utility.yul\":1681:1693   */\n      add\n        /* \"#utility.yul\":1674:1693   */\n      swap1\n      pop\n        /* \"#utility.yul\":1333:1699   */\n      swap2\n      swap1\n      pop\n      jump\t// out\n        /* \"#utility.yul\":1705:2124   */\n    tag_13:\n        /* \"#utility.yul\":1871:1875   */\n      0x00\n        /* \"#utility.yul\":1909:1911   */\n      0x20\n        /* \"#utility.yul\":1898:1907   */\n      dup3\n        /* \"#utility.yul\":1894:1912   */\n      add\n        /* \"#utility.yul\":1886:1912   */\n      swap1\n      pop\n        /* \"#utility.yul\":1958:1967   */\n      dup2\n        /* \"#utility.yul\":1952:1956   */\n      dup2\n        /* \"#utility.yul\":1948:1968   */\n      sub\n        /* \"#utility.yul\":1944:1945   */\n      0x00\n        /* \"#utility.yul\":1933:1942   */\n      dup4\n        /* \"#utility.yul\":1929:1946   */\n      add\n        /* \"#utility.yul\":1922:1969   */\n      mstore\n        /* \"#utility.yul\":1986:2117   */\n      tag_32\n        /* \"#utility.yul\":2112:2116   */\n      dup2\n        /* \"#utility.yul\":1986:2117   */\n      tag_18\n      jump\t// in\n    tag_32:\n        /* \"#utility.yul\":1978:2117   */\n      swap1\n      pop\n        /* \"#utility.yul\":1705:2124   */\n      swap2\n      swap1\n      pop\n      jump\t// out\n\n    auxdata: 0xa2646970667358221220661f873ab652578c3d785c11030f7d8997cae80abf8d0e84582f6738c7f3bc9e64736f6c634300081c0033\n}\n",
				"bytecode": {
					"linkReferences": {},
					"object": "6080604052348015600e575f5ffd5b50335f5f6101000a81548173ffffffffffffffffffffffffffffffffffffffff021916908373ffffffffffffffffffffffffffffffffffffffff16021790555061021f8061005b5f395ff3fe60806040526004361061001d575f3560e01c80631aa3a00814610021575b5f5ffd5b61002961002b565b005b5f5f9054906101000a900473ffffffffffffffffffffffffffffffffffffffff1673ffffffffffffffffffffffffffffffffffffffff163373ffffffffffffffffffffffffffffffffffffffff16146100b9576040517f08c379a00000000000000000000000000000000000000000000000000000000081526004016100b090610163565b60405180910390fd5b670de0b6b3a76400006001341015610106576040517f08c379a00000000000000000000000000000000000000000000000000000000081526004016100fd906101cb565b60405180910390fd5b50565b5f82825260208201905092915050565b7f4e6f7420746865206f776e6572000000000000000000000000000000000000005f82015250565b5f61014d600d83610109565b915061015882610119565b602082019050919050565b5f6020820190508181035f83015261017a81610141565b9050919050565b7f56616c75652073686f756c642062652062696767657220746e616820310000005f82015250565b5f6101b5601d83610109565b91506101c082610181565b602082019050919050565b5f6020820190508181035f8301526101e2816101a9565b905091905056fea2646970667358221220661f873ab652578c3d785c11030f7d8997cae80abf8d0e84582f6738c7f3bc9e64736f6c634300081c0033",
					"opcodes": "PUSH1 0x80 PUSH1 0x40 MSTORE CALLVALUE DUP1 ISZERO PUSH1 0xE JUMPI PUSH0 PUSH0 REVERT JUMPDEST POP CALLER PUSH0 PUSH0 PUSH2 0x100 EXP DUP2 SLOAD DUP2 PUSH20 0xFFFFFFFFFFFFFFFFFFFFFFFFFFFFFFFFFFFFFFFF MUL NOT AND SWAP1 DUP4 PUSH20 0xFFFFFFFFFFFFFFFFFFFFFFFFFFFFFFFFFFFFFFFF AND MUL OR SWAP1 SSTORE POP PUSH2 0x21F DUP1 PUSH2 0x5B PUSH0 CODECOPY PUSH0 RETURN INVALID PUSH1 0x80 PUSH1 0x40 MSTORE PUSH1 0x4 CALLDATASIZE LT PUSH2 0x1D JUMPI PUSH0 CALLDATALOAD PUSH1 0xE0 SHR DUP1 PUSH4 0x1AA3A008 EQ PUSH2 0x21 JUMPI JUMPDEST PUSH0 PUSH0 REVERT JUMPDEST PUSH2 0x29 PUSH2 0x2B JUMP JUMPDEST STOP JUMPDEST PUSH0 PUSH0 SWAP1 SLOAD SWAP1 PUSH2 0x100 EXP SWAP1 DIV PUSH20 0xFFFFFFFFFFFFFFFFFFFFFFFFFFFFFFFFFFFFFFFF AND PUSH20 0xFFFFFFFFFFFFFFFFFFFFFFFFFFFFFFFFFFFFFFFF AND CALLER PUSH20 0xFFFFFFFFFFFFFFFFFFFFFFFFFFFFFFFFFFFFFFFF AND EQ PUSH2 0xB9 JUMPI PUSH1 0x40 MLOAD PUSH32 0x8C379A000000000000000000000000000000000000000000000000000000000 DUP2 MSTORE PUSH1 0x4 ADD PUSH2 0xB0 SWAP1 PUSH2 0x163 JUMP JUMPDEST PUSH1 0x40 MLOAD DUP1 SWAP2 SUB SWAP1 REVERT JUMPDEST PUSH8 0xDE0B6B3A7640000 PUSH1 0x1 CALLVALUE LT ISZERO PUSH2 0x106 JUMPI PUSH1 0x40 MLOAD PUSH32 0x8C379A000000000000000000000000000000000000000000000000000000000 DUP2 MSTORE PUSH1 0x4 ADD PUSH2 0xFD SWAP1 PUSH2 0x1CB JUMP JUMPDEST PUSH1 0x40 MLOAD DUP1 SWAP2 SUB SWAP1 REVERT JUMPDEST POP JUMP JUMPDEST PUSH0 DUP3 DUP3 MSTORE PUSH1 0x20 DUP3 ADD SWAP1 POP SWAP3 SWAP2 POP POP JUMP JUMPDEST PUSH32 0x4E6F7420746865206F776E657200000000000000000000000000000000000000 PUSH0 DUP3 ADD MSTORE POP JUMP JUMPDEST PUSH0 PUSH2 0x14D PUSH1 0xD DUP4 PUSH2 0x109 JUMP JUMPDEST SWAP2 POP PUSH2 0x158 DUP3 PUSH2 0x119 JUMP JUMPDEST PUSH1 0x20 DUP3 ADD SWAP1 POP SWAP2 SWAP1 POP JUMP JUMPDEST PUSH0 PUSH1 0x20 DUP3 ADD SWAP1 POP DUP2 DUP2 SUB PUSH0 DUP4 ADD MSTORE PUSH2 0x17A DUP2 PUSH2 0x141 JUMP JUMPDEST SWAP1 POP SWAP2 SWAP1 POP JUMP JUMPDEST PUSH32 0x56616C75652073686F756C642062652062696767657220746E61682031000000 PUSH0 DUP3 ADD MSTORE POP JUMP JUMPDEST PUSH0 PUSH2 0x1B5 PUSH1 0x1D DUP4 PUSH2 0x109 JUMP JUMPDEST SWAP2 POP PUSH2 0x1C0 DUP3 PUSH2 0x181 JUMP JUMPDEST PUSH1 0x20 DUP3 ADD SWAP1 POP SWAP2 SWAP1 POP JUMP JUMPDEST PUSH0 PUSH1 0x20 DUP3 ADD SWAP1 POP DUP2 DUP2 SUB PUSH0 DUP4 ADD MSTORE PUSH2 0x1E2 DUP2 PUSH2 0x1A9 JUMP JUMPDEST SWAP1 POP SWAP2 SWAP1 POP JUMP INVALID LOG2 PUSH5 0x6970667358 0x22 SLT KECCAK256 PUSH7 0x1F873AB652578C RETURNDATASIZE PUSH25 0x5C11030F7D8997CAE80ABF8D0E84582F6738C7F3BC9E64736F PUSH13 0x634300081C0033000000000000 "
				},
				"gasEstimates": {
					"creation": {
						"codeDepositCost": "108600",
						"executionCost": "24415",
						"totalCost": "133015"
					},
					"external": {
						"register()": "2577"
					}
				},
				"methodIdentifiers": {
					"register()": "1aa3a008"
				}
			},
			"storageLayout": {
				"storage": [
					{
						"astId": 3,
						"contract": "Inheritance and Modularity/CustomModifier.sol:Onwed",
						"label": "owner",
						"offset": 0,
						"slot": "0",
						"type": "t_address_payable"
					}
				],
				"types": {
					"t_address_payable": {
						"encoding": "inplace",
						"label": "address payable",
						"numberOfBytes": "20"
					}
				}
			},
			"userdoc": {
				"kind": "user",
				"methods": {},
				"version": 1
			}
		}
	}
}