{
	"Cyfrin Updraft/Smart Contract Development/Fund Me/FundMe.sol": {
		"FundMe": {
			"abi": [
				{
					"inputs": [
						{
							"internalType": "address",
							"name": "",
							"type": "address"
						}
					],
					"name": "addressToAmountFunded",
					"outputs": [
						{
							"internalType": "uint256",
							"name": "",
							"type": "uint256"
						}
					],
					"stateMutability": "view",
					"type": "function"
				},
				{
					"inputs": [],
					"name": "fund",
					"outputs": [],
					"stateMutability": "payable",
					"type": "function"
				},
				{
					"inputs": [
						{
							"internalType": "uint256",
							"name": "",
							"type": "uint256"
						}
					],
					"name": "funders",
					"outputs": [
						{
							"internalType": "address",
							"name": "",
							"type": "address"
						}
					],
					"stateMutability": "view",
					"type": "function"
				},
				{
					"inputs": [],
					"name": "minimumUsd",
					"outputs": [
						{
							"internalType": "uint256",
							"name": "",
							"type": "uint256"
						}
					],
					"stateMutability": "view",
					"type": "function"
				}
			],
			"devdoc": {
				"kind": "dev",
				"methods": {},
				"version": 1
			},
			"evm": {
				"assembly": "    /* \"Cyfrin Updraft/Smart Contract Development/Fund Me/FundMe.sol\":111:651  contract FundMe {... */\n  mstore(0x40, 0x80)\n    /* \"Cyfrin Updraft/Smart Contract Development/Fund Me/FundMe.sol\":199:203  5e18 */\n  0x4563918244f40000\n    /* \"Cyfrin Updraft/Smart Contract Development/Fund Me/FundMe.sol\":171:203  uint256 public minimumUsd = 5e18 */\n  0x00\n  sstore\n    /* \"Cyfrin Updraft/Smart Contract Development/Fund Me/FundMe.sol\":111:651  contract FundMe {... */\n  callvalue\n  dup1\n  iszero\n  tag_1\n  jumpi\n  revert(0x00, 0x00)\ntag_1:\n  pop\n  dataSize(sub_0)\n  dup1\n  dataOffset(sub_0)\n  0x00\n  codecopy\n  0x00\n  return\nstop\n\nsub_0: assembly {\n        /* \"Cyfrin Updraft/Smart Contract Development/Fund Me/FundMe.sol\":111:651  contract FundMe {... */\n      mstore(0x40, 0x80)\n      jumpi(tag_1, lt(calldatasize, 0x04))\n      shr(0xe0, calldataload(0x00))\n      dup1\n      0x098de820\n      eq\n      tag_2\n      jumpi\n      dup1\n      0x3e47d6f3\n      eq\n      tag_3\n      jumpi\n      dup1\n      0xb60d4288\n      eq\n      tag_4\n      jumpi\n      dup1\n      0xdc0d3dff\n      eq\n      tag_5\n      jumpi\n    tag_1:\n      revert(0x00, 0x00)\n        /* \"Cyfrin Updraft/Smart Contract Development/Fund Me/FundMe.sol\":171:203  uint256 public minimumUsd = 5e18 */\n    tag_2:\n      callvalue\n      dup1\n      iszero\n      tag_6\n      jumpi\n      revert(0x00, 0x00)\n    tag_6:\n      pop\n      tag_7\n      tag_8\n      jump\t// in\n    tag_7:\n      mload(0x40)\n      tag_9\n      swap2\n      swap1\n      tag_10\n      jump\t// in\n    tag_9:\n      mload(0x40)\n      dup1\n      swap2\n      sub\n      swap1\n      return\n        /* \"Cyfrin Updraft/Smart Contract Development/Fund Me/FundMe.sol\":239:295  mapping(address => uint256) public addressToAmountFunded */\n    tag_3:\n      callvalue\n      dup1\n      iszero\n      tag_11\n      jumpi\n      revert(0x00, 0x00)\n    tag_11:\n      pop\n      tag_12\n      0x04\n      dup1\n      calldatasize\n      sub\n      dup2\n      add\n      swap1\n      tag_13\n      swap2\n      swap1\n      tag_14\n      jump\t// in\n    tag_13:\n      tag_15\n      jump\t// in\n    tag_12:\n      mload(0x40)\n      tag_16\n      swap2\n      swap1\n      tag_10\n      jump\t// in\n    tag_16:\n      mload(0x40)\n      dup1\n      swap2\n      sub\n      swap1\n      return\n        /* \"Cyfrin Updraft/Smart Contract Development/Fund Me/FundMe.sol\":302:611  function fund() public payable {... */\n    tag_4:\n      tag_17\n      tag_18\n      jump\t// in\n    tag_17:\n      stop\n        /* \"Cyfrin Updraft/Smart Contract Development/Fund Me/FundMe.sol\":209:233  address[] public funders */\n    tag_5:\n      callvalue\n      dup1\n      iszero\n      tag_19\n      jumpi\n      revert(0x00, 0x00)\n    tag_19:\n      pop\n      tag_20\n      0x04\n      dup1\n      calldatasize\n      sub\n      dup2\n      add\n      swap1\n      tag_21\n      swap2\n      swap1\n      tag_22\n      jump\t// in\n    tag_21:\n      tag_23\n      jump\t// in\n    tag_20:\n      mload(0x40)\n      tag_24\n      swap2\n      swap1\n      tag_25\n      jump\t// in\n    tag_24:\n      mload(0x40)\n      dup1\n      swap2\n      sub\n      swap1\n      return\n        /* \"Cyfrin Updraft/Smart Contract Development/Fund Me/FundMe.sol\":171:203  uint256 public minimumUsd = 5e18 */\n    tag_8:\n      sload(0x00)\n      dup2\n      jump\t// out\n        /* \"Cyfrin Updraft/Smart Contract Development/Fund Me/FundMe.sol\":239:295  mapping(address => uint256) public addressToAmountFunded */\n    tag_15:\n      mstore(0x20, 0x02)\n      dup1\n      0x00\n      mstore\n      keccak256(0x00, 0x40)\n      0x00\n      swap2\n      pop\n      swap1\n      pop\n      sload\n      dup2\n      jump\t// out\n        /* \"Cyfrin Updraft/Smart Contract Development/Fund Me/FundMe.sol\":302:611  function fund() public payable {... */\n    tag_18:\n        /* \"Cyfrin Updraft/Smart Contract Development/Fund Me/FundMe.sol\":397:407  minimumUsd */\n      sload(0x00)\n        /* \"Cyfrin Updraft/Smart Contract Development/Fund Me/FundMe.sol\":364:393  msg.value.getConversionRate() */\n      tag_27\n        /* \"Cyfrin Updraft/Smart Contract Development/Fund Me/FundMe.sol\":364:373  msg.value */\n      callvalue\n        /* \"Cyfrin Updraft/Smart Contract Development/Fund Me/FundMe.sol\":364:391  msg.value.getConversionRate */\n      tag_28\n        /* \"Cyfrin Updraft/Smart Contract Development/Fund Me/FundMe.sol\":364:393  msg.value.getConversionRate() */\n      jump\t// in\n    tag_27:\n        /* \"Cyfrin Updraft/Smart Contract Development/Fund Me/FundMe.sol\":364:407  msg.value.getConversionRate() >= minimumUsd */\n      lt\n      iszero\n        /* \"Cyfrin Updraft/Smart Contract Development/Fund Me/FundMe.sol\":343:455  require(... */\n      tag_29\n      jumpi\n      mload(0x40)\n      0x08c379a000000000000000000000000000000000000000000000000000000000\n      dup2\n      mstore\n      0x04\n      add\n      tag_30\n      swap1\n      tag_31\n      jump\t// in\n    tag_30:\n      mload(0x40)\n      dup1\n      swap2\n      sub\n      swap1\n      revert\n    tag_29:\n        /* \"Cyfrin Updraft/Smart Contract Development/Fund Me/FundMe.sol\":465:472  funders */\n      0x01\n        /* \"Cyfrin Updraft/Smart Contract Development/Fund Me/FundMe.sol\":478:488  msg.sender */\n      caller\n        /* \"Cyfrin Updraft/Smart Contract Development/Fund Me/FundMe.sol\":465:489  funders.push(msg.sender) */\n      swap1\n      dup1\n      0x01\n      dup2\n      sload\n      add\n      dup1\n      dup3\n      sstore\n      dup1\n      swap2\n      pop\n      pop\n      0x01\n      swap1\n      sub\n      swap1\n      0x00\n      mstore\n      keccak256(0x00, 0x20)\n      add\n      0x00\n      swap1\n      swap2\n      swap1\n      swap2\n      swap1\n      swap2\n      0x0100\n      exp\n      dup2\n      sload\n      dup2\n      0xffffffffffffffffffffffffffffffffffffffff\n      mul\n      not\n      and\n      swap1\n      dup4\n      0xffffffffffffffffffffffffffffffffffffffff\n      and\n      mul\n      or\n      swap1\n      sstore\n      pop\n        /* \"Cyfrin Updraft/Smart Contract Development/Fund Me/FundMe.sol\":595:604  msg.value */\n      callvalue\n        /* \"Cyfrin Updraft/Smart Contract Development/Fund Me/FundMe.sol\":547:568  addressToAmountFunded */\n      0x02\n        /* \"Cyfrin Updraft/Smart Contract Development/Fund Me/FundMe.sol\":547:580  addressToAmountFunded[msg.sender] */\n      0x00\n        /* \"Cyfrin Updraft/Smart Contract Development/Fund Me/FundMe.sol\":569:579  msg.sender */\n      caller\n        /* \"Cyfrin Updraft/Smart Contract Development/Fund Me/FundMe.sol\":547:580  addressToAmountFunded[msg.sender] */\n      0xffffffffffffffffffffffffffffffffffffffff\n      and\n      0xffffffffffffffffffffffffffffffffffffffff\n      and\n      dup2\n      mstore\n      0x20\n      add\n      swap1\n      dup2\n      mstore\n      0x20\n      add\n      0x00\n      keccak256\n      sload\n        /* \"Cyfrin Updraft/Smart Contract Development/Fund Me/FundMe.sol\":547:604  addressToAmountFunded[msg.sender] +... */\n      tag_33\n      swap2\n      swap1\n      tag_34\n      jump\t// in\n    tag_33:\n        /* \"Cyfrin Updraft/Smart Contract Development/Fund Me/FundMe.sol\":499:520  addressToAmountFunded */\n      0x02\n        /* \"Cyfrin Updraft/Smart Contract Development/Fund Me/FundMe.sol\":499:532  addressToAmountFunded[msg.sender] */\n      0x00\n        /* \"Cyfrin Updraft/Smart Contract Development/Fund Me/FundMe.sol\":521:531  msg.sender */\n      caller\n        /* \"Cyfrin Updraft/Smart Contract Development/Fund Me/FundMe.sol\":499:532  addressToAmountFunded[msg.sender] */\n      0xffffffffffffffffffffffffffffffffffffffff\n      and\n      0xffffffffffffffffffffffffffffffffffffffff\n      and\n      dup2\n      mstore\n      0x20\n      add\n      swap1\n      dup2\n      mstore\n      0x20\n      add\n      0x00\n      keccak256\n        /* \"Cyfrin Updraft/Smart Contract Development/Fund Me/FundMe.sol\":499:604  addressToAmountFunded[msg.sender] =... */\n      dup2\n      swap1\n      sstore\n      pop\n        /* \"Cyfrin Updraft/Smart Contract Development/Fund Me/FundMe.sol\":302:611  function fund() public payable {... */\n      jump\t// out\n        /* \"Cyfrin Updraft/Smart Contract Development/Fund Me/FundMe.sol\":209:233  address[] public funders */\n    tag_23:\n      0x01\n      dup2\n      dup2\n      sload\n      dup2\n      lt\n      tag_35\n      jumpi\n      0x00\n      dup1\n      revert\n    tag_35:\n      swap1\n      0x00\n      mstore\n      keccak256(0x00, 0x20)\n      add\n      0x00\n      swap2\n      pop\n      sload\n      swap1\n      0x0100\n      exp\n      swap1\n      div\n      0xffffffffffffffffffffffffffffffffffffffff\n      and\n      dup2\n      jump\t// out\n        /* \"Cyfrin Updraft/Smart Contract Development/Fund Me/PriceConverter.sol\":590:837  function getConversionRate(uint256 ethAmount)... */\n    tag_28:\n        /* \"Cyfrin Updraft/Smart Contract Development/Fund Me/PriceConverter.sol\":683:690  uint256 */\n      0x00\n        /* \"Cyfrin Updraft/Smart Contract Development/Fund Me/PriceConverter.sol\":706:722  uint256 ethPrice */\n      0x00\n        /* \"Cyfrin Updraft/Smart Contract Development/Fund Me/PriceConverter.sol\":725:735  getPrice() */\n      tag_38\n        /* \"Cyfrin Updraft/Smart Contract Development/Fund Me/PriceConverter.sol\":725:733  getPrice */\n      tag_39\n        /* \"Cyfrin Updraft/Smart Contract Development/Fund Me/PriceConverter.sol\":725:735  getPrice() */\n      jump\t// in\n    tag_38:\n        /* \"Cyfrin Updraft/Smart Contract Development/Fund Me/PriceConverter.sol\":706:735  uint256 ethPrice = getPrice() */\n      swap1\n      pop\n        /* \"Cyfrin Updraft/Smart Contract Development/Fund Me/PriceConverter.sol\":745:767  uint256 ethAmountInUsd */\n      0x00\n        /* \"Cyfrin Updraft/Smart Contract Development/Fund Me/PriceConverter.sol\":795:799  1e18 */\n      0x0de0b6b3a7640000\n        /* \"Cyfrin Updraft/Smart Contract Development/Fund Me/PriceConverter.sol\":782:791  ethAmount */\n      dup5\n        /* \"Cyfrin Updraft/Smart Contract Development/Fund Me/PriceConverter.sol\":771:779  ethPrice */\n      dup4\n        /* \"Cyfrin Updraft/Smart Contract Development/Fund Me/PriceConverter.sol\":771:791  ethPrice * ethAmount */\n      tag_40\n      swap2\n      swap1\n      tag_41\n      jump\t// in\n    tag_40:\n        /* \"Cyfrin Updraft/Smart Contract Development/Fund Me/PriceConverter.sol\":770:799  (ethPrice * ethAmount) / 1e18 */\n      tag_42\n      swap2\n      swap1\n      tag_43\n      jump\t// in\n    tag_42:\n        /* \"Cyfrin Updraft/Smart Contract Development/Fund Me/PriceConverter.sol\":745:799  uint256 ethAmountInUsd = (ethPrice * ethAmount) / 1e18 */\n      swap1\n      pop\n        /* \"Cyfrin Updraft/Smart Contract Development/Fund Me/PriceConverter.sol\":816:830  ethAmountInUsd */\n      dup1\n        /* \"Cyfrin Updraft/Smart Contract Development/Fund Me/PriceConverter.sol\":809:830  return ethAmountInUsd */\n      swap3\n      pop\n      pop\n      pop\n        /* \"Cyfrin Updraft/Smart Contract Development/Fund Me/PriceConverter.sol\":590:837  function getConversionRate(uint256 ethAmount)... */\n      swap2\n      swap1\n      pop\n      jump\t// out\n        /* \"Cyfrin Updraft/Smart Contract Development/Fund Me/PriceConverter.sol\":200:584  function getPrice() internal view returns (uint256) {... */\n    tag_39:\n        /* \"Cyfrin Updraft/Smart Contract Development/Fund Me/PriceConverter.sol\":243:250  uint256 */\n      0x00\n        /* \"Cyfrin Updraft/Smart Contract Development/Fund Me/PriceConverter.sol\":316:347  AggregatorV3Interface priceFeed */\n      0x00\n        /* \"Cyfrin Updraft/Smart Contract Development/Fund Me/PriceConverter.sol\":385:427  0x1b44F3514812d835EB1BDB0acB33d3fA3351Ee43 */\n      0x1b44f3514812d835eb1bdb0acb33d3fa3351ee43\n        /* \"Cyfrin Updraft/Smart Contract Development/Fund Me/PriceConverter.sol\":316:437  AggregatorV3Interface priceFeed = AggregatorV3Interface(... */\n      swap1\n      pop\n        /* \"Cyfrin Updraft/Smart Contract Development/Fund Me/PriceConverter.sol\":450:462  int256 price */\n      0x00\n        /* \"Cyfrin Updraft/Smart Contract Development/Fund Me/PriceConverter.sol\":472:481  priceFeed */\n      dup2\n        /* \"Cyfrin Updraft/Smart Contract Development/Fund Me/PriceConverter.sol\":472:497  priceFeed.latestRoundData */\n      0xffffffffffffffffffffffffffffffffffffffff\n      and\n      0xfeaf968c\n        /* \"Cyfrin Updraft/Smart Contract Development/Fund Me/PriceConverter.sol\":472:499  priceFeed.latestRoundData() */\n      mload(0x40)\n      dup2\n      0xffffffff\n      and\n      0xe0\n      shl\n      dup2\n      mstore\n      0x04\n      add\n      0xa0\n      mload(0x40)\n      dup1\n      dup4\n      sub\n      dup2\n      dup7\n      gas\n      staticcall\n      iszero\n      dup1\n      iszero\n      tag_46\n      jumpi\n      returndatacopy(0x00, 0x00, returndatasize)\n      revert(0x00, returndatasize)\n    tag_46:\n      pop\n      pop\n      pop\n      pop\n      mload(0x40)\n      returndatasize\n      not(0x1f)\n      0x1f\n      dup3\n      add\n      and\n      dup3\n      add\n      dup1\n      0x40\n      mstore\n      pop\n      dup2\n      add\n      swap1\n      tag_47\n      swap2\n      swap1\n      tag_48\n      jump\t// in\n    tag_47:\n        /* \"Cyfrin Updraft/Smart Contract Development/Fund Me/PriceConverter.sol\":447:499  (, int256 price, , , ) = priceFeed.latestRoundData() */\n      pop\n      pop\n      pop\n      swap2\n      pop\n      pop\n        /* \"Cyfrin Updraft/Smart Contract Development/Fund Me/PriceConverter.sol\":572:576  1e10 */\n      0x02540be400\n        /* \"Cyfrin Updraft/Smart Contract Development/Fund Me/PriceConverter.sol\":564:569  price */\n      dup2\n        /* \"Cyfrin Updraft/Smart Contract Development/Fund Me/PriceConverter.sol\":564:576  price * 1e10 */\n      tag_49\n      swap2\n      swap1\n      tag_50\n      jump\t// in\n    tag_49:\n        /* \"Cyfrin Updraft/Smart Contract Development/Fund Me/PriceConverter.sol\":549:577  return uint256(price * 1e10) */\n      swap3\n      pop\n      pop\n      pop\n        /* \"Cyfrin Updraft/Smart Contract Development/Fund Me/PriceConverter.sol\":200:584  function getPrice() internal view returns (uint256) {... */\n      swap1\n      jump\t// out\n        /* \"#utility.yul\":7:84   */\n    tag_51:\n        /* \"#utility.yul\":44:51   */\n      0x00\n        /* \"#utility.yul\":73:78   */\n      dup2\n        /* \"#utility.yul\":62:78   */\n      swap1\n      pop\n        /* \"#utility.yul\":7:84   */\n      swap2\n      swap1\n      pop\n      jump\t// out\n        /* \"#utility.yul\":90:208   */\n    tag_52:\n        /* \"#utility.yul\":177:201   */\n      tag_78\n        /* \"#utility.yul\":195:200   */\n      dup2\n        /* \"#utility.yul\":177:201   */\n      tag_51\n      jump\t// in\n    tag_78:\n        /* \"#utility.yul\":172:175   */\n      dup3\n        /* \"#utility.yul\":165:202   */\n      mstore\n        /* \"#utility.yul\":90:208   */\n      pop\n      pop\n      jump\t// out\n        /* \"#utility.yul\":214:436   */\n    tag_10:\n        /* \"#utility.yul\":307:311   */\n      0x00\n        /* \"#utility.yul\":345:347   */\n      0x20\n        /* \"#utility.yul\":334:343   */\n      dup3\n        /* \"#utility.yul\":330:348   */\n      add\n        /* \"#utility.yul\":322:348   */\n      swap1\n      pop\n        /* \"#utility.yul\":358:429   */\n      tag_80\n        /* \"#utility.yul\":426:427   */\n      0x00\n        /* \"#utility.yul\":415:424   */\n      dup4\n        /* \"#utility.yul\":411:428   */\n      add\n        /* \"#utility.yul\":402:408   */\n      dup5\n        /* \"#utility.yul\":358:429   */\n      tag_52\n      jump\t// in\n    tag_80:\n        /* \"#utility.yul\":214:436   */\n      swap3\n      swap2\n      pop\n      pop\n      jump\t// out\n        /* \"#utility.yul\":523:640   */\n    tag_54:\n        /* \"#utility.yul\":632:633   */\n      0x00\n        /* \"#utility.yul\":629:630   */\n      0x00\n        /* \"#utility.yul\":622:634   */\n      revert\n        /* \"#utility.yul\":769:895   */\n    tag_56:\n        /* \"#utility.yul\":806:813   */\n      0x00\n        /* \"#utility.yul\":846:888   */\n      0xffffffffffffffffffffffffffffffffffffffff\n        /* \"#utility.yul\":839:844   */\n      dup3\n        /* \"#utility.yul\":835:889   */\n      and\n        /* \"#utility.yul\":824:889   */\n      swap1\n      pop\n        /* \"#utility.yul\":769:895   */\n      swap2\n      swap1\n      pop\n      jump\t// out\n        /* \"#utility.yul\":901:997   */\n    tag_57:\n        /* \"#utility.yul\":938:945   */\n      0x00\n        /* \"#utility.yul\":967:991   */\n      tag_86\n        /* \"#utility.yul\":985:990   */\n      dup3\n        /* \"#utility.yul\":967:991   */\n      tag_56\n      jump\t// in\n    tag_86:\n        /* \"#utility.yul\":956:991   */\n      swap1\n      pop\n        /* \"#utility.yul\":901:997   */\n      swap2\n      swap1\n      pop\n      jump\t// out\n        /* \"#utility.yul\":1003:1125   */\n    tag_58:\n        /* \"#utility.yul\":1076:1100   */\n      tag_88\n        /* \"#utility.yul\":1094:1099   */\n      dup2\n        /* \"#utility.yul\":1076:1100   */\n      tag_57\n      jump\t// in\n    tag_88:\n        /* \"#utility.yul\":1069:1074   */\n      dup2\n        /* \"#utility.yul\":1066:1101   */\n      eq\n        /* \"#utility.yul\":1056:1119   */\n      tag_89\n      jumpi\n        /* \"#utility.yul\":1115:1116   */\n      0x00\n        /* \"#utility.yul\":1112:1113   */\n      0x00\n        /* \"#utility.yul\":1105:1117   */\n      revert\n        /* \"#utility.yul\":1056:1119   */\n    tag_89:\n        /* \"#utility.yul\":1003:1125   */\n      pop\n      jump\t// out\n        /* \"#utility.yul\":1131:1270   */\n    tag_59:\n        /* \"#utility.yul\":1177:1182   */\n      0x00\n        /* \"#utility.yul\":1215:1221   */\n      dup2\n        /* \"#utility.yul\":1202:1222   */\n      calldataload\n        /* \"#utility.yul\":1193:1222   */\n      swap1\n      pop\n        /* \"#utility.yul\":1231:1264   */\n      tag_91\n        /* \"#utility.yul\":1258:1263   */\n      dup2\n        /* \"#utility.yul\":1231:1264   */\n      tag_58\n      jump\t// in\n    tag_91:\n        /* \"#utility.yul\":1131:1270   */\n      swap3\n      swap2\n      pop\n      pop\n      jump\t// out\n        /* \"#utility.yul\":1276:1605   */\n    tag_14:\n        /* \"#utility.yul\":1335:1341   */\n      0x00\n        /* \"#utility.yul\":1384:1386   */\n      0x20\n        /* \"#utility.yul\":1372:1381   */\n      dup3\n        /* \"#utility.yul\":1363:1370   */\n      dup5\n        /* \"#utility.yul\":1359:1382   */\n      sub\n        /* \"#utility.yul\":1355:1387   */\n      slt\n        /* \"#utility.yul\":1352:1471   */\n      iszero\n      tag_93\n      jumpi\n        /* \"#utility.yul\":1390:1469   */\n      tag_94\n      tag_54\n      jump\t// in\n    tag_94:\n        /* \"#utility.yul\":1352:1471   */\n    tag_93:\n        /* \"#utility.yul\":1510:1511   */\n      0x00\n        /* \"#utility.yul\":1535:1588   */\n      tag_95\n        /* \"#utility.yul\":1580:1587   */\n      dup5\n        /* \"#utility.yul\":1571:1577   */\n      dup3\n        /* \"#utility.yul\":1560:1569   */\n      dup6\n        /* \"#utility.yul\":1556:1578   */\n      add\n        /* \"#utility.yul\":1535:1588   */\n      tag_59\n      jump\t// in\n    tag_95:\n        /* \"#utility.yul\":1525:1588   */\n      swap2\n      pop\n        /* \"#utility.yul\":1481:1598   */\n      pop\n        /* \"#utility.yul\":1276:1605   */\n      swap3\n      swap2\n      pop\n      pop\n      jump\t// out\n        /* \"#utility.yul\":1611:1733   */\n    tag_60:\n        /* \"#utility.yul\":1684:1708   */\n      tag_97\n        /* \"#utility.yul\":1702:1707   */\n      dup2\n        /* \"#utility.yul\":1684:1708   */\n      tag_51\n      jump\t// in\n    tag_97:\n        /* \"#utility.yul\":1677:1682   */\n      dup2\n        /* \"#utility.yul\":1674:1709   */\n      eq\n        /* \"#utility.yul\":1664:1727   */\n      tag_98\n      jumpi\n        /* \"#utility.yul\":1723:1724   */\n      0x00\n        /* \"#utility.yul\":1720:1721   */\n      0x00\n        /* \"#utility.yul\":1713:1725   */\n      revert\n        /* \"#utility.yul\":1664:1727   */\n    tag_98:\n        /* \"#utility.yul\":1611:1733   */\n      pop\n      jump\t// out\n        /* \"#utility.yul\":1739:1878   */\n    tag_61:\n        /* \"#utility.yul\":1785:1790   */\n      0x00\n        /* \"#utility.yul\":1823:1829   */\n      dup2\n        /* \"#utility.yul\":1810:1830   */\n      calldataload\n        /* \"#utility.yul\":1801:1830   */\n      swap1\n      pop\n        /* \"#utility.yul\":1839:1872   */\n      tag_100\n        /* \"#utility.yul\":1866:1871   */\n      dup2\n        /* \"#utility.yul\":1839:1872   */\n      tag_60\n      jump\t// in\n    tag_100:\n        /* \"#utility.yul\":1739:1878   */\n      swap3\n      swap2\n      pop\n      pop\n      jump\t// out\n        /* \"#utility.yul\":1884:2213   */\n    tag_22:\n        /* \"#utility.yul\":1943:1949   */\n      0x00\n        /* \"#utility.yul\":1992:1994   */\n      0x20\n        /* \"#utility.yul\":1980:1989   */\n      dup3\n        /* \"#utility.yul\":1971:1978   */\n      dup5\n        /* \"#utility.yul\":1967:1990   */\n      sub\n        /* \"#utility.yul\":1963:1995   */\n      slt\n        /* \"#utility.yul\":1960:2079   */\n      iszero\n      tag_102\n      jumpi\n        /* \"#utility.yul\":1998:2077   */\n      tag_103\n      tag_54\n      jump\t// in\n    tag_103:\n        /* \"#utility.yul\":1960:2079   */\n    tag_102:\n        /* \"#utility.yul\":2118:2119   */\n      0x00\n        /* \"#utility.yul\":2143:2196   */\n      tag_104\n        /* \"#utility.yul\":2188:2195   */\n      dup5\n        /* \"#utility.yul\":2179:2185   */\n      dup3\n        /* \"#utility.yul\":2168:2177   */\n      dup6\n        /* \"#utility.yul\":2164:2186   */\n      add\n        /* \"#utility.yul\":2143:2196   */\n      tag_61\n      jump\t// in\n    tag_104:\n        /* \"#utility.yul\":2133:2196   */\n      swap2\n      pop\n        /* \"#utility.yul\":2089:2206   */\n      pop\n        /* \"#utility.yul\":1884:2213   */\n      swap3\n      swap2\n      pop\n      pop\n      jump\t// out\n        /* \"#utility.yul\":2219:2337   */\n    tag_62:\n        /* \"#utility.yul\":2306:2330   */\n      tag_106\n        /* \"#utility.yul\":2324:2329   */\n      dup2\n        /* \"#utility.yul\":2306:2330   */\n      tag_57\n      jump\t// in\n    tag_106:\n        /* \"#utility.yul\":2301:2304   */\n      dup3\n        /* \"#utility.yul\":2294:2331   */\n      mstore\n        /* \"#utility.yul\":2219:2337   */\n      pop\n      pop\n      jump\t// out\n        /* \"#utility.yul\":2343:2565   */\n    tag_25:\n        /* \"#utility.yul\":2436:2440   */\n      0x00\n        /* \"#utility.yul\":2474:2476   */\n      0x20\n        /* \"#utility.yul\":2463:2472   */\n      dup3\n        /* \"#utility.yul\":2459:2477   */\n      add\n        /* \"#utility.yul\":2451:2477   */\n      swap1\n      pop\n        /* \"#utility.yul\":2487:2558   */\n      tag_108\n        /* \"#utility.yul\":2555:2556   */\n      0x00\n        /* \"#utility.yul\":2544:2553   */\n      dup4\n        /* \"#utility.yul\":2540:2557   */\n      add\n        /* \"#utility.yul\":2531:2537   */\n      dup5\n        /* \"#utility.yul\":2487:2558   */\n      tag_62\n      jump\t// in\n    tag_108:\n        /* \"#utility.yul\":2343:2565   */\n      swap3\n      swap2\n      pop\n      pop\n      jump\t// out\n        /* \"#utility.yul\":2571:2740   */\n    tag_63:\n        /* \"#utility.yul\":2655:2666   */\n      0x00\n        /* \"#utility.yul\":2689:2695   */\n      dup3\n        /* \"#utility.yul\":2684:2687   */\n      dup3\n        /* \"#utility.yul\":2677:2696   */\n      mstore\n        /* \"#utility.yul\":2729:2733   */\n      0x20\n        /* \"#utility.yul\":2724:2727   */\n      dup3\n        /* \"#utility.yul\":2720:2734   */\n      add\n        /* \"#utility.yul\":2705:2734   */\n      swap1\n      pop\n        /* \"#utility.yul\":2571:2740   */\n      swap3\n      swap2\n      pop\n      pop\n      jump\t// out\n        /* \"#utility.yul\":2746:2918   */\n    tag_64:\n        /* \"#utility.yul\":2886:2910   */\n      0x6469646e27742073656e6420656e6f7567682045544800000000000000000000\n        /* \"#utility.yul\":2882:2883   */\n      0x00\n        /* \"#utility.yul\":2874:2880   */\n      dup3\n        /* \"#utility.yul\":2870:2884   */\n      add\n        /* \"#utility.yul\":2863:2911   */\n      mstore\n        /* \"#utility.yul\":2746:2918   */\n      pop\n      jump\t// out\n        /* \"#utility.yul\":2924:3290   */\n    tag_65:\n        /* \"#utility.yul\":3066:3069   */\n      0x00\n        /* \"#utility.yul\":3087:3154   */\n      tag_112\n        /* \"#utility.yul\":3151:3153   */\n      0x16\n        /* \"#utility.yul\":3146:3149   */\n      dup4\n        /* \"#utility.yul\":3087:3154   */\n      tag_63\n      jump\t// in\n    tag_112:\n        /* \"#utility.yul\":3080:3154   */\n      swap2\n      pop\n        /* \"#utility.yul\":3163:3256   */\n      tag_113\n        /* \"#utility.yul\":3252:3255   */\n      dup3\n        /* \"#utility.yul\":3163:3256   */\n      tag_64\n      jump\t// in\n    tag_113:\n        /* \"#utility.yul\":3281:3283   */\n      0x20\n        /* \"#utility.yul\":3276:3279   */\n      dup3\n        /* \"#utility.yul\":3272:3284   */\n      add\n        /* \"#utility.yul\":3265:3284   */\n      swap1\n      pop\n        /* \"#utility.yul\":2924:3290   */\n      swap2\n      swap1\n      pop\n      jump\t// out\n        /* \"#utility.yul\":3296:3715   */\n    tag_31:\n        /* \"#utility.yul\":3462:3466   */\n      0x00\n        /* \"#utility.yul\":3500:3502   */\n      0x20\n        /* \"#utility.yul\":3489:3498   */\n      dup3\n        /* \"#utility.yul\":3485:3503   */\n      add\n        /* \"#utility.yul\":3477:3503   */\n      swap1\n      pop\n        /* \"#utility.yul\":3549:3558   */\n      dup2\n        /* \"#utility.yul\":3543:3547   */\n      dup2\n        /* \"#utility.yul\":3539:3559   */\n      sub\n        /* \"#utility.yul\":3535:3536   */\n      0x00\n        /* \"#utility.yul\":3524:3533   */\n      dup4\n        /* \"#utility.yul\":3520:3537   */\n      add\n        /* \"#utility.yul\":3513:3560   */\n      mstore\n        /* \"#utility.yul\":3577:3708   */\n      tag_115\n        /* \"#utility.yul\":3703:3707   */\n      dup2\n        /* \"#utility.yul\":3577:3708   */\n      tag_65\n      jump\t// in\n    tag_115:\n        /* \"#utility.yul\":3569:3708   */\n      swap1\n      pop\n        /* \"#utility.yul\":3296:3715   */\n      swap2\n      swap1\n      pop\n      jump\t// out\n        /* \"#utility.yul\":3721:3901   */\n    tag_66:\n        /* \"#utility.yul\":3769:3846   */\n      0x4e487b7100000000000000000000000000000000000000000000000000000000\n        /* \"#utility.yul\":3766:3767   */\n      0x00\n        /* \"#utility.yul\":3759:3847   */\n      mstore\n        /* \"#utility.yul\":3866:3870   */\n      0x11\n        /* \"#utility.yul\":3863:3864   */\n      0x04\n        /* \"#utility.yul\":3856:3871   */\n      mstore\n        /* \"#utility.yul\":3890:3894   */\n      0x24\n        /* \"#utility.yul\":3887:3888   */\n      0x00\n        /* \"#utility.yul\":3880:3895   */\n      revert\n        /* \"#utility.yul\":3907:4098   */\n    tag_34:\n        /* \"#utility.yul\":3947:3950   */\n      0x00\n        /* \"#utility.yul\":3966:3986   */\n      tag_118\n        /* \"#utility.yul\":3984:3985   */\n      dup3\n        /* \"#utility.yul\":3966:3986   */\n      tag_51\n      jump\t// in\n    tag_118:\n        /* \"#utility.yul\":3961:3986   */\n      swap2\n      pop\n        /* \"#utility.yul\":4000:4020   */\n      tag_119\n        /* \"#utility.yul\":4018:4019   */\n      dup4\n        /* \"#utility.yul\":4000:4020   */\n      tag_51\n      jump\t// in\n    tag_119:\n        /* \"#utility.yul\":3995:4020   */\n      swap3\n      pop\n        /* \"#utility.yul\":4043:4044   */\n      dup3\n        /* \"#utility.yul\":4040:4041   */\n      dup3\n        /* \"#utility.yul\":4036:4045   */\n      add\n        /* \"#utility.yul\":4029:4045   */\n      swap1\n      pop\n        /* \"#utility.yul\":4064:4067   */\n      dup1\n        /* \"#utility.yul\":4061:4062   */\n      dup3\n        /* \"#utility.yul\":4058:4068   */\n      gt\n        /* \"#utility.yul\":4055:4091   */\n      iszero\n      tag_120\n      jumpi\n        /* \"#utility.yul\":4071:4089   */\n      tag_121\n      tag_66\n      jump\t// in\n    tag_121:\n        /* \"#utility.yul\":4055:4091   */\n    tag_120:\n        /* \"#utility.yul\":3907:4098   */\n      swap3\n      swap2\n      pop\n      pop\n      jump\t// out\n        /* \"#utility.yul\":4104:4514   */\n    tag_41:\n        /* \"#utility.yul\":4144:4151   */\n      0x00\n        /* \"#utility.yul\":4167:4187   */\n      tag_123\n        /* \"#utility.yul\":4185:4186   */\n      dup3\n        /* \"#utility.yul\":4167:4187   */\n      tag_51\n      jump\t// in\n    tag_123:\n        /* \"#utility.yul\":4162:4187   */\n      swap2\n      pop\n        /* \"#utility.yul\":4201:4221   */\n      tag_124\n        /* \"#utility.yul\":4219:4220   */\n      dup4\n        /* \"#utility.yul\":4201:4221   */\n      tag_51\n      jump\t// in\n    tag_124:\n        /* \"#utility.yul\":4196:4221   */\n      swap3\n      pop\n        /* \"#utility.yul\":4256:4257   */\n      dup3\n        /* \"#utility.yul\":4253:4254   */\n      dup3\n        /* \"#utility.yul\":4249:4258   */\n      mul\n        /* \"#utility.yul\":4278:4308   */\n      tag_125\n        /* \"#utility.yul\":4296:4307   */\n      dup2\n        /* \"#utility.yul\":4278:4308   */\n      tag_51\n      jump\t// in\n    tag_125:\n        /* \"#utility.yul\":4267:4308   */\n      swap2\n      pop\n        /* \"#utility.yul\":4457:4458   */\n      dup3\n        /* \"#utility.yul\":4448:4455   */\n      dup3\n        /* \"#utility.yul\":4444:4459   */\n      div\n        /* \"#utility.yul\":4441:4442   */\n      dup5\n        /* \"#utility.yul\":4438:4460   */\n      eq\n        /* \"#utility.yul\":4418:4419   */\n      dup4\n        /* \"#utility.yul\":4411:4420   */\n      iszero\n        /* \"#utility.yul\":4391:4474   */\n      or\n        /* \"#utility.yul\":4368:4507   */\n      tag_126\n      jumpi\n        /* \"#utility.yul\":4487:4505   */\n      tag_127\n      tag_66\n      jump\t// in\n    tag_127:\n        /* \"#utility.yul\":4368:4507   */\n    tag_126:\n        /* \"#utility.yul\":4152:4514   */\n      pop\n        /* \"#utility.yul\":4104:4514   */\n      swap3\n      swap2\n      pop\n      pop\n      jump\t// out\n        /* \"#utility.yul\":4520:4700   */\n    tag_67:\n        /* \"#utility.yul\":4568:4645   */\n      0x4e487b7100000000000000000000000000000000000000000000000000000000\n        /* \"#utility.yul\":4565:4566   */\n      0x00\n        /* \"#utility.yul\":4558:4646   */\n      mstore\n        /* \"#utility.yul\":4665:4669   */\n      0x12\n        /* \"#utility.yul\":4662:4663   */\n      0x04\n        /* \"#utility.yul\":4655:4670   */\n      mstore\n        /* \"#utility.yul\":4689:4693   */\n      0x24\n        /* \"#utility.yul\":4686:4687   */\n      0x00\n        /* \"#utility.yul\":4679:4694   */\n      revert\n        /* \"#utility.yul\":4706:4891   */\n    tag_43:\n        /* \"#utility.yul\":4746:4747   */\n      0x00\n        /* \"#utility.yul\":4763:4783   */\n      tag_130\n        /* \"#utility.yul\":4781:4782   */\n      dup3\n        /* \"#utility.yul\":4763:4783   */\n      tag_51\n      jump\t// in\n    tag_130:\n        /* \"#utility.yul\":4758:4783   */\n      swap2\n      pop\n        /* \"#utility.yul\":4797:4817   */\n      tag_131\n        /* \"#utility.yul\":4815:4816   */\n      dup4\n        /* \"#utility.yul\":4797:4817   */\n      tag_51\n      jump\t// in\n    tag_131:\n        /* \"#utility.yul\":4792:4817   */\n      swap3\n      pop\n        /* \"#utility.yul\":4836:4837   */\n      dup3\n        /* \"#utility.yul\":4826:4861   */\n      tag_132\n      jumpi\n        /* \"#utility.yul\":4841:4859   */\n      tag_133\n      tag_67\n      jump\t// in\n    tag_133:\n        /* \"#utility.yul\":4826:4861   */\n    tag_132:\n        /* \"#utility.yul\":4883:4884   */\n      dup3\n        /* \"#utility.yul\":4880:4881   */\n      dup3\n        /* \"#utility.yul\":4876:4885   */\n      div\n        /* \"#utility.yul\":4871:4885   */\n      swap1\n      pop\n        /* \"#utility.yul\":4706:4891   */\n      swap3\n      swap2\n      pop\n      pop\n      jump\t// out\n        /* \"#utility.yul\":4897:5002   */\n    tag_68:\n        /* \"#utility.yul\":4933:4940   */\n      0x00\n        /* \"#utility.yul\":4973:4995   */\n      0xffffffffffffffffffff\n        /* \"#utility.yul\":4966:4971   */\n      dup3\n        /* \"#utility.yul\":4962:4996   */\n      and\n        /* \"#utility.yul\":4951:4996   */\n      swap1\n      pop\n        /* \"#utility.yul\":4897:5002   */\n      swap2\n      swap1\n      pop\n      jump\t// out\n        /* \"#utility.yul\":5008:5128   */\n    tag_69:\n        /* \"#utility.yul\":5080:5103   */\n      tag_136\n        /* \"#utility.yul\":5097:5102   */\n      dup2\n        /* \"#utility.yul\":5080:5103   */\n      tag_68\n      jump\t// in\n    tag_136:\n        /* \"#utility.yul\":5073:5078   */\n      dup2\n        /* \"#utility.yul\":5070:5104   */\n      eq\n        /* \"#utility.yul\":5060:5122   */\n      tag_137\n      jumpi\n        /* \"#utility.yul\":5118:5119   */\n      0x00\n        /* \"#utility.yul\":5115:5116   */\n      0x00\n        /* \"#utility.yul\":5108:5120   */\n      revert\n        /* \"#utility.yul\":5060:5122   */\n    tag_137:\n        /* \"#utility.yul\":5008:5128   */\n      pop\n      jump\t// out\n        /* \"#utility.yul\":5134:5275   */\n    tag_70:\n        /* \"#utility.yul\":5190:5195   */\n      0x00\n        /* \"#utility.yul\":5221:5227   */\n      dup2\n        /* \"#utility.yul\":5215:5228   */\n      mload\n        /* \"#utility.yul\":5206:5228   */\n      swap1\n      pop\n        /* \"#utility.yul\":5237:5269   */\n      tag_139\n        /* \"#utility.yul\":5263:5268   */\n      dup2\n        /* \"#utility.yul\":5237:5269   */\n      tag_69\n      jump\t// in\n    tag_139:\n        /* \"#utility.yul\":5134:5275   */\n      swap3\n      swap2\n      pop\n      pop\n      jump\t// out\n        /* \"#utility.yul\":5281:5357   */\n    tag_71:\n        /* \"#utility.yul\":5317:5324   */\n      0x00\n        /* \"#utility.yul\":5346:5351   */\n      dup2\n        /* \"#utility.yul\":5335:5351   */\n      swap1\n      pop\n        /* \"#utility.yul\":5281:5357   */\n      swap2\n      swap1\n      pop\n      jump\t// out\n        /* \"#utility.yul\":5363:5483   */\n    tag_72:\n        /* \"#utility.yul\":5435:5458   */\n      tag_142\n        /* \"#utility.yul\":5452:5457   */\n      dup2\n        /* \"#utility.yul\":5435:5458   */\n      tag_71\n      jump\t// in\n    tag_142:\n        /* \"#utility.yul\":5428:5433   */\n      dup2\n        /* \"#utility.yul\":5425:5459   */\n      eq\n        /* \"#utility.yul\":5415:5477   */\n      tag_143\n      jumpi\n        /* \"#utility.yul\":5473:5474   */\n      0x00\n        /* \"#utility.yul\":5470:5471   */\n      0x00\n        /* \"#utility.yul\":5463:5475   */\n      revert\n        /* \"#utility.yul\":5415:5477   */\n    tag_143:\n        /* \"#utility.yul\":5363:5483   */\n      pop\n      jump\t// out\n        /* \"#utility.yul\":5489:5630   */\n    tag_73:\n        /* \"#utility.yul\":5545:5550   */\n      0x00\n        /* \"#utility.yul\":5576:5582   */\n      dup2\n        /* \"#utility.yul\":5570:5583   */\n      mload\n        /* \"#utility.yul\":5561:5583   */\n      swap1\n      pop\n        /* \"#utility.yul\":5592:5624   */\n      tag_145\n        /* \"#utility.yul\":5618:5623   */\n      dup2\n        /* \"#utility.yul\":5592:5624   */\n      tag_72\n      jump\t// in\n    tag_145:\n        /* \"#utility.yul\":5489:5630   */\n      swap3\n      swap2\n      pop\n      pop\n      jump\t// out\n        /* \"#utility.yul\":5636:5779   */\n    tag_74:\n        /* \"#utility.yul\":5693:5698   */\n      0x00\n        /* \"#utility.yul\":5724:5730   */\n      dup2\n        /* \"#utility.yul\":5718:5731   */\n      mload\n        /* \"#utility.yul\":5709:5731   */\n      swap1\n      pop\n        /* \"#utility.yul\":5740:5773   */\n      tag_147\n        /* \"#utility.yul\":5767:5772   */\n      dup2\n        /* \"#utility.yul\":5740:5773   */\n      tag_60\n      jump\t// in\n    tag_147:\n        /* \"#utility.yul\":5636:5779   */\n      swap3\n      swap2\n      pop\n      pop\n      jump\t// out\n        /* \"#utility.yul\":5785:6756   */\n    tag_48:\n        /* \"#utility.yul\":5888:5894   */\n      0x00\n        /* \"#utility.yul\":5896:5902   */\n      0x00\n        /* \"#utility.yul\":5904:5910   */\n      0x00\n        /* \"#utility.yul\":5912:5918   */\n      0x00\n        /* \"#utility.yul\":5920:5926   */\n      0x00\n        /* \"#utility.yul\":5969:5972   */\n      0xa0\n        /* \"#utility.yul\":5957:5966   */\n      dup7\n        /* \"#utility.yul\":5948:5955   */\n      dup9\n        /* \"#utility.yul\":5944:5967   */\n      sub\n        /* \"#utility.yul\":5940:5973   */\n      slt\n        /* \"#utility.yul\":5937:6057   */\n      iszero\n      tag_149\n      jumpi\n        /* \"#utility.yul\":5976:6055   */\n      tag_150\n      tag_54\n      jump\t// in\n    tag_150:\n        /* \"#utility.yul\":5937:6057   */\n    tag_149:\n        /* \"#utility.yul\":6096:6097   */\n      0x00\n        /* \"#utility.yul\":6121:6184   */\n      tag_151\n        /* \"#utility.yul\":6176:6183   */\n      dup9\n        /* \"#utility.yul\":6167:6173   */\n      dup3\n        /* \"#utility.yul\":6156:6165   */\n      dup10\n        /* \"#utility.yul\":6152:6174   */\n      add\n        /* \"#utility.yul\":6121:6184   */\n      tag_70\n      jump\t// in\n    tag_151:\n        /* \"#utility.yul\":6111:6184   */\n      swap6\n      pop\n        /* \"#utility.yul\":6067:6194   */\n      pop\n        /* \"#utility.yul\":6233:6235   */\n      0x20\n        /* \"#utility.yul\":6259:6322   */\n      tag_152\n        /* \"#utility.yul\":6314:6321   */\n      dup9\n        /* \"#utility.yul\":6305:6311   */\n      dup3\n        /* \"#utility.yul\":6294:6303   */\n      dup10\n        /* \"#utility.yul\":6290:6312   */\n      add\n        /* \"#utility.yul\":6259:6322   */\n      tag_73\n      jump\t// in\n    tag_152:\n        /* \"#utility.yul\":6249:6322   */\n      swap5\n      pop\n        /* \"#utility.yul\":6204:6332   */\n      pop\n        /* \"#utility.yul\":6371:6373   */\n      0x40\n        /* \"#utility.yul\":6397:6461   */\n      tag_153\n        /* \"#utility.yul\":6453:6460   */\n      dup9\n        /* \"#utility.yul\":6444:6450   */\n      dup3\n        /* \"#utility.yul\":6433:6442   */\n      dup10\n        /* \"#utility.yul\":6429:6451   */\n      add\n        /* \"#utility.yul\":6397:6461   */\n      tag_74\n      jump\t// in\n    tag_153:\n        /* \"#utility.yul\":6387:6461   */\n      swap4\n      pop\n        /* \"#utility.yul\":6342:6471   */\n      pop\n        /* \"#utility.yul\":6510:6512   */\n      0x60\n        /* \"#utility.yul\":6536:6600   */\n      tag_154\n        /* \"#utility.yul\":6592:6599   */\n      dup9\n        /* \"#utility.yul\":6583:6589   */\n      dup3\n        /* \"#utility.yul\":6572:6581   */\n      dup10\n        /* \"#utility.yul\":6568:6590   */\n      add\n        /* \"#utility.yul\":6536:6600   */\n      tag_74\n      jump\t// in\n    tag_154:\n        /* \"#utility.yul\":6526:6600   */\n      swap3\n      pop\n        /* \"#utility.yul\":6481:6610   */\n      pop\n        /* \"#utility.yul\":6649:6652   */\n      0x80\n        /* \"#utility.yul\":6676:6739   */\n      tag_155\n        /* \"#utility.yul\":6731:6738   */\n      dup9\n        /* \"#utility.yul\":6722:6728   */\n      dup3\n        /* \"#utility.yul\":6711:6720   */\n      dup10\n        /* \"#utility.yul\":6707:6729   */\n      add\n        /* \"#utility.yul\":6676:6739   */\n      tag_70\n      jump\t// in\n    tag_155:\n        /* \"#utility.yul\":6666:6739   */\n      swap2\n      pop\n        /* \"#utility.yul\":6620:6749   */\n      pop\n        /* \"#utility.yul\":5785:6756   */\n      swap3\n      swap6\n      pop\n      swap3\n      swap6\n      swap1\n      swap4\n      pop\n      jump\t// out\n        /* \"#utility.yul\":6762:7318   */\n    tag_50:\n        /* \"#utility.yul\":6801:6808   */\n      0x00\n        /* \"#utility.yul\":6824:6843   */\n      tag_157\n        /* \"#utility.yul\":6841:6842   */\n      dup3\n        /* \"#utility.yul\":6824:6843   */\n      tag_71\n      jump\t// in\n    tag_157:\n        /* \"#utility.yul\":6819:6843   */\n      swap2\n      pop\n        /* \"#utility.yul\":6857:6876   */\n      tag_158\n        /* \"#utility.yul\":6874:6875   */\n      dup4\n        /* \"#utility.yul\":6857:6876   */\n      tag_71\n      jump\t// in\n    tag_158:\n        /* \"#utility.yul\":6852:6876   */\n      swap3\n      pop\n        /* \"#utility.yul\":6911:6912   */\n      dup3\n        /* \"#utility.yul\":6908:6909   */\n      dup3\n        /* \"#utility.yul\":6904:6913   */\n      mul\n        /* \"#utility.yul\":6933:6962   */\n      tag_159\n        /* \"#utility.yul\":6950:6961   */\n      dup2\n        /* \"#utility.yul\":6933:6962   */\n      tag_71\n      jump\t// in\n    tag_159:\n        /* \"#utility.yul\":6922:6962   */\n      swap2\n      pop\n        /* \"#utility.yul\":7020:7086   */\n      0x8000000000000000000000000000000000000000000000000000000000000000\n        /* \"#utility.yul\":7017:7018   */\n      dup5\n        /* \"#utility.yul\":7014:7087   */\n      eq\n        /* \"#utility.yul\":7010:7011   */\n      0x00\n        /* \"#utility.yul\":7007:7008   */\n      dup5\n        /* \"#utility.yul\":7003:7012   */\n      slt\n        /* \"#utility.yul\":6999:7088   */\n      and\n        /* \"#utility.yul\":6996:7111   */\n      iszero\n      tag_160\n      jumpi\n        /* \"#utility.yul\":7091:7109   */\n      tag_161\n      tag_66\n      jump\t// in\n    tag_161:\n        /* \"#utility.yul\":6996:7111   */\n    tag_160:\n        /* \"#utility.yul\":7261:7262   */\n      dup3\n        /* \"#utility.yul\":7252:7259   */\n      dup3\n        /* \"#utility.yul\":7247:7263   */\n      sdiv\n        /* \"#utility.yul\":7244:7245   */\n      dup5\n        /* \"#utility.yul\":7241:7264   */\n      eq\n        /* \"#utility.yul\":7221:7222   */\n      dup4\n        /* \"#utility.yul\":7214:7223   */\n      iszero\n        /* \"#utility.yul\":7194:7278   */\n      or\n        /* \"#utility.yul\":7171:7311   */\n      tag_162\n      jumpi\n        /* \"#utility.yul\":7291:7309   */\n      tag_163\n      tag_66\n      jump\t// in\n    tag_163:\n        /* \"#utility.yul\":7171:7311   */\n    tag_162:\n        /* \"#utility.yul\":6809:7318   */\n      pop\n        /* \"#utility.yul\":6762:7318   */\n      swap3\n      swap2\n      pop\n      pop\n      jump\t// out\n\n    auxdata: 0xa264697066735822122026cadcb5fe82b21ca35d62b01f5a637632f05280364c1b72c0fc3631abaa6bfe64736f6c634300081c0033\n}\n",
				"bytecode": {
					"linkReferences": {},
					"object": "6080604052674563918244f400005f553480156019575f5ffd5b506107ae806100275f395ff3fe60806040526004361061003e575f3560e01c8063098de820146100425780633e47d6f31461006c578063b60d4288146100a8578063dc0d3dff146100b2575b5f5ffd5b34801561004d575f5ffd5b506100566100ee565b6040516100639190610370565b60405180910390f35b348015610077575f5ffd5b50610092600480360381019061008d91906103e7565b6100f3565b60405161009f9190610370565b60405180910390f35b6100b0610108565b005b3480156100bd575f5ffd5b506100d860048036038101906100d3919061043c565b610240565b6040516100e59190610476565b60405180910390f35b5f5481565b6002602052805f5260405f205f915090505481565b5f546101133461027b565b1015610154576040517f08c379a000000000000000000000000000000000000000000000000000000000815260040161014b906104e9565b60405180910390fd5b600133908060018154018082558091505060019003905f5260205f20015f9091909190916101000a81548173ffffffffffffffffffffffffffffffffffffffff021916908373ffffffffffffffffffffffffffffffffffffffff1602179055503460025f3373ffffffffffffffffffffffffffffffffffffffff1673ffffffffffffffffffffffffffffffffffffffff1681526020019081526020015f20546101fd9190610534565b60025f3373ffffffffffffffffffffffffffffffffffffffff1673ffffffffffffffffffffffffffffffffffffffff1681526020019081526020015f2081905550565b6001818154811061024f575f80fd5b905f5260205f20015f915054906101000a900473ffffffffffffffffffffffffffffffffffffffff1681565b5f5f6102856102b3565b90505f670de0b6b3a7640000848361029d9190610567565b6102a791906105d5565b90508092505050919050565b5f5f731b44f3514812d835eb1bdb0acb33d3fa3351ee4390505f8173ffffffffffffffffffffffffffffffffffffffff1663feaf968c6040518163ffffffff1660e01b815260040160a060405180830381865afa158015610316573d5f5f3e3d5ffd5b505050506040513d601f19601f8201168201806040525081019061033a919061068b565b5050509150506402540be400816103519190610702565b9250505090565b5f819050919050565b61036a81610358565b82525050565b5f6020820190506103835f830184610361565b92915050565b5f5ffd5b5f73ffffffffffffffffffffffffffffffffffffffff82169050919050565b5f6103b68261038d565b9050919050565b6103c6816103ac565b81146103d0575f5ffd5b50565b5f813590506103e1816103bd565b92915050565b5f602082840312156103fc576103fb610389565b5b5f610409848285016103d3565b91505092915050565b61041b81610358565b8114610425575f5ffd5b50565b5f8135905061043681610412565b92915050565b5f6020828403121561045157610450610389565b5b5f61045e84828501610428565b91505092915050565b610470816103ac565b82525050565b5f6020820190506104895f830184610467565b92915050565b5f82825260208201905092915050565b7f6469646e27742073656e6420656e6f75676820455448000000000000000000005f82015250565b5f6104d360168361048f565b91506104de8261049f565b602082019050919050565b5f6020820190508181035f830152610500816104c7565b9050919050565b7f4e487b71000000000000000000000000000000000000000000000000000000005f52601160045260245ffd5b5f61053e82610358565b915061054983610358565b925082820190508082111561056157610560610507565b5b92915050565b5f61057182610358565b915061057c83610358565b925082820261058a81610358565b915082820484148315176105a1576105a0610507565b5b5092915050565b7f4e487b71000000000000000000000000000000000000000000000000000000005f52601260045260245ffd5b5f6105df82610358565b91506105ea83610358565b9250826105fa576105f96105a8565b5b828204905092915050565b5f69ffffffffffffffffffff82169050919050565b61062381610605565b811461062d575f5ffd5b50565b5f8151905061063e8161061a565b92915050565b5f819050919050565b61065681610644565b8114610660575f5ffd5b50565b5f815190506106718161064d565b92915050565b5f8151905061068581610412565b92915050565b5f5f5f5f5f60a086880312156106a4576106a3610389565b5b5f6106b188828901610630565b95505060206106c288828901610663565b94505060406106d388828901610677565b93505060606106e488828901610677565b92505060806106f588828901610630565b9150509295509295909350565b5f61070c82610644565b915061071783610644565b925082820261072581610644565b91507f800000000000000000000000000000000000000000000000000000000000000084145f8412161561075c5761075b610507565b5b828205841483151761077157610770610507565b5b509291505056fea264697066735822122026cadcb5fe82b21ca35d62b01f5a637632f05280364c1b72c0fc3631abaa6bfe64736f6c634300081c0033",
					"opcodes": "PUSH1 0x80 PUSH1 0x40 MSTORE PUSH8 0x4563918244F40000 PUSH0 SSTORE CALLVALUE DUP1 ISZERO PUSH1 0x19 JUMPI PUSH0 PUSH0 REVERT JUMPDEST POP PUSH2 0x7AE DUP1 PUSH2 0x27 PUSH0 CODECOPY PUSH0 RETURN INVALID PUSH1 0x80 PUSH1 0x40 MSTORE PUSH1 0x4 CALLDATASIZE LT PUSH2 0x3E JUMPI PUSH0 CALLDATALOAD PUSH1 0xE0 SHR DUP1 PUSH4 0x98DE820 EQ PUSH2 0x42 JUMPI DUP1 PUSH4 0x3E47D6F3 EQ PUSH2 0x6C JUMPI DUP1 PUSH4 0xB60D4288 EQ PUSH2 0xA8 JUMPI DUP1 PUSH4 0xDC0D3DFF EQ PUSH2 0xB2 JUMPI JUMPDEST PUSH0 PUSH0 REVERT JUMPDEST CALLVALUE DUP1 ISZERO PUSH2 0x4D JUMPI PUSH0 PUSH0 REVERT JUMPDEST POP PUSH2 0x56 PUSH2 0xEE JUMP JUMPDEST PUSH1 0x40 MLOAD PUSH2 0x63 SWAP2 SWAP1 PUSH2 0x370 JUMP JUMPDEST PUSH1 0x40 MLOAD DUP1 SWAP2 SUB SWAP1 RETURN JUMPDEST CALLVALUE DUP1 ISZERO PUSH2 0x77 JUMPI PUSH0 PUSH0 REVERT JUMPDEST POP PUSH2 0x92 PUSH1 0x4 DUP1 CALLDATASIZE SUB DUP2 ADD SWAP1 PUSH2 0x8D SWAP2 SWAP1 PUSH2 0x3E7 JUMP JUMPDEST PUSH2 0xF3 JUMP JUMPDEST PUSH1 0x40 MLOAD PUSH2 0x9F SWAP2 SWAP1 PUSH2 0x370 JUMP JUMPDEST PUSH1 0x40 MLOAD DUP1 SWAP2 SUB SWAP1 RETURN JUMPDEST PUSH2 0xB0 PUSH2 0x108 JUMP JUMPDEST STOP JUMPDEST CALLVALUE DUP1 ISZERO PUSH2 0xBD JUMPI PUSH0 PUSH0 REVERT JUMPDEST POP PUSH2 0xD8 PUSH1 0x4 DUP1 CALLDATASIZE SUB DUP2 ADD SWAP1 PUSH2 0xD3 SWAP2 SWAP1 PUSH2 0x43C JUMP JUMPDEST PUSH2 0x240 JUMP JUMPDEST PUSH1 0x40 MLOAD PUSH2 0xE5 SWAP2 SWAP1 PUSH2 0x476 JUMP JUMPDEST PUSH1 0x40 MLOAD DUP1 SWAP2 SUB SWAP1 RETURN JUMPDEST PUSH0 SLOAD DUP2 JUMP JUMPDEST PUSH1 0x2 PUSH1 0x20 MSTORE DUP1 PUSH0 MSTORE PUSH1 0x40 PUSH0 KECCAK256 PUSH0 SWAP2 POP SWAP1 POP SLOAD DUP2 JUMP JUMPDEST PUSH0 SLOAD PUSH2 0x113 CALLVALUE PUSH2 0x27B JUMP JUMPDEST LT ISZERO PUSH2 0x154 JUMPI PUSH1 0x40 MLOAD PUSH32 0x8C379A000000000000000000000000000000000000000000000000000000000 DUP2 MSTORE PUSH1 0x4 ADD PUSH2 0x14B SWAP1 PUSH2 0x4E9 JUMP JUMPDEST PUSH1 0x40 MLOAD DUP1 SWAP2 SUB SWAP1 REVERT JUMPDEST PUSH1 0x1 CALLER SWAP1 DUP1 PUSH1 0x1 DUP2 SLOAD ADD DUP1 DUP3 SSTORE DUP1 SWAP2 POP POP PUSH1 0x1 SWAP1 SUB SWAP1 PUSH0 MSTORE PUSH1 0x20 PUSH0 KECCAK256 ADD PUSH0 SWAP1 SWAP2 SWAP1 SWAP2 SWAP1 SWAP2 PUSH2 0x100 EXP DUP2 SLOAD DUP2 PUSH20 0xFFFFFFFFFFFFFFFFFFFFFFFFFFFFFFFFFFFFFFFF MUL NOT AND SWAP1 DUP4 PUSH20 0xFFFFFFFFFFFFFFFFFFFFFFFFFFFFFFFFFFFFFFFF AND MUL OR SWAP1 SSTORE POP CALLVALUE PUSH1 0x2 PUSH0 CALLER PUSH20 0xFFFFFFFFFFFFFFFFFFFFFFFFFFFFFFFFFFFFFFFF AND PUSH20 0xFFFFFFFFFFFFFFFFFFFFFFFFFFFFFFFFFFFFFFFF AND DUP2 MSTORE PUSH1 0x20 ADD SWAP1 DUP2 MSTORE PUSH1 0x20 ADD PUSH0 KECCAK256 SLOAD PUSH2 0x1FD SWAP2 SWAP1 PUSH2 0x534 JUMP JUMPDEST PUSH1 0x2 PUSH0 CALLER PUSH20 0xFFFFFFFFFFFFFFFFFFFFFFFFFFFFFFFFFFFFFFFF AND PUSH20 0xFFFFFFFFFFFFFFFFFFFFFFFFFFFFFFFFFFFFFFFF AND DUP2 MSTORE PUSH1 0x20 ADD SWAP1 DUP2 MSTORE PUSH1 0x20 ADD PUSH0 KECCAK256 DUP2 SWAP1 SSTORE POP JUMP JUMPDEST PUSH1 0x1 DUP2 DUP2 SLOAD DUP2 LT PUSH2 0x24F JUMPI PUSH0 DUP1 REVERT JUMPDEST SWAP1 PUSH0 MSTORE PUSH1 0x20 PUSH0 KECCAK256 ADD PUSH0 SWAP2 POP SLOAD SWAP1 PUSH2 0x100 EXP SWAP1 DIV PUSH20 0xFFFFFFFFFFFFFFFFFFFFFFFFFFFFFFFFFFFFFFFF AND DUP2 JUMP JUMPDEST PUSH0 PUSH0 PUSH2 0x285 PUSH2 0x2B3 JUMP JUMPDEST SWAP1 POP PUSH0 PUSH8 0xDE0B6B3A7640000 DUP5 DUP4 PUSH2 0x29D SWAP2 SWAP1 PUSH2 0x567 JUMP JUMPDEST PUSH2 0x2A7 SWAP2 SWAP1 PUSH2 0x5D5 JUMP JUMPDEST SWAP1 POP DUP1 SWAP3 POP POP POP SWAP2 SWAP1 POP JUMP JUMPDEST PUSH0 PUSH0 PUSH20 0x1B44F3514812D835EB1BDB0ACB33D3FA3351EE43 SWAP1 POP PUSH0 DUP2 PUSH20 0xFFFFFFFFFFFFFFFFFFFFFFFFFFFFFFFFFFFFFFFF AND PUSH4 0xFEAF968C PUSH1 0x40 MLOAD DUP2 PUSH4 0xFFFFFFFF AND PUSH1 0xE0 SHL DUP2 MSTORE PUSH1 0x4 ADD PUSH1 0xA0 PUSH1 0x40 MLOAD DUP1 DUP4 SUB DUP2 DUP7 GAS STATICCALL ISZERO DUP1 ISZERO PUSH2 0x316 JUMPI RETURNDATASIZE PUSH0 PUSH0 RETURNDATACOPY RETURNDATASIZE PUSH0 REVERT JUMPDEST POP POP POP POP PUSH1 0x40 MLOAD RETURNDATASIZE PUSH1 0x1F NOT PUSH1 0x1F DUP3 ADD AND DUP3 ADD DUP1 PUSH1 0x40 MSTORE POP DUP2 ADD SWAP1 PUSH2 0x33A SWAP2 SWAP1 PUSH2 0x68B JUMP JUMPDEST POP POP POP SWAP2 POP POP PUSH5 0x2540BE400 DUP2 PUSH2 0x351 SWAP2 SWAP1 PUSH2 0x702 JUMP JUMPDEST SWAP3 POP POP POP SWAP1 JUMP JUMPDEST PUSH0 DUP2 SWAP1 POP SWAP2 SWAP1 POP JUMP JUMPDEST PUSH2 0x36A DUP2 PUSH2 0x358 JUMP JUMPDEST DUP3 MSTORE POP POP JUMP JUMPDEST PUSH0 PUSH1 0x20 DUP3 ADD SWAP1 POP PUSH2 0x383 PUSH0 DUP4 ADD DUP5 PUSH2 0x361 JUMP JUMPDEST SWAP3 SWAP2 POP POP JUMP JUMPDEST PUSH0 PUSH0 REVERT JUMPDEST PUSH0 PUSH20 0xFFFFFFFFFFFFFFFFFFFFFFFFFFFFFFFFFFFFFFFF DUP3 AND SWAP1 POP SWAP2 SWAP1 POP JUMP JUMPDEST PUSH0 PUSH2 0x3B6 DUP3 PUSH2 0x38D JUMP JUMPDEST SWAP1 POP SWAP2 SWAP1 POP JUMP JUMPDEST PUSH2 0x3C6 DUP2 PUSH2 0x3AC JUMP JUMPDEST DUP2 EQ PUSH2 0x3D0 JUMPI PUSH0 PUSH0 REVERT JUMPDEST POP JUMP JUMPDEST PUSH0 DUP2 CALLDATALOAD SWAP1 POP PUSH2 0x3E1 DUP2 PUSH2 0x3BD JUMP JUMPDEST SWAP3 SWAP2 POP POP JUMP JUMPDEST PUSH0 PUSH1 0x20 DUP3 DUP5 SUB SLT ISZERO PUSH2 0x3FC JUMPI PUSH2 0x3FB PUSH2 0x389 JUMP JUMPDEST JUMPDEST PUSH0 PUSH2 0x409 DUP5 DUP3 DUP6 ADD PUSH2 0x3D3 JUMP JUMPDEST SWAP2 POP POP SWAP3 SWAP2 POP POP JUMP JUMPDEST PUSH2 0x41B DUP2 PUSH2 0x358 JUMP JUMPDEST DUP2 EQ PUSH2 0x425 JUMPI PUSH0 PUSH0 REVERT JUMPDEST POP JUMP JUMPDEST PUSH0 DUP2 CALLDATALOAD SWAP1 POP PUSH2 0x436 DUP2 PUSH2 0x412 JUMP JUMPDEST SWAP3 SWAP2 POP POP JUMP JUMPDEST PUSH0 PUSH1 0x20 DUP3 DUP5 SUB SLT ISZERO PUSH2 0x451 JUMPI PUSH2 0x450 PUSH2 0x389 JUMP JUMPDEST JUMPDEST PUSH0 PUSH2 0x45E DUP5 DUP3 DUP6 ADD PUSH2 0x428 JUMP JUMPDEST SWAP2 POP POP SWAP3 SWAP2 POP POP JUMP JUMPDEST PUSH2 0x470 DUP2 PUSH2 0x3AC JUMP JUMPDEST DUP3 MSTORE POP POP JUMP JUMPDEST PUSH0 PUSH1 0x20 DUP3 ADD SWAP1 POP PUSH2 0x489 PUSH0 DUP4 ADD DUP5 PUSH2 0x467 JUMP JUMPDEST SWAP3 SWAP2 POP POP JUMP JUMPDEST PUSH0 DUP3 DUP3 MSTORE PUSH1 0x20 DUP3 ADD SWAP1 POP SWAP3 SWAP2 POP POP JUMP JUMPDEST PUSH32 0x6469646E27742073656E6420656E6F7567682045544800000000000000000000 PUSH0 DUP3 ADD MSTORE POP JUMP JUMPDEST PUSH0 PUSH2 0x4D3 PUSH1 0x16 DUP4 PUSH2 0x48F JUMP JUMPDEST SWAP2 POP PUSH2 0x4DE DUP3 PUSH2 0x49F JUMP JUMPDEST PUSH1 0x20 DUP3 ADD SWAP1 POP SWAP2 SWAP1 POP JUMP JUMPDEST PUSH0 PUSH1 0x20 DUP3 ADD SWAP1 POP DUP2 DUP2 SUB PUSH0 DUP4 ADD MSTORE PUSH2 0x500 DUP2 PUSH2 0x4C7 JUMP JUMPDEST SWAP1 POP SWAP2 SWAP1 POP JUMP JUMPDEST PUSH32 0x4E487B7100000000000000000000000000000000000000000000000000000000 PUSH0 MSTORE PUSH1 0x11 PUSH1 0x4 MSTORE PUSH1 0x24 PUSH0 REVERT JUMPDEST PUSH0 PUSH2 0x53E DUP3 PUSH2 0x358 JUMP JUMPDEST SWAP2 POP PUSH2 0x549 DUP4 PUSH2 0x358 JUMP JUMPDEST SWAP3 POP DUP3 DUP3 ADD SWAP1 POP DUP1 DUP3 GT ISZERO PUSH2 0x561 JUMPI PUSH2 0x560 PUSH2 0x507 JUMP JUMPDEST JUMPDEST SWAP3 SWAP2 POP POP JUMP JUMPDEST PUSH0 PUSH2 0x571 DUP3 PUSH2 0x358 JUMP JUMPDEST SWAP2 POP PUSH2 0x57C DUP4 PUSH2 0x358 JUMP JUMPDEST SWAP3 POP DUP3 DUP3 MUL PUSH2 0x58A DUP2 PUSH2 0x358 JUMP JUMPDEST SWAP2 POP DUP3 DUP3 DIV DUP5 EQ DUP4 ISZERO OR PUSH2 0x5A1 JUMPI PUSH2 0x5A0 PUSH2 0x507 JUMP JUMPDEST JUMPDEST POP SWAP3 SWAP2 POP POP JUMP JUMPDEST PUSH32 0x4E487B7100000000000000000000000000000000000000000000000000000000 PUSH0 MSTORE PUSH1 0x12 PUSH1 0x4 MSTORE PUSH1 0x24 PUSH0 REVERT JUMPDEST PUSH0 PUSH2 0x5DF DUP3 PUSH2 0x358 JUMP JUMPDEST SWAP2 POP PUSH2 0x5EA DUP4 PUSH2 0x358 JUMP JUMPDEST SWAP3 POP DUP3 PUSH2 0x5FA JUMPI PUSH2 0x5F9 PUSH2 0x5A8 JUMP JUMPDEST JUMPDEST DUP3 DUP3 DIV SWAP1 POP SWAP3 SWAP2 POP POP JUMP JUMPDEST PUSH0 PUSH10 0xFFFFFFFFFFFFFFFFFFFF DUP3 AND SWAP1 POP SWAP2 SWAP1 POP JUMP JUMPDEST PUSH2 0x623 DUP2 PUSH2 0x605 JUMP JUMPDEST DUP2 EQ PUSH2 0x62D JUMPI PUSH0 PUSH0 REVERT JUMPDEST POP JUMP JUMPDEST PUSH0 DUP2 MLOAD SWAP1 POP PUSH2 0x63E DUP2 PUSH2 0x61A JUMP JUMPDEST SWAP3 SWAP2 POP POP JUMP JUMPDEST PUSH0 DUP2 SWAP1 POP SWAP2 SWAP1 POP JUMP JUMPDEST PUSH2 0x656 DUP2 PUSH2 0x644 JUMP JUMPDEST DUP2 EQ PUSH2 0x660 JUMPI PUSH0 PUSH0 REVERT JUMPDEST POP JUMP JUMPDEST PUSH0 DUP2 MLOAD SWAP1 POP PUSH2 0x671 DUP2 PUSH2 0x64D JUMP JUMPDEST SWAP3 SWAP2 POP POP JUMP JUMPDEST PUSH0 DUP2 MLOAD SWAP1 POP PUSH2 0x685 DUP2 PUSH2 0x412 JUMP JUMPDEST SWAP3 SWAP2 POP POP JUMP JUMPDEST PUSH0 PUSH0 PUSH0 PUSH0 PUSH0 PUSH1 0xA0 DUP7 DUP9 SUB SLT ISZERO PUSH2 0x6A4 JUMPI PUSH2 0x6A3 PUSH2 0x389 JUMP JUMPDEST JUMPDEST PUSH0 PUSH2 0x6B1 DUP9 DUP3 DUP10 ADD PUSH2 0x630 JUMP JUMPDEST SWAP6 POP POP PUSH1 0x20 PUSH2 0x6C2 DUP9 DUP3 DUP10 ADD PUSH2 0x663 JUMP JUMPDEST SWAP5 POP POP PUSH1 0x40 PUSH2 0x6D3 DUP9 DUP3 DUP10 ADD PUSH2 0x677 JUMP JUMPDEST SWAP4 POP POP PUSH1 0x60 PUSH2 0x6E4 DUP9 DUP3 DUP10 ADD PUSH2 0x677 JUMP JUMPDEST SWAP3 POP POP PUSH1 0x80 PUSH2 0x6F5 DUP9 DUP3 DUP10 ADD PUSH2 0x630 JUMP JUMPDEST SWAP2 POP POP SWAP3 SWAP6 POP SWAP3 SWAP6 SWAP1 SWAP4 POP JUMP JUMPDEST PUSH0 PUSH2 0x70C DUP3 PUSH2 0x644 JUMP JUMPDEST SWAP2 POP PUSH2 0x717 DUP4 PUSH2 0x644 JUMP JUMPDEST SWAP3 POP DUP3 DUP3 MUL PUSH2 0x725 DUP2 PUSH2 0x644 JUMP JUMPDEST SWAP2 POP PUSH32 0x8000000000000000000000000000000000000000000000000000000000000000 DUP5 EQ PUSH0 DUP5 SLT AND ISZERO PUSH2 0x75C JUMPI PUSH2 0x75B PUSH2 0x507 JUMP JUMPDEST JUMPDEST DUP3 DUP3 SDIV DUP5 EQ DUP4 ISZERO OR PUSH2 0x771 JUMPI PUSH2 0x770 PUSH2 0x507 JUMP JUMPDEST JUMPDEST POP SWAP3 SWAP2 POP POP JUMP INVALID LOG2 PUSH5 0x6970667358 0x22 SLT KECCAK256 0x26 0xCA 0xDC 0xB5 INVALID DUP3 0xB2 SHR LOG3 TSTORE PUSH3 0xB01F5A PUSH4 0x7632F052 DUP1 CALLDATASIZE 0x4C SHL PUSH19 0xC0FC3631ABAA6BFE64736F6C634300081C0033 "
				},
				"gasEstimates": {
					"creation": {
						"codeDepositCost": "393200",
						"executionCost": "22533",
						"totalCost": "415733"
					},
					"external": {
						"addressToAmountFunded(address)": "2802",
						"fund()": "infinite",
						"funders(uint256)": "4988",
						"minimumUsd()": "2402"
					}
				},
				"methodIdentifiers": {
					"addressToAmountFunded(address)": "3e47d6f3",
					"fund()": "b60d4288",
					"funders(uint256)": "dc0d3dff",
					"minimumUsd()": "098de820"
				}
			},
			"storageLayout": {
				"storage": [
					{
						"astId": 55,
						"contract": "Cyfrin Updraft/Smart Contract Development/Fund Me/FundMe.sol:FundMe",
						"label": "minimumUsd",
						"offset": 0,
						"slot": "0",
						"type": "t_uint256"
					},
					{
						"astId": 58,
						"contract": "Cyfrin Updraft/Smart Contract Development/Fund Me/FundMe.sol:FundMe",
						"label": "funders",
						"offset": 0,
						"slot": "1",
						"type": "t_array(t_address)dyn_storage"
					},
					{
						"astId": 62,
						"contract": "Cyfrin Updraft/Smart Contract Development/Fund Me/FundMe.sol:FundMe",
						"label": "addressToAmountFunded",
						"offset": 0,
						"slot": "2",
						"type": "t_mapping(t_address,t_uint256)"
					}
				],
				"types": {
					"t_address": {
						"encoding": "inplace",
						"label": "address",
						"numberOfBytes": "20"
					},
					"t_array(t_address)dyn_storage": {
						"base": "t_address",
						"encoding": "dynamic_array",
						"label": "address[]",
						"numberOfBytes": "32"
					},
					"t_mapping(t_address,t_uint256)": {
						"encoding": "mapping",
						"key": "t_address",
						"label": "mapping(address => uint256)",
						"numberOfBytes": "32",
						"value": "t_uint256"
					},
					"t_uint256": {
						"encoding": "inplace",
						"label": "uint256",
						"numberOfBytes": "32"
					}
				}
			},
			"userdoc": {
				"kind": "user",
				"methods": {},
				"version": 1
			}
		}
	}
}