{
	"data": {
		"bytecode": {
			"linkReferences": {},
			"object": "60a060405234801561000f575f5ffd5b5060405161443e38038061443e833981810160405281019061003191906100c9565b8073ffffffffffffffffffffffffffffffffffffffff1660808173ffffffffffffffffffffffffffffffffffffffff1681525050506100f4565b5f5ffd5b5f73ffffffffffffffffffffffffffffffffffffffff82169050919050565b5f6100988261006f565b9050919050565b6100a88161008e565b81146100b2575f5ffd5b50565b5f815190506100c38161009f565b92915050565b5f602082840312156100de576100dd61006b565b5b5f6100eb848285016100b5565b91505092915050565b60805161432461011a5f395f81816106c601528181610a780152610b5001526143245ff3fe60806040526004361061009b575f3560e01c8063808af97311610063578063808af97314610167578063859796151461019157806398ba7e67146101b9578063a5f8cdbb146101f5578063c415b95c14610211578063cc85f0801461023b5761009b565b806324e262411461009f5780633194bfe1146100bb5780634bd95581146100f9578063729eaa6614610121578063737df5921461014b575b5f5ffd5b6100b960048036038101906100b49190610dc6565b610277565b005b3480156100c6575f5ffd5b506100e160048036038101906100dc9190610dc6565b61039e565b6040516100f093929190610e7c565b60405180910390f35b348015610104575f5ffd5b5061011f600480360381019061011a9190610efe565b6103cf565b005b34801561012c575f5ffd5b506101356104b2565b6040516101429190610f62565b60405180910390f35b61016560048036038101906101609190610f7b565b6104be565b005b348015610172575f5ffd5b5061017b6107a2565b6040516101889190610f62565b60405180910390f35b34801561019c575f5ffd5b506101b760048036038101906101b2919061113c565b6107a9565b005b3480156101c4575f5ffd5b506101df60048036038101906101da9190611238565b610846565b6040516101ec9190611285565b60405180910390f35b61020f600480360381019061020a9190610dc6565b610870565b005b34801561021c575f5ffd5b50610225610b4e565b60405161023291906112ad565b60405180910390f35b348015610246575f5ffd5b50610261600480360381019061025c9190610dc6565b610b72565b60405161026e9190610f62565b60405180910390f35b5f60015f3373ffffffffffffffffffffffffffffffffffffffff1673ffffffffffffffffffffffffffffffffffffffff1681526020019081526020015f205490505f60015f3373ffffffffffffffffffffffffffffffffffffffff1673ffffffffffffffffffffffffffffffffffffffff1681526020019081526020015f20819055505f8273ffffffffffffffffffffffffffffffffffffffff168260405161031f906112f3565b5f6040518083038185875af1925050503d805f8114610359576040519150601f19603f3d011682016040523d82523d5f602084013e61035e565b606091505b5050905080610399576040517f4c22002500000000000000000000000000000000000000000000000000000000815260040160405180910390fd5b505050565b5f602052805f5260405f205f91509050805f015490806001015f9054906101000a900460ff16908060020154905083565b8373ffffffffffffffffffffffffffffffffffffffff1663612032656040518163ffffffff1660e01b8152600401602060405180830381865afa158015610418573d5f5f3e3d5ffd5b505050506040513d601f19601f8201168201806040525081019061043c919061131b565b73ffffffffffffffffffffffffffffffffffffffff163373ffffffffffffffffffffffffffffffffffffffff16146104a0576040517fb2aa519000000000000000000000000000000000000000000000000000000000815260040160405180910390fd5b6104ac84848484610b87565b50505050565b67016345785d8a000081565b5f60018111156104d1576104d0610e09565b5b5f5f8573ffffffffffffffffffffffffffffffffffffffff1673ffffffffffffffffffffffffffffffffffffffff1681526020019081526020015f206001015f9054906101000a900460ff16600181111561052f5761052e610e09565b5b14610566576040517f62a0f12e00000000000000000000000000000000000000000000000000000000815260040160405180910390fd5b5f5f8473ffffffffffffffffffffffffffffffffffffffff1673ffffffffffffffffffffffffffffffffffffffff1681526020019081526020015f205f015434146105e6576040517fd647364f0000000000000000000000000000000000000000000000000000000081526004016105dd906113a0565b60405180910390fd5b67016345785d8a0000346105fa91906113eb565b60015f8573ffffffffffffffffffffffffffffffffffffffff1663612032656040518163ffffffff1660e01b8152600401602060405180830381865afa158015610646573d5f5f3e3d5ffd5b505050506040513d601f19601f8201168201806040525081019061066a919061131b565b73ffffffffffffffffffffffffffffffffffffffff1673ffffffffffffffffffffffffffffffffffffffff1681526020019081526020015f205f8282546106b1919061141e565b9250508190555067016345785d8a000060015f7f000000000000000000000000000000000000000000000000000000000000000073ffffffffffffffffffffffffffffffffffffffff1673ffffffffffffffffffffffffffffffffffffffff1681526020019081526020015f205f82825461072c919061141e565b925050819055508273ffffffffffffffffffffffffffffffffffffffff166342842e0e8233856040518463ffffffff1660e01b815260040161077093929190611451565b5f604051808303815f87803b158015610787575f5ffd5b505af1158015610799573d5f5f3e3d5ffd5b50505050505050565b6201518081565b5f308a8a8a338888886040516107be90610d4e565b6107cf9897969594939291906114d6565b604051809103905ff0801580156107e8573d5f5f3e3d5ffd5b5090508073ffffffffffffffffffffffffffffffffffffffff167f0227e3b2fb10ea87b3ce0fe9b23554ad992c666dd128c13c0a6ef2d73dd80ba060405160405180910390a261083a81888888610b87565b50505050505050505050565b6002602052815f5260405f20602052805f5260405f205f915091509054906101000a900460ff1681565b5f600181111561088357610882610e09565b5b5f5f8373ffffffffffffffffffffffffffffffffffffffff1673ffffffffffffffffffffffffffffffffffffffff1681526020019081526020015f206001015f9054906101000a900460ff1660018111156108e1576108e0610e09565b5b14610918576040517f62a0f12e00000000000000000000000000000000000000000000000000000000815260040160405180910390fd5b5f5f8273ffffffffffffffffffffffffffffffffffffffff1673ffffffffffffffffffffffffffffffffffffffff1681526020019081526020015f205f01543414610998576040517fd647364f00000000000000000000000000000000000000000000000000000000815260040161098f906113a0565b60405180910390fd5b67016345785d8a0000346109ac91906113eb565b60015f8373ffffffffffffffffffffffffffffffffffffffff1663612032656040518163ffffffff1660e01b8152600401602060405180830381865afa1580156109f8573d5f5f3e3d5ffd5b505050506040513d601f19601f82011682018060405250810190610a1c919061131b565b73ffffffffffffffffffffffffffffffffffffffff1673ffffffffffffffffffffffffffffffffffffffff1681526020019081526020015f205f828254610a63919061141e565b9250508190555067016345785d8a000060015f7f000000000000000000000000000000000000000000000000000000000000000073ffffffffffffffffffffffffffffffffffffffff1673ffffffffffffffffffffffffffffffffffffffff1681526020019081526020015f205f828254610ade919061141e565b925050819055508073ffffffffffffffffffffffffffffffffffffffff166340d097c3336040518263ffffffff1660e01b8152600401610b1e91906112ad565b5f604051808303815f87803b158015610b35575f5ffd5b505af1158015610b47573d5f5f3e3d5ffd5b5050505050565b7f000000000000000000000000000000000000000000000000000000000000000081565b6001602052805f5260405f205f915090505481565b6201518042610b96919061141e565b811015610bd8576040517fd647364f000000000000000000000000000000000000000000000000000000008152600401610bcf906115aa565b60405180910390fd5b67016345785d8a0000831015610c23576040517fd647364f000000000000000000000000000000000000000000000000000000008152600401610c1a90611612565b60405180910390fd5b5f5f5f8673ffffffffffffffffffffffffffffffffffffffff1673ffffffffffffffffffffffffffffffffffffffff1681526020019081526020015f206002015414610c9b576040517fa3d582ec00000000000000000000000000000000000000000000000000000000815260040160405180910390fd5b6040518060600160405280848152602001836001811115610cbf57610cbe610e09565b5b8152602001828152505f5f8673ffffffffffffffffffffffffffffffffffffffff1673ffffffffffffffffffffffffffffffffffffffff1681526020019081526020015f205f820151815f01556020820151816001015f6101000a81548160ff02191690836001811115610d3657610d35610e09565b5b02179055506040820151816002015590505050505050565b612cbe8061163183390190565b5f604051905090565b5f5ffd5b5f5ffd5b5f73ffffffffffffffffffffffffffffffffffffffff82169050919050565b5f610d9582610d6c565b9050919050565b610da581610d8b565b8114610daf575f5ffd5b50565b5f81359050610dc081610d9c565b92915050565b5f60208284031215610ddb57610dda610d64565b5b5f610de884828501610db2565b91505092915050565b5f819050919050565b610e0381610df1565b82525050565b7f4e487b71000000000000000000000000000000000000000000000000000000005f52602160045260245ffd5b60028110610e4757610e46610e09565b5b50565b5f819050610e5782610e36565b919050565b5f610e6682610e4a565b9050919050565b610e7681610e5c565b82525050565b5f606082019050610e8f5f830186610dfa565b610e9c6020830185610e6d565b610ea96040830184610dfa565b949350505050565b610eba81610df1565b8114610ec4575f5ffd5b50565b5f81359050610ed581610eb1565b92915050565b60028110610ee7575f5ffd5b50565b5f81359050610ef881610edb565b92915050565b5f5f5f5f60808587031215610f1657610f15610d64565b5b5f610f2387828801610db2565b9450506020610f3487828801610ec7565b9350506040610f4587828801610eea565b9250506060610f5687828801610ec7565b91505092959194509250565b5f602082019050610f755f830184610dfa565b92915050565b5f5f5f60608486031215610f9257610f91610d64565b5b5f610f9f86828701610db2565b9350506020610fb086828701610ec7565b9250506040610fc186828701610db2565b9150509250925092565b5f5ffd5b5f5ffd5b5f601f19601f8301169050919050565b7f4e487b71000000000000000000000000000000000000000000000000000000005f52604160045260245ffd5b61101982610fd3565b810181811067ffffffffffffffff8211171561103857611037610fe3565b5b80604052505050565b5f61104a610d5b565b90506110568282611010565b919050565b5f67ffffffffffffffff82111561107557611074610fe3565b5b61107e82610fd3565b9050602081019050919050565b828183375f83830152505050565b5f6110ab6110a68461105b565b611041565b9050828152602081018484840111156110c7576110c6610fcf565b5b6110d284828561108b565b509392505050565b5f82601f8301126110ee576110ed610fcb565b5b81356110fe848260208601611099565b91505092915050565b5f8115159050919050565b61111b81611107565b8114611125575f5ffd5b50565b5f8135905061113681611112565b92915050565b5f5f5f5f5f5f5f5f5f6101208a8c03121561115a57611159610d64565b5b5f8a013567ffffffffffffffff81111561117757611176610d68565b5b6111838c828d016110da565b99505060206111948c828d01610ec7565b98505060408a013567ffffffffffffffff8111156111b5576111b4610d68565b5b6111c18c828d016110da565b97505060606111d28c828d01610ec7565b96505060806111e38c828d01610eea565b95505060a06111f48c828d01610ec7565b94505060c06112058c828d01610ec7565b93505060e06112168c828d01611128565b9250506101006112288c828d01610db2565b9150509295985092959850929598565b5f5f6040838503121561124e5761124d610d64565b5b5f61125b85828601610db2565b925050602061126c85828601610ec7565b9150509250929050565b61127f81611107565b82525050565b5f6020820190506112985f830184611276565b92915050565b6112a781610d8b565b82525050565b5f6020820190506112c05f83018461129e565b92915050565b5f81905092915050565b50565b5f6112de5f836112c6565b91506112e9826112d0565b5f82019050919050565b5f6112fd826112d3565b9150819050919050565b5f8151905061131581610d9c565b92915050565b5f602082840312156113305761132f610d64565b5b5f61133d84828501611307565b91505092915050565b5f82825260208201905092915050565b7f57726f6e672076616c75650000000000000000000000000000000000000000005f82015250565b5f61138a600b83611346565b915061139582611356565b602082019050919050565b5f6020820190508181035f8301526113b78161137e565b9050919050565b7f4e487b71000000000000000000000000000000000000000000000000000000005f52601160045260245ffd5b5f6113f582610df1565b915061140083610df1565b9250828203905081811115611418576114176113be565b5b92915050565b5f61142882610df1565b915061143383610df1565b925082820190508082111561144b5761144a6113be565b5b92915050565b5f6060820190506114645f83018661129e565b611471602083018561129e565b61147e6040830184610dfa565b949350505050565b5f81519050919050565b8281835e5f83830152505050565b5f6114a882611486565b6114b28185611346565b93506114c2818560208601611490565b6114cb81610fd3565b840191505092915050565b5f610100820190506114ea5f83018b61129e565b81810360208301526114fc818a61149e565b905061150b6040830189610dfa565b818103606083015261151d818861149e565b905061152c608083018761129e565b61153960a0830186610dfa565b61154660c0830185611276565b61155360e083018461129e565b9998505050505050505050565b7f73616c6573456e6420697320696e76616c6964000000000000000000000000005f82015250565b5f611594601383611346565b915061159f82611560565b602082019050919050565b5f6020820190508181035f8301526115c181611588565b9050919050565b7f7469636b657450726963653e3d53414c455f46454500000000000000000000005f82015250565b5f6115fc601583611346565b9150611607826115c8565b602082019050919050565b5f6020820190508181035f830152611629816115f0565b905091905056fe60e060405234801561000f575f5ffd5b50604051612cbe380380612cbe83398181016040528101906100319190610499565b87876040518060400160405280600381526020017f4d544b0000000000000000000000000000000000000000000000000000000000815250815f90816100779190610789565b5080600190816100879190610789565b5050505f73ffffffffffffffffffffffffffffffffffffffff168173ffffffffffffffffffffffffffffffffffffffff16036100fa575f6040517f1e4fbdf70000000000000000000000000000000000000000000000000000000081526004016100f19190610867565b60405180910390fd5b610109816101c760201b60201c565b50856080818152505084600990816101219190610789565b508373ffffffffffffffffffffffffffffffffffffffff1660a08173ffffffffffffffffffffffffffffffffffffffff1681525050600160078190555082600a8190555081151560c08115158152505060c051156101ba578060085f6101000a81548173ffffffffffffffffffffffffffffffffffffffff021916908373ffffffffffffffffffffffffffffffffffffffff1602179055505b5050505050505050610880565b5f60065f9054906101000a900473ffffffffffffffffffffffffffffffffffffffff1690508160065f6101000a81548173ffffffffffffffffffffffffffffffffffffffff021916908373ffffffffffffffffffffffffffffffffffffffff1602179055508173ffffffffffffffffffffffffffffffffffffffff168173ffffffffffffffffffffffffffffffffffffffff167f8be0079c531659141344cd1fd0a4f28419497f9722a3daafe3b4186f6b6457e060405160405180910390a35050565b5f604051905090565b5f5ffd5b5f5ffd5b5f73ffffffffffffffffffffffffffffffffffffffff82169050919050565b5f6102c48261029b565b9050919050565b6102d4816102ba565b81146102de575f5ffd5b50565b5f815190506102ef816102cb565b92915050565b5f5ffd5b5f5ffd5b5f601f19601f8301169050919050565b7f4e487b71000000000000000000000000000000000000000000000000000000005f52604160045260245ffd5b610343826102fd565b810181811067ffffffffffffffff821117156103625761036161030d565b5b80604052505050565b5f61037461028a565b9050610380828261033a565b919050565b5f67ffffffffffffffff82111561039f5761039e61030d565b5b6103a8826102fd565b9050602081019050919050565b8281835e5f83830152505050565b5f6103d56103d084610385565b61036b565b9050828152602081018484840111156103f1576103f06102f9565b5b6103fc8482856103b5565b509392505050565b5f82601f830112610418576104176102f5565b5b81516104288482602086016103c3565b91505092915050565b5f819050919050565b61044381610431565b811461044d575f5ffd5b50565b5f8151905061045e8161043a565b92915050565b5f8115159050919050565b61047881610464565b8114610482575f5ffd5b50565b5f815190506104938161046f565b92915050565b5f5f5f5f5f5f5f5f610100898b0312156104b6576104b5610293565b5b5f6104c38b828c016102e1565b985050602089015167ffffffffffffffff8111156104e4576104e3610297565b5b6104f08b828c01610404565b97505060406105018b828c01610450565b965050606089015167ffffffffffffffff81111561052257610521610297565b5b61052e8b828c01610404565b955050608061053f8b828c016102e1565b94505060a06105508b828c01610450565b93505060c06105618b828c01610485565b92505060e06105728b828c016102e1565b9150509295985092959890939650565b5f81519050919050565b7f4e487b71000000000000000000000000000000000000000000000000000000005f52602260045260245ffd5b5f60028204905060018216806105d057607f821691505b6020821081036105e3576105e261058c565b5b50919050565b5f819050815f5260205f209050919050565b5f6020601f8301049050919050565b5f82821b905092915050565b5f600883026106457fffffffffffffffffffffffffffffffffffffffffffffffffffffffffffffffff8261060a565b61064f868361060a565b95508019841693508086168417925050509392505050565b5f819050919050565b5f61068a61068561068084610431565b610667565b610431565b9050919050565b5f819050919050565b6106a383610670565b6106b76106af82610691565b848454610616565b825550505050565b5f5f905090565b6106ce6106bf565b6106d981848461069a565b505050565b5b818110156106fc576106f15f826106c6565b6001810190506106df565b5050565b601f82111561074157610712816105e9565b61071b846105fb565b8101602085101561072a578190505b61073e610736856105fb565b8301826106de565b50505b505050565b5f82821c905092915050565b5f6107615f1984600802610746565b1980831691505092915050565b5f6107798383610752565b9150826002028217905092915050565b61079282610582565b67ffffffffffffffff8111156107ab576107aa61030d565b5b6107b582546105b9565b6107c0828285610700565b5f60209050601f8311600181146107f1575f84156107df578287015190505b6107e9858261076e565b865550610850565b601f1984166107ff866105e9565b5f5b8281101561082657848901518255600182019150602085019450602081019050610801565b86831015610843578489015161083f601f891682610752565b8355505b6001600288020188555050505b505050505050565b610861816102ba565b82525050565b5f60208201905061087a5f830184610858565b92915050565b60805160a05160c05161240d6108b15f395f8181610bbc0152610d2201525f61082801525f6106ed015261240d5ff3fe608060405234801561000f575f5ffd5b506004361061014b575f3560e01c806370a08231116100c1578063b7d072801161007a578063b7d0728014610377578063b88d4fde14610395578063c87b56dd146103b1578063e985e9c5146103e1578063f2fde38b14610411578063f615cb5a1461042d5761014b565b806370a08231146102c7578063715018a6146102f757806386a29081146103015780638da5cb5b1461031f57806395d89b411461033d578063a22cb4651461035b5761014b565b8063323046b111610113578063323046b11461020557806340d097c31461022357806342842e0e1461023f578063516f279e1461025b57806361203265146102795780636352211e146102975761014b565b806301ffc9a71461014f57806306fdde031461017f578063081812fc1461019d578063095ea7b3146101cd57806323b872dd146101e9575b5f5ffd5b61016960048036038101906101649190611bdc565b61044b565b6040516101769190611c21565b60405180910390f35b61018761052c565b6040516101949190611caa565b60405180910390f35b6101b760048036038101906101b29190611cfd565b6105bb565b6040516101c49190611d67565b60405180910390f35b6101e760048036038101906101e29190611daa565b6105d6565b005b61020360048036038101906101fe9190611de8565b6105ec565b005b61020d6106eb565b60405161021a9190611e47565b60405180910390f35b61023d60048036038101906102389190611e60565b61070f565b005b61025960048036038101906102549190611de8565b61077b565b005b61026361079a565b6040516102709190611caa565b60405180910390f35b610281610826565b60405161028e9190611d67565b60405180910390f35b6102b160048036038101906102ac9190611cfd565b61084a565b6040516102be9190611d67565b60405180910390f35b6102e160048036038101906102dc9190611e60565b61085b565b6040516102ee9190611e47565b60405180910390f35b6102ff610911565b005b610309610924565b6040516103169190611d67565b60405180910390f35b610327610949565b6040516103349190611d67565b60405180910390f35b610345610971565b6040516103529190611caa565b60405180910390f35b61037560048036038101906103709190611eb5565b610a01565b005b61037f610a17565b60405161038c9190611e47565b60405180910390f35b6103af60048036038101906103aa919061201f565b610a1d565b005b6103cb60048036038101906103c69190611cfd565b610a42565b6040516103d89190611caa565b60405180910390f35b6103fb60048036038101906103f6919061209f565b610aa8565b6040516104089190611c21565b60405180910390f35b61042b60048036038101906104269190611e60565b610b36565b005b610435610bba565b6040516104429190611c21565b60405180910390f35b5f7f80ac58cd000000000000000000000000000000000000000000000000000000007bffffffffffffffffffffffffffffffffffffffffffffffffffffffff1916827bffffffffffffffffffffffffffffffffffffffffffffffffffffffff1916148061051557507f5b5e139f000000000000000000000000000000000000000000000000000000007bffffffffffffffffffffffffffffffffffffffffffffffffffffffff1916827bffffffffffffffffffffffffffffffffffffffffffffffffffffffff1916145b80610525575061052482610bde565b5b9050919050565b60605f805461053a9061210a565b80601f01602080910402602001604051908101604052809291908181526020018280546105669061210a565b80156105b15780601f10610588576101008083540402835291602001916105b1565b820191905f5260205f20905b81548152906001019060200180831161059457829003601f168201915b5050505050905090565b5f6105c582610c47565b506105cf82610ccd565b9050919050565b6105e882826105e3610d06565b610d0d565b5050565b5f73ffffffffffffffffffffffffffffffffffffffff168273ffffffffffffffffffffffffffffffffffffffff160361065c575f6040517f64a0ae920000000000000000000000000000000000000000000000000000000081526004016106539190611d67565b60405180910390fd5b5f61066f838361066a610d06565b610d1f565b90508373ffffffffffffffffffffffffffffffffffffffff168173ffffffffffffffffffffffffffffffffffffffff16146106e5578382826040517f64283d7b0000000000000000000000000000000000000000000000000000000081526004016106dc9392919061213a565b60405180910390fd5b50505050565b7f000000000000000000000000000000000000000000000000000000000000000081565b610717610e2d565b600a5460075403610754576040517ff04cbd4a00000000000000000000000000000000000000000000000000000000815260040160405180910390fd5b5f60075f8154809291906107679061219c565b9190505590506107778282610eb4565b5050565b61079583838360405180602001604052805f815250610a1d565b505050565b600980546107a79061210a565b80601f01602080910402602001604051908101604052809291908181526020018280546107d39061210a565b801561081e5780601f106107f55761010080835404028352916020019161081e565b820191905f5260205f20905b81548152906001019060200180831161080157829003601f168201915b505050505081565b7f000000000000000000000000000000000000000000000000000000000000000081565b5f61085482610c47565b9050919050565b5f5f73ffffffffffffffffffffffffffffffffffffffff168273ffffffffffffffffffffffffffffffffffffffff16036108cc575f6040517f89c62b640000000000000000000000000000000000000000000000000000000081526004016108c39190611d67565b60405180910390fd5b60035f8373ffffffffffffffffffffffffffffffffffffffff1673ffffffffffffffffffffffffffffffffffffffff1681526020019081526020015f20549050919050565b610919610e2d565b6109225f610ed1565b565b60085f9054906101000a900473ffffffffffffffffffffffffffffffffffffffff1681565b5f60065f9054906101000a900473ffffffffffffffffffffffffffffffffffffffff16905090565b6060600180546109809061210a565b80601f01602080910402602001604051908101604052809291908181526020018280546109ac9061210a565b80156109f75780601f106109ce576101008083540402835291602001916109f7565b820191905f5260205f20905b8154815290600101906020018083116109da57829003601f168201915b5050505050905090565b610a13610a0c610d06565b8383610f94565b5050565b600a5481565b610a288484846105ec565b610a3c610a33610d06565b858585856110fd565b50505050565b6060610a4d82610c47565b505f610a576112a9565b90505f815111610a755760405180602001604052805f815250610aa0565b80610a7f846112bf565b604051602001610a9092919061221d565b6040516020818303038152906040525b915050919050565b5f60055f8473ffffffffffffffffffffffffffffffffffffffff1673ffffffffffffffffffffffffffffffffffffffff1681526020019081526020015f205f8373ffffffffffffffffffffffffffffffffffffffff1673ffffffffffffffffffffffffffffffffffffffff1681526020019081526020015f205f9054906101000a900460ff16905092915050565b610b3e610e2d565b5f73ffffffffffffffffffffffffffffffffffffffff168173ffffffffffffffffffffffffffffffffffffffff1603610bae575f6040517f1e4fbdf7000000000000000000000000000000000000000000000000000000008152600401610ba59190611d67565b60405180910390fd5b610bb781610ed1565b50565b7f000000000000000000000000000000000000000000000000000000000000000081565b5f7f01ffc9a7000000000000000000000000000000000000000000000000000000007bffffffffffffffffffffffffffffffffffffffffffffffffffffffff1916827bffffffffffffffffffffffffffffffffffffffffffffffffffffffff1916149050919050565b5f5f610c5283611389565b90505f73ffffffffffffffffffffffffffffffffffffffff168173ffffffffffffffffffffffffffffffffffffffff1603610cc457826040517f7e273289000000000000000000000000000000000000000000000000000000008152600401610cbb9190611e47565b60405180910390fd5b80915050919050565b5f60045f8381526020019081526020015f205f9054906101000a900473ffffffffffffffffffffffffffffffffffffffff169050919050565b5f33905090565b610d1a83838360016113c2565b505050565b5f7f00000000000000000000000000000000000000000000000000000000000000008015610d805750610d50610949565b73ffffffffffffffffffffffffffffffffffffffff163373ffffffffffffffffffffffffffffffffffffffff1614155b8015610dd9575060085f9054906101000a900473ffffffffffffffffffffffffffffffffffffffff1673ffffffffffffffffffffffffffffffffffffffff168473ffffffffffffffffffffffffffffffffffffffff1614155b15610e19576040517f08c379a0000000000000000000000000000000000000000000000000000000008152600401610e109061228a565b60405180910390fd5b610e24848484611581565b90509392505050565b610e35610d06565b73ffffffffffffffffffffffffffffffffffffffff16610e53610949565b73ffffffffffffffffffffffffffffffffffffffff1614610eb257610e76610d06565b6040517f118cdaa7000000000000000000000000000000000000000000000000000000008152600401610ea99190611d67565b60405180910390fd5b565b610ecd828260405180602001604052805f81525061178c565b5050565b5f60065f9054906101000a900473ffffffffffffffffffffffffffffffffffffffff1690508160065f6101000a81548173ffffffffffffffffffffffffffffffffffffffff021916908373ffffffffffffffffffffffffffffffffffffffff1602179055508173ffffffffffffffffffffffffffffffffffffffff168173ffffffffffffffffffffffffffffffffffffffff167f8be0079c531659141344cd1fd0a4f28419497f9722a3daafe3b4186f6b6457e060405160405180910390a35050565b5f73ffffffffffffffffffffffffffffffffffffffff168273ffffffffffffffffffffffffffffffffffffffff160361100457816040517f5b08ba18000000000000000000000000000000000000000000000000000000008152600401610ffb9190611d67565b60405180910390fd5b8060055f8573ffffffffffffffffffffffffffffffffffffffff1673ffffffffffffffffffffffffffffffffffffffff1681526020019081526020015f205f8473ffffffffffffffffffffffffffffffffffffffff1673ffffffffffffffffffffffffffffffffffffffff1681526020019081526020015f205f6101000a81548160ff0219169083151502179055508173ffffffffffffffffffffffffffffffffffffffff168373ffffffffffffffffffffffffffffffffffffffff167f17307eab39ab6107e8899845ad3d59bd9653f200f220920489ca2b5937696c31836040516110f09190611c21565b60405180910390a3505050565b5f8373ffffffffffffffffffffffffffffffffffffffff163b11156112a2578273ffffffffffffffffffffffffffffffffffffffff1663150b7a02868685856040518563ffffffff1660e01b815260040161115b94939291906122fa565b6020604051808303815f875af192505050801561119657506040513d601f19601f820116820180604052508101906111939190612358565b60015b611217573d805f81146111c4576040519150601f19603f3d011682016040523d82523d5f602084013e6111c9565b606091505b505f81510361120f57836040517f64a0ae920000000000000000000000000000000000000000000000000000000081526004016112069190611d67565b60405180910390fd5b805181602001fd5b63150b7a0260e01b7bffffffffffffffffffffffffffffffffffffffffffffffffffffffff1916817bffffffffffffffffffffffffffffffffffffffffffffffffffffffff1916146112a057836040517f64a0ae920000000000000000000000000000000000000000000000000000000081526004016112979190611d67565b60405180910390fd5b505b5050505050565b606060405180602001604052805f815250905090565b60605f60016112cd846117af565b0190505f8167ffffffffffffffff8111156112eb576112ea611efb565b5b6040519080825280601f01601f19166020018201604052801561131d5781602001600182028036833780820191505090505b5090505f82602001820190505b60011561137e578080600190039150507f3031323334353637383961626364656600000000000000000000000000000000600a86061a8153600a858161137357611372612383565b5b0494505f850361132a575b819350505050919050565b5f60025f8381526020019081526020015f205f9054906101000a900473ffffffffffffffffffffffffffffffffffffffff169050919050565b80806113fa57505f73ffffffffffffffffffffffffffffffffffffffff168273ffffffffffffffffffffffffffffffffffffffff1614155b1561152c575f61140984610c47565b90505f73ffffffffffffffffffffffffffffffffffffffff168373ffffffffffffffffffffffffffffffffffffffff161415801561147357508273ffffffffffffffffffffffffffffffffffffffff168173ffffffffffffffffffffffffffffffffffffffff1614155b801561148657506114848184610aa8565b155b156114c857826040517fa9fbf51f0000000000000000000000000000000000000000000000000000000081526004016114bf9190611d67565b60405180910390fd5b811561152a57838573ffffffffffffffffffffffffffffffffffffffff168273ffffffffffffffffffffffffffffffffffffffff167f8c5be1e5ebec7d5bd14f71427d1e84f3dd0314c0f7b2291e5b200ac8c7c3b92560405160405180910390a45b505b8360045f8581526020019081526020015f205f6101000a81548173ffffffffffffffffffffffffffffffffffffffff021916908373ffffffffffffffffffffffffffffffffffffffff16021790555050505050565b5f5f61158c84611389565b90505f73ffffffffffffffffffffffffffffffffffffffff168373ffffffffffffffffffffffffffffffffffffffff16146115cd576115cc818486611900565b5b5f73ffffffffffffffffffffffffffffffffffffffff168173ffffffffffffffffffffffffffffffffffffffff16146116585761160c5f855f5f6113c2565b600160035f8373ffffffffffffffffffffffffffffffffffffffff1673ffffffffffffffffffffffffffffffffffffffff1681526020019081526020015f205f82825403925050819055505b5f73ffffffffffffffffffffffffffffffffffffffff168573ffffffffffffffffffffffffffffffffffffffff16146116d757600160035f8773ffffffffffffffffffffffffffffffffffffffff1673ffffffffffffffffffffffffffffffffffffffff1681526020019081526020015f205f82825401925050819055505b8460025f8681526020019081526020015f205f6101000a81548173ffffffffffffffffffffffffffffffffffffffff021916908373ffffffffffffffffffffffffffffffffffffffff160217905550838573ffffffffffffffffffffffffffffffffffffffff168273ffffffffffffffffffffffffffffffffffffffff167fddf252ad1be2c89b69c2b068fc378daa952ba7f163c4a11628f55a4df523b3ef60405160405180910390a4809150509392505050565b61179683836119c3565b6117aa6117a1610d06565b5f8585856110fd565b505050565b5f5f5f90507a184f03e93ff9f4daa797ed6e38ed64bf6a1f010000000000000000831061180b577a184f03e93ff9f4daa797ed6e38ed64bf6a1f010000000000000000838161180157611800612383565b5b0492506040810190505b6d04ee2d6d415b85acef81000000008310611848576d04ee2d6d415b85acef8100000000838161183e5761183d612383565b5b0492506020810190505b662386f26fc10000831061187757662386f26fc10000838161186d5761186c612383565b5b0492506010810190505b6305f5e10083106118a0576305f5e100838161189657611895612383565b5b0492506008810190505b61271083106118c55761271083816118bb576118ba612383565b5b0492506004810190505b606483106118e857606483816118de576118dd612383565b5b0492506002810190505b600a83106118f7576001810190505b80915050919050565b61190b838383611ab6565b6119be575f73ffffffffffffffffffffffffffffffffffffffff168373ffffffffffffffffffffffffffffffffffffffff160361197f57806040517f7e2732890000000000000000000000000000000000000000000000000000000081526004016119769190611e47565b60405180910390fd5b81816040517f177e802f0000000000000000000000000000000000000000000000000000000081526004016119b59291906123b0565b60405180910390fd5b505050565b5f73ffffffffffffffffffffffffffffffffffffffff168273ffffffffffffffffffffffffffffffffffffffff1603611a33575f6040517f64a0ae92000000000000000000000000000000000000000000000000000000008152600401611a2a9190611d67565b60405180910390fd5b5f611a3f83835f610d1f565b90505f73ffffffffffffffffffffffffffffffffffffffff168173ffffffffffffffffffffffffffffffffffffffff1614611ab1575f6040517f73c6ac6e000000000000000000000000000000000000000000000000000000008152600401611aa89190611d67565b60405180910390fd5b505050565b5f5f73ffffffffffffffffffffffffffffffffffffffff168373ffffffffffffffffffffffffffffffffffffffff1614158015611b6d57508273ffffffffffffffffffffffffffffffffffffffff168473ffffffffffffffffffffffffffffffffffffffff161480611b2e5750611b2d8484610aa8565b5b80611b6c57508273ffffffffffffffffffffffffffffffffffffffff16611b5483610ccd565b73ffffffffffffffffffffffffffffffffffffffff16145b5b90509392505050565b5f604051905090565b5f5ffd5b5f5ffd5b5f7fffffffff0000000000000000000000000000000000000000000000000000000082169050919050565b611bbb81611b87565b8114611bc5575f5ffd5b50565b5f81359050611bd681611bb2565b92915050565b5f60208284031215611bf157611bf0611b7f565b5b5f611bfe84828501611bc8565b91505092915050565b5f8115159050919050565b611c1b81611c07565b82525050565b5f602082019050611c345f830184611c12565b92915050565b5f81519050919050565b5f82825260208201905092915050565b8281835e5f83830152505050565b5f601f19601f8301169050919050565b5f611c7c82611c3a565b611c868185611c44565b9350611c96818560208601611c54565b611c9f81611c62565b840191505092915050565b5f6020820190508181035f830152611cc28184611c72565b905092915050565b5f819050919050565b611cdc81611cca565b8114611ce6575f5ffd5b50565b5f81359050611cf781611cd3565b92915050565b5f60208284031215611d1257611d11611b7f565b5b5f611d1f84828501611ce9565b91505092915050565b5f73ffffffffffffffffffffffffffffffffffffffff82169050919050565b5f611d5182611d28565b9050919050565b611d6181611d47565b82525050565b5f602082019050611d7a5f830184611d58565b92915050565b611d8981611d47565b8114611d93575f5ffd5b50565b5f81359050611da481611d80565b92915050565b5f5f60408385031215611dc057611dbf611b7f565b5b5f611dcd85828601611d96565b9250506020611dde85828601611ce9565b9150509250929050565b5f5f5f60608486031215611dff57611dfe611b7f565b5b5f611e0c86828701611d96565b9350506020611e1d86828701611d96565b9250506040611e2e86828701611ce9565b9150509250925092565b611e4181611cca565b82525050565b5f602082019050611e5a5f830184611e38565b92915050565b5f60208284031215611e7557611e74611b7f565b5b5f611e8284828501611d96565b91505092915050565b611e9481611c07565b8114611e9e575f5ffd5b50565b5f81359050611eaf81611e8b565b92915050565b5f5f60408385031215611ecb57611eca611b7f565b5b5f611ed885828601611d96565b9250506020611ee985828601611ea1565b9150509250929050565b5f5ffd5b5f5ffd5b7f4e487b71000000000000000000000000000000000000000000000000000000005f52604160045260245ffd5b611f3182611c62565b810181811067ffffffffffffffff82111715611f5057611f4f611efb565b5b80604052505050565b5f611f62611b76565b9050611f6e8282611f28565b919050565b5f67ffffffffffffffff821115611f8d57611f8c611efb565b5b611f9682611c62565b9050602081019050919050565b828183375f83830152505050565b5f611fc3611fbe84611f73565b611f59565b905082815260208101848484011115611fdf57611fde611ef7565b5b611fea848285611fa3565b509392505050565b5f82601f83011261200657612005611ef3565b5b8135612016848260208601611fb1565b91505092915050565b5f5f5f5f6080858703121561203757612036611b7f565b5b5f61204487828801611d96565b945050602061205587828801611d96565b935050604061206687828801611ce9565b925050606085013567ffffffffffffffff81111561208757612086611b83565b5b61209387828801611ff2565b91505092959194509250565b5f5f604083850312156120b5576120b4611b7f565b5b5f6120c285828601611d96565b92505060206120d385828601611d96565b9150509250929050565b7f4e487b71000000000000000000000000000000000000000000000000000000005f52602260045260245ffd5b5f600282049050600182168061212157607f821691505b602082108103612134576121336120dd565b5b50919050565b5f60608201905061214d5f830186611d58565b61215a6020830185611e38565b6121676040830184611d58565b949350505050565b7f4e487b71000000000000000000000000000000000000000000000000000000005f52601160045260245ffd5b5f6121a682611cca565b91507fffffffffffffffffffffffffffffffffffffffffffffffffffffffffffffffff82036121d8576121d761216f565b5b600182019050919050565b5f81905092915050565b5f6121f782611c3a565b61220181856121e3565b9350612211818560208601611c54565b80840191505092915050565b5f61222882856121ed565b915061223482846121ed565b91508190509392505050565b7f496e76616c6964207472616e73666572202870726963652063617000000000005f82015250565b5f612274601b83611c44565b915061227f82612240565b602082019050919050565b5f6020820190508181035f8301526122a181612268565b9050919050565b5f81519050919050565b5f82825260208201905092915050565b5f6122cc826122a8565b6122d681856122b2565b93506122e6818560208601611c54565b6122ef81611c62565b840191505092915050565b5f60808201905061230d5f830187611d58565b61231a6020830186611d58565b6123276040830185611e38565b818103606083015261233981846122c2565b905095945050505050565b5f8151905061235281611bb2565b92915050565b5f6020828403121561236d5761236c611b7f565b5b5f61237a84828501612344565b91505092915050565b7f4e487b71000000000000000000000000000000000000000000000000000000005f52601260045260245ffd5b5f6040820190506123c35f830185611d58565b6123d06020830184611e38565b939250505056fea2646970667358221220b0b6c46bb74e903df79afa77badd16169488a6b39dda802d6ea5e17748be52f764736f6c634300081c0033a2646970667358221220abb82c5a8bec2c56f8dd6e327c732f0d89085fd0ba42affab2e6992fff70629464736f6c634300081c0033",
			"opcodes": "PUSH1 0xA0 PUSH1 0x40 MSTORE CALLVALUE DUP1 ISZERO PUSH2 0xF JUMPI PUSH0 PUSH0 REVERT JUMPDEST POP PUSH1 0x40 MLOAD PUSH2 0x443E CODESIZE SUB DUP1 PUSH2 0x443E DUP4 CODECOPY DUP2 DUP2 ADD PUSH1 0x40 MSTORE DUP2 ADD SWAP1 PUSH2 0x31 SWAP2 SWAP1 PUSH2 0xC9 JUMP JUMPDEST DUP1 PUSH20 0xFFFFFFFFFFFFFFFFFFFFFFFFFFFFFFFFFFFFFFFF AND PUSH1 0x80 DUP2 PUSH20 0xFFFFFFFFFFFFFFFFFFFFFFFFFFFFFFFFFFFFFFFF AND DUP2 MSTORE POP POP POP PUSH2 0xF4 JUMP JUMPDEST PUSH0 PUSH0 REVERT JUMPDEST PUSH0 PUSH20 0xFFFFFFFFFFFFFFFFFFFFFFFFFFFFFFFFFFFFFFFF DUP3 AND SWAP1 POP SWAP2 SWAP1 POP JUMP JUMPDEST PUSH0 PUSH2 0x98 DUP3 PUSH2 0x6F JUMP JUMPDEST SWAP1 POP SWAP2 SWAP1 POP JUMP JUMPDEST PUSH2 0xA8 DUP2 PUSH2 0x8E JUMP JUMPDEST DUP2 EQ PUSH2 0xB2 JUMPI PUSH0 PUSH0 REVERT JUMPDEST POP JUMP JUMPDEST PUSH0 DUP2 MLOAD SWAP1 POP PUSH2 0xC3 DUP2 PUSH2 0x9F JUMP JUMPDEST SWAP3 SWAP2 POP POP JUMP JUMPDEST PUSH0 PUSH1 0x20 DUP3 DUP5 SUB SLT ISZERO PUSH2 0xDE JUMPI PUSH2 0xDD PUSH2 0x6B JUMP JUMPDEST JUMPDEST PUSH0 PUSH2 0xEB DUP5 DUP3 DUP6 ADD PUSH2 0xB5 JUMP JUMPDEST SWAP2 POP POP SWAP3 SWAP2 POP POP JUMP JUMPDEST PUSH1 0x80 MLOAD PUSH2 0x4324 PUSH2 0x11A PUSH0 CODECOPY PUSH0 DUP2 DUP2 PUSH2 0x6C6 ADD MSTORE DUP2 DUP2 PUSH2 0xA78 ADD MSTORE PUSH2 0xB50 ADD MSTORE PUSH2 0x4324 PUSH0 RETURN INVALID PUSH1 0x80 PUSH1 0x40 MSTORE PUSH1 0x4 CALLDATASIZE LT PUSH2 0x9B JUMPI PUSH0 CALLDATALOAD PUSH1 0xE0 SHR DUP1 PUSH4 0x808AF973 GT PUSH2 0x63 JUMPI DUP1 PUSH4 0x808AF973 EQ PUSH2 0x167 JUMPI DUP1 PUSH4 0x85979615 EQ PUSH2 0x191 JUMPI DUP1 PUSH4 0x98BA7E67 EQ PUSH2 0x1B9 JUMPI DUP1 PUSH4 0xA5F8CDBB EQ PUSH2 0x1F5 JUMPI DUP1 PUSH4 0xC415B95C EQ PUSH2 0x211 JUMPI DUP1 PUSH4 0xCC85F080 EQ PUSH2 0x23B JUMPI PUSH2 0x9B JUMP JUMPDEST DUP1 PUSH4 0x24E26241 EQ PUSH2 0x9F JUMPI DUP1 PUSH4 0x3194BFE1 EQ PUSH2 0xBB JUMPI DUP1 PUSH4 0x4BD95581 EQ PUSH2 0xF9 JUMPI DUP1 PUSH4 0x729EAA66 EQ PUSH2 0x121 JUMPI DUP1 PUSH4 0x737DF592 EQ PUSH2 0x14B JUMPI JUMPDEST PUSH0 PUSH0 REVERT JUMPDEST PUSH2 0xB9 PUSH1 0x4 DUP1 CALLDATASIZE SUB DUP2 ADD SWAP1 PUSH2 0xB4 SWAP2 SWAP1 PUSH2 0xDC6 JUMP JUMPDEST PUSH2 0x277 JUMP JUMPDEST STOP JUMPDEST CALLVALUE DUP1 ISZERO PUSH2 0xC6 JUMPI PUSH0 PUSH0 REVERT JUMPDEST POP PUSH2 0xE1 PUSH1 0x4 DUP1 CALLDATASIZE SUB DUP2 ADD SWAP1 PUSH2 0xDC SWAP2 SWAP1 PUSH2 0xDC6 JUMP JUMPDEST PUSH2 0x39E JUMP JUMPDEST PUSH1 0x40 MLOAD PUSH2 0xF0 SWAP4 SWAP3 SWAP2 SWAP1 PUSH2 0xE7C JUMP JUMPDEST PUSH1 0x40 MLOAD DUP1 SWAP2 SUB SWAP1 RETURN JUMPDEST CALLVALUE DUP1 ISZERO PUSH2 0x104 JUMPI PUSH0 PUSH0 REVERT JUMPDEST POP PUSH2 0x11F PUSH1 0x4 DUP1 CALLDATASIZE SUB DUP2 ADD SWAP1 PUSH2 0x11A SWAP2 SWAP1 PUSH2 0xEFE JUMP JUMPDEST PUSH2 0x3CF JUMP JUMPDEST STOP JUMPDEST CALLVALUE DUP1 ISZERO PUSH2 0x12C JUMPI PUSH0 PUSH0 REVERT JUMPDEST POP PUSH2 0x135 PUSH2 0x4B2 JUMP JUMPDEST PUSH1 0x40 MLOAD PUSH2 0x142 SWAP2 SWAP1 PUSH2 0xF62 JUMP JUMPDEST PUSH1 0x40 MLOAD DUP1 SWAP2 SUB SWAP1 RETURN JUMPDEST PUSH2 0x165 PUSH1 0x4 DUP1 CALLDATASIZE SUB DUP2 ADD SWAP1 PUSH2 0x160 SWAP2 SWAP1 PUSH2 0xF7B JUMP JUMPDEST PUSH2 0x4BE JUMP JUMPDEST STOP JUMPDEST CALLVALUE DUP1 ISZERO PUSH2 0x172 JUMPI PUSH0 PUSH0 REVERT JUMPDEST POP PUSH2 0x17B PUSH2 0x7A2 JUMP JUMPDEST PUSH1 0x40 MLOAD PUSH2 0x188 SWAP2 SWAP1 PUSH2 0xF62 JUMP JUMPDEST PUSH1 0x40 MLOAD DUP1 SWAP2 SUB SWAP1 RETURN JUMPDEST CALLVALUE DUP1 ISZERO PUSH2 0x19C JUMPI PUSH0 PUSH0 REVERT JUMPDEST POP PUSH2 0x1B7 PUSH1 0x4 DUP1 CALLDATASIZE SUB DUP2 ADD SWAP1 PUSH2 0x1B2 SWAP2 SWAP1 PUSH2 0x113C JUMP JUMPDEST PUSH2 0x7A9 JUMP JUMPDEST STOP JUMPDEST CALLVALUE DUP1 ISZERO PUSH2 0x1C4 JUMPI PUSH0 PUSH0 REVERT JUMPDEST POP PUSH2 0x1DF PUSH1 0x4 DUP1 CALLDATASIZE SUB DUP2 ADD SWAP1 PUSH2 0x1DA SWAP2 SWAP1 PUSH2 0x1238 JUMP JUMPDEST PUSH2 0x846 JUMP JUMPDEST PUSH1 0x40 MLOAD PUSH2 0x1EC SWAP2 SWAP1 PUSH2 0x1285 JUMP JUMPDEST PUSH1 0x40 MLOAD DUP1 SWAP2 SUB SWAP1 RETURN JUMPDEST PUSH2 0x20F PUSH1 0x4 DUP1 CALLDATASIZE SUB DUP2 ADD SWAP1 PUSH2 0x20A SWAP2 SWAP1 PUSH2 0xDC6 JUMP JUMPDEST PUSH2 0x870 JUMP JUMPDEST STOP JUMPDEST CALLVALUE DUP1 ISZERO PUSH2 0x21C JUMPI PUSH0 PUSH0 REVERT JUMPDEST POP PUSH2 0x225 PUSH2 0xB4E JUMP JUMPDEST PUSH1 0x40 MLOAD PUSH2 0x232 SWAP2 SWAP1 PUSH2 0x12AD JUMP JUMPDEST PUSH1 0x40 MLOAD DUP1 SWAP2 SUB SWAP1 RETURN JUMPDEST CALLVALUE DUP1 ISZERO PUSH2 0x246 JUMPI PUSH0 PUSH0 REVERT JUMPDEST POP PUSH2 0x261 PUSH1 0x4 DUP1 CALLDATASIZE SUB DUP2 ADD SWAP1 PUSH2 0x25C SWAP2 SWAP1 PUSH2 0xDC6 JUMP JUMPDEST PUSH2 0xB72 JUMP JUMPDEST PUSH1 0x40 MLOAD PUSH2 0x26E SWAP2 SWAP1 PUSH2 0xF62 JUMP JUMPDEST PUSH1 0x40 MLOAD DUP1 SWAP2 SUB SWAP1 RETURN JUMPDEST PUSH0 PUSH1 0x1 PUSH0 CALLER PUSH20 0xFFFFFFFFFFFFFFFFFFFFFFFFFFFFFFFFFFFFFFFF AND PUSH20 0xFFFFFFFFFFFFFFFFFFFFFFFFFFFFFFFFFFFFFFFF AND DUP2 MSTORE PUSH1 0x20 ADD SWAP1 DUP2 MSTORE PUSH1 0x20 ADD PUSH0 KECCAK256 SLOAD SWAP1 POP PUSH0 PUSH1 0x1 PUSH0 CALLER PUSH20 0xFFFFFFFFFFFFFFFFFFFFFFFFFFFFFFFFFFFFFFFF AND PUSH20 0xFFFFFFFFFFFFFFFFFFFFFFFFFFFFFFFFFFFFFFFF AND DUP2 MSTORE PUSH1 0x20 ADD SWAP1 DUP2 MSTORE PUSH1 0x20 ADD PUSH0 KECCAK256 DUP2 SWAP1 SSTORE POP PUSH0 DUP3 PUSH20 0xFFFFFFFFFFFFFFFFFFFFFFFFFFFFFFFFFFFFFFFF AND DUP3 PUSH1 0x40 MLOAD PUSH2 0x31F SWAP1 PUSH2 0x12F3 JUMP JUMPDEST PUSH0 PUSH1 0x40 MLOAD DUP1 DUP4 SUB DUP2 DUP6 DUP8 GAS CALL SWAP3 POP POP POP RETURNDATASIZE DUP1 PUSH0 DUP2 EQ PUSH2 0x359 JUMPI PUSH1 0x40 MLOAD SWAP2 POP PUSH1 0x1F NOT PUSH1 0x3F RETURNDATASIZE ADD AND DUP3 ADD PUSH1 0x40 MSTORE RETURNDATASIZE DUP3 MSTORE RETURNDATASIZE PUSH0 PUSH1 0x20 DUP5 ADD RETURNDATACOPY PUSH2 0x35E JUMP JUMPDEST PUSH1 0x60 SWAP2 POP JUMPDEST POP POP SWAP1 POP DUP1 PUSH2 0x399 JUMPI PUSH1 0x40 MLOAD PUSH32 0x4C22002500000000000000000000000000000000000000000000000000000000 DUP2 MSTORE PUSH1 0x4 ADD PUSH1 0x40 MLOAD DUP1 SWAP2 SUB SWAP1 REVERT JUMPDEST POP POP POP JUMP JUMPDEST PUSH0 PUSH1 0x20 MSTORE DUP1 PUSH0 MSTORE PUSH1 0x40 PUSH0 KECCAK256 PUSH0 SWAP2 POP SWAP1 POP DUP1 PUSH0 ADD SLOAD SWAP1 DUP1 PUSH1 0x1 ADD PUSH0 SWAP1 SLOAD SWAP1 PUSH2 0x100 EXP SWAP1 DIV PUSH1 0xFF AND SWAP1 DUP1 PUSH1 0x2 ADD SLOAD SWAP1 POP DUP4 JUMP JUMPDEST DUP4 PUSH20 0xFFFFFFFFFFFFFFFFFFFFFFFFFFFFFFFFFFFFFFFF AND PUSH4 0x61203265 PUSH1 0x40 MLOAD DUP2 PUSH4 0xFFFFFFFF AND PUSH1 0xE0 SHL DUP2 MSTORE PUSH1 0x4 ADD PUSH1 0x20 PUSH1 0x40 MLOAD DUP1 DUP4 SUB DUP2 DUP7 GAS STATICCALL ISZERO DUP1 ISZERO PUSH2 0x418 JUMPI RETURNDATASIZE PUSH0 PUSH0 RETURNDATACOPY RETURNDATASIZE PUSH0 REVERT JUMPDEST POP POP POP POP PUSH1 0x40 MLOAD RETURNDATASIZE PUSH1 0x1F NOT PUSH1 0x1F DUP3 ADD AND DUP3 ADD DUP1 PUSH1 0x40 MSTORE POP DUP2 ADD SWAP1 PUSH2 0x43C SWAP2 SWAP1 PUSH2 0x131B JUMP JUMPDEST PUSH20 0xFFFFFFFFFFFFFFFFFFFFFFFFFFFFFFFFFFFFFFFF AND CALLER PUSH20 0xFFFFFFFFFFFFFFFFFFFFFFFFFFFFFFFFFFFFFFFF AND EQ PUSH2 0x4A0 JUMPI PUSH1 0x40 MLOAD PUSH32 0xB2AA519000000000000000000000000000000000000000000000000000000000 DUP2 MSTORE PUSH1 0x4 ADD PUSH1 0x40 MLOAD DUP1 SWAP2 SUB SWAP1 REVERT JUMPDEST PUSH2 0x4AC DUP5 DUP5 DUP5 DUP5 PUSH2 0xB87 JUMP JUMPDEST POP POP POP POP JUMP JUMPDEST PUSH8 0x16345785D8A0000 DUP2 JUMP JUMPDEST PUSH0 PUSH1 0x1 DUP2 GT ISZERO PUSH2 0x4D1 JUMPI PUSH2 0x4D0 PUSH2 0xE09 JUMP JUMPDEST JUMPDEST PUSH0 PUSH0 DUP6 PUSH20 0xFFFFFFFFFFFFFFFFFFFFFFFFFFFFFFFFFFFFFFFF AND PUSH20 0xFFFFFFFFFFFFFFFFFFFFFFFFFFFFFFFFFFFFFFFF AND DUP2 MSTORE PUSH1 0x20 ADD SWAP1 DUP2 MSTORE PUSH1 0x20 ADD PUSH0 KECCAK256 PUSH1 0x1 ADD PUSH0 SWAP1 SLOAD SWAP1 PUSH2 0x100 EXP SWAP1 DIV PUSH1 0xFF AND PUSH1 0x1 DUP2 GT ISZERO PUSH2 0x52F JUMPI PUSH2 0x52E PUSH2 0xE09 JUMP JUMPDEST JUMPDEST EQ PUSH2 0x566 JUMPI PUSH1 0x40 MLOAD PUSH32 0x62A0F12E00000000000000000000000000000000000000000000000000000000 DUP2 MSTORE PUSH1 0x4 ADD PUSH1 0x40 MLOAD DUP1 SWAP2 SUB SWAP1 REVERT JUMPDEST PUSH0 PUSH0 DUP5 PUSH20 0xFFFFFFFFFFFFFFFFFFFFFFFFFFFFFFFFFFFFFFFF AND PUSH20 0xFFFFFFFFFFFFFFFFFFFFFFFFFFFFFFFFFFFFFFFF AND DUP2 MSTORE PUSH1 0x20 ADD SWAP1 DUP2 MSTORE PUSH1 0x20 ADD PUSH0 KECCAK256 PUSH0 ADD SLOAD CALLVALUE EQ PUSH2 0x5E6 JUMPI PUSH1 0x40 MLOAD PUSH32 0xD647364F00000000000000000000000000000000000000000000000000000000 DUP2 MSTORE PUSH1 0x4 ADD PUSH2 0x5DD SWAP1 PUSH2 0x13A0 JUMP JUMPDEST PUSH1 0x40 MLOAD DUP1 SWAP2 SUB SWAP1 REVERT JUMPDEST PUSH8 0x16345785D8A0000 CALLVALUE PUSH2 0x5FA SWAP2 SWAP1 PUSH2 0x13EB JUMP JUMPDEST PUSH1 0x1 PUSH0 DUP6 PUSH20 0xFFFFFFFFFFFFFFFFFFFFFFFFFFFFFFFFFFFFFFFF AND PUSH4 0x61203265 PUSH1 0x40 MLOAD DUP2 PUSH4 0xFFFFFFFF AND PUSH1 0xE0 SHL DUP2 MSTORE PUSH1 0x4 ADD PUSH1 0x20 PUSH1 0x40 MLOAD DUP1 DUP4 SUB DUP2 DUP7 GAS STATICCALL ISZERO DUP1 ISZERO PUSH2 0x646 JUMPI RETURNDATASIZE PUSH0 PUSH0 RETURNDATACOPY RETURNDATASIZE PUSH0 REVERT JUMPDEST POP POP POP POP PUSH1 0x40 MLOAD RETURNDATASIZE PUSH1 0x1F NOT PUSH1 0x1F DUP3 ADD AND DUP3 ADD DUP1 PUSH1 0x40 MSTORE POP DUP2 ADD SWAP1 PUSH2 0x66A SWAP2 SWAP1 PUSH2 0x131B JUMP JUMPDEST PUSH20 0xFFFFFFFFFFFFFFFFFFFFFFFFFFFFFFFFFFFFFFFF AND PUSH20 0xFFFFFFFFFFFFFFFFFFFFFFFFFFFFFFFFFFFFFFFF AND DUP2 MSTORE PUSH1 0x20 ADD SWAP1 DUP2 MSTORE PUSH1 0x20 ADD PUSH0 KECCAK256 PUSH0 DUP3 DUP3 SLOAD PUSH2 0x6B1 SWAP2 SWAP1 PUSH2 0x141E JUMP JUMPDEST SWAP3 POP POP DUP2 SWAP1 SSTORE POP PUSH8 0x16345785D8A0000 PUSH1 0x1 PUSH0 PUSH32 0x0 PUSH20 0xFFFFFFFFFFFFFFFFFFFFFFFFFFFFFFFFFFFFFFFF AND PUSH20 0xFFFFFFFFFFFFFFFFFFFFFFFFFFFFFFFFFFFFFFFF AND DUP2 MSTORE PUSH1 0x20 ADD SWAP1 DUP2 MSTORE PUSH1 0x20 ADD PUSH0 KECCAK256 PUSH0 DUP3 DUP3 SLOAD PUSH2 0x72C SWAP2 SWAP1 PUSH2 0x141E JUMP JUMPDEST SWAP3 POP POP DUP2 SWAP1 SSTORE POP DUP3 PUSH20 0xFFFFFFFFFFFFFFFFFFFFFFFFFFFFFFFFFFFFFFFF AND PUSH4 0x42842E0E DUP3 CALLER DUP6 PUSH1 0x40 MLOAD DUP5 PUSH4 0xFFFFFFFF AND PUSH1 0xE0 SHL DUP2 MSTORE PUSH1 0x4 ADD PUSH2 0x770 SWAP4 SWAP3 SWAP2 SWAP1 PUSH2 0x1451 JUMP JUMPDEST PUSH0 PUSH1 0x40 MLOAD DUP1 DUP4 SUB DUP2 PUSH0 DUP8 DUP1 EXTCODESIZE ISZERO DUP1 ISZERO PUSH2 0x787 JUMPI PUSH0 PUSH0 REVERT JUMPDEST POP GAS CALL ISZERO DUP1 ISZERO PUSH2 0x799 JUMPI RETURNDATASIZE PUSH0 PUSH0 RETURNDATACOPY RETURNDATASIZE PUSH0 REVERT JUMPDEST POP POP POP POP POP POP POP JUMP JUMPDEST PUSH3 0x15180 DUP2 JUMP JUMPDEST PUSH0 ADDRESS DUP11 DUP11 DUP11 CALLER DUP9 DUP9 DUP9 PUSH1 0x40 MLOAD PUSH2 0x7BE SWAP1 PUSH2 0xD4E JUMP JUMPDEST PUSH2 0x7CF SWAP9 SWAP8 SWAP7 SWAP6 SWAP5 SWAP4 SWAP3 SWAP2 SWAP1 PUSH2 0x14D6 JUMP JUMPDEST PUSH1 0x40 MLOAD DUP1 SWAP2 SUB SWAP1 PUSH0 CREATE DUP1 ISZERO DUP1 ISZERO PUSH2 0x7E8 JUMPI RETURNDATASIZE PUSH0 PUSH0 RETURNDATACOPY RETURNDATASIZE PUSH0 REVERT JUMPDEST POP SWAP1 POP DUP1 PUSH20 0xFFFFFFFFFFFFFFFFFFFFFFFFFFFFFFFFFFFFFFFF AND PUSH32 0x227E3B2FB10EA87B3CE0FE9B23554AD992C666DD128C13C0A6EF2D73DD80BA0 PUSH1 0x40 MLOAD PUSH1 0x40 MLOAD DUP1 SWAP2 SUB SWAP1 LOG2 PUSH2 0x83A DUP2 DUP9 DUP9 DUP9 PUSH2 0xB87 JUMP JUMPDEST POP POP POP POP POP POP POP POP POP POP JUMP JUMPDEST PUSH1 0x2 PUSH1 0x20 MSTORE DUP2 PUSH0 MSTORE PUSH1 0x40 PUSH0 KECCAK256 PUSH1 0x20 MSTORE DUP1 PUSH0 MSTORE PUSH1 0x40 PUSH0 KECCAK256 PUSH0 SWAP2 POP SWAP2 POP SWAP1 SLOAD SWAP1 PUSH2 0x100 EXP SWAP1 DIV PUSH1 0xFF AND DUP2 JUMP JUMPDEST PUSH0 PUSH1 0x1 DUP2 GT ISZERO PUSH2 0x883 JUMPI PUSH2 0x882 PUSH2 0xE09 JUMP JUMPDEST JUMPDEST PUSH0 PUSH0 DUP4 PUSH20 0xFFFFFFFFFFFFFFFFFFFFFFFFFFFFFFFFFFFFFFFF AND PUSH20 0xFFFFFFFFFFFFFFFFFFFFFFFFFFFFFFFFFFFFFFFF AND DUP2 MSTORE PUSH1 0x20 ADD SWAP1 DUP2 MSTORE PUSH1 0x20 ADD PUSH0 KECCAK256 PUSH1 0x1 ADD PUSH0 SWAP1 SLOAD SWAP1 PUSH2 0x100 EXP SWAP1 DIV PUSH1 0xFF AND PUSH1 0x1 DUP2 GT ISZERO PUSH2 0x8E1 JUMPI PUSH2 0x8E0 PUSH2 0xE09 JUMP JUMPDEST JUMPDEST EQ PUSH2 0x918 JUMPI PUSH1 0x40 MLOAD PUSH32 0x62A0F12E00000000000000000000000000000000000000000000000000000000 DUP2 MSTORE PUSH1 0x4 ADD PUSH1 0x40 MLOAD DUP1 SWAP2 SUB SWAP1 REVERT JUMPDEST PUSH0 PUSH0 DUP3 PUSH20 0xFFFFFFFFFFFFFFFFFFFFFFFFFFFFFFFFFFFFFFFF AND PUSH20 0xFFFFFFFFFFFFFFFFFFFFFFFFFFFFFFFFFFFFFFFF AND DUP2 MSTORE PUSH1 0x20 ADD SWAP1 DUP2 MSTORE PUSH1 0x20 ADD PUSH0 KECCAK256 PUSH0 ADD SLOAD CALLVALUE EQ PUSH2 0x998 JUMPI PUSH1 0x40 MLOAD PUSH32 0xD647364F00000000000000000000000000000000000000000000000000000000 DUP2 MSTORE PUSH1 0x4 ADD PUSH2 0x98F SWAP1 PUSH2 0x13A0 JUMP JUMPDEST PUSH1 0x40 MLOAD DUP1 SWAP2 SUB SWAP1 REVERT JUMPDEST PUSH8 0x16345785D8A0000 CALLVALUE PUSH2 0x9AC SWAP2 SWAP1 PUSH2 0x13EB JUMP JUMPDEST PUSH1 0x1 PUSH0 DUP4 PUSH20 0xFFFFFFFFFFFFFFFFFFFFFFFFFFFFFFFFFFFFFFFF AND PUSH4 0x61203265 PUSH1 0x40 MLOAD DUP2 PUSH4 0xFFFFFFFF AND PUSH1 0xE0 SHL DUP2 MSTORE PUSH1 0x4 ADD PUSH1 0x20 PUSH1 0x40 MLOAD DUP1 DUP4 SUB DUP2 DUP7 GAS STATICCALL ISZERO DUP1 ISZERO PUSH2 0x9F8 JUMPI RETURNDATASIZE PUSH0 PUSH0 RETURNDATACOPY RETURNDATASIZE PUSH0 REVERT JUMPDEST POP POP POP POP PUSH1 0x40 MLOAD RETURNDATASIZE PUSH1 0x1F NOT PUSH1 0x1F DUP3 ADD AND DUP3 ADD DUP1 PUSH1 0x40 MSTORE POP DUP2 ADD SWAP1 PUSH2 0xA1C SWAP2 SWAP1 PUSH2 0x131B JUMP JUMPDEST PUSH20 0xFFFFFFFFFFFFFFFFFFFFFFFFFFFFFFFFFFFFFFFF AND PUSH20 0xFFFFFFFFFFFFFFFFFFFFFFFFFFFFFFFFFFFFFFFF AND DUP2 MSTORE PUSH1 0x20 ADD SWAP1 DUP2 MSTORE PUSH1 0x20 ADD PUSH0 KECCAK256 PUSH0 DUP3 DUP3 SLOAD PUSH2 0xA63 SWAP2 SWAP1 PUSH2 0x141E JUMP JUMPDEST SWAP3 POP POP DUP2 SWAP1 SSTORE POP PUSH8 0x16345785D8A0000 PUSH1 0x1 PUSH0 PUSH32 0x0 PUSH20 0xFFFFFFFFFFFFFFFFFFFFFFFFFFFFFFFFFFFFFFFF AND PUSH20 0xFFFFFFFFFFFFFFFFFFFFFFFFFFFFFFFFFFFFFFFF AND DUP2 MSTORE PUSH1 0x20 ADD SWAP1 DUP2 MSTORE PUSH1 0x20 ADD PUSH0 KECCAK256 PUSH0 DUP3 DUP3 SLOAD PUSH2 0xADE SWAP2 SWAP1 PUSH2 0x141E JUMP JUMPDEST SWAP3 POP POP DUP2 SWAP1 SSTORE POP DUP1 PUSH20 0xFFFFFFFFFFFFFFFFFFFFFFFFFFFFFFFFFFFFFFFF AND PUSH4 0x40D097C3 CALLER PUSH1 0x40 MLOAD DUP3 PUSH4 0xFFFFFFFF AND PUSH1 0xE0 SHL DUP2 MSTORE PUSH1 0x4 ADD PUSH2 0xB1E SWAP2 SWAP1 PUSH2 0x12AD JUMP JUMPDEST PUSH0 PUSH1 0x40 MLOAD DUP1 DUP4 SUB DUP2 PUSH0 DUP8 DUP1 EXTCODESIZE ISZERO DUP1 ISZERO PUSH2 0xB35 JUMPI PUSH0 PUSH0 REVERT JUMPDEST POP GAS CALL ISZERO DUP1 ISZERO PUSH2 0xB47 JUMPI RETURNDATASIZE PUSH0 PUSH0 RETURNDATACOPY RETURNDATASIZE PUSH0 REVERT JUMPDEST POP POP POP POP POP JUMP JUMPDEST PUSH32 0x0 DUP2 JUMP JUMPDEST PUSH1 0x1 PUSH1 0x20 MSTORE DUP1 PUSH0 MSTORE PUSH1 0x40 PUSH0 KECCAK256 PUSH0 SWAP2 POP SWAP1 POP SLOAD DUP2 JUMP JUMPDEST PUSH3 0x15180 TIMESTAMP PUSH2 0xB96 SWAP2 SWAP1 PUSH2 0x141E JUMP JUMPDEST DUP2 LT ISZERO PUSH2 0xBD8 JUMPI PUSH1 0x40 MLOAD PUSH32 0xD647364F00000000000000000000000000000000000000000000000000000000 DUP2 MSTORE PUSH1 0x4 ADD PUSH2 0xBCF SWAP1 PUSH2 0x15AA JUMP JUMPDEST PUSH1 0x40 MLOAD DUP1 SWAP2 SUB SWAP1 REVERT JUMPDEST PUSH8 0x16345785D8A0000 DUP4 LT ISZERO PUSH2 0xC23 JUMPI PUSH1 0x40 MLOAD PUSH32 0xD647364F00000000000000000000000000000000000000000000000000000000 DUP2 MSTORE PUSH1 0x4 ADD PUSH2 0xC1A SWAP1 PUSH2 0x1612 JUMP JUMPDEST PUSH1 0x40 MLOAD DUP1 SWAP2 SUB SWAP1 REVERT JUMPDEST PUSH0 PUSH0 PUSH0 DUP7 PUSH20 0xFFFFFFFFFFFFFFFFFFFFFFFFFFFFFFFFFFFFFFFF AND PUSH20 0xFFFFFFFFFFFFFFFFFFFFFFFFFFFFFFFFFFFFFFFF AND DUP2 MSTORE PUSH1 0x20 ADD SWAP1 DUP2 MSTORE PUSH1 0x20 ADD PUSH0 KECCAK256 PUSH1 0x2 ADD SLOAD EQ PUSH2 0xC9B JUMPI PUSH1 0x40 MLOAD PUSH32 0xA3D582EC00000000000000000000000000000000000000000000000000000000 DUP2 MSTORE PUSH1 0x4 ADD PUSH1 0x40 MLOAD DUP1 SWAP2 SUB SWAP1 REVERT JUMPDEST PUSH1 0x40 MLOAD DUP1 PUSH1 0x60 ADD PUSH1 0x40 MSTORE DUP1 DUP5 DUP2 MSTORE PUSH1 0x20 ADD DUP4 PUSH1 0x1 DUP2 GT ISZERO PUSH2 0xCBF JUMPI PUSH2 0xCBE PUSH2 0xE09 JUMP JUMPDEST JUMPDEST DUP2 MSTORE PUSH1 0x20 ADD DUP3 DUP2 MSTORE POP PUSH0 PUSH0 DUP7 PUSH20 0xFFFFFFFFFFFFFFFFFFFFFFFFFFFFFFFFFFFFFFFF AND PUSH20 0xFFFFFFFFFFFFFFFFFFFFFFFFFFFFFFFFFFFFFFFF AND DUP2 MSTORE PUSH1 0x20 ADD SWAP1 DUP2 MSTORE PUSH1 0x20 ADD PUSH0 KECCAK256 PUSH0 DUP3 ADD MLOAD DUP2 PUSH0 ADD SSTORE PUSH1 0x20 DUP3 ADD MLOAD DUP2 PUSH1 0x1 ADD PUSH0 PUSH2 0x100 EXP DUP2 SLOAD DUP2 PUSH1 0xFF MUL NOT AND SWAP1 DUP4 PUSH1 0x1 DUP2 GT ISZERO PUSH2 0xD36 JUMPI PUSH2 0xD35 PUSH2 0xE09 JUMP JUMPDEST JUMPDEST MUL OR SWAP1 SSTORE POP PUSH1 0x40 DUP3 ADD MLOAD DUP2 PUSH1 0x2 ADD SSTORE SWAP1 POP POP POP POP POP POP JUMP JUMPDEST PUSH2 0x2CBE DUP1 PUSH2 0x1631 DUP4 CODECOPY ADD SWAP1 JUMP JUMPDEST PUSH0 PUSH1 0x40 MLOAD SWAP1 POP SWAP1 JUMP JUMPDEST PUSH0 PUSH0 REVERT JUMPDEST PUSH0 PUSH0 REVERT JUMPDEST PUSH0 PUSH20 0xFFFFFFFFFFFFFFFFFFFFFFFFFFFFFFFFFFFFFFFF DUP3 AND SWAP1 POP SWAP2 SWAP1 POP JUMP JUMPDEST PUSH0 PUSH2 0xD95 DUP3 PUSH2 0xD6C JUMP JUMPDEST SWAP1 POP SWAP2 SWAP1 POP JUMP JUMPDEST PUSH2 0xDA5 DUP2 PUSH2 0xD8B JUMP JUMPDEST DUP2 EQ PUSH2 0xDAF JUMPI PUSH0 PUSH0 REVERT JUMPDEST POP JUMP JUMPDEST PUSH0 DUP2 CALLDATALOAD SWAP1 POP PUSH2 0xDC0 DUP2 PUSH2 0xD9C JUMP JUMPDEST SWAP3 SWAP2 POP POP JUMP JUMPDEST PUSH0 PUSH1 0x20 DUP3 DUP5 SUB SLT ISZERO PUSH2 0xDDB JUMPI PUSH2 0xDDA PUSH2 0xD64 JUMP JUMPDEST JUMPDEST PUSH0 PUSH2 0xDE8 DUP5 DUP3 DUP6 ADD PUSH2 0xDB2 JUMP JUMPDEST SWAP2 POP POP SWAP3 SWAP2 POP POP JUMP JUMPDEST PUSH0 DUP2 SWAP1 POP SWAP2 SWAP1 POP JUMP JUMPDEST PUSH2 0xE03 DUP2 PUSH2 0xDF1 JUMP JUMPDEST DUP3 MSTORE POP POP JUMP JUMPDEST PUSH32 0x4E487B7100000000000000000000000000000000000000000000000000000000 PUSH0 MSTORE PUSH1 0x21 PUSH1 0x4 MSTORE PUSH1 0x24 PUSH0 REVERT JUMPDEST PUSH1 0x2 DUP2 LT PUSH2 0xE47 JUMPI PUSH2 0xE46 PUSH2 0xE09 JUMP JUMPDEST JUMPDEST POP JUMP JUMPDEST PUSH0 DUP2 SWAP1 POP PUSH2 0xE57 DUP3 PUSH2 0xE36 JUMP JUMPDEST SWAP2 SWAP1 POP JUMP JUMPDEST PUSH0 PUSH2 0xE66 DUP3 PUSH2 0xE4A JUMP JUMPDEST SWAP1 POP SWAP2 SWAP1 POP JUMP JUMPDEST PUSH2 0xE76 DUP2 PUSH2 0xE5C JUMP JUMPDEST DUP3 MSTORE POP POP JUMP JUMPDEST PUSH0 PUSH1 0x60 DUP3 ADD SWAP1 POP PUSH2 0xE8F PUSH0 DUP4 ADD DUP7 PUSH2 0xDFA JUMP JUMPDEST PUSH2 0xE9C PUSH1 0x20 DUP4 ADD DUP6 PUSH2 0xE6D JUMP JUMPDEST PUSH2 0xEA9 PUSH1 0x40 DUP4 ADD DUP5 PUSH2 0xDFA JUMP JUMPDEST SWAP5 SWAP4 POP POP POP POP JUMP JUMPDEST PUSH2 0xEBA DUP2 PUSH2 0xDF1 JUMP JUMPDEST DUP2 EQ PUSH2 0xEC4 JUMPI PUSH0 PUSH0 REVERT JUMPDEST POP JUMP JUMPDEST PUSH0 DUP2 CALLDATALOAD SWAP1 POP PUSH2 0xED5 DUP2 PUSH2 0xEB1 JUMP JUMPDEST SWAP3 SWAP2 POP POP JUMP JUMPDEST PUSH1 0x2 DUP2 LT PUSH2 0xEE7 JUMPI PUSH0 PUSH0 REVERT JUMPDEST POP JUMP JUMPDEST PUSH0 DUP2 CALLDATALOAD SWAP1 POP PUSH2 0xEF8 DUP2 PUSH2 0xEDB JUMP JUMPDEST SWAP3 SWAP2 POP POP JUMP JUMPDEST PUSH0 PUSH0 PUSH0 PUSH0 PUSH1 0x80 DUP6 DUP8 SUB SLT ISZERO PUSH2 0xF16 JUMPI PUSH2 0xF15 PUSH2 0xD64 JUMP JUMPDEST JUMPDEST PUSH0 PUSH2 0xF23 DUP8 DUP3 DUP9 ADD PUSH2 0xDB2 JUMP JUMPDEST SWAP5 POP POP PUSH1 0x20 PUSH2 0xF34 DUP8 DUP3 DUP9 ADD PUSH2 0xEC7 JUMP JUMPDEST SWAP4 POP POP PUSH1 0x40 PUSH2 0xF45 DUP8 DUP3 DUP9 ADD PUSH2 0xEEA JUMP JUMPDEST SWAP3 POP POP PUSH1 0x60 PUSH2 0xF56 DUP8 DUP3 DUP9 ADD PUSH2 0xEC7 JUMP JUMPDEST SWAP2 POP POP SWAP3 SWAP6 SWAP2 SWAP5 POP SWAP3 POP JUMP JUMPDEST PUSH0 PUSH1 0x20 DUP3 ADD SWAP1 POP PUSH2 0xF75 PUSH0 DUP4 ADD DUP5 PUSH2 0xDFA JUMP JUMPDEST SWAP3 SWAP2 POP POP JUMP JUMPDEST PUSH0 PUSH0 PUSH0 PUSH1 0x60 DUP5 DUP7 SUB SLT ISZERO PUSH2 0xF92 JUMPI PUSH2 0xF91 PUSH2 0xD64 JUMP JUMPDEST JUMPDEST PUSH0 PUSH2 0xF9F DUP7 DUP3 DUP8 ADD PUSH2 0xDB2 JUMP JUMPDEST SWAP4 POP POP PUSH1 0x20 PUSH2 0xFB0 DUP7 DUP3 DUP8 ADD PUSH2 0xEC7 JUMP JUMPDEST SWAP3 POP POP PUSH1 0x40 PUSH2 0xFC1 DUP7 DUP3 DUP8 ADD PUSH2 0xDB2 JUMP JUMPDEST SWAP2 POP POP SWAP3 POP SWAP3 POP SWAP3 JUMP JUMPDEST PUSH0 PUSH0 REVERT JUMPDEST PUSH0 PUSH0 REVERT JUMPDEST PUSH0 PUSH1 0x1F NOT PUSH1 0x1F DUP4 ADD AND SWAP1 POP SWAP2 SWAP1 POP JUMP JUMPDEST PUSH32 0x4E487B7100000000000000000000000000000000000000000000000000000000 PUSH0 MSTORE PUSH1 0x41 PUSH1 0x4 MSTORE PUSH1 0x24 PUSH0 REVERT JUMPDEST PUSH2 0x1019 DUP3 PUSH2 0xFD3 JUMP JUMPDEST DUP2 ADD DUP2 DUP2 LT PUSH8 0xFFFFFFFFFFFFFFFF DUP3 GT OR ISZERO PUSH2 0x1038 JUMPI PUSH2 0x1037 PUSH2 0xFE3 JUMP JUMPDEST JUMPDEST DUP1 PUSH1 0x40 MSTORE POP POP POP JUMP JUMPDEST PUSH0 PUSH2 0x104A PUSH2 0xD5B JUMP JUMPDEST SWAP1 POP PUSH2 0x1056 DUP3 DUP3 PUSH2 0x1010 JUMP JUMPDEST SWAP2 SWAP1 POP JUMP JUMPDEST PUSH0 PUSH8 0xFFFFFFFFFFFFFFFF DUP3 GT ISZERO PUSH2 0x1075 JUMPI PUSH2 0x1074 PUSH2 0xFE3 JUMP JUMPDEST JUMPDEST PUSH2 0x107E DUP3 PUSH2 0xFD3 JUMP JUMPDEST SWAP1 POP PUSH1 0x20 DUP2 ADD SWAP1 POP SWAP2 SWAP1 POP JUMP JUMPDEST DUP3 DUP2 DUP4 CALLDATACOPY PUSH0 DUP4 DUP4 ADD MSTORE POP POP POP JUMP JUMPDEST PUSH0 PUSH2 0x10AB PUSH2 0x10A6 DUP5 PUSH2 0x105B JUMP JUMPDEST PUSH2 0x1041 JUMP JUMPDEST SWAP1 POP DUP3 DUP2 MSTORE PUSH1 0x20 DUP2 ADD DUP5 DUP5 DUP5 ADD GT ISZERO PUSH2 0x10C7 JUMPI PUSH2 0x10C6 PUSH2 0xFCF JUMP JUMPDEST JUMPDEST PUSH2 0x10D2 DUP5 DUP3 DUP6 PUSH2 0x108B JUMP JUMPDEST POP SWAP4 SWAP3 POP POP POP JUMP JUMPDEST PUSH0 DUP3 PUSH1 0x1F DUP4 ADD SLT PUSH2 0x10EE JUMPI PUSH2 0x10ED PUSH2 0xFCB JUMP JUMPDEST JUMPDEST DUP2 CALLDATALOAD PUSH2 0x10FE DUP5 DUP3 PUSH1 0x20 DUP7 ADD PUSH2 0x1099 JUMP JUMPDEST SWAP2 POP POP SWAP3 SWAP2 POP POP JUMP JUMPDEST PUSH0 DUP2 ISZERO ISZERO SWAP1 POP SWAP2 SWAP1 POP JUMP JUMPDEST PUSH2 0x111B DUP2 PUSH2 0x1107 JUMP JUMPDEST DUP2 EQ PUSH2 0x1125 JUMPI PUSH0 PUSH0 REVERT JUMPDEST POP JUMP JUMPDEST PUSH0 DUP2 CALLDATALOAD SWAP1 POP PUSH2 0x1136 DUP2 PUSH2 0x1112 JUMP JUMPDEST SWAP3 SWAP2 POP POP JUMP JUMPDEST PUSH0 PUSH0 PUSH0 PUSH0 PUSH0 PUSH0 PUSH0 PUSH0 PUSH0 PUSH2 0x120 DUP11 DUP13 SUB SLT ISZERO PUSH2 0x115A JUMPI PUSH2 0x1159 PUSH2 0xD64 JUMP JUMPDEST JUMPDEST PUSH0 DUP11 ADD CALLDATALOAD PUSH8 0xFFFFFFFFFFFFFFFF DUP2 GT ISZERO PUSH2 0x1177 JUMPI PUSH2 0x1176 PUSH2 0xD68 JUMP JUMPDEST JUMPDEST PUSH2 0x1183 DUP13 DUP3 DUP14 ADD PUSH2 0x10DA JUMP JUMPDEST SWAP10 POP POP PUSH1 0x20 PUSH2 0x1194 DUP13 DUP3 DUP14 ADD PUSH2 0xEC7 JUMP JUMPDEST SWAP9 POP POP PUSH1 0x40 DUP11 ADD CALLDATALOAD PUSH8 0xFFFFFFFFFFFFFFFF DUP2 GT ISZERO PUSH2 0x11B5 JUMPI PUSH2 0x11B4 PUSH2 0xD68 JUMP JUMPDEST JUMPDEST PUSH2 0x11C1 DUP13 DUP3 DUP14 ADD PUSH2 0x10DA JUMP JUMPDEST SWAP8 POP POP PUSH1 0x60 PUSH2 0x11D2 DUP13 DUP3 DUP14 ADD PUSH2 0xEC7 JUMP JUMPDEST SWAP7 POP POP PUSH1 0x80 PUSH2 0x11E3 DUP13 DUP3 DUP14 ADD PUSH2 0xEEA JUMP JUMPDEST SWAP6 POP POP PUSH1 0xA0 PUSH2 0x11F4 DUP13 DUP3 DUP14 ADD PUSH2 0xEC7 JUMP JUMPDEST SWAP5 POP POP PUSH1 0xC0 PUSH2 0x1205 DUP13 DUP3 DUP14 ADD PUSH2 0xEC7 JUMP JUMPDEST SWAP4 POP POP PUSH1 0xE0 PUSH2 0x1216 DUP13 DUP3 DUP14 ADD PUSH2 0x1128 JUMP JUMPDEST SWAP3 POP POP PUSH2 0x100 PUSH2 0x1228 DUP13 DUP3 DUP14 ADD PUSH2 0xDB2 JUMP JUMPDEST SWAP2 POP POP SWAP3 SWAP6 SWAP9 POP SWAP3 SWAP6 SWAP9 POP SWAP3 SWAP6 SWAP9 JUMP JUMPDEST PUSH0 PUSH0 PUSH1 0x40 DUP4 DUP6 SUB SLT ISZERO PUSH2 0x124E JUMPI PUSH2 0x124D PUSH2 0xD64 JUMP JUMPDEST JUMPDEST PUSH0 PUSH2 0x125B DUP6 DUP3 DUP7 ADD PUSH2 0xDB2 JUMP JUMPDEST SWAP3 POP POP PUSH1 0x20 PUSH2 0x126C DUP6 DUP3 DUP7 ADD PUSH2 0xEC7 JUMP JUMPDEST SWAP2 POP POP SWAP3 POP SWAP3 SWAP1 POP JUMP JUMPDEST PUSH2 0x127F DUP2 PUSH2 0x1107 JUMP JUMPDEST DUP3 MSTORE POP POP JUMP JUMPDEST PUSH0 PUSH1 0x20 DUP3 ADD SWAP1 POP PUSH2 0x1298 PUSH0 DUP4 ADD DUP5 PUSH2 0x1276 JUMP JUMPDEST SWAP3 SWAP2 POP POP JUMP JUMPDEST PUSH2 0x12A7 DUP2 PUSH2 0xD8B JUMP JUMPDEST DUP3 MSTORE POP POP JUMP JUMPDEST PUSH0 PUSH1 0x20 DUP3 ADD SWAP1 POP PUSH2 0x12C0 PUSH0 DUP4 ADD DUP5 PUSH2 0x129E JUMP JUMPDEST SWAP3 SWAP2 POP POP JUMP JUMPDEST PUSH0 DUP2 SWAP1 POP SWAP3 SWAP2 POP POP JUMP JUMPDEST POP JUMP JUMPDEST PUSH0 PUSH2 0x12DE PUSH0 DUP4 PUSH2 0x12C6 JUMP JUMPDEST SWAP2 POP PUSH2 0x12E9 DUP3 PUSH2 0x12D0 JUMP JUMPDEST PUSH0 DUP3 ADD SWAP1 POP SWAP2 SWAP1 POP JUMP JUMPDEST PUSH0 PUSH2 0x12FD DUP3 PUSH2 0x12D3 JUMP JUMPDEST SWAP2 POP DUP2 SWAP1 POP SWAP2 SWAP1 POP JUMP JUMPDEST PUSH0 DUP2 MLOAD SWAP1 POP PUSH2 0x1315 DUP2 PUSH2 0xD9C JUMP JUMPDEST SWAP3 SWAP2 POP POP JUMP JUMPDEST PUSH0 PUSH1 0x20 DUP3 DUP5 SUB SLT ISZERO PUSH2 0x1330 JUMPI PUSH2 0x132F PUSH2 0xD64 JUMP JUMPDEST JUMPDEST PUSH0 PUSH2 0x133D DUP5 DUP3 DUP6 ADD PUSH2 0x1307 JUMP JUMPDEST SWAP2 POP POP SWAP3 SWAP2 POP POP JUMP JUMPDEST PUSH0 DUP3 DUP3 MSTORE PUSH1 0x20 DUP3 ADD SWAP1 POP SWAP3 SWAP2 POP POP JUMP JUMPDEST PUSH32 0x57726F6E672076616C7565000000000000000000000000000000000000000000 PUSH0 DUP3 ADD MSTORE POP JUMP JUMPDEST PUSH0 PUSH2 0x138A PUSH1 0xB DUP4 PUSH2 0x1346 JUMP JUMPDEST SWAP2 POP PUSH2 0x1395 DUP3 PUSH2 0x1356 JUMP JUMPDEST PUSH1 0x20 DUP3 ADD SWAP1 POP SWAP2 SWAP1 POP JUMP JUMPDEST PUSH0 PUSH1 0x20 DUP3 ADD SWAP1 POP DUP2 DUP2 SUB PUSH0 DUP4 ADD MSTORE PUSH2 0x13B7 DUP2 PUSH2 0x137E JUMP JUMPDEST SWAP1 POP SWAP2 SWAP1 POP JUMP JUMPDEST PUSH32 0x4E487B7100000000000000000000000000000000000000000000000000000000 PUSH0 MSTORE PUSH1 0x11 PUSH1 0x4 MSTORE PUSH1 0x24 PUSH0 REVERT JUMPDEST PUSH0 PUSH2 0x13F5 DUP3 PUSH2 0xDF1 JUMP JUMPDEST SWAP2 POP PUSH2 0x1400 DUP4 PUSH2 0xDF1 JUMP JUMPDEST SWAP3 POP DUP3 DUP3 SUB SWAP1 POP DUP2 DUP2 GT ISZERO PUSH2 0x1418 JUMPI PUSH2 0x1417 PUSH2 0x13BE JUMP JUMPDEST JUMPDEST SWAP3 SWAP2 POP POP JUMP JUMPDEST PUSH0 PUSH2 0x1428 DUP3 PUSH2 0xDF1 JUMP JUMPDEST SWAP2 POP PUSH2 0x1433 DUP4 PUSH2 0xDF1 JUMP JUMPDEST SWAP3 POP DUP3 DUP3 ADD SWAP1 POP DUP1 DUP3 GT ISZERO PUSH2 0x144B JUMPI PUSH2 0x144A PUSH2 0x13BE JUMP JUMPDEST JUMPDEST SWAP3 SWAP2 POP POP JUMP JUMPDEST PUSH0 PUSH1 0x60 DUP3 ADD SWAP1 POP PUSH2 0x1464 PUSH0 DUP4 ADD DUP7 PUSH2 0x129E JUMP JUMPDEST PUSH2 0x1471 PUSH1 0x20 DUP4 ADD DUP6 PUSH2 0x129E JUMP JUMPDEST PUSH2 0x147E PUSH1 0x40 DUP4 ADD DUP5 PUSH2 0xDFA JUMP JUMPDEST SWAP5 SWAP4 POP POP POP POP JUMP JUMPDEST PUSH0 DUP2 MLOAD SWAP1 POP SWAP2 SWAP1 POP JUMP JUMPDEST DUP3 DUP2 DUP4 MCOPY PUSH0 DUP4 DUP4 ADD MSTORE POP POP POP JUMP JUMPDEST PUSH0 PUSH2 0x14A8 DUP3 PUSH2 0x1486 JUMP JUMPDEST PUSH2 0x14B2 DUP2 DUP6 PUSH2 0x1346 JUMP JUMPDEST SWAP4 POP PUSH2 0x14C2 DUP2 DUP6 PUSH1 0x20 DUP7 ADD PUSH2 0x1490 JUMP JUMPDEST PUSH2 0x14CB DUP2 PUSH2 0xFD3 JUMP JUMPDEST DUP5 ADD SWAP2 POP POP SWAP3 SWAP2 POP POP JUMP JUMPDEST PUSH0 PUSH2 0x100 DUP3 ADD SWAP1 POP PUSH2 0x14EA PUSH0 DUP4 ADD DUP12 PUSH2 0x129E JUMP JUMPDEST DUP2 DUP2 SUB PUSH1 0x20 DUP4 ADD MSTORE PUSH2 0x14FC DUP2 DUP11 PUSH2 0x149E JUMP JUMPDEST SWAP1 POP PUSH2 0x150B PUSH1 0x40 DUP4 ADD DUP10 PUSH2 0xDFA JUMP JUMPDEST DUP2 DUP2 SUB PUSH1 0x60 DUP4 ADD MSTORE PUSH2 0x151D DUP2 DUP9 PUSH2 0x149E JUMP JUMPDEST SWAP1 POP PUSH2 0x152C PUSH1 0x80 DUP4 ADD DUP8 PUSH2 0x129E JUMP JUMPDEST PUSH2 0x1539 PUSH1 0xA0 DUP4 ADD DUP7 PUSH2 0xDFA JUMP JUMPDEST PUSH2 0x1546 PUSH1 0xC0 DUP4 ADD DUP6 PUSH2 0x1276 JUMP JUMPDEST PUSH2 0x1553 PUSH1 0xE0 DUP4 ADD DUP5 PUSH2 0x129E JUMP JUMPDEST SWAP10 SWAP9 POP POP POP POP POP POP POP POP POP JUMP JUMPDEST PUSH32 0x73616C6573456E6420697320696E76616C696400000000000000000000000000 PUSH0 DUP3 ADD MSTORE POP JUMP JUMPDEST PUSH0 PUSH2 0x1594 PUSH1 0x13 DUP4 PUSH2 0x1346 JUMP JUMPDEST SWAP2 POP PUSH2 0x159F DUP3 PUSH2 0x1560 JUMP JUMPDEST PUSH1 0x20 DUP3 ADD SWAP1 POP SWAP2 SWAP1 POP JUMP JUMPDEST PUSH0 PUSH1 0x20 DUP3 ADD SWAP1 POP DUP2 DUP2 SUB PUSH0 DUP4 ADD MSTORE PUSH2 0x15C1 DUP2 PUSH2 0x1588 JUMP JUMPDEST SWAP1 POP SWAP2 SWAP1 POP JUMP JUMPDEST PUSH32 0x7469636B657450726963653E3D53414C455F4645450000000000000000000000 PUSH0 DUP3 ADD MSTORE POP JUMP JUMPDEST PUSH0 PUSH2 0x15FC PUSH1 0x15 DUP4 PUSH2 0x1346 JUMP JUMPDEST SWAP2 POP PUSH2 0x1607 DUP3 PUSH2 0x15C8 JUMP JUMPDEST PUSH1 0x20 DUP3 ADD SWAP1 POP SWAP2 SWAP1 POP JUMP JUMPDEST PUSH0 PUSH1 0x20 DUP3 ADD SWAP1 POP DUP2 DUP2 SUB PUSH0 DUP4 ADD MSTORE PUSH2 0x1629 DUP2 PUSH2 0x15F0 JUMP JUMPDEST SWAP1 POP SWAP2 SWAP1 POP JUMP INVALID PUSH1 0xE0 PUSH1 0x40 MSTORE CALLVALUE DUP1 ISZERO PUSH2 0xF JUMPI PUSH0 PUSH0 REVERT JUMPDEST POP PUSH1 0x40 MLOAD PUSH2 0x2CBE CODESIZE SUB DUP1 PUSH2 0x2CBE DUP4 CODECOPY DUP2 DUP2 ADD PUSH1 0x40 MSTORE DUP2 ADD SWAP1 PUSH2 0x31 SWAP2 SWAP1 PUSH2 0x499 JUMP JUMPDEST DUP8 DUP8 PUSH1 0x40 MLOAD DUP1 PUSH1 0x40 ADD PUSH1 0x40 MSTORE DUP1 PUSH1 0x3 DUP2 MSTORE PUSH1 0x20 ADD PUSH32 0x4D544B0000000000000000000000000000000000000000000000000000000000 DUP2 MSTORE POP DUP2 PUSH0 SWAP1 DUP2 PUSH2 0x77 SWAP2 SWAP1 PUSH2 0x789 JUMP JUMPDEST POP DUP1 PUSH1 0x1 SWAP1 DUP2 PUSH2 0x87 SWAP2 SWAP1 PUSH2 0x789 JUMP JUMPDEST POP POP POP PUSH0 PUSH20 0xFFFFFFFFFFFFFFFFFFFFFFFFFFFFFFFFFFFFFFFF AND DUP2 PUSH20 0xFFFFFFFFFFFFFFFFFFFFFFFFFFFFFFFFFFFFFFFF AND SUB PUSH2 0xFA JUMPI PUSH0 PUSH1 0x40 MLOAD PUSH32 0x1E4FBDF700000000000000000000000000000000000000000000000000000000 DUP2 MSTORE PUSH1 0x4 ADD PUSH2 0xF1 SWAP2 SWAP1 PUSH2 0x867 JUMP JUMPDEST PUSH1 0x40 MLOAD DUP1 SWAP2 SUB SWAP1 REVERT JUMPDEST PUSH2 0x109 DUP2 PUSH2 0x1C7 PUSH1 0x20 SHL PUSH1 0x20 SHR JUMP JUMPDEST POP DUP6 PUSH1 0x80 DUP2 DUP2 MSTORE POP POP DUP5 PUSH1 0x9 SWAP1 DUP2 PUSH2 0x121 SWAP2 SWAP1 PUSH2 0x789 JUMP JUMPDEST POP DUP4 PUSH20 0xFFFFFFFFFFFFFFFFFFFFFFFFFFFFFFFFFFFFFFFF AND PUSH1 0xA0 DUP2 PUSH20 0xFFFFFFFFFFFFFFFFFFFFFFFFFFFFFFFFFFFFFFFF AND DUP2 MSTORE POP POP PUSH1 0x1 PUSH1 0x7 DUP2 SWAP1 SSTORE POP DUP3 PUSH1 0xA DUP2 SWAP1 SSTORE POP DUP2 ISZERO ISZERO PUSH1 0xC0 DUP2 ISZERO ISZERO DUP2 MSTORE POP POP PUSH1 0xC0 MLOAD ISZERO PUSH2 0x1BA JUMPI DUP1 PUSH1 0x8 PUSH0 PUSH2 0x100 EXP DUP2 SLOAD DUP2 PUSH20 0xFFFFFFFFFFFFFFFFFFFFFFFFFFFFFFFFFFFFFFFF MUL NOT AND SWAP1 DUP4 PUSH20 0xFFFFFFFFFFFFFFFFFFFFFFFFFFFFFFFFFFFFFFFF AND MUL OR SWAP1 SSTORE POP JUMPDEST POP POP POP POP POP POP POP POP PUSH2 0x880 JUMP JUMPDEST PUSH0 PUSH1 0x6 PUSH0 SWAP1 SLOAD SWAP1 PUSH2 0x100 EXP SWAP1 DIV PUSH20 0xFFFFFFFFFFFFFFFFFFFFFFFFFFFFFFFFFFFFFFFF AND SWAP1 POP DUP2 PUSH1 0x6 PUSH0 PUSH2 0x100 EXP DUP2 SLOAD DUP2 PUSH20 0xFFFFFFFFFFFFFFFFFFFFFFFFFFFFFFFFFFFFFFFF MUL NOT AND SWAP1 DUP4 PUSH20 0xFFFFFFFFFFFFFFFFFFFFFFFFFFFFFFFFFFFFFFFF AND MUL OR SWAP1 SSTORE POP DUP2 PUSH20 0xFFFFFFFFFFFFFFFFFFFFFFFFFFFFFFFFFFFFFFFF AND DUP2 PUSH20 0xFFFFFFFFFFFFFFFFFFFFFFFFFFFFFFFFFFFFFFFF AND PUSH32 0x8BE0079C531659141344CD1FD0A4F28419497F9722A3DAAFE3B4186F6B6457E0 PUSH1 0x40 MLOAD PUSH1 0x40 MLOAD DUP1 SWAP2 SUB SWAP1 LOG3 POP POP JUMP JUMPDEST PUSH0 PUSH1 0x40 MLOAD SWAP1 POP SWAP1 JUMP JUMPDEST PUSH0 PUSH0 REVERT JUMPDEST PUSH0 PUSH0 REVERT JUMPDEST PUSH0 PUSH20 0xFFFFFFFFFFFFFFFFFFFFFFFFFFFFFFFFFFFFFFFF DUP3 AND SWAP1 POP SWAP2 SWAP1 POP JUMP JUMPDEST PUSH0 PUSH2 0x2C4 DUP3 PUSH2 0x29B JUMP JUMPDEST SWAP1 POP SWAP2 SWAP1 POP JUMP JUMPDEST PUSH2 0x2D4 DUP2 PUSH2 0x2BA JUMP JUMPDEST DUP2 EQ PUSH2 0x2DE JUMPI PUSH0 PUSH0 REVERT JUMPDEST POP JUMP JUMPDEST PUSH0 DUP2 MLOAD SWAP1 POP PUSH2 0x2EF DUP2 PUSH2 0x2CB JUMP JUMPDEST SWAP3 SWAP2 POP POP JUMP JUMPDEST PUSH0 PUSH0 REVERT JUMPDEST PUSH0 PUSH0 REVERT JUMPDEST PUSH0 PUSH1 0x1F NOT PUSH1 0x1F DUP4 ADD AND SWAP1 POP SWAP2 SWAP1 POP JUMP JUMPDEST PUSH32 0x4E487B7100000000000000000000000000000000000000000000000000000000 PUSH0 MSTORE PUSH1 0x41 PUSH1 0x4 MSTORE PUSH1 0x24 PUSH0 REVERT JUMPDEST PUSH2 0x343 DUP3 PUSH2 0x2FD JUMP JUMPDEST DUP2 ADD DUP2 DUP2 LT PUSH8 0xFFFFFFFFFFFFFFFF DUP3 GT OR ISZERO PUSH2 0x362 JUMPI PUSH2 0x361 PUSH2 0x30D JUMP JUMPDEST JUMPDEST DUP1 PUSH1 0x40 MSTORE POP POP POP JUMP JUMPDEST PUSH0 PUSH2 0x374 PUSH2 0x28A JUMP JUMPDEST SWAP1 POP PUSH2 0x380 DUP3 DUP3 PUSH2 0x33A JUMP JUMPDEST SWAP2 SWAP1 POP JUMP JUMPDEST PUSH0 PUSH8 0xFFFFFFFFFFFFFFFF DUP3 GT ISZERO PUSH2 0x39F JUMPI PUSH2 0x39E PUSH2 0x30D JUMP JUMPDEST JUMPDEST PUSH2 0x3A8 DUP3 PUSH2 0x2FD JUMP JUMPDEST SWAP1 POP PUSH1 0x20 DUP2 ADD SWAP1 POP SWAP2 SWAP1 POP JUMP JUMPDEST DUP3 DUP2 DUP4 MCOPY PUSH0 DUP4 DUP4 ADD MSTORE POP POP POP JUMP JUMPDEST PUSH0 PUSH2 0x3D5 PUSH2 0x3D0 DUP5 PUSH2 0x385 JUMP JUMPDEST PUSH2 0x36B JUMP JUMPDEST SWAP1 POP DUP3 DUP2 MSTORE PUSH1 0x20 DUP2 ADD DUP5 DUP5 DUP5 ADD GT ISZERO PUSH2 0x3F1 JUMPI PUSH2 0x3F0 PUSH2 0x2F9 JUMP JUMPDEST JUMPDEST PUSH2 0x3FC DUP5 DUP3 DUP6 PUSH2 0x3B5 JUMP JUMPDEST POP SWAP4 SWAP3 POP POP POP JUMP JUMPDEST PUSH0 DUP3 PUSH1 0x1F DUP4 ADD SLT PUSH2 0x418 JUMPI PUSH2 0x417 PUSH2 0x2F5 JUMP JUMPDEST JUMPDEST DUP2 MLOAD PUSH2 0x428 DUP5 DUP3 PUSH1 0x20 DUP7 ADD PUSH2 0x3C3 JUMP JUMPDEST SWAP2 POP POP SWAP3 SWAP2 POP POP JUMP JUMPDEST PUSH0 DUP2 SWAP1 POP SWAP2 SWAP1 POP JUMP JUMPDEST PUSH2 0x443 DUP2 PUSH2 0x431 JUMP JUMPDEST DUP2 EQ PUSH2 0x44D JUMPI PUSH0 PUSH0 REVERT JUMPDEST POP JUMP JUMPDEST PUSH0 DUP2 MLOAD SWAP1 POP PUSH2 0x45E DUP2 PUSH2 0x43A JUMP JUMPDEST SWAP3 SWAP2 POP POP JUMP JUMPDEST PUSH0 DUP2 ISZERO ISZERO SWAP1 POP SWAP2 SWAP1 POP JUMP JUMPDEST PUSH2 0x478 DUP2 PUSH2 0x464 JUMP JUMPDEST DUP2 EQ PUSH2 0x482 JUMPI PUSH0 PUSH0 REVERT JUMPDEST POP JUMP JUMPDEST PUSH0 DUP2 MLOAD SWAP1 POP PUSH2 0x493 DUP2 PUSH2 0x46F JUMP JUMPDEST SWAP3 SWAP2 POP POP JUMP JUMPDEST PUSH0 PUSH0 PUSH0 PUSH0 PUSH0 PUSH0 PUSH0 PUSH0 PUSH2 0x100 DUP10 DUP12 SUB SLT ISZERO PUSH2 0x4B6 JUMPI PUSH2 0x4B5 PUSH2 0x293 JUMP JUMPDEST JUMPDEST PUSH0 PUSH2 0x4C3 DUP12 DUP3 DUP13 ADD PUSH2 0x2E1 JUMP JUMPDEST SWAP9 POP POP PUSH1 0x20 DUP10 ADD MLOAD PUSH8 0xFFFFFFFFFFFFFFFF DUP2 GT ISZERO PUSH2 0x4E4 JUMPI PUSH2 0x4E3 PUSH2 0x297 JUMP JUMPDEST JUMPDEST PUSH2 0x4F0 DUP12 DUP3 DUP13 ADD PUSH2 0x404 JUMP JUMPDEST SWAP8 POP POP PUSH1 0x40 PUSH2 0x501 DUP12 DUP3 DUP13 ADD PUSH2 0x450 JUMP JUMPDEST SWAP7 POP POP PUSH1 0x60 DUP10 ADD MLOAD PUSH8 0xFFFFFFFFFFFFFFFF DUP2 GT ISZERO PUSH2 0x522 JUMPI PUSH2 0x521 PUSH2 0x297 JUMP JUMPDEST JUMPDEST PUSH2 0x52E DUP12 DUP3 DUP13 ADD PUSH2 0x404 JUMP JUMPDEST SWAP6 POP POP PUSH1 0x80 PUSH2 0x53F DUP12 DUP3 DUP13 ADD PUSH2 0x2E1 JUMP JUMPDEST SWAP5 POP POP PUSH1 0xA0 PUSH2 0x550 DUP12 DUP3 DUP13 ADD PUSH2 0x450 JUMP JUMPDEST SWAP4 POP POP PUSH1 0xC0 PUSH2 0x561 DUP12 DUP3 DUP13 ADD PUSH2 0x485 JUMP JUMPDEST SWAP3 POP POP PUSH1 0xE0 PUSH2 0x572 DUP12 DUP3 DUP13 ADD PUSH2 0x2E1 JUMP JUMPDEST SWAP2 POP POP SWAP3 SWAP6 SWAP9 POP SWAP3 SWAP6 SWAP9 SWAP1 SWAP4 SWAP7 POP JUMP JUMPDEST PUSH0 DUP2 MLOAD SWAP1 POP SWAP2 SWAP1 POP JUMP JUMPDEST PUSH32 0x4E487B7100000000000000000000000000000000000000000000000000000000 PUSH0 MSTORE PUSH1 0x22 PUSH1 0x4 MSTORE PUSH1 0x24 PUSH0 REVERT JUMPDEST PUSH0 PUSH1 0x2 DUP3 DIV SWAP1 POP PUSH1 0x1 DUP3 AND DUP1 PUSH2 0x5D0 JUMPI PUSH1 0x7F DUP3 AND SWAP2 POP JUMPDEST PUSH1 0x20 DUP3 LT DUP2 SUB PUSH2 0x5E3 JUMPI PUSH2 0x5E2 PUSH2 0x58C JUMP JUMPDEST JUMPDEST POP SWAP2 SWAP1 POP JUMP JUMPDEST PUSH0 DUP2 SWAP1 POP DUP2 PUSH0 MSTORE PUSH1 0x20 PUSH0 KECCAK256 SWAP1 POP SWAP2 SWAP1 POP JUMP JUMPDEST PUSH0 PUSH1 0x20 PUSH1 0x1F DUP4 ADD DIV SWAP1 POP SWAP2 SWAP1 POP JUMP JUMPDEST PUSH0 DUP3 DUP3 SHL SWAP1 POP SWAP3 SWAP2 POP POP JUMP JUMPDEST PUSH0 PUSH1 0x8 DUP4 MUL PUSH2 0x645 PUSH32 0xFFFFFFFFFFFFFFFFFFFFFFFFFFFFFFFFFFFFFFFFFFFFFFFFFFFFFFFFFFFFFFFF DUP3 PUSH2 0x60A JUMP JUMPDEST PUSH2 0x64F DUP7 DUP4 PUSH2 0x60A JUMP JUMPDEST SWAP6 POP DUP1 NOT DUP5 AND SWAP4 POP DUP1 DUP7 AND DUP5 OR SWAP3 POP POP POP SWAP4 SWAP3 POP POP POP JUMP JUMPDEST PUSH0 DUP2 SWAP1 POP SWAP2 SWAP1 POP JUMP JUMPDEST PUSH0 PUSH2 0x68A PUSH2 0x685 PUSH2 0x680 DUP5 PUSH2 0x431 JUMP JUMPDEST PUSH2 0x667 JUMP JUMPDEST PUSH2 0x431 JUMP JUMPDEST SWAP1 POP SWAP2 SWAP1 POP JUMP JUMPDEST PUSH0 DUP2 SWAP1 POP SWAP2 SWAP1 POP JUMP JUMPDEST PUSH2 0x6A3 DUP4 PUSH2 0x670 JUMP JUMPDEST PUSH2 0x6B7 PUSH2 0x6AF DUP3 PUSH2 0x691 JUMP JUMPDEST DUP5 DUP5 SLOAD PUSH2 0x616 JUMP JUMPDEST DUP3 SSTORE POP POP POP POP JUMP JUMPDEST PUSH0 PUSH0 SWAP1 POP SWAP1 JUMP JUMPDEST PUSH2 0x6CE PUSH2 0x6BF JUMP JUMPDEST PUSH2 0x6D9 DUP2 DUP5 DUP5 PUSH2 0x69A JUMP JUMPDEST POP POP POP JUMP JUMPDEST JUMPDEST DUP2 DUP2 LT ISZERO PUSH2 0x6FC JUMPI PUSH2 0x6F1 PUSH0 DUP3 PUSH2 0x6C6 JUMP JUMPDEST PUSH1 0x1 DUP2 ADD SWAP1 POP PUSH2 0x6DF JUMP JUMPDEST POP POP JUMP JUMPDEST PUSH1 0x1F DUP3 GT ISZERO PUSH2 0x741 JUMPI PUSH2 0x712 DUP2 PUSH2 0x5E9 JUMP JUMPDEST PUSH2 0x71B DUP5 PUSH2 0x5FB JUMP JUMPDEST DUP2 ADD PUSH1 0x20 DUP6 LT ISZERO PUSH2 0x72A JUMPI DUP2 SWAP1 POP JUMPDEST PUSH2 0x73E PUSH2 0x736 DUP6 PUSH2 0x5FB JUMP JUMPDEST DUP4 ADD DUP3 PUSH2 0x6DE JUMP JUMPDEST POP POP JUMPDEST POP POP POP JUMP JUMPDEST PUSH0 DUP3 DUP3 SHR SWAP1 POP SWAP3 SWAP2 POP POP JUMP JUMPDEST PUSH0 PUSH2 0x761 PUSH0 NOT DUP5 PUSH1 0x8 MUL PUSH2 0x746 JUMP JUMPDEST NOT DUP1 DUP4 AND SWAP2 POP POP SWAP3 SWAP2 POP POP JUMP JUMPDEST PUSH0 PUSH2 0x779 DUP4 DUP4 PUSH2 0x752 JUMP JUMPDEST SWAP2 POP DUP3 PUSH1 0x2 MUL DUP3 OR SWAP1 POP SWAP3 SWAP2 POP POP JUMP JUMPDEST PUSH2 0x792 DUP3 PUSH2 0x582 JUMP JUMPDEST PUSH8 0xFFFFFFFFFFFFFFFF DUP2 GT ISZERO PUSH2 0x7AB JUMPI PUSH2 0x7AA PUSH2 0x30D JUMP JUMPDEST JUMPDEST PUSH2 0x7B5 DUP3 SLOAD PUSH2 0x5B9 JUMP JUMPDEST PUSH2 0x7C0 DUP3 DUP3 DUP6 PUSH2 0x700 JUMP JUMPDEST PUSH0 PUSH1 0x20 SWAP1 POP PUSH1 0x1F DUP4 GT PUSH1 0x1 DUP2 EQ PUSH2 0x7F1 JUMPI PUSH0 DUP5 ISZERO PUSH2 0x7DF JUMPI DUP3 DUP8 ADD MLOAD SWAP1 POP JUMPDEST PUSH2 0x7E9 DUP6 DUP3 PUSH2 0x76E JUMP JUMPDEST DUP7 SSTORE POP PUSH2 0x850 JUMP JUMPDEST PUSH1 0x1F NOT DUP5 AND PUSH2 0x7FF DUP7 PUSH2 0x5E9 JUMP JUMPDEST PUSH0 JUMPDEST DUP3 DUP2 LT ISZERO PUSH2 0x826 JUMPI DUP5 DUP10 ADD MLOAD DUP3 SSTORE PUSH1 0x1 DUP3 ADD SWAP2 POP PUSH1 0x20 DUP6 ADD SWAP5 POP PUSH1 0x20 DUP2 ADD SWAP1 POP PUSH2 0x801 JUMP JUMPDEST DUP7 DUP4 LT ISZERO PUSH2 0x843 JUMPI DUP5 DUP10 ADD MLOAD PUSH2 0x83F PUSH1 0x1F DUP10 AND DUP3 PUSH2 0x752 JUMP JUMPDEST DUP4 SSTORE POP JUMPDEST PUSH1 0x1 PUSH1 0x2 DUP9 MUL ADD DUP9 SSTORE POP POP POP JUMPDEST POP POP POP POP POP POP JUMP JUMPDEST PUSH2 0x861 DUP2 PUSH2 0x2BA JUMP JUMPDEST DUP3 MSTORE POP POP JUMP JUMPDEST PUSH0 PUSH1 0x20 DUP3 ADD SWAP1 POP PUSH2 0x87A PUSH0 DUP4 ADD DUP5 PUSH2 0x858 JUMP JUMPDEST SWAP3 SWAP2 POP POP JUMP JUMPDEST PUSH1 0x80 MLOAD PUSH1 0xA0 MLOAD PUSH1 0xC0 MLOAD PUSH2 0x240D PUSH2 0x8B1 PUSH0 CODECOPY PUSH0 DUP2 DUP2 PUSH2 0xBBC ADD MSTORE PUSH2 0xD22 ADD MSTORE PUSH0 PUSH2 0x828 ADD MSTORE PUSH0 PUSH2 0x6ED ADD MSTORE PUSH2 0x240D PUSH0 RETURN INVALID PUSH1 0x80 PUSH1 0x40 MSTORE CALLVALUE DUP1 ISZERO PUSH2 0xF JUMPI PUSH0 PUSH0 REVERT JUMPDEST POP PUSH1 0x4 CALLDATASIZE LT PUSH2 0x14B JUMPI PUSH0 CALLDATALOAD PUSH1 0xE0 SHR DUP1 PUSH4 0x70A08231 GT PUSH2 0xC1 JUMPI DUP1 PUSH4 0xB7D07280 GT PUSH2 0x7A JUMPI DUP1 PUSH4 0xB7D07280 EQ PUSH2 0x377 JUMPI DUP1 PUSH4 0xB88D4FDE EQ PUSH2 0x395 JUMPI DUP1 PUSH4 0xC87B56DD EQ PUSH2 0x3B1 JUMPI DUP1 PUSH4 0xE985E9C5 EQ PUSH2 0x3E1 JUMPI DUP1 PUSH4 0xF2FDE38B EQ PUSH2 0x411 JUMPI DUP1 PUSH4 0xF615CB5A EQ PUSH2 0x42D JUMPI PUSH2 0x14B JUMP JUMPDEST DUP1 PUSH4 0x70A08231 EQ PUSH2 0x2C7 JUMPI DUP1 PUSH4 0x715018A6 EQ PUSH2 0x2F7 JUMPI DUP1 PUSH4 0x86A29081 EQ PUSH2 0x301 JUMPI DUP1 PUSH4 0x8DA5CB5B EQ PUSH2 0x31F JUMPI DUP1 PUSH4 0x95D89B41 EQ PUSH2 0x33D JUMPI DUP1 PUSH4 0xA22CB465 EQ PUSH2 0x35B JUMPI PUSH2 0x14B JUMP JUMPDEST DUP1 PUSH4 0x323046B1 GT PUSH2 0x113 JUMPI DUP1 PUSH4 0x323046B1 EQ PUSH2 0x205 JUMPI DUP1 PUSH4 0x40D097C3 EQ PUSH2 0x223 JUMPI DUP1 PUSH4 0x42842E0E EQ PUSH2 0x23F JUMPI DUP1 PUSH4 0x516F279E EQ PUSH2 0x25B JUMPI DUP1 PUSH4 0x61203265 EQ PUSH2 0x279 JUMPI DUP1 PUSH4 0x6352211E EQ PUSH2 0x297 JUMPI PUSH2 0x14B JUMP JUMPDEST DUP1 PUSH4 0x1FFC9A7 EQ PUSH2 0x14F JUMPI DUP1 PUSH4 0x6FDDE03 EQ PUSH2 0x17F JUMPI DUP1 PUSH4 0x81812FC EQ PUSH2 0x19D JUMPI DUP1 PUSH4 0x95EA7B3 EQ PUSH2 0x1CD JUMPI DUP1 PUSH4 0x23B872DD EQ PUSH2 0x1E9 JUMPI JUMPDEST PUSH0 PUSH0 REVERT JUMPDEST PUSH2 0x169 PUSH1 0x4 DUP1 CALLDATASIZE SUB DUP2 ADD SWAP1 PUSH2 0x164 SWAP2 SWAP1 PUSH2 0x1BDC JUMP JUMPDEST PUSH2 0x44B JUMP JUMPDEST PUSH1 0x40 MLOAD PUSH2 0x176 SWAP2 SWAP1 PUSH2 0x1C21 JUMP JUMPDEST PUSH1 0x40 MLOAD DUP1 SWAP2 SUB SWAP1 RETURN JUMPDEST PUSH2 0x187 PUSH2 0x52C JUMP JUMPDEST PUSH1 0x40 MLOAD PUSH2 0x194 SWAP2 SWAP1 PUSH2 0x1CAA JUMP JUMPDEST PUSH1 0x40 MLOAD DUP1 SWAP2 SUB SWAP1 RETURN JUMPDEST PUSH2 0x1B7 PUSH1 0x4 DUP1 CALLDATASIZE SUB DUP2 ADD SWAP1 PUSH2 0x1B2 SWAP2 SWAP1 PUSH2 0x1CFD JUMP JUMPDEST PUSH2 0x5BB JUMP JUMPDEST PUSH1 0x40 MLOAD PUSH2 0x1C4 SWAP2 SWAP1 PUSH2 0x1D67 JUMP JUMPDEST PUSH1 0x40 MLOAD DUP1 SWAP2 SUB SWAP1 RETURN JUMPDEST PUSH2 0x1E7 PUSH1 0x4 DUP1 CALLDATASIZE SUB DUP2 ADD SWAP1 PUSH2 0x1E2 SWAP2 SWAP1 PUSH2 0x1DAA JUMP JUMPDEST PUSH2 0x5D6 JUMP JUMPDEST STOP JUMPDEST PUSH2 0x203 PUSH1 0x4 DUP1 CALLDATASIZE SUB DUP2 ADD SWAP1 PUSH2 0x1FE SWAP2 SWAP1 PUSH2 0x1DE8 JUMP JUMPDEST PUSH2 0x5EC JUMP JUMPDEST STOP JUMPDEST PUSH2 0x20D PUSH2 0x6EB JUMP JUMPDEST PUSH1 0x40 MLOAD PUSH2 0x21A SWAP2 SWAP1 PUSH2 0x1E47 JUMP JUMPDEST PUSH1 0x40 MLOAD DUP1 SWAP2 SUB SWAP1 RETURN JUMPDEST PUSH2 0x23D PUSH1 0x4 DUP1 CALLDATASIZE SUB DUP2 ADD SWAP1 PUSH2 0x238 SWAP2 SWAP1 PUSH2 0x1E60 JUMP JUMPDEST PUSH2 0x70F JUMP JUMPDEST STOP JUMPDEST PUSH2 0x259 PUSH1 0x4 DUP1 CALLDATASIZE SUB DUP2 ADD SWAP1 PUSH2 0x254 SWAP2 SWAP1 PUSH2 0x1DE8 JUMP JUMPDEST PUSH2 0x77B JUMP JUMPDEST STOP JUMPDEST PUSH2 0x263 PUSH2 0x79A JUMP JUMPDEST PUSH1 0x40 MLOAD PUSH2 0x270 SWAP2 SWAP1 PUSH2 0x1CAA JUMP JUMPDEST PUSH1 0x40 MLOAD DUP1 SWAP2 SUB SWAP1 RETURN JUMPDEST PUSH2 0x281 PUSH2 0x826 JUMP JUMPDEST PUSH1 0x40 MLOAD PUSH2 0x28E SWAP2 SWAP1 PUSH2 0x1D67 JUMP JUMPDEST PUSH1 0x40 MLOAD DUP1 SWAP2 SUB SWAP1 RETURN JUMPDEST PUSH2 0x2B1 PUSH1 0x4 DUP1 CALLDATASIZE SUB DUP2 ADD SWAP1 PUSH2 0x2AC SWAP2 SWAP1 PUSH2 0x1CFD JUMP JUMPDEST PUSH2 0x84A JUMP JUMPDEST PUSH1 0x40 MLOAD PUSH2 0x2BE SWAP2 SWAP1 PUSH2 0x1D67 JUMP JUMPDEST PUSH1 0x40 MLOAD DUP1 SWAP2 SUB SWAP1 RETURN JUMPDEST PUSH2 0x2E1 PUSH1 0x4 DUP1 CALLDATASIZE SUB DUP2 ADD SWAP1 PUSH2 0x2DC SWAP2 SWAP1 PUSH2 0x1E60 JUMP JUMPDEST PUSH2 0x85B JUMP JUMPDEST PUSH1 0x40 MLOAD PUSH2 0x2EE SWAP2 SWAP1 PUSH2 0x1E47 JUMP JUMPDEST PUSH1 0x40 MLOAD DUP1 SWAP2 SUB SWAP1 RETURN JUMPDEST PUSH2 0x2FF PUSH2 0x911 JUMP JUMPDEST STOP JUMPDEST PUSH2 0x309 PUSH2 0x924 JUMP JUMPDEST PUSH1 0x40 MLOAD PUSH2 0x316 SWAP2 SWAP1 PUSH2 0x1D67 JUMP JUMPDEST PUSH1 0x40 MLOAD DUP1 SWAP2 SUB SWAP1 RETURN JUMPDEST PUSH2 0x327 PUSH2 0x949 JUMP JUMPDEST PUSH1 0x40 MLOAD PUSH2 0x334 SWAP2 SWAP1 PUSH2 0x1D67 JUMP JUMPDEST PUSH1 0x40 MLOAD DUP1 SWAP2 SUB SWAP1 RETURN JUMPDEST PUSH2 0x345 PUSH2 0x971 JUMP JUMPDEST PUSH1 0x40 MLOAD PUSH2 0x352 SWAP2 SWAP1 PUSH2 0x1CAA JUMP JUMPDEST PUSH1 0x40 MLOAD DUP1 SWAP2 SUB SWAP1 RETURN JUMPDEST PUSH2 0x375 PUSH1 0x4 DUP1 CALLDATASIZE SUB DUP2 ADD SWAP1 PUSH2 0x370 SWAP2 SWAP1 PUSH2 0x1EB5 JUMP JUMPDEST PUSH2 0xA01 JUMP JUMPDEST STOP JUMPDEST PUSH2 0x37F PUSH2 0xA17 JUMP JUMPDEST PUSH1 0x40 MLOAD PUSH2 0x38C SWAP2 SWAP1 PUSH2 0x1E47 JUMP JUMPDEST PUSH1 0x40 MLOAD DUP1 SWAP2 SUB SWAP1 RETURN JUMPDEST PUSH2 0x3AF PUSH1 0x4 DUP1 CALLDATASIZE SUB DUP2 ADD SWAP1 PUSH2 0x3AA SWAP2 SWAP1 PUSH2 0x201F JUMP JUMPDEST PUSH2 0xA1D JUMP JUMPDEST STOP JUMPDEST PUSH2 0x3CB PUSH1 0x4 DUP1 CALLDATASIZE SUB DUP2 ADD SWAP1 PUSH2 0x3C6 SWAP2 SWAP1 PUSH2 0x1CFD JUMP JUMPDEST PUSH2 0xA42 JUMP JUMPDEST PUSH1 0x40 MLOAD PUSH2 0x3D8 SWAP2 SWAP1 PUSH2 0x1CAA JUMP JUMPDEST PUSH1 0x40 MLOAD DUP1 SWAP2 SUB SWAP1 RETURN JUMPDEST PUSH2 0x3FB PUSH1 0x4 DUP1 CALLDATASIZE SUB DUP2 ADD SWAP1 PUSH2 0x3F6 SWAP2 SWAP1 PUSH2 0x209F JUMP JUMPDEST PUSH2 0xAA8 JUMP JUMPDEST PUSH1 0x40 MLOAD PUSH2 0x408 SWAP2 SWAP1 PUSH2 0x1C21 JUMP JUMPDEST PUSH1 0x40 MLOAD DUP1 SWAP2 SUB SWAP1 RETURN JUMPDEST PUSH2 0x42B PUSH1 0x4 DUP1 CALLDATASIZE SUB DUP2 ADD SWAP1 PUSH2 0x426 SWAP2 SWAP1 PUSH2 0x1E60 JUMP JUMPDEST PUSH2 0xB36 JUMP JUMPDEST STOP JUMPDEST PUSH2 0x435 PUSH2 0xBBA JUMP JUMPDEST PUSH1 0x40 MLOAD PUSH2 0x442 SWAP2 SWAP1 PUSH2 0x1C21 JUMP JUMPDEST PUSH1 0x40 MLOAD DUP1 SWAP2 SUB SWAP1 RETURN JUMPDEST PUSH0 PUSH32 0x80AC58CD00000000000000000000000000000000000000000000000000000000 PUSH28 0xFFFFFFFFFFFFFFFFFFFFFFFFFFFFFFFFFFFFFFFFFFFFFFFFFFFFFFFF NOT AND DUP3 PUSH28 0xFFFFFFFFFFFFFFFFFFFFFFFFFFFFFFFFFFFFFFFFFFFFFFFFFFFFFFFF NOT AND EQ DUP1 PUSH2 0x515 JUMPI POP PUSH32 0x5B5E139F00000000000000000000000000000000000000000000000000000000 PUSH28 0xFFFFFFFFFFFFFFFFFFFFFFFFFFFFFFFFFFFFFFFFFFFFFFFFFFFFFFFF NOT AND DUP3 PUSH28 0xFFFFFFFFFFFFFFFFFFFFFFFFFFFFFFFFFFFFFFFFFFFFFFFFFFFFFFFF NOT AND EQ JUMPDEST DUP1 PUSH2 0x525 JUMPI POP PUSH2 0x524 DUP3 PUSH2 0xBDE JUMP JUMPDEST JUMPDEST SWAP1 POP SWAP2 SWAP1 POP JUMP JUMPDEST PUSH1 0x60 PUSH0 DUP1 SLOAD PUSH2 0x53A SWAP1 PUSH2 0x210A JUMP JUMPDEST DUP1 PUSH1 0x1F ADD PUSH1 0x20 DUP1 SWAP2 DIV MUL PUSH1 0x20 ADD PUSH1 0x40 MLOAD SWAP1 DUP2 ADD PUSH1 0x40 MSTORE DUP1 SWAP3 SWAP2 SWAP1 DUP2 DUP2 MSTORE PUSH1 0x20 ADD DUP3 DUP1 SLOAD PUSH2 0x566 SWAP1 PUSH2 0x210A JUMP JUMPDEST DUP1 ISZERO PUSH2 0x5B1 JUMPI DUP1 PUSH1 0x1F LT PUSH2 0x588 JUMPI PUSH2 0x100 DUP1 DUP4 SLOAD DIV MUL DUP4 MSTORE SWAP2 PUSH1 0x20 ADD SWAP2 PUSH2 0x5B1 JUMP JUMPDEST DUP3 ADD SWAP2 SWAP1 PUSH0 MSTORE PUSH1 0x20 PUSH0 KECCAK256 SWAP1 JUMPDEST DUP2 SLOAD DUP2 MSTORE SWAP1 PUSH1 0x1 ADD SWAP1 PUSH1 0x20 ADD DUP1 DUP4 GT PUSH2 0x594 JUMPI DUP3 SWAP1 SUB PUSH1 0x1F AND DUP3 ADD SWAP2 JUMPDEST POP POP POP POP POP SWAP1 POP SWAP1 JUMP JUMPDEST PUSH0 PUSH2 0x5C5 DUP3 PUSH2 0xC47 JUMP JUMPDEST POP PUSH2 0x5CF DUP3 PUSH2 0xCCD JUMP JUMPDEST SWAP1 POP SWAP2 SWAP1 POP JUMP JUMPDEST PUSH2 0x5E8 DUP3 DUP3 PUSH2 0x5E3 PUSH2 0xD06 JUMP JUMPDEST PUSH2 0xD0D JUMP JUMPDEST POP POP JUMP JUMPDEST PUSH0 PUSH20 0xFFFFFFFFFFFFFFFFFFFFFFFFFFFFFFFFFFFFFFFF AND DUP3 PUSH20 0xFFFFFFFFFFFFFFFFFFFFFFFFFFFFFFFFFFFFFFFF AND SUB PUSH2 0x65C JUMPI PUSH0 PUSH1 0x40 MLOAD PUSH32 0x64A0AE9200000000000000000000000000000000000000000000000000000000 DUP2 MSTORE PUSH1 0x4 ADD PUSH2 0x653 SWAP2 SWAP1 PUSH2 0x1D67 JUMP JUMPDEST PUSH1 0x40 MLOAD DUP1 SWAP2 SUB SWAP1 REVERT JUMPDEST PUSH0 PUSH2 0x66F DUP4 DUP4 PUSH2 0x66A PUSH2 0xD06 JUMP JUMPDEST PUSH2 0xD1F JUMP JUMPDEST SWAP1 POP DUP4 PUSH20 0xFFFFFFFFFFFFFFFFFFFFFFFFFFFFFFFFFFFFFFFF AND DUP2 PUSH20 0xFFFFFFFFFFFFFFFFFFFFFFFFFFFFFFFFFFFFFFFF AND EQ PUSH2 0x6E5 JUMPI DUP4 DUP3 DUP3 PUSH1 0x40 MLOAD PUSH32 0x64283D7B00000000000000000000000000000000000000000000000000000000 DUP2 MSTORE PUSH1 0x4 ADD PUSH2 0x6DC SWAP4 SWAP3 SWAP2 SWAP1 PUSH2 0x213A JUMP JUMPDEST PUSH1 0x40 MLOAD DUP1 SWAP2 SUB SWAP1 REVERT JUMPDEST POP POP POP POP JUMP JUMPDEST PUSH32 0x0 DUP2 JUMP JUMPDEST PUSH2 0x717 PUSH2 0xE2D JUMP JUMPDEST PUSH1 0xA SLOAD PUSH1 0x7 SLOAD SUB PUSH2 0x754 JUMPI PUSH1 0x40 MLOAD PUSH32 0xF04CBD4A00000000000000000000000000000000000000000000000000000000 DUP2 MSTORE PUSH1 0x4 ADD PUSH1 0x40 MLOAD DUP1 SWAP2 SUB SWAP1 REVERT JUMPDEST PUSH0 PUSH1 0x7 PUSH0 DUP2 SLOAD DUP1 SWAP3 SWAP2 SWAP1 PUSH2 0x767 SWAP1 PUSH2 0x219C JUMP JUMPDEST SWAP2 SWAP1 POP SSTORE SWAP1 POP PUSH2 0x777 DUP3 DUP3 PUSH2 0xEB4 JUMP JUMPDEST POP POP JUMP JUMPDEST PUSH2 0x795 DUP4 DUP4 DUP4 PUSH1 0x40 MLOAD DUP1 PUSH1 0x20 ADD PUSH1 0x40 MSTORE DUP1 PUSH0 DUP2 MSTORE POP PUSH2 0xA1D JUMP JUMPDEST POP POP POP JUMP JUMPDEST PUSH1 0x9 DUP1 SLOAD PUSH2 0x7A7 SWAP1 PUSH2 0x210A JUMP JUMPDEST DUP1 PUSH1 0x1F ADD PUSH1 0x20 DUP1 SWAP2 DIV MUL PUSH1 0x20 ADD PUSH1 0x40 MLOAD SWAP1 DUP2 ADD PUSH1 0x40 MSTORE DUP1 SWAP3 SWAP2 SWAP1 DUP2 DUP2 MSTORE PUSH1 0x20 ADD DUP3 DUP1 SLOAD PUSH2 0x7D3 SWAP1 PUSH2 0x210A JUMP JUMPDEST DUP1 ISZERO PUSH2 0x81E JUMPI DUP1 PUSH1 0x1F LT PUSH2 0x7F5 JUMPI PUSH2 0x100 DUP1 DUP4 SLOAD DIV MUL DUP4 MSTORE SWAP2 PUSH1 0x20 ADD SWAP2 PUSH2 0x81E JUMP JUMPDEST DUP3 ADD SWAP2 SWAP1 PUSH0 MSTORE PUSH1 0x20 PUSH0 KECCAK256 SWAP1 JUMPDEST DUP2 SLOAD DUP2 MSTORE SWAP1 PUSH1 0x1 ADD SWAP1 PUSH1 0x20 ADD DUP1 DUP4 GT PUSH2 0x801 JUMPI DUP3 SWAP1 SUB PUSH1 0x1F AND DUP3 ADD SWAP2 JUMPDEST POP POP POP POP POP DUP2 JUMP JUMPDEST PUSH32 0x0 DUP2 JUMP JUMPDEST PUSH0 PUSH2 0x854 DUP3 PUSH2 0xC47 JUMP JUMPDEST SWAP1 POP SWAP2 SWAP1 POP JUMP JUMPDEST PUSH0 PUSH0 PUSH20 0xFFFFFFFFFFFFFFFFFFFFFFFFFFFFFFFFFFFFFFFF AND DUP3 PUSH20 0xFFFFFFFFFFFFFFFFFFFFFFFFFFFFFFFFFFFFFFFF AND SUB PUSH2 0x8CC JUMPI PUSH0 PUSH1 0x40 MLOAD PUSH32 0x89C62B6400000000000000000000000000000000000000000000000000000000 DUP2 MSTORE PUSH1 0x4 ADD PUSH2 0x8C3 SWAP2 SWAP1 PUSH2 0x1D67 JUMP JUMPDEST PUSH1 0x40 MLOAD DUP1 SWAP2 SUB SWAP1 REVERT JUMPDEST PUSH1 0x3 PUSH0 DUP4 PUSH20 0xFFFFFFFFFFFFFFFFFFFFFFFFFFFFFFFFFFFFFFFF AND PUSH20 0xFFFFFFFFFFFFFFFFFFFFFFFFFFFFFFFFFFFFFFFF AND DUP2 MSTORE PUSH1 0x20 ADD SWAP1 DUP2 MSTORE PUSH1 0x20 ADD PUSH0 KECCAK256 SLOAD SWAP1 POP SWAP2 SWAP1 POP JUMP JUMPDEST PUSH2 0x919 PUSH2 0xE2D JUMP JUMPDEST PUSH2 0x922 PUSH0 PUSH2 0xED1 JUMP JUMPDEST JUMP JUMPDEST PUSH1 0x8 PUSH0 SWAP1 SLOAD SWAP1 PUSH2 0x100 EXP SWAP1 DIV PUSH20 0xFFFFFFFFFFFFFFFFFFFFFFFFFFFFFFFFFFFFFFFF AND DUP2 JUMP JUMPDEST PUSH0 PUSH1 0x6 PUSH0 SWAP1 SLOAD SWAP1 PUSH2 0x100 EXP SWAP1 DIV PUSH20 0xFFFFFFFFFFFFFFFFFFFFFFFFFFFFFFFFFFFFFFFF AND SWAP1 POP SWAP1 JUMP JUMPDEST PUSH1 0x60 PUSH1 0x1 DUP1 SLOAD PUSH2 0x980 SWAP1 PUSH2 0x210A JUMP JUMPDEST DUP1 PUSH1 0x1F ADD PUSH1 0x20 DUP1 SWAP2 DIV MUL PUSH1 0x20 ADD PUSH1 0x40 MLOAD SWAP1 DUP2 ADD PUSH1 0x40 MSTORE DUP1 SWAP3 SWAP2 SWAP1 DUP2 DUP2 MSTORE PUSH1 0x20 ADD DUP3 DUP1 SLOAD PUSH2 0x9AC SWAP1 PUSH2 0x210A JUMP JUMPDEST DUP1 ISZERO PUSH2 0x9F7 JUMPI DUP1 PUSH1 0x1F LT PUSH2 0x9CE JUMPI PUSH2 0x100 DUP1 DUP4 SLOAD DIV MUL DUP4 MSTORE SWAP2 PUSH1 0x20 ADD SWAP2 PUSH2 0x9F7 JUMP JUMPDEST DUP3 ADD SWAP2 SWAP1 PUSH0 MSTORE PUSH1 0x20 PUSH0 KECCAK256 SWAP1 JUMPDEST DUP2 SLOAD DUP2 MSTORE SWAP1 PUSH1 0x1 ADD SWAP1 PUSH1 0x20 ADD DUP1 DUP4 GT PUSH2 0x9DA JUMPI DUP3 SWAP1 SUB PUSH1 0x1F AND DUP3 ADD SWAP2 JUMPDEST POP POP POP POP POP SWAP1 POP SWAP1 JUMP JUMPDEST PUSH2 0xA13 PUSH2 0xA0C PUSH2 0xD06 JUMP JUMPDEST DUP4 DUP4 PUSH2 0xF94 JUMP JUMPDEST POP POP JUMP JUMPDEST PUSH1 0xA SLOAD DUP2 JUMP JUMPDEST PUSH2 0xA28 DUP5 DUP5 DUP5 PUSH2 0x5EC JUMP JUMPDEST PUSH2 0xA3C PUSH2 0xA33 PUSH2 0xD06 JUMP JUMPDEST DUP6 DUP6 DUP6 DUP6 PUSH2 0x10FD JUMP JUMPDEST POP POP POP POP JUMP JUMPDEST PUSH1 0x60 PUSH2 0xA4D DUP3 PUSH2 0xC47 JUMP JUMPDEST POP PUSH0 PUSH2 0xA57 PUSH2 0x12A9 JUMP JUMPDEST SWAP1 POP PUSH0 DUP2 MLOAD GT PUSH2 0xA75 JUMPI PUSH1 0x40 MLOAD DUP1 PUSH1 0x20 ADD PUSH1 0x40 MSTORE DUP1 PUSH0 DUP2 MSTORE POP PUSH2 0xAA0 JUMP JUMPDEST DUP1 PUSH2 0xA7F DUP5 PUSH2 0x12BF JUMP JUMPDEST PUSH1 0x40 MLOAD PUSH1 0x20 ADD PUSH2 0xA90 SWAP3 SWAP2 SWAP1 PUSH2 0x221D JUMP JUMPDEST PUSH1 0x40 MLOAD PUSH1 0x20 DUP2 DUP4 SUB SUB DUP2 MSTORE SWAP1 PUSH1 0x40 MSTORE JUMPDEST SWAP2 POP POP SWAP2 SWAP1 POP JUMP JUMPDEST PUSH0 PUSH1 0x5 PUSH0 DUP5 PUSH20 0xFFFFFFFFFFFFFFFFFFFFFFFFFFFFFFFFFFFFFFFF AND PUSH20 0xFFFFFFFFFFFFFFFFFFFFFFFFFFFFFFFFFFFFFFFF AND DUP2 MSTORE PUSH1 0x20 ADD SWAP1 DUP2 MSTORE PUSH1 0x20 ADD PUSH0 KECCAK256 PUSH0 DUP4 PUSH20 0xFFFFFFFFFFFFFFFFFFFFFFFFFFFFFFFFFFFFFFFF AND PUSH20 0xFFFFFFFFFFFFFFFFFFFFFFFFFFFFFFFFFFFFFFFF AND DUP2 MSTORE PUSH1 0x20 ADD SWAP1 DUP2 MSTORE PUSH1 0x20 ADD PUSH0 KECCAK256 PUSH0 SWAP1 SLOAD SWAP1 PUSH2 0x100 EXP SWAP1 DIV PUSH1 0xFF AND SWAP1 POP SWAP3 SWAP2 POP POP JUMP JUMPDEST PUSH2 0xB3E PUSH2 0xE2D JUMP JUMPDEST PUSH0 PUSH20 0xFFFFFFFFFFFFFFFFFFFFFFFFFFFFFFFFFFFFFFFF AND DUP2 PUSH20 0xFFFFFFFFFFFFFFFFFFFFFFFFFFFFFFFFFFFFFFFF AND SUB PUSH2 0xBAE JUMPI PUSH0 PUSH1 0x40 MLOAD PUSH32 0x1E4FBDF700000000000000000000000000000000000000000000000000000000 DUP2 MSTORE PUSH1 0x4 ADD PUSH2 0xBA5 SWAP2 SWAP1 PUSH2 0x1D67 JUMP JUMPDEST PUSH1 0x40 MLOAD DUP1 SWAP2 SUB SWAP1 REVERT JUMPDEST PUSH2 0xBB7 DUP2 PUSH2 0xED1 JUMP JUMPDEST POP JUMP JUMPDEST PUSH32 0x0 DUP2 JUMP JUMPDEST PUSH0 PUSH32 0x1FFC9A700000000000000000000000000000000000000000000000000000000 PUSH28 0xFFFFFFFFFFFFFFFFFFFFFFFFFFFFFFFFFFFFFFFFFFFFFFFFFFFFFFFF NOT AND DUP3 PUSH28 0xFFFFFFFFFFFFFFFFFFFFFFFFFFFFFFFFFFFFFFFFFFFFFFFFFFFFFFFF NOT AND EQ SWAP1 POP SWAP2 SWAP1 POP JUMP JUMPDEST PUSH0 PUSH0 PUSH2 0xC52 DUP4 PUSH2 0x1389 JUMP JUMPDEST SWAP1 POP PUSH0 PUSH20 0xFFFFFFFFFFFFFFFFFFFFFFFFFFFFFFFFFFFFFFFF AND DUP2 PUSH20 0xFFFFFFFFFFFFFFFFFFFFFFFFFFFFFFFFFFFFFFFF AND SUB PUSH2 0xCC4 JUMPI DUP3 PUSH1 0x40 MLOAD PUSH32 0x7E27328900000000000000000000000000000000000000000000000000000000 DUP2 MSTORE PUSH1 0x4 ADD PUSH2 0xCBB SWAP2 SWAP1 PUSH2 0x1E47 JUMP JUMPDEST PUSH1 0x40 MLOAD DUP1 SWAP2 SUB SWAP1 REVERT JUMPDEST DUP1 SWAP2 POP POP SWAP2 SWAP1 POP JUMP JUMPDEST PUSH0 PUSH1 0x4 PUSH0 DUP4 DUP2 MSTORE PUSH1 0x20 ADD SWAP1 DUP2 MSTORE PUSH1 0x20 ADD PUSH0 KECCAK256 PUSH0 SWAP1 SLOAD SWAP1 PUSH2 0x100 EXP SWAP1 DIV PUSH20 0xFFFFFFFFFFFFFFFFFFFFFFFFFFFFFFFFFFFFFFFF AND SWAP1 POP SWAP2 SWAP1 POP JUMP JUMPDEST PUSH0 CALLER SWAP1 POP SWAP1 JUMP JUMPDEST PUSH2 0xD1A DUP4 DUP4 DUP4 PUSH1 0x1 PUSH2 0x13C2 JUMP JUMPDEST POP POP POP JUMP JUMPDEST PUSH0 PUSH32 0x0 DUP1 ISZERO PUSH2 0xD80 JUMPI POP PUSH2 0xD50 PUSH2 0x949 JUMP JUMPDEST PUSH20 0xFFFFFFFFFFFFFFFFFFFFFFFFFFFFFFFFFFFFFFFF AND CALLER PUSH20 0xFFFFFFFFFFFFFFFFFFFFFFFFFFFFFFFFFFFFFFFF AND EQ ISZERO JUMPDEST DUP1 ISZERO PUSH2 0xDD9 JUMPI POP PUSH1 0x8 PUSH0 SWAP1 SLOAD SWAP1 PUSH2 0x100 EXP SWAP1 DIV PUSH20 0xFFFFFFFFFFFFFFFFFFFFFFFFFFFFFFFFFFFFFFFF AND PUSH20 0xFFFFFFFFFFFFFFFFFFFFFFFFFFFFFFFFFFFFFFFF AND DUP5 PUSH20 0xFFFFFFFFFFFFFFFFFFFFFFFFFFFFFFFFFFFFFFFF AND EQ ISZERO JUMPDEST ISZERO PUSH2 0xE19 JUMPI PUSH1 0x40 MLOAD PUSH32 0x8C379A000000000000000000000000000000000000000000000000000000000 DUP2 MSTORE PUSH1 0x4 ADD PUSH2 0xE10 SWAP1 PUSH2 0x228A JUMP JUMPDEST PUSH1 0x40 MLOAD DUP1 SWAP2 SUB SWAP1 REVERT JUMPDEST PUSH2 0xE24 DUP5 DUP5 DUP5 PUSH2 0x1581 JUMP JUMPDEST SWAP1 POP SWAP4 SWAP3 POP POP POP JUMP JUMPDEST PUSH2 0xE35 PUSH2 0xD06 JUMP JUMPDEST PUSH20 0xFFFFFFFFFFFFFFFFFFFFFFFFFFFFFFFFFFFFFFFF AND PUSH2 0xE53 PUSH2 0x949 JUMP JUMPDEST PUSH20 0xFFFFFFFFFFFFFFFFFFFFFFFFFFFFFFFFFFFFFFFF AND EQ PUSH2 0xEB2 JUMPI PUSH2 0xE76 PUSH2 0xD06 JUMP JUMPDEST PUSH1 0x40 MLOAD PUSH32 0x118CDAA700000000000000000000000000000000000000000000000000000000 DUP2 MSTORE PUSH1 0x4 ADD PUSH2 0xEA9 SWAP2 SWAP1 PUSH2 0x1D67 JUMP JUMPDEST PUSH1 0x40 MLOAD DUP1 SWAP2 SUB SWAP1 REVERT JUMPDEST JUMP JUMPDEST PUSH2 0xECD DUP3 DUP3 PUSH1 0x40 MLOAD DUP1 PUSH1 0x20 ADD PUSH1 0x40 MSTORE DUP1 PUSH0 DUP2 MSTORE POP PUSH2 0x178C JUMP JUMPDEST POP POP JUMP JUMPDEST PUSH0 PUSH1 0x6 PUSH0 SWAP1 SLOAD SWAP1 PUSH2 0x100 EXP SWAP1 DIV PUSH20 0xFFFFFFFFFFFFFFFFFFFFFFFFFFFFFFFFFFFFFFFF AND SWAP1 POP DUP2 PUSH1 0x6 PUSH0 PUSH2 0x100 EXP DUP2 SLOAD DUP2 PUSH20 0xFFFFFFFFFFFFFFFFFFFFFFFFFFFFFFFFFFFFFFFF MUL NOT AND SWAP1 DUP4 PUSH20 0xFFFFFFFFFFFFFFFFFFFFFFFFFFFFFFFFFFFFFFFF AND MUL OR SWAP1 SSTORE POP DUP2 PUSH20 0xFFFFFFFFFFFFFFFFFFFFFFFFFFFFFFFFFFFFFFFF AND DUP2 PUSH20 0xFFFFFFFFFFFFFFFFFFFFFFFFFFFFFFFFFFFFFFFF AND PUSH32 0x8BE0079C531659141344CD1FD0A4F28419497F9722A3DAAFE3B4186F6B6457E0 PUSH1 0x40 MLOAD PUSH1 0x40 MLOAD DUP1 SWAP2 SUB SWAP1 LOG3 POP POP JUMP JUMPDEST PUSH0 PUSH20 0xFFFFFFFFFFFFFFFFFFFFFFFFFFFFFFFFFFFFFFFF AND DUP3 PUSH20 0xFFFFFFFFFFFFFFFFFFFFFFFFFFFFFFFFFFFFFFFF AND SUB PUSH2 0x1004 JUMPI DUP2 PUSH1 0x40 MLOAD PUSH32 0x5B08BA1800000000000000000000000000000000000000000000000000000000 DUP2 MSTORE PUSH1 0x4 ADD PUSH2 0xFFB SWAP2 SWAP1 PUSH2 0x1D67 JUMP JUMPDEST PUSH1 0x40 MLOAD DUP1 SWAP2 SUB SWAP1 REVERT JUMPDEST DUP1 PUSH1 0x5 PUSH0 DUP6 PUSH20 0xFFFFFFFFFFFFFFFFFFFFFFFFFFFFFFFFFFFFFFFF AND PUSH20 0xFFFFFFFFFFFFFFFFFFFFFFFFFFFFFFFFFFFFFFFF AND DUP2 MSTORE PUSH1 0x20 ADD SWAP1 DUP2 MSTORE PUSH1 0x20 ADD PUSH0 KECCAK256 PUSH0 DUP5 PUSH20 0xFFFFFFFFFFFFFFFFFFFFFFFFFFFFFFFFFFFFFFFF AND PUSH20 0xFFFFFFFFFFFFFFFFFFFFFFFFFFFFFFFFFFFFFFFF AND DUP2 MSTORE PUSH1 0x20 ADD SWAP1 DUP2 MSTORE PUSH1 0x20 ADD PUSH0 KECCAK256 PUSH0 PUSH2 0x100 EXP DUP2 SLOAD DUP2 PUSH1 0xFF MUL NOT AND SWAP1 DUP4 ISZERO ISZERO MUL OR SWAP1 SSTORE POP DUP2 PUSH20 0xFFFFFFFFFFFFFFFFFFFFFFFFFFFFFFFFFFFFFFFF AND DUP4 PUSH20 0xFFFFFFFFFFFFFFFFFFFFFFFFFFFFFFFFFFFFFFFF AND PUSH32 0x17307EAB39AB6107E8899845AD3D59BD9653F200F220920489CA2B5937696C31 DUP4 PUSH1 0x40 MLOAD PUSH2 0x10F0 SWAP2 SWAP1 PUSH2 0x1C21 JUMP JUMPDEST PUSH1 0x40 MLOAD DUP1 SWAP2 SUB SWAP1 LOG3 POP POP POP JUMP JUMPDEST PUSH0 DUP4 PUSH20 0xFFFFFFFFFFFFFFFFFFFFFFFFFFFFFFFFFFFFFFFF AND EXTCODESIZE GT ISZERO PUSH2 0x12A2 JUMPI DUP3 PUSH20 0xFFFFFFFFFFFFFFFFFFFFFFFFFFFFFFFFFFFFFFFF AND PUSH4 0x150B7A02 DUP7 DUP7 DUP6 DUP6 PUSH1 0x40 MLOAD DUP6 PUSH4 0xFFFFFFFF AND PUSH1 0xE0 SHL DUP2 MSTORE PUSH1 0x4 ADD PUSH2 0x115B SWAP5 SWAP4 SWAP3 SWAP2 SWAP1 PUSH2 0x22FA JUMP JUMPDEST PUSH1 0x20 PUSH1 0x40 MLOAD DUP1 DUP4 SUB DUP2 PUSH0 DUP8 GAS CALL SWAP3 POP POP POP DUP1 ISZERO PUSH2 0x1196 JUMPI POP PUSH1 0x40 MLOAD RETURNDATASIZE PUSH1 0x1F NOT PUSH1 0x1F DUP3 ADD AND DUP3 ADD DUP1 PUSH1 0x40 MSTORE POP DUP2 ADD SWAP1 PUSH2 0x1193 SWAP2 SWAP1 PUSH2 0x2358 JUMP JUMPDEST PUSH1 0x1 JUMPDEST PUSH2 0x1217 JUMPI RETURNDATASIZE DUP1 PUSH0 DUP2 EQ PUSH2 0x11C4 JUMPI PUSH1 0x40 MLOAD SWAP2 POP PUSH1 0x1F NOT PUSH1 0x3F RETURNDATASIZE ADD AND DUP3 ADD PUSH1 0x40 MSTORE RETURNDATASIZE DUP3 MSTORE RETURNDATASIZE PUSH0 PUSH1 0x20 DUP5 ADD RETURNDATACOPY PUSH2 0x11C9 JUMP JUMPDEST PUSH1 0x60 SWAP2 POP JUMPDEST POP PUSH0 DUP2 MLOAD SUB PUSH2 0x120F JUMPI DUP4 PUSH1 0x40 MLOAD PUSH32 0x64A0AE9200000000000000000000000000000000000000000000000000000000 DUP2 MSTORE PUSH1 0x4 ADD PUSH2 0x1206 SWAP2 SWAP1 PUSH2 0x1D67 JUMP JUMPDEST PUSH1 0x40 MLOAD DUP1 SWAP2 SUB SWAP1 REVERT JUMPDEST DUP1 MLOAD DUP2 PUSH1 0x20 ADD REVERT JUMPDEST PUSH4 0x150B7A02 PUSH1 0xE0 SHL PUSH28 0xFFFFFFFFFFFFFFFFFFFFFFFFFFFFFFFFFFFFFFFFFFFFFFFFFFFFFFFF NOT AND DUP2 PUSH28 0xFFFFFFFFFFFFFFFFFFFFFFFFFFFFFFFFFFFFFFFFFFFFFFFFFFFFFFFF NOT AND EQ PUSH2 0x12A0 JUMPI DUP4 PUSH1 0x40 MLOAD PUSH32 0x64A0AE9200000000000000000000000000000000000000000000000000000000 DUP2 MSTORE PUSH1 0x4 ADD PUSH2 0x1297 SWAP2 SWAP1 PUSH2 0x1D67 JUMP JUMPDEST PUSH1 0x40 MLOAD DUP1 SWAP2 SUB SWAP1 REVERT JUMPDEST POP JUMPDEST POP POP POP POP POP JUMP JUMPDEST PUSH1 0x60 PUSH1 0x40 MLOAD DUP1 PUSH1 0x20 ADD PUSH1 0x40 MSTORE DUP1 PUSH0 DUP2 MSTORE POP SWAP1 POP SWAP1 JUMP JUMPDEST PUSH1 0x60 PUSH0 PUSH1 0x1 PUSH2 0x12CD DUP5 PUSH2 0x17AF JUMP JUMPDEST ADD SWAP1 POP PUSH0 DUP2 PUSH8 0xFFFFFFFFFFFFFFFF DUP2 GT ISZERO PUSH2 0x12EB JUMPI PUSH2 0x12EA PUSH2 0x1EFB JUMP JUMPDEST JUMPDEST PUSH1 0x40 MLOAD SWAP1 DUP1 DUP3 MSTORE DUP1 PUSH1 0x1F ADD PUSH1 0x1F NOT AND PUSH1 0x20 ADD DUP3 ADD PUSH1 0x40 MSTORE DUP1 ISZERO PUSH2 0x131D JUMPI DUP2 PUSH1 0x20 ADD PUSH1 0x1 DUP3 MUL DUP1 CALLDATASIZE DUP4 CALLDATACOPY DUP1 DUP3 ADD SWAP2 POP POP SWAP1 POP JUMPDEST POP SWAP1 POP PUSH0 DUP3 PUSH1 0x20 ADD DUP3 ADD SWAP1 POP JUMPDEST PUSH1 0x1 ISZERO PUSH2 0x137E JUMPI DUP1 DUP1 PUSH1 0x1 SWAP1 SUB SWAP2 POP POP PUSH32 0x3031323334353637383961626364656600000000000000000000000000000000 PUSH1 0xA DUP7 MOD BYTE DUP2 MSTORE8 PUSH1 0xA DUP6 DUP2 PUSH2 0x1373 JUMPI PUSH2 0x1372 PUSH2 0x2383 JUMP JUMPDEST JUMPDEST DIV SWAP5 POP PUSH0 DUP6 SUB PUSH2 0x132A JUMPI JUMPDEST DUP2 SWAP4 POP POP POP POP SWAP2 SWAP1 POP JUMP JUMPDEST PUSH0 PUSH1 0x2 PUSH0 DUP4 DUP2 MSTORE PUSH1 0x20 ADD SWAP1 DUP2 MSTORE PUSH1 0x20 ADD PUSH0 KECCAK256 PUSH0 SWAP1 SLOAD SWAP1 PUSH2 0x100 EXP SWAP1 DIV PUSH20 0xFFFFFFFFFFFFFFFFFFFFFFFFFFFFFFFFFFFFFFFF AND SWAP1 POP SWAP2 SWAP1 POP JUMP JUMPDEST DUP1 DUP1 PUSH2 0x13FA JUMPI POP PUSH0 PUSH20 0xFFFFFFFFFFFFFFFFFFFFFFFFFFFFFFFFFFFFFFFF AND DUP3 PUSH20 0xFFFFFFFFFFFFFFFFFFFFFFFFFFFFFFFFFFFFFFFF AND EQ ISZERO JUMPDEST ISZERO PUSH2 0x152C JUMPI PUSH0 PUSH2 0x1409 DUP5 PUSH2 0xC47 JUMP JUMPDEST SWAP1 POP PUSH0 PUSH20 0xFFFFFFFFFFFFFFFFFFFFFFFFFFFFFFFFFFFFFFFF AND DUP4 PUSH20 0xFFFFFFFFFFFFFFFFFFFFFFFFFFFFFFFFFFFFFFFF AND EQ ISZERO DUP1 ISZERO PUSH2 0x1473 JUMPI POP DUP3 PUSH20 0xFFFFFFFFFFFFFFFFFFFFFFFFFFFFFFFFFFFFFFFF AND DUP2 PUSH20 0xFFFFFFFFFFFFFFFFFFFFFFFFFFFFFFFFFFFFFFFF AND EQ ISZERO JUMPDEST DUP1 ISZERO PUSH2 0x1486 JUMPI POP PUSH2 0x1484 DUP2 DUP5 PUSH2 0xAA8 JUMP JUMPDEST ISZERO JUMPDEST ISZERO PUSH2 0x14C8 JUMPI DUP3 PUSH1 0x40 MLOAD PUSH32 0xA9FBF51F00000000000000000000000000000000000000000000000000000000 DUP2 MSTORE PUSH1 0x4 ADD PUSH2 0x14BF SWAP2 SWAP1 PUSH2 0x1D67 JUMP JUMPDEST PUSH1 0x40 MLOAD DUP1 SWAP2 SUB SWAP1 REVERT JUMPDEST DUP2 ISZERO PUSH2 0x152A JUMPI DUP4 DUP6 PUSH20 0xFFFFFFFFFFFFFFFFFFFFFFFFFFFFFFFFFFFFFFFF AND DUP3 PUSH20 0xFFFFFFFFFFFFFFFFFFFFFFFFFFFFFFFFFFFFFFFF AND PUSH32 0x8C5BE1E5EBEC7D5BD14F71427D1E84F3DD0314C0F7B2291E5B200AC8C7C3B925 PUSH1 0x40 MLOAD PUSH1 0x40 MLOAD DUP1 SWAP2 SUB SWAP1 LOG4 JUMPDEST POP JUMPDEST DUP4 PUSH1 0x4 PUSH0 DUP6 DUP2 MSTORE PUSH1 0x20 ADD SWAP1 DUP2 MSTORE PUSH1 0x20 ADD PUSH0 KECCAK256 PUSH0 PUSH2 0x100 EXP DUP2 SLOAD DUP2 PUSH20 0xFFFFFFFFFFFFFFFFFFFFFFFFFFFFFFFFFFFFFFFF MUL NOT AND SWAP1 DUP4 PUSH20 0xFFFFFFFFFFFFFFFFFFFFFFFFFFFFFFFFFFFFFFFF AND MUL OR SWAP1 SSTORE POP POP POP POP POP JUMP JUMPDEST PUSH0 PUSH0 PUSH2 0x158C DUP5 PUSH2 0x1389 JUMP JUMPDEST SWAP1 POP PUSH0 PUSH20 0xFFFFFFFFFFFFFFFFFFFFFFFFFFFFFFFFFFFFFFFF AND DUP4 PUSH20 0xFFFFFFFFFFFFFFFFFFFFFFFFFFFFFFFFFFFFFFFF AND EQ PUSH2 0x15CD JUMPI PUSH2 0x15CC DUP2 DUP5 DUP7 PUSH2 0x1900 JUMP JUMPDEST JUMPDEST PUSH0 PUSH20 0xFFFFFFFFFFFFFFFFFFFFFFFFFFFFFFFFFFFFFFFF AND DUP2 PUSH20 0xFFFFFFFFFFFFFFFFFFFFFFFFFFFFFFFFFFFFFFFF AND EQ PUSH2 0x1658 JUMPI PUSH2 0x160C PUSH0 DUP6 PUSH0 PUSH0 PUSH2 0x13C2 JUMP JUMPDEST PUSH1 0x1 PUSH1 0x3 PUSH0 DUP4 PUSH20 0xFFFFFFFFFFFFFFFFFFFFFFFFFFFFFFFFFFFFFFFF AND PUSH20 0xFFFFFFFFFFFFFFFFFFFFFFFFFFFFFFFFFFFFFFFF AND DUP2 MSTORE PUSH1 0x20 ADD SWAP1 DUP2 MSTORE PUSH1 0x20 ADD PUSH0 KECCAK256 PUSH0 DUP3 DUP3 SLOAD SUB SWAP3 POP POP DUP2 SWAP1 SSTORE POP JUMPDEST PUSH0 PUSH20 0xFFFFFFFFFFFFFFFFFFFFFFFFFFFFFFFFFFFFFFFF AND DUP6 PUSH20 0xFFFFFFFFFFFFFFFFFFFFFFFFFFFFFFFFFFFFFFFF AND EQ PUSH2 0x16D7 JUMPI PUSH1 0x1 PUSH1 0x3 PUSH0 DUP8 PUSH20 0xFFFFFFFFFFFFFFFFFFFFFFFFFFFFFFFFFFFFFFFF AND PUSH20 0xFFFFFFFFFFFFFFFFFFFFFFFFFFFFFFFFFFFFFFFF AND DUP2 MSTORE PUSH1 0x20 ADD SWAP1 DUP2 MSTORE PUSH1 0x20 ADD PUSH0 KECCAK256 PUSH0 DUP3 DUP3 SLOAD ADD SWAP3 POP POP DUP2 SWAP1 SSTORE POP JUMPDEST DUP5 PUSH1 0x2 PUSH0 DUP7 DUP2 MSTORE PUSH1 0x20 ADD SWAP1 DUP2 MSTORE PUSH1 0x20 ADD PUSH0 KECCAK256 PUSH0 PUSH2 0x100 EXP DUP2 SLOAD DUP2 PUSH20 0xFFFFFFFFFFFFFFFFFFFFFFFFFFFFFFFFFFFFFFFF MUL NOT AND SWAP1 DUP4 PUSH20 0xFFFFFFFFFFFFFFFFFFFFFFFFFFFFFFFFFFFFFFFF AND MUL OR SWAP1 SSTORE POP DUP4 DUP6 PUSH20 0xFFFFFFFFFFFFFFFFFFFFFFFFFFFFFFFFFFFFFFFF AND DUP3 PUSH20 0xFFFFFFFFFFFFFFFFFFFFFFFFFFFFFFFFFFFFFFFF AND PUSH32 0xDDF252AD1BE2C89B69C2B068FC378DAA952BA7F163C4A11628F55A4DF523B3EF PUSH1 0x40 MLOAD PUSH1 0x40 MLOAD DUP1 SWAP2 SUB SWAP1 LOG4 DUP1 SWAP2 POP POP SWAP4 SWAP3 POP POP POP JUMP JUMPDEST PUSH2 0x1796 DUP4 DUP4 PUSH2 0x19C3 JUMP JUMPDEST PUSH2 0x17AA PUSH2 0x17A1 PUSH2 0xD06 JUMP JUMPDEST PUSH0 DUP6 DUP6 DUP6 PUSH2 0x10FD JUMP JUMPDEST POP POP POP JUMP JUMPDEST PUSH0 PUSH0 PUSH0 SWAP1 POP PUSH27 0x184F03E93FF9F4DAA797ED6E38ED64BF6A1F010000000000000000 DUP4 LT PUSH2 0x180B JUMPI PUSH27 0x184F03E93FF9F4DAA797ED6E38ED64BF6A1F010000000000000000 DUP4 DUP2 PUSH2 0x1801 JUMPI PUSH2 0x1800 PUSH2 0x2383 JUMP JUMPDEST JUMPDEST DIV SWAP3 POP PUSH1 0x40 DUP2 ADD SWAP1 POP JUMPDEST PUSH14 0x4EE2D6D415B85ACEF8100000000 DUP4 LT PUSH2 0x1848 JUMPI PUSH14 0x4EE2D6D415B85ACEF8100000000 DUP4 DUP2 PUSH2 0x183E JUMPI PUSH2 0x183D PUSH2 0x2383 JUMP JUMPDEST JUMPDEST DIV SWAP3 POP PUSH1 0x20 DUP2 ADD SWAP1 POP JUMPDEST PUSH7 0x2386F26FC10000 DUP4 LT PUSH2 0x1877 JUMPI PUSH7 0x2386F26FC10000 DUP4 DUP2 PUSH2 0x186D JUMPI PUSH2 0x186C PUSH2 0x2383 JUMP JUMPDEST JUMPDEST DIV SWAP3 POP PUSH1 0x10 DUP2 ADD SWAP1 POP JUMPDEST PUSH4 0x5F5E100 DUP4 LT PUSH2 0x18A0 JUMPI PUSH4 0x5F5E100 DUP4 DUP2 PUSH2 0x1896 JUMPI PUSH2 0x1895 PUSH2 0x2383 JUMP JUMPDEST JUMPDEST DIV SWAP3 POP PUSH1 0x8 DUP2 ADD SWAP1 POP JUMPDEST PUSH2 0x2710 DUP4 LT PUSH2 0x18C5 JUMPI PUSH2 0x2710 DUP4 DUP2 PUSH2 0x18BB JUMPI PUSH2 0x18BA PUSH2 0x2383 JUMP JUMPDEST JUMPDEST DIV SWAP3 POP PUSH1 0x4 DUP2 ADD SWAP1 POP JUMPDEST PUSH1 0x64 DUP4 LT PUSH2 0x18E8 JUMPI PUSH1 0x64 DUP4 DUP2 PUSH2 0x18DE JUMPI PUSH2 0x18DD PUSH2 0x2383 JUMP JUMPDEST JUMPDEST DIV SWAP3 POP PUSH1 0x2 DUP2 ADD SWAP1 POP JUMPDEST PUSH1 0xA DUP4 LT PUSH2 0x18F7 JUMPI PUSH1 0x1 DUP2 ADD SWAP1 POP JUMPDEST DUP1 SWAP2 POP POP SWAP2 SWAP1 POP JUMP JUMPDEST PUSH2 0x190B DUP4 DUP4 DUP4 PUSH2 0x1AB6 JUMP JUMPDEST PUSH2 0x19BE JUMPI PUSH0 PUSH20 0xFFFFFFFFFFFFFFFFFFFFFFFFFFFFFFFFFFFFFFFF AND DUP4 PUSH20 0xFFFFFFFFFFFFFFFFFFFFFFFFFFFFFFFFFFFFFFFF AND SUB PUSH2 0x197F JUMPI DUP1 PUSH1 0x40 MLOAD PUSH32 0x7E27328900000000000000000000000000000000000000000000000000000000 DUP2 MSTORE PUSH1 0x4 ADD PUSH2 0x1976 SWAP2 SWAP1 PUSH2 0x1E47 JUMP JUMPDEST PUSH1 0x40 MLOAD DUP1 SWAP2 SUB SWAP1 REVERT JUMPDEST DUP2 DUP2 PUSH1 0x40 MLOAD PUSH32 0x177E802F00000000000000000000000000000000000000000000000000000000 DUP2 MSTORE PUSH1 0x4 ADD PUSH2 0x19B5 SWAP3 SWAP2 SWAP1 PUSH2 0x23B0 JUMP JUMPDEST PUSH1 0x40 MLOAD DUP1 SWAP2 SUB SWAP1 REVERT JUMPDEST POP POP POP JUMP JUMPDEST PUSH0 PUSH20 0xFFFFFFFFFFFFFFFFFFFFFFFFFFFFFFFFFFFFFFFF AND DUP3 PUSH20 0xFFFFFFFFFFFFFFFFFFFFFFFFFFFFFFFFFFFFFFFF AND SUB PUSH2 0x1A33 JUMPI PUSH0 PUSH1 0x40 MLOAD PUSH32 0x64A0AE9200000000000000000000000000000000000000000000000000000000 DUP2 MSTORE PUSH1 0x4 ADD PUSH2 0x1A2A SWAP2 SWAP1 PUSH2 0x1D67 JUMP JUMPDEST PUSH1 0x40 MLOAD DUP1 SWAP2 SUB SWAP1 REVERT JUMPDEST PUSH0 PUSH2 0x1A3F DUP4 DUP4 PUSH0 PUSH2 0xD1F JUMP JUMPDEST SWAP1 POP PUSH0 PUSH20 0xFFFFFFFFFFFFFFFFFFFFFFFFFFFFFFFFFFFFFFFF AND DUP2 PUSH20 0xFFFFFFFFFFFFFFFFFFFFFFFFFFFFFFFFFFFFFFFF AND EQ PUSH2 0x1AB1 JUMPI PUSH0 PUSH1 0x40 MLOAD PUSH32 0x73C6AC6E00000000000000000000000000000000000000000000000000000000 DUP2 MSTORE PUSH1 0x4 ADD PUSH2 0x1AA8 SWAP2 SWAP1 PUSH2 0x1D67 JUMP JUMPDEST PUSH1 0x40 MLOAD DUP1 SWAP2 SUB SWAP1 REVERT JUMPDEST POP POP POP JUMP JUMPDEST PUSH0 PUSH0 PUSH20 0xFFFFFFFFFFFFFFFFFFFFFFFFFFFFFFFFFFFFFFFF AND DUP4 PUSH20 0xFFFFFFFFFFFFFFFFFFFFFFFFFFFFFFFFFFFFFFFF AND EQ ISZERO DUP1 ISZERO PUSH2 0x1B6D JUMPI POP DUP3 PUSH20 0xFFFFFFFFFFFFFFFFFFFFFFFFFFFFFFFFFFFFFFFF AND DUP5 PUSH20 0xFFFFFFFFFFFFFFFFFFFFFFFFFFFFFFFFFFFFFFFF AND EQ DUP1 PUSH2 0x1B2E JUMPI POP PUSH2 0x1B2D DUP5 DUP5 PUSH2 0xAA8 JUMP JUMPDEST JUMPDEST DUP1 PUSH2 0x1B6C JUMPI POP DUP3 PUSH20 0xFFFFFFFFFFFFFFFFFFFFFFFFFFFFFFFFFFFFFFFF AND PUSH2 0x1B54 DUP4 PUSH2 0xCCD JUMP JUMPDEST PUSH20 0xFFFFFFFFFFFFFFFFFFFFFFFFFFFFFFFFFFFFFFFF AND EQ JUMPDEST JUMPDEST SWAP1 POP SWAP4 SWAP3 POP POP POP JUMP JUMPDEST PUSH0 PUSH1 0x40 MLOAD SWAP1 POP SWAP1 JUMP JUMPDEST PUSH0 PUSH0 REVERT JUMPDEST PUSH0 PUSH0 REVERT JUMPDEST PUSH0 PUSH32 0xFFFFFFFF00000000000000000000000000000000000000000000000000000000 DUP3 AND SWAP1 POP SWAP2 SWAP1 POP JUMP JUMPDEST PUSH2 0x1BBB DUP2 PUSH2 0x1B87 JUMP JUMPDEST DUP2 EQ PUSH2 0x1BC5 JUMPI PUSH0 PUSH0 REVERT JUMPDEST POP JUMP JUMPDEST PUSH0 DUP2 CALLDATALOAD SWAP1 POP PUSH2 0x1BD6 DUP2 PUSH2 0x1BB2 JUMP JUMPDEST SWAP3 SWAP2 POP POP JUMP JUMPDEST PUSH0 PUSH1 0x20 DUP3 DUP5 SUB SLT ISZERO PUSH2 0x1BF1 JUMPI PUSH2 0x1BF0 PUSH2 0x1B7F JUMP JUMPDEST JUMPDEST PUSH0 PUSH2 0x1BFE DUP5 DUP3 DUP6 ADD PUSH2 0x1BC8 JUMP JUMPDEST SWAP2 POP POP SWAP3 SWAP2 POP POP JUMP JUMPDEST PUSH0 DUP2 ISZERO ISZERO SWAP1 POP SWAP2 SWAP1 POP JUMP JUMPDEST PUSH2 0x1C1B DUP2 PUSH2 0x1C07 JUMP JUMPDEST DUP3 MSTORE POP POP JUMP JUMPDEST PUSH0 PUSH1 0x20 DUP3 ADD SWAP1 POP PUSH2 0x1C34 PUSH0 DUP4 ADD DUP5 PUSH2 0x1C12 JUMP JUMPDEST SWAP3 SWAP2 POP POP JUMP JUMPDEST PUSH0 DUP2 MLOAD SWAP1 POP SWAP2 SWAP1 POP JUMP JUMPDEST PUSH0 DUP3 DUP3 MSTORE PUSH1 0x20 DUP3 ADD SWAP1 POP SWAP3 SWAP2 POP POP JUMP JUMPDEST DUP3 DUP2 DUP4 MCOPY PUSH0 DUP4 DUP4 ADD MSTORE POP POP POP JUMP JUMPDEST PUSH0 PUSH1 0x1F NOT PUSH1 0x1F DUP4 ADD AND SWAP1 POP SWAP2 SWAP1 POP JUMP JUMPDEST PUSH0 PUSH2 0x1C7C DUP3 PUSH2 0x1C3A JUMP JUMPDEST PUSH2 0x1C86 DUP2 DUP6 PUSH2 0x1C44 JUMP JUMPDEST SWAP4 POP PUSH2 0x1C96 DUP2 DUP6 PUSH1 0x20 DUP7 ADD PUSH2 0x1C54 JUMP JUMPDEST PUSH2 0x1C9F DUP2 PUSH2 0x1C62 JUMP JUMPDEST DUP5 ADD SWAP2 POP POP SWAP3 SWAP2 POP POP JUMP JUMPDEST PUSH0 PUSH1 0x20 DUP3 ADD SWAP1 POP DUP2 DUP2 SUB PUSH0 DUP4 ADD MSTORE PUSH2 0x1CC2 DUP2 DUP5 PUSH2 0x1C72 JUMP JUMPDEST SWAP1 POP SWAP3 SWAP2 POP POP JUMP JUMPDEST PUSH0 DUP2 SWAP1 POP SWAP2 SWAP1 POP JUMP JUMPDEST PUSH2 0x1CDC DUP2 PUSH2 0x1CCA JUMP JUMPDEST DUP2 EQ PUSH2 0x1CE6 JUMPI PUSH0 PUSH0 REVERT JUMPDEST POP JUMP JUMPDEST PUSH0 DUP2 CALLDATALOAD SWAP1 POP PUSH2 0x1CF7 DUP2 PUSH2 0x1CD3 JUMP JUMPDEST SWAP3 SWAP2 POP POP JUMP JUMPDEST PUSH0 PUSH1 0x20 DUP3 DUP5 SUB SLT ISZERO PUSH2 0x1D12 JUMPI PUSH2 0x1D11 PUSH2 0x1B7F JUMP JUMPDEST JUMPDEST PUSH0 PUSH2 0x1D1F DUP5 DUP3 DUP6 ADD PUSH2 0x1CE9 JUMP JUMPDEST SWAP2 POP POP SWAP3 SWAP2 POP POP JUMP JUMPDEST PUSH0 PUSH20 0xFFFFFFFFFFFFFFFFFFFFFFFFFFFFFFFFFFFFFFFF DUP3 AND SWAP1 POP SWAP2 SWAP1 POP JUMP JUMPDEST PUSH0 PUSH2 0x1D51 DUP3 PUSH2 0x1D28 JUMP JUMPDEST SWAP1 POP SWAP2 SWAP1 POP JUMP JUMPDEST PUSH2 0x1D61 DUP2 PUSH2 0x1D47 JUMP JUMPDEST DUP3 MSTORE POP POP JUMP JUMPDEST PUSH0 PUSH1 0x20 DUP3 ADD SWAP1 POP PUSH2 0x1D7A PUSH0 DUP4 ADD DUP5 PUSH2 0x1D58 JUMP JUMPDEST SWAP3 SWAP2 POP POP JUMP JUMPDEST PUSH2 0x1D89 DUP2 PUSH2 0x1D47 JUMP JUMPDEST DUP2 EQ PUSH2 0x1D93 JUMPI PUSH0 PUSH0 REVERT JUMPDEST POP JUMP JUMPDEST PUSH0 DUP2 CALLDATALOAD SWAP1 POP PUSH2 0x1DA4 DUP2 PUSH2 0x1D80 JUMP JUMPDEST SWAP3 SWAP2 POP POP JUMP JUMPDEST PUSH0 PUSH0 PUSH1 0x40 DUP4 DUP6 SUB SLT ISZERO PUSH2 0x1DC0 JUMPI PUSH2 0x1DBF PUSH2 0x1B7F JUMP JUMPDEST JUMPDEST PUSH0 PUSH2 0x1DCD DUP6 DUP3 DUP7 ADD PUSH2 0x1D96 JUMP JUMPDEST SWAP3 POP POP PUSH1 0x20 PUSH2 0x1DDE DUP6 DUP3 DUP7 ADD PUSH2 0x1CE9 JUMP JUMPDEST SWAP2 POP POP SWAP3 POP SWAP3 SWAP1 POP JUMP JUMPDEST PUSH0 PUSH0 PUSH0 PUSH1 0x60 DUP5 DUP7 SUB SLT ISZERO PUSH2 0x1DFF JUMPI PUSH2 0x1DFE PUSH2 0x1B7F JUMP JUMPDEST JUMPDEST PUSH0 PUSH2 0x1E0C DUP7 DUP3 DUP8 ADD PUSH2 0x1D96 JUMP JUMPDEST SWAP4 POP POP PUSH1 0x20 PUSH2 0x1E1D DUP7 DUP3 DUP8 ADD PUSH2 0x1D96 JUMP JUMPDEST SWAP3 POP POP PUSH1 0x40 PUSH2 0x1E2E DUP7 DUP3 DUP8 ADD PUSH2 0x1CE9 JUMP JUMPDEST SWAP2 POP POP SWAP3 POP SWAP3 POP SWAP3 JUMP JUMPDEST PUSH2 0x1E41 DUP2 PUSH2 0x1CCA JUMP JUMPDEST DUP3 MSTORE POP POP JUMP JUMPDEST PUSH0 PUSH1 0x20 DUP3 ADD SWAP1 POP PUSH2 0x1E5A PUSH0 DUP4 ADD DUP5 PUSH2 0x1E38 JUMP JUMPDEST SWAP3 SWAP2 POP POP JUMP JUMPDEST PUSH0 PUSH1 0x20 DUP3 DUP5 SUB SLT ISZERO PUSH2 0x1E75 JUMPI PUSH2 0x1E74 PUSH2 0x1B7F JUMP JUMPDEST JUMPDEST PUSH0 PUSH2 0x1E82 DUP5 DUP3 DUP6 ADD PUSH2 0x1D96 JUMP JUMPDEST SWAP2 POP POP SWAP3 SWAP2 POP POP JUMP JUMPDEST PUSH2 0x1E94 DUP2 PUSH2 0x1C07 JUMP JUMPDEST DUP2 EQ PUSH2 0x1E9E JUMPI PUSH0 PUSH0 REVERT JUMPDEST POP JUMP JUMPDEST PUSH0 DUP2 CALLDATALOAD SWAP1 POP PUSH2 0x1EAF DUP2 PUSH2 0x1E8B JUMP JUMPDEST SWAP3 SWAP2 POP POP JUMP JUMPDEST PUSH0 PUSH0 PUSH1 0x40 DUP4 DUP6 SUB SLT ISZERO PUSH2 0x1ECB JUMPI PUSH2 0x1ECA PUSH2 0x1B7F JUMP JUMPDEST JUMPDEST PUSH0 PUSH2 0x1ED8 DUP6 DUP3 DUP7 ADD PUSH2 0x1D96 JUMP JUMPDEST SWAP3 POP POP PUSH1 0x20 PUSH2 0x1EE9 DUP6 DUP3 DUP7 ADD PUSH2 0x1EA1 JUMP JUMPDEST SWAP2 POP POP SWAP3 POP SWAP3 SWAP1 POP JUMP JUMPDEST PUSH0 PUSH0 REVERT JUMPDEST PUSH0 PUSH0 REVERT JUMPDEST PUSH32 0x4E487B7100000000000000000000000000000000000000000000000000000000 PUSH0 MSTORE PUSH1 0x41 PUSH1 0x4 MSTORE PUSH1 0x24 PUSH0 REVERT JUMPDEST PUSH2 0x1F31 DUP3 PUSH2 0x1C62 JUMP JUMPDEST DUP2 ADD DUP2 DUP2 LT PUSH8 0xFFFFFFFFFFFFFFFF DUP3 GT OR ISZERO PUSH2 0x1F50 JUMPI PUSH2 0x1F4F PUSH2 0x1EFB JUMP JUMPDEST JUMPDEST DUP1 PUSH1 0x40 MSTORE POP POP POP JUMP JUMPDEST PUSH0 PUSH2 0x1F62 PUSH2 0x1B76 JUMP JUMPDEST SWAP1 POP PUSH2 0x1F6E DUP3 DUP3 PUSH2 0x1F28 JUMP JUMPDEST SWAP2 SWAP1 POP JUMP JUMPDEST PUSH0 PUSH8 0xFFFFFFFFFFFFFFFF DUP3 GT ISZERO PUSH2 0x1F8D JUMPI PUSH2 0x1F8C PUSH2 0x1EFB JUMP JUMPDEST JUMPDEST PUSH2 0x1F96 DUP3 PUSH2 0x1C62 JUMP JUMPDEST SWAP1 POP PUSH1 0x20 DUP2 ADD SWAP1 POP SWAP2 SWAP1 POP JUMP JUMPDEST DUP3 DUP2 DUP4 CALLDATACOPY PUSH0 DUP4 DUP4 ADD MSTORE POP POP POP JUMP JUMPDEST PUSH0 PUSH2 0x1FC3 PUSH2 0x1FBE DUP5 PUSH2 0x1F73 JUMP JUMPDEST PUSH2 0x1F59 JUMP JUMPDEST SWAP1 POP DUP3 DUP2 MSTORE PUSH1 0x20 DUP2 ADD DUP5 DUP5 DUP5 ADD GT ISZERO PUSH2 0x1FDF JUMPI PUSH2 0x1FDE PUSH2 0x1EF7 JUMP JUMPDEST JUMPDEST PUSH2 0x1FEA DUP5 DUP3 DUP6 PUSH2 0x1FA3 JUMP JUMPDEST POP SWAP4 SWAP3 POP POP POP JUMP JUMPDEST PUSH0 DUP3 PUSH1 0x1F DUP4 ADD SLT PUSH2 0x2006 JUMPI PUSH2 0x2005 PUSH2 0x1EF3 JUMP JUMPDEST JUMPDEST DUP2 CALLDATALOAD PUSH2 0x2016 DUP5 DUP3 PUSH1 0x20 DUP7 ADD PUSH2 0x1FB1 JUMP JUMPDEST SWAP2 POP POP SWAP3 SWAP2 POP POP JUMP JUMPDEST PUSH0 PUSH0 PUSH0 PUSH0 PUSH1 0x80 DUP6 DUP8 SUB SLT ISZERO PUSH2 0x2037 JUMPI PUSH2 0x2036 PUSH2 0x1B7F JUMP JUMPDEST JUMPDEST PUSH0 PUSH2 0x2044 DUP8 DUP3 DUP9 ADD PUSH2 0x1D96 JUMP JUMPDEST SWAP5 POP POP PUSH1 0x20 PUSH2 0x2055 DUP8 DUP3 DUP9 ADD PUSH2 0x1D96 JUMP JUMPDEST SWAP4 POP POP PUSH1 0x40 PUSH2 0x2066 DUP8 DUP3 DUP9 ADD PUSH2 0x1CE9 JUMP JUMPDEST SWAP3 POP POP PUSH1 0x60 DUP6 ADD CALLDATALOAD PUSH8 0xFFFFFFFFFFFFFFFF DUP2 GT ISZERO PUSH2 0x2087 JUMPI PUSH2 0x2086 PUSH2 0x1B83 JUMP JUMPDEST JUMPDEST PUSH2 0x2093 DUP8 DUP3 DUP9 ADD PUSH2 0x1FF2 JUMP JUMPDEST SWAP2 POP POP SWAP3 SWAP6 SWAP2 SWAP5 POP SWAP3 POP JUMP JUMPDEST PUSH0 PUSH0 PUSH1 0x40 DUP4 DUP6 SUB SLT ISZERO PUSH2 0x20B5 JUMPI PUSH2 0x20B4 PUSH2 0x1B7F JUMP JUMPDEST JUMPDEST PUSH0 PUSH2 0x20C2 DUP6 DUP3 DUP7 ADD PUSH2 0x1D96 JUMP JUMPDEST SWAP3 POP POP PUSH1 0x20 PUSH2 0x20D3 DUP6 DUP3 DUP7 ADD PUSH2 0x1D96 JUMP JUMPDEST SWAP2 POP POP SWAP3 POP SWAP3 SWAP1 POP JUMP JUMPDEST PUSH32 0x4E487B7100000000000000000000000000000000000000000000000000000000 PUSH0 MSTORE PUSH1 0x22 PUSH1 0x4 MSTORE PUSH1 0x24 PUSH0 REVERT JUMPDEST PUSH0 PUSH1 0x2 DUP3 DIV SWAP1 POP PUSH1 0x1 DUP3 AND DUP1 PUSH2 0x2121 JUMPI PUSH1 0x7F DUP3 AND SWAP2 POP JUMPDEST PUSH1 0x20 DUP3 LT DUP2 SUB PUSH2 0x2134 JUMPI PUSH2 0x2133 PUSH2 0x20DD JUMP JUMPDEST JUMPDEST POP SWAP2 SWAP1 POP JUMP JUMPDEST PUSH0 PUSH1 0x60 DUP3 ADD SWAP1 POP PUSH2 0x214D PUSH0 DUP4 ADD DUP7 PUSH2 0x1D58 JUMP JUMPDEST PUSH2 0x215A PUSH1 0x20 DUP4 ADD DUP6 PUSH2 0x1E38 JUMP JUMPDEST PUSH2 0x2167 PUSH1 0x40 DUP4 ADD DUP5 PUSH2 0x1D58 JUMP JUMPDEST SWAP5 SWAP4 POP POP POP POP JUMP JUMPDEST PUSH32 0x4E487B7100000000000000000000000000000000000000000000000000000000 PUSH0 MSTORE PUSH1 0x11 PUSH1 0x4 MSTORE PUSH1 0x24 PUSH0 REVERT JUMPDEST PUSH0 PUSH2 0x21A6 DUP3 PUSH2 0x1CCA JUMP JUMPDEST SWAP2 POP PUSH32 0xFFFFFFFFFFFFFFFFFFFFFFFFFFFFFFFFFFFFFFFFFFFFFFFFFFFFFFFFFFFFFFFF DUP3 SUB PUSH2 0x21D8 JUMPI PUSH2 0x21D7 PUSH2 0x216F JUMP JUMPDEST JUMPDEST PUSH1 0x1 DUP3 ADD SWAP1 POP SWAP2 SWAP1 POP JUMP JUMPDEST PUSH0 DUP2 SWAP1 POP SWAP3 SWAP2 POP POP JUMP JUMPDEST PUSH0 PUSH2 0x21F7 DUP3 PUSH2 0x1C3A JUMP JUMPDEST PUSH2 0x2201 DUP2 DUP6 PUSH2 0x21E3 JUMP JUMPDEST SWAP4 POP PUSH2 0x2211 DUP2 DUP6 PUSH1 0x20 DUP7 ADD PUSH2 0x1C54 JUMP JUMPDEST DUP1 DUP5 ADD SWAP2 POP POP SWAP3 SWAP2 POP POP JUMP JUMPDEST PUSH0 PUSH2 0x2228 DUP3 DUP6 PUSH2 0x21ED JUMP JUMPDEST SWAP2 POP PUSH2 0x2234 DUP3 DUP5 PUSH2 0x21ED JUMP JUMPDEST SWAP2 POP DUP2 SWAP1 POP SWAP4 SWAP3 POP POP POP JUMP JUMPDEST PUSH32 0x496E76616C6964207472616E7366657220287072696365206361700000000000 PUSH0 DUP3 ADD MSTORE POP JUMP JUMPDEST PUSH0 PUSH2 0x2274 PUSH1 0x1B DUP4 PUSH2 0x1C44 JUMP JUMPDEST SWAP2 POP PUSH2 0x227F DUP3 PUSH2 0x2240 JUMP JUMPDEST PUSH1 0x20 DUP3 ADD SWAP1 POP SWAP2 SWAP1 POP JUMP JUMPDEST PUSH0 PUSH1 0x20 DUP3 ADD SWAP1 POP DUP2 DUP2 SUB PUSH0 DUP4 ADD MSTORE PUSH2 0x22A1 DUP2 PUSH2 0x2268 JUMP JUMPDEST SWAP1 POP SWAP2 SWAP1 POP JUMP JUMPDEST PUSH0 DUP2 MLOAD SWAP1 POP SWAP2 SWAP1 POP JUMP JUMPDEST PUSH0 DUP3 DUP3 MSTORE PUSH1 0x20 DUP3 ADD SWAP1 POP SWAP3 SWAP2 POP POP JUMP JUMPDEST PUSH0 PUSH2 0x22CC DUP3 PUSH2 0x22A8 JUMP JUMPDEST PUSH2 0x22D6 DUP2 DUP6 PUSH2 0x22B2 JUMP JUMPDEST SWAP4 POP PUSH2 0x22E6 DUP2 DUP6 PUSH1 0x20 DUP7 ADD PUSH2 0x1C54 JUMP JUMPDEST PUSH2 0x22EF DUP2 PUSH2 0x1C62 JUMP JUMPDEST DUP5 ADD SWAP2 POP POP SWAP3 SWAP2 POP POP JUMP JUMPDEST PUSH0 PUSH1 0x80 DUP3 ADD SWAP1 POP PUSH2 0x230D PUSH0 DUP4 ADD DUP8 PUSH2 0x1D58 JUMP JUMPDEST PUSH2 0x231A PUSH1 0x20 DUP4 ADD DUP7 PUSH2 0x1D58 JUMP JUMPDEST PUSH2 0x2327 PUSH1 0x40 DUP4 ADD DUP6 PUSH2 0x1E38 JUMP JUMPDEST DUP2 DUP2 SUB PUSH1 0x60 DUP4 ADD MSTORE PUSH2 0x2339 DUP2 DUP5 PUSH2 0x22C2 JUMP JUMPDEST SWAP1 POP SWAP6 SWAP5 POP POP POP POP POP JUMP JUMPDEST PUSH0 DUP2 MLOAD SWAP1 POP PUSH2 0x2352 DUP2 PUSH2 0x1BB2 JUMP JUMPDEST SWAP3 SWAP2 POP POP JUMP JUMPDEST PUSH0 PUSH1 0x20 DUP3 DUP5 SUB SLT ISZERO PUSH2 0x236D JUMPI PUSH2 0x236C PUSH2 0x1B7F JUMP JUMPDEST JUMPDEST PUSH0 PUSH2 0x237A DUP5 DUP3 DUP6 ADD PUSH2 0x2344 JUMP JUMPDEST SWAP2 POP POP SWAP3 SWAP2 POP POP JUMP JUMPDEST PUSH32 0x4E487B7100000000000000000000000000000000000000000000000000000000 PUSH0 MSTORE PUSH1 0x12 PUSH1 0x4 MSTORE PUSH1 0x24 PUSH0 REVERT JUMPDEST PUSH0 PUSH1 0x40 DUP3 ADD SWAP1 POP PUSH2 0x23C3 PUSH0 DUP4 ADD DUP6 PUSH2 0x1D58 JUMP JUMPDEST PUSH2 0x23D0 PUSH1 0x20 DUP4 ADD DUP5 PUSH2 0x1E38 JUMP JUMPDEST SWAP4 SWAP3 POP POP POP JUMP INVALID LOG2 PUSH5 0x6970667358 0x22 SLT KECCAK256 0xB0 0xB6 0xC4 PUSH12 0xB74E903DF79AFA77BADD1616 SWAP5 DUP9 0xA6 0xB3 SWAP14 0xDA DUP1 0x2D PUSH15 0xA5E17748BE52F764736F6C63430008 SHR STOP CALLER LOG2 PUSH5 0x6970667358 0x22 SLT KECCAK256 0xAB 0xB8 0x2C GAS DUP12 0xEC 0x2C JUMP 0xF8 0xDD PUSH15 0x327C732F0D89085FD0BA42AFFAB2E6 SWAP10 0x2F SELFDESTRUCT PUSH17 0x629464736F6C634300081C003300000000 "
		},
		"gasEstimates": {
			"creation": {
				"codeDepositCost": "3437600",
				"executionCost": "infinite",
				"totalCost": "infinite"
			},
			"external": {
				"MIN_SALE_PERIOD()": "325",
				"SALE_FEE()": "392",
				"buyOnSecodMarket(address,uint256,address)": "infinite",
				"buyTicket(address)": "infinite",
				"createEvent(string,uint256,string,uint256,uint8,uint256,uint256,bool,address)": "infinite",
				"events(address)": "infinite",
				"feeCollector()": "infinite",
				"listEvent(address,uint256,uint8,uint256)": "infinite",
				"profits(address)": "2912",
				"secondMarketListenings(address,uint256)": "3114",
				"withdrawProfit(address)": "infinite"
			},
			"internal": {
				"_listEvent(address,uint256,enum BuyingOptiion,uint256)": "infinite"
			}
		},
		"methodIdentifiers": {
			"MIN_SALE_PERIOD()": "808af973",
			"SALE_FEE()": "729eaa66",
			"buyOnSecodMarket(address,uint256,address)": "737df592",
			"buyTicket(address)": "a5f8cdbb",
			"createEvent(string,uint256,string,uint256,uint8,uint256,uint256,bool,address)": "85979615",
			"events(address)": "3194bfe1",
			"feeCollector()": "c415b95c",
			"listEvent(address,uint256,uint8,uint256)": "4bd95581",
			"profits(address)": "cc85f080",
			"secondMarketListenings(address,uint256)": "98ba7e67",
			"withdrawProfit(address)": "24e26241"
		}
	},
	"abi": [
		{
			"inputs": [
				{
					"internalType": "address",
					"name": "feeCollector_",
					"type": "address"
				}
			],
			"stateMutability": "nonpayable",
			"type": "constructor"
		},
		{
			"inputs": [],
			"name": "AlreadyListed",
			"type": "error"
		},
		{
			"inputs": [
				{
					"internalType": "string",
					"name": "info",
					"type": "string"
				}
			],
			"name": "InvalidInput",
			"type": "error"
		},
		{
			"inputs": [],
			"name": "MustBeOrganizer",
			"type": "error"
		},
		{
			"inputs": [],
			"name": "ProfitDistributionFailed",
			"type": "error"
		},
		{
			"inputs": [],
			"name": "WrongdBuyingOptiion",
			"type": "error"
		},
		{
			"anonymous": false,
			"inputs": [
				{
					"indexed": true,
					"internalType": "address",
					"name": "newEvent",
					"type": "address"
				}
			],
			"name": "NewEvent",
			"type": "event"
		},
		{
			"inputs": [],
			"name": "MIN_SALE_PERIOD",
			"outputs": [
				{
					"internalType": "uint256",
					"name": "",
					"type": "uint256"
				}
			],
			"stateMutability": "view",
			"type": "function"
		},
		{
			"inputs": [],
			"name": "SALE_FEE",
			"outputs": [
				{
					"internalType": "uint256",
					"name": "",
					"type": "uint256"
				}
			],
			"stateMutability": "view",
			"type": "function"
		},
		{
			"inputs": [
				{
					"internalType": "address",
					"name": "event_",
					"type": "address"
				},
				{
					"internalType": "uint256",
					"name": "ticketId",
					"type": "uint256"
				},
				{
					"internalType": "address",
					"name": "owner",
					"type": "address"
				}
			],
			"name": "buyOnSecodMarket",
			"outputs": [],
			"stateMutability": "payable",
			"type": "function"
		},
		{
			"inputs": [
				{
					"internalType": "address",
					"name": "event_",
					"type": "address"
				}
			],
			"name": "buyTicket",
			"outputs": [],
			"stateMutability": "payable",
			"type": "function"
		},
		{
			"inputs": [
				{
					"internalType": "string",
					"name": "eventName",
					"type": "string"
				},
				{
					"internalType": "uint256",
					"name": "date",
					"type": "uint256"
				},
				{
					"internalType": "string",
					"name": "location",
					"type": "string"
				},
				{
					"internalType": "uint256",
					"name": "ticketPrice",
					"type": "uint256"
				},
				{
					"internalType": "enum BuyingOptiion",
					"name": "salesType",
					"type": "uint8"
				},
				{
					"internalType": "uint256",
					"name": "salesEnd",
					"type": "uint256"
				},
				{
					"internalType": "uint256",
					"name": "ticketAvailability_",
					"type": "uint256"
				},
				{
					"internalType": "bool",
					"name": "isPriceCapSet_",
					"type": "bool"
				},
				{
					"internalType": "address",
					"name": "whitelistedAddress_",
					"type": "address"
				}
			],
			"name": "createEvent",
			"outputs": [],
			"stateMutability": "nonpayable",
			"type": "function"
		},
		{
			"inputs": [
				{
					"internalType": "address",
					"name": "",
					"type": "address"
				}
			],
			"name": "events",
			"outputs": [
				{
					"internalType": "uint256",
					"name": "ticketPrice",
					"type": "uint256"
				},
				{
					"internalType": "enum BuyingOptiion",
					"name": "salesType",
					"type": "uint8"
				},
				{
					"internalType": "uint256",
					"name": "salesEnds",
					"type": "uint256"
				}
			],
			"stateMutability": "view",
			"type": "function"
		},
		{
			"inputs": [],
			"name": "feeCollector",
			"outputs": [
				{
					"internalType": "address",
					"name": "",
					"type": "address"
				}
			],
			"stateMutability": "view",
			"type": "function"
		},
		{
			"inputs": [
				{
					"internalType": "address",
					"name": "newEvent",
					"type": "address"
				},
				{
					"internalType": "uint256",
					"name": "ticketPrice",
					"type": "uint256"
				},
				{
					"internalType": "enum BuyingOptiion",
					"name": "salesType",
					"type": "uint8"
				},
				{
					"internalType": "uint256",
					"name": "salesEnd",
					"type": "uint256"
				}
			],
			"name": "listEvent",
			"outputs": [],
			"stateMutability": "nonpayable",
			"type": "function"
		},
		{
			"inputs": [
				{
					"internalType": "address",
					"name": "",
					"type": "address"
				}
			],
			"name": "profits",
			"outputs": [
				{
					"internalType": "uint256",
					"name": "",
					"type": "uint256"
				}
			],
			"stateMutability": "view",
			"type": "function"
		},
		{
			"inputs": [
				{
					"internalType": "address",
					"name": "",
					"type": "address"
				},
				{
					"internalType": "uint256",
					"name": "",
					"type": "uint256"
				}
			],
			"name": "secondMarketListenings",
			"outputs": [
				{
					"internalType": "bool",
					"name": "",
					"type": "bool"
				}
			],
			"stateMutability": "view",
			"type": "function"
		},
		{
			"inputs": [
				{
					"internalType": "address",
					"name": "to",
					"type": "address"
				}
			],
			"name": "withdrawProfit",
			"outputs": [],
			"stateMutability": "payable",
			"type": "function"
		}
	]
}