{
	"EthereumAndSmartContractsBasicsExercise/Payroll.sol": {
		"Payroll": {
			"abi": [
				{
					"inputs": [
						{
							"internalType": "uint256",
							"name": "salary",
							"type": "uint256"
						},
						{
							"internalType": "uint256",
							"name": "rating",
							"type": "uint256"
						}
					],
					"name": "calculateCompoundInterest",
					"outputs": [
						{
							"internalType": "uint256",
							"name": "",
							"type": "uint256"
						}
					],
					"stateMutability": "pure",
					"type": "function"
				}
			],
			"devdoc": {
				"kind": "dev",
				"methods": {},
				"version": 1
			},
			"evm": {
				"assembly": "    /* \"EthereumAndSmartContractsBasicsExercise/Payroll.sol\":57:456  contract Payroll {... */\n  mstore(0x40, 0x80)\n  callvalue\n  dup1\n  iszero\n  tag_1\n  jumpi\n  revert(0x00, 0x00)\ntag_1:\n  pop\n  dataSize(sub_0)\n  dup1\n  dataOffset(sub_0)\n  0x00\n  codecopy\n  0x00\n  return\nstop\n\nsub_0: assembly {\n        /* \"EthereumAndSmartContractsBasicsExercise/Payroll.sol\":57:456  contract Payroll {... */\n      mstore(0x40, 0x80)\n      callvalue\n      dup1\n      iszero\n      tag_1\n      jumpi\n      revert(0x00, 0x00)\n    tag_1:\n      pop\n      jumpi(tag_2, lt(calldatasize, 0x04))\n      shr(0xe0, calldataload(0x00))\n      dup1\n      0x07daedb3\n      eq\n      tag_3\n      jumpi\n    tag_2:\n      revert(0x00, 0x00)\n        /* \"EthereumAndSmartContractsBasicsExercise/Payroll.sol\":80:454  function calculateCompoundInterest(uint256 salary, uint256 rating)... */\n    tag_3:\n      tag_4\n      0x04\n      dup1\n      calldatasize\n      sub\n      dup2\n      add\n      swap1\n      tag_5\n      swap2\n      swap1\n      tag_6\n      jump\t// in\n    tag_5:\n      tag_7\n      jump\t// in\n    tag_4:\n      mload(0x40)\n      tag_8\n      swap2\n      swap1\n      tag_9\n      jump\t// in\n    tag_8:\n      mload(0x40)\n      dup1\n      swap2\n      sub\n      swap1\n      return\n    tag_7:\n        /* \"EthereumAndSmartContractsBasicsExercise/Payroll.sol\":192:199  uint256 */\n      0x00\n        /* \"EthereumAndSmartContractsBasicsExercise/Payroll.sol\":215:231  uint256 paycheck */\n      0x00\n        /* \"EthereumAndSmartContractsBasicsExercise/Payroll.sol\":234:235  0 */\n      0x00\n        /* \"EthereumAndSmartContractsBasicsExercise/Payroll.sol\":215:235  uint256 paycheck = 0 */\n      swap1\n      pop\n        /* \"EthereumAndSmartContractsBasicsExercise/Payroll.sol\":258:259  8 */\n      0x08\n        /* \"EthereumAndSmartContractsBasicsExercise/Payroll.sol\":249:255  rating */\n      dup4\n        /* \"EthereumAndSmartContractsBasicsExercise/Payroll.sol\":249:259  rating > 8 */\n      gt\n        /* \"EthereumAndSmartContractsBasicsExercise/Payroll.sol\":249:275  rating > 8 && rating <= 10 */\n      dup1\n      iszero\n      tag_11\n      jumpi\n      pop\n        /* \"EthereumAndSmartContractsBasicsExercise/Payroll.sol\":273:275  10 */\n      0x0a\n        /* \"EthereumAndSmartContractsBasicsExercise/Payroll.sol\":263:269  rating */\n      dup4\n        /* \"EthereumAndSmartContractsBasicsExercise/Payroll.sol\":263:275  rating <= 10 */\n      gt\n      iszero\n        /* \"EthereumAndSmartContractsBasicsExercise/Payroll.sol\":249:275  rating > 8 && rating <= 10 */\n    tag_11:\n        /* \"EthereumAndSmartContractsBasicsExercise/Payroll.sol\":245:422  if (rating > 8 && rating <= 10) {... */\n      iszero\n      tag_12\n      jumpi\n        /* \"EthereumAndSmartContractsBasicsExercise/Payroll.sol\":321:323  10 */\n      0x0a\n        /* \"EthereumAndSmartContractsBasicsExercise/Payroll.sol\":312:318  salary */\n      dup5\n        /* \"EthereumAndSmartContractsBasicsExercise/Payroll.sol\":312:323  salary / 10 */\n      tag_13\n      swap2\n      swap1\n      tag_14\n      jump\t// in\n    tag_13:\n        /* \"EthereumAndSmartContractsBasicsExercise/Payroll.sol\":302:308  salary */\n      dup5\n        /* \"EthereumAndSmartContractsBasicsExercise/Payroll.sol\":302:324  salary + (salary / 10) */\n      tag_15\n      swap2\n      swap1\n      tag_16\n      jump\t// in\n    tag_15:\n        /* \"EthereumAndSmartContractsBasicsExercise/Payroll.sol\":291:324  paycheck = salary + (salary / 10) */\n      swap1\n      pop\n        /* \"EthereumAndSmartContractsBasicsExercise/Payroll.sol\":245:422  if (rating > 8 && rating <= 10) {... */\n      jump(tag_17)\n    tag_12:\n        /* \"EthereumAndSmartContractsBasicsExercise/Payroll.sol\":354:356  10 */\n      0x0a\n        /* \"EthereumAndSmartContractsBasicsExercise/Payroll.sol\":345:351  rating */\n      dup4\n        /* \"EthereumAndSmartContractsBasicsExercise/Payroll.sol\":345:356  rating > 10 */\n      gt\n        /* \"EthereumAndSmartContractsBasicsExercise/Payroll.sol\":341:422  if (rating > 10) {... */\n      iszero\n      tag_18\n      jumpi\n        /* \"EthereumAndSmartContractsBasicsExercise/Payroll.sol\":372:411  revert(\"Rating should be between 0-10\") */\n      mload(0x40)\n      0x08c379a000000000000000000000000000000000000000000000000000000000\n      dup2\n      mstore\n      0x04\n      add\n      tag_19\n      swap1\n      tag_20\n      jump\t// in\n    tag_19:\n      mload(0x40)\n      dup1\n      swap2\n      sub\n      swap1\n      revert\n        /* \"EthereumAndSmartContractsBasicsExercise/Payroll.sol\":341:422  if (rating > 10) {... */\n    tag_18:\n        /* \"EthereumAndSmartContractsBasicsExercise/Payroll.sol\":245:422  if (rating > 8 && rating <= 10) {... */\n    tag_17:\n        /* \"EthereumAndSmartContractsBasicsExercise/Payroll.sol\":439:447  paycheck */\n      dup1\n        /* \"EthereumAndSmartContractsBasicsExercise/Payroll.sol\":432:447  return paycheck */\n      swap2\n      pop\n      pop\n        /* \"EthereumAndSmartContractsBasicsExercise/Payroll.sol\":80:454  function calculateCompoundInterest(uint256 salary, uint256 rating)... */\n      swap3\n      swap2\n      pop\n      pop\n      jump\t// out\n        /* \"#utility.yul\":88:205   */\n    tag_22:\n        /* \"#utility.yul\":197:198   */\n      0x00\n        /* \"#utility.yul\":194:195   */\n      0x00\n        /* \"#utility.yul\":187:199   */\n      revert\n        /* \"#utility.yul\":334:411   */\n    tag_24:\n        /* \"#utility.yul\":371:378   */\n      0x00\n        /* \"#utility.yul\":400:405   */\n      dup2\n        /* \"#utility.yul\":389:405   */\n      swap1\n      pop\n        /* \"#utility.yul\":334:411   */\n      swap2\n      swap1\n      pop\n      jump\t// out\n        /* \"#utility.yul\":417:539   */\n    tag_25:\n        /* \"#utility.yul\":490:514   */\n      tag_39\n        /* \"#utility.yul\":508:513   */\n      dup2\n        /* \"#utility.yul\":490:514   */\n      tag_24\n      jump\t// in\n    tag_39:\n        /* \"#utility.yul\":483:488   */\n      dup2\n        /* \"#utility.yul\":480:515   */\n      eq\n        /* \"#utility.yul\":470:533   */\n      tag_40\n      jumpi\n        /* \"#utility.yul\":529:530   */\n      0x00\n        /* \"#utility.yul\":526:527   */\n      0x00\n        /* \"#utility.yul\":519:531   */\n      revert\n        /* \"#utility.yul\":470:533   */\n    tag_40:\n        /* \"#utility.yul\":417:539   */\n      pop\n      jump\t// out\n        /* \"#utility.yul\":545:684   */\n    tag_26:\n        /* \"#utility.yul\":591:596   */\n      0x00\n        /* \"#utility.yul\":629:635   */\n      dup2\n        /* \"#utility.yul\":616:636   */\n      calldataload\n        /* \"#utility.yul\":607:636   */\n      swap1\n      pop\n        /* \"#utility.yul\":645:678   */\n      tag_42\n        /* \"#utility.yul\":672:677   */\n      dup2\n        /* \"#utility.yul\":645:678   */\n      tag_25\n      jump\t// in\n    tag_42:\n        /* \"#utility.yul\":545:684   */\n      swap3\n      swap2\n      pop\n      pop\n      jump\t// out\n        /* \"#utility.yul\":690:1164   */\n    tag_6:\n        /* \"#utility.yul\":758:764   */\n      0x00\n        /* \"#utility.yul\":766:772   */\n      0x00\n        /* \"#utility.yul\":815:817   */\n      0x40\n        /* \"#utility.yul\":803:812   */\n      dup4\n        /* \"#utility.yul\":794:801   */\n      dup6\n        /* \"#utility.yul\":790:813   */\n      sub\n        /* \"#utility.yul\":786:818   */\n      slt\n        /* \"#utility.yul\":783:902   */\n      iszero\n      tag_44\n      jumpi\n        /* \"#utility.yul\":821:900   */\n      tag_45\n      tag_22\n      jump\t// in\n    tag_45:\n        /* \"#utility.yul\":783:902   */\n    tag_44:\n        /* \"#utility.yul\":941:942   */\n      0x00\n        /* \"#utility.yul\":966:1019   */\n      tag_46\n        /* \"#utility.yul\":1011:1018   */\n      dup6\n        /* \"#utility.yul\":1002:1008   */\n      dup3\n        /* \"#utility.yul\":991:1000   */\n      dup7\n        /* \"#utility.yul\":987:1009   */\n      add\n        /* \"#utility.yul\":966:1019   */\n      tag_26\n      jump\t// in\n    tag_46:\n        /* \"#utility.yul\":956:1019   */\n      swap3\n      pop\n        /* \"#utility.yul\":912:1029   */\n      pop\n        /* \"#utility.yul\":1068:1070   */\n      0x20\n        /* \"#utility.yul\":1094:1147   */\n      tag_47\n        /* \"#utility.yul\":1139:1146   */\n      dup6\n        /* \"#utility.yul\":1130:1136   */\n      dup3\n        /* \"#utility.yul\":1119:1128   */\n      dup7\n        /* \"#utility.yul\":1115:1137   */\n      add\n        /* \"#utility.yul\":1094:1147   */\n      tag_26\n      jump\t// in\n    tag_47:\n        /* \"#utility.yul\":1084:1147   */\n      swap2\n      pop\n        /* \"#utility.yul\":1039:1157   */\n      pop\n        /* \"#utility.yul\":690:1164   */\n      swap3\n      pop\n      swap3\n      swap1\n      pop\n      jump\t// out\n        /* \"#utility.yul\":1170:1288   */\n    tag_27:\n        /* \"#utility.yul\":1257:1281   */\n      tag_49\n        /* \"#utility.yul\":1275:1280   */\n      dup2\n        /* \"#utility.yul\":1257:1281   */\n      tag_24\n      jump\t// in\n    tag_49:\n        /* \"#utility.yul\":1252:1255   */\n      dup3\n        /* \"#utility.yul\":1245:1282   */\n      mstore\n        /* \"#utility.yul\":1170:1288   */\n      pop\n      pop\n      jump\t// out\n        /* \"#utility.yul\":1294:1516   */\n    tag_9:\n        /* \"#utility.yul\":1387:1391   */\n      0x00\n        /* \"#utility.yul\":1425:1427   */\n      0x20\n        /* \"#utility.yul\":1414:1423   */\n      dup3\n        /* \"#utility.yul\":1410:1428   */\n      add\n        /* \"#utility.yul\":1402:1428   */\n      swap1\n      pop\n        /* \"#utility.yul\":1438:1509   */\n      tag_51\n        /* \"#utility.yul\":1506:1507   */\n      0x00\n        /* \"#utility.yul\":1495:1504   */\n      dup4\n        /* \"#utility.yul\":1491:1508   */\n      add\n        /* \"#utility.yul\":1482:1488   */\n      dup5\n        /* \"#utility.yul\":1438:1509   */\n      tag_27\n      jump\t// in\n    tag_51:\n        /* \"#utility.yul\":1294:1516   */\n      swap3\n      swap2\n      pop\n      pop\n      jump\t// out\n        /* \"#utility.yul\":1522:1702   */\n    tag_28:\n        /* \"#utility.yul\":1570:1647   */\n      0x4e487b7100000000000000000000000000000000000000000000000000000000\n        /* \"#utility.yul\":1567:1568   */\n      0x00\n        /* \"#utility.yul\":1560:1648   */\n      mstore\n        /* \"#utility.yul\":1667:1671   */\n      0x12\n        /* \"#utility.yul\":1664:1665   */\n      0x04\n        /* \"#utility.yul\":1657:1672   */\n      mstore\n        /* \"#utility.yul\":1691:1695   */\n      0x24\n        /* \"#utility.yul\":1688:1689   */\n      0x00\n        /* \"#utility.yul\":1681:1696   */\n      revert\n        /* \"#utility.yul\":1708:1888   */\n    tag_29:\n        /* \"#utility.yul\":1756:1833   */\n      0x4e487b7100000000000000000000000000000000000000000000000000000000\n        /* \"#utility.yul\":1753:1754   */\n      0x00\n        /* \"#utility.yul\":1746:1834   */\n      mstore\n        /* \"#utility.yul\":1853:1857   */\n      0x11\n        /* \"#utility.yul\":1850:1851   */\n      0x04\n        /* \"#utility.yul\":1843:1858   */\n      mstore\n        /* \"#utility.yul\":1877:1881   */\n      0x24\n        /* \"#utility.yul\":1874:1875   */\n      0x00\n        /* \"#utility.yul\":1867:1882   */\n      revert\n        /* \"#utility.yul\":1894:2079   */\n    tag_14:\n        /* \"#utility.yul\":1934:1935   */\n      0x00\n        /* \"#utility.yul\":1951:1971   */\n      tag_55\n        /* \"#utility.yul\":1969:1970   */\n      dup3\n        /* \"#utility.yul\":1951:1971   */\n      tag_24\n      jump\t// in\n    tag_55:\n        /* \"#utility.yul\":1946:1971   */\n      swap2\n      pop\n        /* \"#utility.yul\":1985:2005   */\n      tag_56\n        /* \"#utility.yul\":2003:2004   */\n      dup4\n        /* \"#utility.yul\":1985:2005   */\n      tag_24\n      jump\t// in\n    tag_56:\n        /* \"#utility.yul\":1980:2005   */\n      swap3\n      pop\n        /* \"#utility.yul\":2024:2025   */\n      dup3\n        /* \"#utility.yul\":2014:2049   */\n      tag_57\n      jumpi\n        /* \"#utility.yul\":2029:2047   */\n      tag_58\n      tag_28\n      jump\t// in\n    tag_58:\n        /* \"#utility.yul\":2014:2049   */\n    tag_57:\n        /* \"#utility.yul\":2071:2072   */\n      dup3\n        /* \"#utility.yul\":2068:2069   */\n      dup3\n        /* \"#utility.yul\":2064:2073   */\n      div\n        /* \"#utility.yul\":2059:2073   */\n      swap1\n      pop\n        /* \"#utility.yul\":1894:2079   */\n      swap3\n      swap2\n      pop\n      pop\n      jump\t// out\n        /* \"#utility.yul\":2085:2276   */\n    tag_16:\n        /* \"#utility.yul\":2125:2128   */\n      0x00\n        /* \"#utility.yul\":2144:2164   */\n      tag_60\n        /* \"#utility.yul\":2162:2163   */\n      dup3\n        /* \"#utility.yul\":2144:2164   */\n      tag_24\n      jump\t// in\n    tag_60:\n        /* \"#utility.yul\":2139:2164   */\n      swap2\n      pop\n        /* \"#utility.yul\":2178:2198   */\n      tag_61\n        /* \"#utility.yul\":2196:2197   */\n      dup4\n        /* \"#utility.yul\":2178:2198   */\n      tag_24\n      jump\t// in\n    tag_61:\n        /* \"#utility.yul\":2173:2198   */\n      swap3\n      pop\n        /* \"#utility.yul\":2221:2222   */\n      dup3\n        /* \"#utility.yul\":2218:2219   */\n      dup3\n        /* \"#utility.yul\":2214:2223   */\n      add\n        /* \"#utility.yul\":2207:2223   */\n      swap1\n      pop\n        /* \"#utility.yul\":2242:2245   */\n      dup1\n        /* \"#utility.yul\":2239:2240   */\n      dup3\n        /* \"#utility.yul\":2236:2246   */\n      gt\n        /* \"#utility.yul\":2233:2269   */\n      iszero\n      tag_62\n      jumpi\n        /* \"#utility.yul\":2249:2267   */\n      tag_63\n      tag_29\n      jump\t// in\n    tag_63:\n        /* \"#utility.yul\":2233:2269   */\n    tag_62:\n        /* \"#utility.yul\":2085:2276   */\n      swap3\n      swap2\n      pop\n      pop\n      jump\t// out\n        /* \"#utility.yul\":2282:2451   */\n    tag_30:\n        /* \"#utility.yul\":2366:2377   */\n      0x00\n        /* \"#utility.yul\":2400:2406   */\n      dup3\n        /* \"#utility.yul\":2395:2398   */\n      dup3\n        /* \"#utility.yul\":2388:2407   */\n      mstore\n        /* \"#utility.yul\":2440:2444   */\n      0x20\n        /* \"#utility.yul\":2435:2438   */\n      dup3\n        /* \"#utility.yul\":2431:2445   */\n      add\n        /* \"#utility.yul\":2416:2445   */\n      swap1\n      pop\n        /* \"#utility.yul\":2282:2451   */\n      swap3\n      swap2\n      pop\n      pop\n      jump\t// out\n        /* \"#utility.yul\":2457:2636   */\n    tag_31:\n        /* \"#utility.yul\":2597:2628   */\n      0x526174696e672073686f756c64206265206265747765656e20302d3130000000\n        /* \"#utility.yul\":2593:2594   */\n      0x00\n        /* \"#utility.yul\":2585:2591   */\n      dup3\n        /* \"#utility.yul\":2581:2595   */\n      add\n        /* \"#utility.yul\":2574:2629   */\n      mstore\n        /* \"#utility.yul\":2457:2636   */\n      pop\n      jump\t// out\n        /* \"#utility.yul\":2642:3008   */\n    tag_32:\n        /* \"#utility.yul\":2784:2787   */\n      0x00\n        /* \"#utility.yul\":2805:2872   */\n      tag_67\n        /* \"#utility.yul\":2869:2871   */\n      0x1d\n        /* \"#utility.yul\":2864:2867   */\n      dup4\n        /* \"#utility.yul\":2805:2872   */\n      tag_30\n      jump\t// in\n    tag_67:\n        /* \"#utility.yul\":2798:2872   */\n      swap2\n      pop\n        /* \"#utility.yul\":2881:2974   */\n      tag_68\n        /* \"#utility.yul\":2970:2973   */\n      dup3\n        /* \"#utility.yul\":2881:2974   */\n      tag_31\n      jump\t// in\n    tag_68:\n        /* \"#utility.yul\":2999:3001   */\n      0x20\n        /* \"#utility.yul\":2994:2997   */\n      dup3\n        /* \"#utility.yul\":2990:3002   */\n      add\n        /* \"#utility.yul\":2983:3002   */\n      swap1\n      pop\n        /* \"#utility.yul\":2642:3008   */\n      swap2\n      swap1\n      pop\n      jump\t// out\n        /* \"#utility.yul\":3014:3433   */\n    tag_20:\n        /* \"#utility.yul\":3180:3184   */\n      0x00\n        /* \"#utility.yul\":3218:3220   */\n      0x20\n        /* \"#utility.yul\":3207:3216   */\n      dup3\n        /* \"#utility.yul\":3203:3221   */\n      add\n        /* \"#utility.yul\":3195:3221   */\n      swap1\n      pop\n        /* \"#utility.yul\":3267:3276   */\n      dup2\n        /* \"#utility.yul\":3261:3265   */\n      dup2\n        /* \"#utility.yul\":3257:3277   */\n      sub\n        /* \"#utility.yul\":3253:3254   */\n      0x00\n        /* \"#utility.yul\":3242:3251   */\n      dup4\n        /* \"#utility.yul\":3238:3255   */\n      add\n        /* \"#utility.yul\":3231:3278   */\n      mstore\n        /* \"#utility.yul\":3295:3426   */\n      tag_70\n        /* \"#utility.yul\":3421:3425   */\n      dup2\n        /* \"#utility.yul\":3295:3426   */\n      tag_32\n      jump\t// in\n    tag_70:\n        /* \"#utility.yul\":3287:3426   */\n      swap1\n      pop\n        /* \"#utility.yul\":3014:3433   */\n      swap2\n      swap1\n      pop\n      jump\t// out\n\n    auxdata: 0xa26469706673582212208d15013ef47858bcc0b9d50229a5868f965dc06e0c2dda632413a5356896892164736f6c634300081c0033\n}\n",
				"bytecode": {
					"linkReferences": {},
					"object": "6080604052348015600e575f5ffd5b506102ee8061001c5f395ff3fe608060405234801561000f575f5ffd5b5060043610610029575f3560e01c806307daedb31461002d575b5f5ffd5b6100476004803603810190610042919061011d565b61005d565b604051610054919061016a565b60405180910390f35b5f5f5f90506008831180156100735750600a8311155b1561009757600a8461008591906101dd565b84610090919061020d565b90506100dc565b600a8311156100db576040517f08c379a00000000000000000000000000000000000000000000000000000000081526004016100d29061029a565b60405180910390fd5b5b8091505092915050565b5f5ffd5b5f819050919050565b6100fc816100ea565b8114610106575f5ffd5b50565b5f81359050610117816100f3565b92915050565b5f5f60408385031215610133576101326100e6565b5b5f61014085828601610109565b925050602061015185828601610109565b9150509250929050565b610164816100ea565b82525050565b5f60208201905061017d5f83018461015b565b92915050565b7f4e487b71000000000000000000000000000000000000000000000000000000005f52601260045260245ffd5b7f4e487b71000000000000000000000000000000000000000000000000000000005f52601160045260245ffd5b5f6101e7826100ea565b91506101f2836100ea565b92508261020257610201610183565b5b828204905092915050565b5f610217826100ea565b9150610222836100ea565b925082820190508082111561023a576102396101b0565b5b92915050565b5f82825260208201905092915050565b7f526174696e672073686f756c64206265206265747765656e20302d31300000005f82015250565b5f610284601d83610240565b915061028f82610250565b602082019050919050565b5f6020820190508181035f8301526102b181610278565b905091905056fea26469706673582212208d15013ef47858bcc0b9d50229a5868f965dc06e0c2dda632413a5356896892164736f6c634300081c0033",
					"opcodes": "PUSH1 0x80 PUSH1 0x40 MSTORE CALLVALUE DUP1 ISZERO PUSH1 0xE JUMPI PUSH0 PUSH0 REVERT JUMPDEST POP PUSH2 0x2EE DUP1 PUSH2 0x1C PUSH0 CODECOPY PUSH0 RETURN INVALID PUSH1 0x80 PUSH1 0x40 MSTORE CALLVALUE DUP1 ISZERO PUSH2 0xF JUMPI PUSH0 PUSH0 REVERT JUMPDEST POP PUSH1 0x4 CALLDATASIZE LT PUSH2 0x29 JUMPI PUSH0 CALLDATALOAD PUSH1 0xE0 SHR DUP1 PUSH4 0x7DAEDB3 EQ PUSH2 0x2D JUMPI JUMPDEST PUSH0 PUSH0 REVERT JUMPDEST PUSH2 0x47 PUSH1 0x4 DUP1 CALLDATASIZE SUB DUP2 ADD SWAP1 PUSH2 0x42 SWAP2 SWAP1 PUSH2 0x11D JUMP JUMPDEST PUSH2 0x5D JUMP JUMPDEST PUSH1 0x40 MLOAD PUSH2 0x54 SWAP2 SWAP1 PUSH2 0x16A JUMP JUMPDEST PUSH1 0x40 MLOAD DUP1 SWAP2 SUB SWAP1 RETURN JUMPDEST PUSH0 PUSH0 PUSH0 SWAP1 POP PUSH1 0x8 DUP4 GT DUP1 ISZERO PUSH2 0x73 JUMPI POP PUSH1 0xA DUP4 GT ISZERO JUMPDEST ISZERO PUSH2 0x97 JUMPI PUSH1 0xA DUP5 PUSH2 0x85 SWAP2 SWAP1 PUSH2 0x1DD JUMP JUMPDEST DUP5 PUSH2 0x90 SWAP2 SWAP1 PUSH2 0x20D JUMP JUMPDEST SWAP1 POP PUSH2 0xDC JUMP JUMPDEST PUSH1 0xA DUP4 GT ISZERO PUSH2 0xDB JUMPI PUSH1 0x40 MLOAD PUSH32 0x8C379A000000000000000000000000000000000000000000000000000000000 DUP2 MSTORE PUSH1 0x4 ADD PUSH2 0xD2 SWAP1 PUSH2 0x29A JUMP JUMPDEST PUSH1 0x40 MLOAD DUP1 SWAP2 SUB SWAP1 REVERT JUMPDEST JUMPDEST DUP1 SWAP2 POP POP SWAP3 SWAP2 POP POP JUMP JUMPDEST PUSH0 PUSH0 REVERT JUMPDEST PUSH0 DUP2 SWAP1 POP SWAP2 SWAP1 POP JUMP JUMPDEST PUSH2 0xFC DUP2 PUSH2 0xEA JUMP JUMPDEST DUP2 EQ PUSH2 0x106 JUMPI PUSH0 PUSH0 REVERT JUMPDEST POP JUMP JUMPDEST PUSH0 DUP2 CALLDATALOAD SWAP1 POP PUSH2 0x117 DUP2 PUSH2 0xF3 JUMP JUMPDEST SWAP3 SWAP2 POP POP JUMP JUMPDEST PUSH0 PUSH0 PUSH1 0x40 DUP4 DUP6 SUB SLT ISZERO PUSH2 0x133 JUMPI PUSH2 0x132 PUSH2 0xE6 JUMP JUMPDEST JUMPDEST PUSH0 PUSH2 0x140 DUP6 DUP3 DUP7 ADD PUSH2 0x109 JUMP JUMPDEST SWAP3 POP POP PUSH1 0x20 PUSH2 0x151 DUP6 DUP3 DUP7 ADD PUSH2 0x109 JUMP JUMPDEST SWAP2 POP POP SWAP3 POP SWAP3 SWAP1 POP JUMP JUMPDEST PUSH2 0x164 DUP2 PUSH2 0xEA JUMP JUMPDEST DUP3 MSTORE POP POP JUMP JUMPDEST PUSH0 PUSH1 0x20 DUP3 ADD SWAP1 POP PUSH2 0x17D PUSH0 DUP4 ADD DUP5 PUSH2 0x15B JUMP JUMPDEST SWAP3 SWAP2 POP POP JUMP JUMPDEST PUSH32 0x4E487B7100000000000000000000000000000000000000000000000000000000 PUSH0 MSTORE PUSH1 0x12 PUSH1 0x4 MSTORE PUSH1 0x24 PUSH0 REVERT JUMPDEST PUSH32 0x4E487B7100000000000000000000000000000000000000000000000000000000 PUSH0 MSTORE PUSH1 0x11 PUSH1 0x4 MSTORE PUSH1 0x24 PUSH0 REVERT JUMPDEST PUSH0 PUSH2 0x1E7 DUP3 PUSH2 0xEA JUMP JUMPDEST SWAP2 POP PUSH2 0x1F2 DUP4 PUSH2 0xEA JUMP JUMPDEST SWAP3 POP DUP3 PUSH2 0x202 JUMPI PUSH2 0x201 PUSH2 0x183 JUMP JUMPDEST JUMPDEST DUP3 DUP3 DIV SWAP1 POP SWAP3 SWAP2 POP POP JUMP JUMPDEST PUSH0 PUSH2 0x217 DUP3 PUSH2 0xEA JUMP JUMPDEST SWAP2 POP PUSH2 0x222 DUP4 PUSH2 0xEA JUMP JUMPDEST SWAP3 POP DUP3 DUP3 ADD SWAP1 POP DUP1 DUP3 GT ISZERO PUSH2 0x23A JUMPI PUSH2 0x239 PUSH2 0x1B0 JUMP JUMPDEST JUMPDEST SWAP3 SWAP2 POP POP JUMP JUMPDEST PUSH0 DUP3 DUP3 MSTORE PUSH1 0x20 DUP3 ADD SWAP1 POP SWAP3 SWAP2 POP POP JUMP JUMPDEST PUSH32 0x526174696E672073686F756C64206265206265747765656E20302D3130000000 PUSH0 DUP3 ADD MSTORE POP JUMP JUMPDEST PUSH0 PUSH2 0x284 PUSH1 0x1D DUP4 PUSH2 0x240 JUMP JUMPDEST SWAP2 POP PUSH2 0x28F DUP3 PUSH2 0x250 JUMP JUMPDEST PUSH1 0x20 DUP3 ADD SWAP1 POP SWAP2 SWAP1 POP JUMP JUMPDEST PUSH0 PUSH1 0x20 DUP3 ADD SWAP1 POP DUP2 DUP2 SUB PUSH0 DUP4 ADD MSTORE PUSH2 0x2B1 DUP2 PUSH2 0x278 JUMP JUMPDEST SWAP1 POP SWAP2 SWAP1 POP JUMP INVALID LOG2 PUSH5 0x6970667358 0x22 SLT KECCAK256 DUP14 ISZERO ADD RETURNDATACOPY DELEGATECALL PUSH25 0x58BCC0B9D50229A5868F965DC06E0C2DDA632413A535689689 0x21 PUSH5 0x736F6C6343 STOP ADDMOD SHR STOP CALLER "
				},
				"gasEstimates": {
					"creation": {
						"codeDepositCost": "150000",
						"executionCost": "194",
						"totalCost": "150194"
					},
					"external": {
						"calculateCompoundInterest(uint256,uint256)": "infinite"
					}
				},
				"methodIdentifiers": {
					"calculateCompoundInterest(uint256,uint256)": "07daedb3"
				}
			},
			"storageLayout": {
				"storage": [],
				"types": null
			},
			"userdoc": {
				"kind": "user",
				"methods": {},
				"version": 1
			}
		}
	}
}