{
	"Inheritance and Modularity/InheritanceAnimal.sol": {
		"Cat": {
			"abi": [
				{
					"inputs": [],
					"name": "sound",
					"outputs": [
						{
							"internalType": "string",
							"name": "",
							"type": "string"
						}
					],
					"stateMutability": "pure",
					"type": "function"
				}
			],
			"devdoc": {
				"kind": "dev",
				"methods": {},
				"version": 1
			},
			"evm": {
				"assembly": "    /* \"Inheritance and Modularity/InheritanceAnimal.sol\":181:355  contract Cat is Animal {... */\n  mstore(0x40, 0x80)\n  callvalue\n  dup1\n  iszero\n  tag_1\n  jumpi\n  revert(0x00, 0x00)\ntag_1:\n  pop\n  dataSize(sub_0)\n  dup1\n  dataOffset(sub_0)\n  0x00\n  codecopy\n  0x00\n  return\nstop\n\nsub_0: assembly {\n        /* \"Inheritance and Modularity/InheritanceAnimal.sol\":181:355  contract Cat is Animal {... */\n      mstore(0x40, 0x80)\n      callvalue\n      dup1\n      iszero\n      tag_1\n      jumpi\n      revert(0x00, 0x00)\n    tag_1:\n      pop\n      jumpi(tag_2, lt(calldatasize, 0x04))\n      shr(0xe0, calldataload(0x00))\n      dup1\n      0xbb79d5c7\n      eq\n      tag_3\n      jumpi\n    tag_2:\n      revert(0x00, 0x00)\n        /* \"Inheritance and Modularity/InheritanceAnimal.sol\":210:353  function sound() public pure virtual override returns (string memory) {... */\n    tag_3:\n      tag_4\n      tag_5\n      jump\t// in\n    tag_4:\n      mload(0x40)\n      tag_6\n      swap2\n      swap1\n      tag_7\n      jump\t// in\n    tag_6:\n      mload(0x40)\n      dup1\n      swap2\n      sub\n      swap1\n      return\n    tag_5:\n        /* \"Inheritance and Modularity/InheritanceAnimal.sol\":265:278  string memory */\n      0x60\n        /* \"Inheritance and Modularity/InheritanceAnimal.sol\":321:334  super.sound() */\n      tag_9\n        /* \"Inheritance and Modularity/InheritanceAnimal.sol\":321:332  super.sound */\n      tag_10\n        /* \"Inheritance and Modularity/InheritanceAnimal.sol\":321:334  super.sound() */\n      jump\t// in\n    tag_9:\n        /* \"Inheritance and Modularity/InheritanceAnimal.sol\":304:345  abi.encodePacked(super.sound(), \", Meow\") */\n      add(0x20, mload(0x40))\n      tag_11\n      swap2\n      swap1\n      tag_12\n      jump\t// in\n    tag_11:\n      mload(0x40)\n      0x20\n      dup2\n      dup4\n      sub\n      sub\n      dup2\n      mstore\n      swap1\n      0x40\n      mstore\n        /* \"Inheritance and Modularity/InheritanceAnimal.sol\":290:346  return string(abi.encodePacked(super.sound(), \", Meow\")) */\n      swap1\n      pop\n        /* \"Inheritance and Modularity/InheritanceAnimal.sol\":210:353  function sound() public pure virtual override returns (string memory) {... */\n      swap1\n      jump\t// out\n        /* \"Inheritance and Modularity/InheritanceAnimal.sol\":79:177  function sound() public pure virtual returns (string memory) {... */\n    tag_10:\n        /* \"Inheritance and Modularity/InheritanceAnimal.sol\":125:138  string memory */\n      0x60\n        /* \"Inheritance and Modularity/InheritanceAnimal.sol\":150:170  return \"I am animal\" */\n      mload(0x40)\n      dup1\n      0x40\n      add\n      0x40\n      mstore\n      dup1\n      0x0b\n      dup2\n      mstore\n      0x20\n      add\n      0x4920616d20616e696d616c000000000000000000000000000000000000000000\n      dup2\n      mstore\n      pop\n      swap1\n      pop\n        /* \"Inheritance and Modularity/InheritanceAnimal.sol\":79:177  function sound() public pure virtual returns (string memory) {... */\n      swap1\n      jump\t// out\n        /* \"#utility.yul\":7:106   */\n    tag_14:\n        /* \"#utility.yul\":59:65   */\n      0x00\n        /* \"#utility.yul\":93:98   */\n      dup2\n        /* \"#utility.yul\":87:99   */\n      mload\n        /* \"#utility.yul\":77:99   */\n      swap1\n      pop\n        /* \"#utility.yul\":7:106   */\n      swap2\n      swap1\n      pop\n      jump\t// out\n        /* \"#utility.yul\":112:281   */\n    tag_15:\n        /* \"#utility.yul\":196:207   */\n      0x00\n        /* \"#utility.yul\":230:236   */\n      dup3\n        /* \"#utility.yul\":225:228   */\n      dup3\n        /* \"#utility.yul\":218:237   */\n      mstore\n        /* \"#utility.yul\":270:274   */\n      0x20\n        /* \"#utility.yul\":265:268   */\n      dup3\n        /* \"#utility.yul\":261:275   */\n      add\n        /* \"#utility.yul\":246:275   */\n      swap1\n      pop\n        /* \"#utility.yul\":112:281   */\n      swap3\n      swap2\n      pop\n      pop\n      jump\t// out\n        /* \"#utility.yul\":287:426   */\n    tag_16:\n        /* \"#utility.yul\":376:382   */\n      dup3\n        /* \"#utility.yul\":371:374   */\n      dup2\n        /* \"#utility.yul\":366:369   */\n      dup4\n        /* \"#utility.yul\":360:383   */\n      mcopy\n        /* \"#utility.yul\":417:418   */\n      0x00\n        /* \"#utility.yul\":408:414   */\n      dup4\n        /* \"#utility.yul\":403:406   */\n      dup4\n        /* \"#utility.yul\":399:415   */\n      add\n        /* \"#utility.yul\":392:419   */\n      mstore\n        /* \"#utility.yul\":287:426   */\n      pop\n      pop\n      pop\n      jump\t// out\n        /* \"#utility.yul\":432:534   */\n    tag_17:\n        /* \"#utility.yul\":473:479   */\n      0x00\n        /* \"#utility.yul\":524:526   */\n      0x1f\n        /* \"#utility.yul\":520:527   */\n      not\n        /* \"#utility.yul\":515:517   */\n      0x1f\n        /* \"#utility.yul\":508:513   */\n      dup4\n        /* \"#utility.yul\":504:518   */\n      add\n        /* \"#utility.yul\":500:528   */\n      and\n        /* \"#utility.yul\":490:528   */\n      swap1\n      pop\n        /* \"#utility.yul\":432:534   */\n      swap2\n      swap1\n      pop\n      jump\t// out\n        /* \"#utility.yul\":540:917   */\n    tag_18:\n        /* \"#utility.yul\":628:631   */\n      0x00\n        /* \"#utility.yul\":656:695   */\n      tag_29\n        /* \"#utility.yul\":689:694   */\n      dup3\n        /* \"#utility.yul\":656:695   */\n      tag_14\n      jump\t// in\n    tag_29:\n        /* \"#utility.yul\":711:782   */\n      tag_30\n        /* \"#utility.yul\":775:781   */\n      dup2\n        /* \"#utility.yul\":770:773   */\n      dup6\n        /* \"#utility.yul\":711:782   */\n      tag_15\n      jump\t// in\n    tag_30:\n        /* \"#utility.yul\":704:782   */\n      swap4\n      pop\n        /* \"#utility.yul\":791:856   */\n      tag_31\n        /* \"#utility.yul\":849:855   */\n      dup2\n        /* \"#utility.yul\":844:847   */\n      dup6\n        /* \"#utility.yul\":837:841   */\n      0x20\n        /* \"#utility.yul\":830:835   */\n      dup7\n        /* \"#utility.yul\":826:842   */\n      add\n        /* \"#utility.yul\":791:856   */\n      tag_16\n      jump\t// in\n    tag_31:\n        /* \"#utility.yul\":881:910   */\n      tag_32\n        /* \"#utility.yul\":903:909   */\n      dup2\n        /* \"#utility.yul\":881:910   */\n      tag_17\n      jump\t// in\n    tag_32:\n        /* \"#utility.yul\":876:879   */\n      dup5\n        /* \"#utility.yul\":872:911   */\n      add\n        /* \"#utility.yul\":865:911   */\n      swap2\n      pop\n        /* \"#utility.yul\":632:917   */\n      pop\n        /* \"#utility.yul\":540:917   */\n      swap3\n      swap2\n      pop\n      pop\n      jump\t// out\n        /* \"#utility.yul\":923:1236   */\n    tag_7:\n        /* \"#utility.yul\":1036:1040   */\n      0x00\n        /* \"#utility.yul\":1074:1076   */\n      0x20\n        /* \"#utility.yul\":1063:1072   */\n      dup3\n        /* \"#utility.yul\":1059:1077   */\n      add\n        /* \"#utility.yul\":1051:1077   */\n      swap1\n      pop\n        /* \"#utility.yul\":1123:1132   */\n      dup2\n        /* \"#utility.yul\":1117:1121   */\n      dup2\n        /* \"#utility.yul\":1113:1133   */\n      sub\n        /* \"#utility.yul\":1109:1110   */\n      0x00\n        /* \"#utility.yul\":1098:1107   */\n      dup4\n        /* \"#utility.yul\":1094:1111   */\n      add\n        /* \"#utility.yul\":1087:1134   */\n      mstore\n        /* \"#utility.yul\":1151:1229   */\n      tag_34\n        /* \"#utility.yul\":1224:1228   */\n      dup2\n        /* \"#utility.yul\":1215:1221   */\n      dup5\n        /* \"#utility.yul\":1151:1229   */\n      tag_18\n      jump\t// in\n    tag_34:\n        /* \"#utility.yul\":1143:1229   */\n      swap1\n      pop\n        /* \"#utility.yul\":923:1236   */\n      swap3\n      swap2\n      pop\n      pop\n      jump\t// out\n        /* \"#utility.yul\":1242:1390   */\n    tag_19:\n        /* \"#utility.yul\":1344:1355   */\n      0x00\n        /* \"#utility.yul\":1381:1384   */\n      dup2\n        /* \"#utility.yul\":1366:1384   */\n      swap1\n      pop\n        /* \"#utility.yul\":1242:1390   */\n      swap3\n      swap2\n      pop\n      pop\n      jump\t// out\n        /* \"#utility.yul\":1396:1786   */\n    tag_20:\n        /* \"#utility.yul\":1502:1505   */\n      0x00\n        /* \"#utility.yul\":1530:1569   */\n      tag_37\n        /* \"#utility.yul\":1563:1568   */\n      dup3\n        /* \"#utility.yul\":1530:1569   */\n      tag_14\n      jump\t// in\n    tag_37:\n        /* \"#utility.yul\":1585:1674   */\n      tag_38\n        /* \"#utility.yul\":1667:1673   */\n      dup2\n        /* \"#utility.yul\":1662:1665   */\n      dup6\n        /* \"#utility.yul\":1585:1674   */\n      tag_19\n      jump\t// in\n    tag_38:\n        /* \"#utility.yul\":1578:1674   */\n      swap4\n      pop\n        /* \"#utility.yul\":1683:1748   */\n      tag_39\n        /* \"#utility.yul\":1741:1747   */\n      dup2\n        /* \"#utility.yul\":1736:1739   */\n      dup6\n        /* \"#utility.yul\":1729:1733   */\n      0x20\n        /* \"#utility.yul\":1722:1727   */\n      dup7\n        /* \"#utility.yul\":1718:1734   */\n      add\n        /* \"#utility.yul\":1683:1748   */\n      tag_16\n      jump\t// in\n    tag_39:\n        /* \"#utility.yul\":1773:1779   */\n      dup1\n        /* \"#utility.yul\":1768:1771   */\n      dup5\n        /* \"#utility.yul\":1764:1780   */\n      add\n        /* \"#utility.yul\":1757:1780   */\n      swap2\n      pop\n        /* \"#utility.yul\":1506:1786   */\n      pop\n        /* \"#utility.yul\":1396:1786   */\n      swap3\n      swap2\n      pop\n      pop\n      jump\t// out\n        /* \"#utility.yul\":1792:1948   */\n    tag_21:\n        /* \"#utility.yul\":1932:1940   */\n      0x2c204d656f770000000000000000000000000000000000000000000000000000\n        /* \"#utility.yul\":1928:1929   */\n      0x00\n        /* \"#utility.yul\":1920:1926   */\n      dup3\n        /* \"#utility.yul\":1916:1930   */\n      add\n        /* \"#utility.yul\":1909:1941   */\n      mstore\n        /* \"#utility.yul\":1792:1948   */\n      pop\n      jump\t// out\n        /* \"#utility.yul\":1954:2354   */\n    tag_22:\n        /* \"#utility.yul\":2114:2117   */\n      0x00\n        /* \"#utility.yul\":2135:2219   */\n      tag_42\n        /* \"#utility.yul\":2217:2218   */\n      0x06\n        /* \"#utility.yul\":2212:2215   */\n      dup4\n        /* \"#utility.yul\":2135:2219   */\n      tag_19\n      jump\t// in\n    tag_42:\n        /* \"#utility.yul\":2128:2219   */\n      swap2\n      pop\n        /* \"#utility.yul\":2228:2321   */\n      tag_43\n        /* \"#utility.yul\":2317:2320   */\n      dup3\n        /* \"#utility.yul\":2228:2321   */\n      tag_21\n      jump\t// in\n    tag_43:\n        /* \"#utility.yul\":2346:2347   */\n      0x06\n        /* \"#utility.yul\":2341:2344   */\n      dup3\n        /* \"#utility.yul\":2337:2348   */\n      add\n        /* \"#utility.yul\":2330:2348   */\n      swap1\n      pop\n        /* \"#utility.yul\":1954:2354   */\n      swap2\n      swap1\n      pop\n      jump\t// out\n        /* \"#utility.yul\":2360:2901   */\n    tag_12:\n        /* \"#utility.yul\":2593:2596   */\n      0x00\n        /* \"#utility.yul\":2615:2710   */\n      tag_45\n        /* \"#utility.yul\":2706:2709   */\n      dup3\n        /* \"#utility.yul\":2697:2703   */\n      dup5\n        /* \"#utility.yul\":2615:2710   */\n      tag_20\n      jump\t// in\n    tag_45:\n        /* \"#utility.yul\":2608:2710   */\n      swap2\n      pop\n        /* \"#utility.yul\":2727:2875   */\n      tag_46\n        /* \"#utility.yul\":2871:2874   */\n      dup3\n        /* \"#utility.yul\":2727:2875   */\n      tag_22\n      jump\t// in\n    tag_46:\n        /* \"#utility.yul\":2720:2875   */\n      swap2\n      pop\n        /* \"#utility.yul\":2892:2895   */\n      dup2\n        /* \"#utility.yul\":2885:2895   */\n      swap1\n      pop\n        /* \"#utility.yul\":2360:2901   */\n      swap3\n      swap2\n      pop\n      pop\n      jump\t// out\n\n    auxdata: 0xa26469706673582212204aec14d48136708753eb72e88762986ca9a41e2252ea2ab44064dc057570e60464736f6c634300081c0033\n}\n",
				"bytecode": {
					"linkReferences": {},
					"object": "6080604052348015600e575f5ffd5b506102218061001c5f395ff3fe608060405234801561000f575f5ffd5b5060043610610029575f3560e01c8063bb79d5c71461002d575b5f5ffd5b61003561004b565b6040516100429190610126565b60405180910390f35b6060610055610079565b60405160200161006591906101ca565b604051602081830303815290604052905090565b60606040518060400160405280600b81526020017f4920616d20616e696d616c000000000000000000000000000000000000000000815250905090565b5f81519050919050565b5f82825260208201905092915050565b8281835e5f83830152505050565b5f601f19601f8301169050919050565b5f6100f8826100b6565b61010281856100c0565b93506101128185602086016100d0565b61011b816100de565b840191505092915050565b5f6020820190508181035f83015261013e81846100ee565b905092915050565b5f81905092915050565b5f61015a826100b6565b6101648185610146565b93506101748185602086016100d0565b80840191505092915050565b7f2c204d656f7700000000000000000000000000000000000000000000000000005f82015250565b5f6101b4600683610146565b91506101bf82610180565b600682019050919050565b5f6101d58284610150565b91506101e0826101a8565b91508190509291505056fea26469706673582212204aec14d48136708753eb72e88762986ca9a41e2252ea2ab44064dc057570e60464736f6c634300081c0033",
					"opcodes": "PUSH1 0x80 PUSH1 0x40 MSTORE CALLVALUE DUP1 ISZERO PUSH1 0xE JUMPI PUSH0 PUSH0 REVERT JUMPDEST POP PUSH2 0x221 DUP1 PUSH2 0x1C PUSH0 CODECOPY PUSH0 RETURN INVALID PUSH1 0x80 PUSH1 0x40 MSTORE CALLVALUE DUP1 ISZERO PUSH2 0xF JUMPI PUSH0 PUSH0 REVERT JUMPDEST POP PUSH1 0x4 CALLDATASIZE LT PUSH2 0x29 JUMPI PUSH0 CALLDATALOAD PUSH1 0xE0 SHR DUP1 PUSH4 0xBB79D5C7 EQ PUSH2 0x2D JUMPI JUMPDEST PUSH0 PUSH0 REVERT JUMPDEST PUSH2 0x35 PUSH2 0x4B JUMP JUMPDEST PUSH1 0x40 MLOAD PUSH2 0x42 SWAP2 SWAP1 PUSH2 0x126 JUMP JUMPDEST PUSH1 0x40 MLOAD DUP1 SWAP2 SUB SWAP1 RETURN JUMPDEST PUSH1 0x60 PUSH2 0x55 PUSH2 0x79 JUMP JUMPDEST PUSH1 0x40 MLOAD PUSH1 0x20 ADD PUSH2 0x65 SWAP2 SWAP1 PUSH2 0x1CA JUMP JUMPDEST PUSH1 0x40 MLOAD PUSH1 0x20 DUP2 DUP4 SUB SUB DUP2 MSTORE SWAP1 PUSH1 0x40 MSTORE SWAP1 POP SWAP1 JUMP JUMPDEST PUSH1 0x60 PUSH1 0x40 MLOAD DUP1 PUSH1 0x40 ADD PUSH1 0x40 MSTORE DUP1 PUSH1 0xB DUP2 MSTORE PUSH1 0x20 ADD PUSH32 0x4920616D20616E696D616C000000000000000000000000000000000000000000 DUP2 MSTORE POP SWAP1 POP SWAP1 JUMP JUMPDEST PUSH0 DUP2 MLOAD SWAP1 POP SWAP2 SWAP1 POP JUMP JUMPDEST PUSH0 DUP3 DUP3 MSTORE PUSH1 0x20 DUP3 ADD SWAP1 POP SWAP3 SWAP2 POP POP JUMP JUMPDEST DUP3 DUP2 DUP4 MCOPY PUSH0 DUP4 DUP4 ADD MSTORE POP POP POP JUMP JUMPDEST PUSH0 PUSH1 0x1F NOT PUSH1 0x1F DUP4 ADD AND SWAP1 POP SWAP2 SWAP1 POP JUMP JUMPDEST PUSH0 PUSH2 0xF8 DUP3 PUSH2 0xB6 JUMP JUMPDEST PUSH2 0x102 DUP2 DUP6 PUSH2 0xC0 JUMP JUMPDEST SWAP4 POP PUSH2 0x112 DUP2 DUP6 PUSH1 0x20 DUP7 ADD PUSH2 0xD0 JUMP JUMPDEST PUSH2 0x11B DUP2 PUSH2 0xDE JUMP JUMPDEST DUP5 ADD SWAP2 POP POP SWAP3 SWAP2 POP POP JUMP JUMPDEST PUSH0 PUSH1 0x20 DUP3 ADD SWAP1 POP DUP2 DUP2 SUB PUSH0 DUP4 ADD MSTORE PUSH2 0x13E DUP2 DUP5 PUSH2 0xEE JUMP JUMPDEST SWAP1 POP SWAP3 SWAP2 POP POP JUMP JUMPDEST PUSH0 DUP2 SWAP1 POP SWAP3 SWAP2 POP POP JUMP JUMPDEST PUSH0 PUSH2 0x15A DUP3 PUSH2 0xB6 JUMP JUMPDEST PUSH2 0x164 DUP2 DUP6 PUSH2 0x146 JUMP JUMPDEST SWAP4 POP PUSH2 0x174 DUP2 DUP6 PUSH1 0x20 DUP7 ADD PUSH2 0xD0 JUMP JUMPDEST DUP1 DUP5 ADD SWAP2 POP POP SWAP3 SWAP2 POP POP JUMP JUMPDEST PUSH32 0x2C204D656F770000000000000000000000000000000000000000000000000000 PUSH0 DUP3 ADD MSTORE POP JUMP JUMPDEST PUSH0 PUSH2 0x1B4 PUSH1 0x6 DUP4 PUSH2 0x146 JUMP JUMPDEST SWAP2 POP PUSH2 0x1BF DUP3 PUSH2 0x180 JUMP JUMPDEST PUSH1 0x6 DUP3 ADD SWAP1 POP SWAP2 SWAP1 POP JUMP JUMPDEST PUSH0 PUSH2 0x1D5 DUP3 DUP5 PUSH2 0x150 JUMP JUMPDEST SWAP2 POP PUSH2 0x1E0 DUP3 PUSH2 0x1A8 JUMP JUMPDEST SWAP2 POP DUP2 SWAP1 POP SWAP3 SWAP2 POP POP JUMP INVALID LOG2 PUSH5 0x6970667358 0x22 SLT KECCAK256 BLOBBASEFEE 0xEC EQ 0xD4 DUP2 CALLDATASIZE PUSH17 0x8753EB72E88762986CA9A41E2252EA2AB4 BLOCKHASH PUSH5 0xDC057570E6 DIV PUSH5 0x736F6C6343 STOP ADDMOD SHR STOP CALLER "
				},
				"gasEstimates": {
					"creation": {
						"codeDepositCost": "109000",
						"executionCost": "157",
						"totalCost": "109157"
					},
					"external": {
						"sound()": "infinite"
					}
				},
				"methodIdentifiers": {
					"sound()": "bb79d5c7"
				}
			},
			"storageLayout": {
				"storage": [],
				"types": null
			},
			"userdoc": {
				"kind": "user",
				"methods": {},
				"version": 1
			}
		}
	}
}