{
	"data": {
		"bytecode": {
			"linkReferences": {},
			"object": "6080604052348015600e575f5ffd5b5061046b8061001c5f395ff3fe608060405234801561000f575f5ffd5b5060043610610034575f3560e01c80632c499d0c146100385780632ddbd13a14610068575b5f5ffd5b610052600480360381019061004d9190610193565b610086565b60405161005f91906101f2565b60405180910390f35b610070610157565b60405161007d91906101f2565b60405180910390f35b5f5f8310806100955750606483115b156100d5576040517fd3cf0fcf0000000000000000000000000000000000000000000000000000000081526004016100cc9061028b565b60405180910390fd5b6001821015610119576040517febe0867d00000000000000000000000000000000000000000000000000000000815260040161011090610319565b60405180910390fd5b6064826101269190610391565b838561013291906103c1565b61013c91906103c1565b846101479190610402565b5f819055505f5490509392505050565b5f5481565b5f5ffd5b5f819050919050565b61017281610160565b811461017c575f5ffd5b50565b5f8135905061018d81610169565b92915050565b5f5f5f606084860312156101aa576101a961015c565b5b5f6101b78682870161017f565b93505060206101c88682870161017f565b92505060406101d98682870161017f565b9150509250925092565b6101ec81610160565b82525050565b5f6020820190506102055f8301846101e3565b92915050565b5f82825260208201905092915050565b7f496e74657265737420726174652073686f756c64206265206265747765656e205f8201527f3020616e64203130300000000000000000000000000000000000000000000000602082015250565b5f61027560298361020b565b91506102808261021b565b604082019050919050565b5f6020820190508181035f8301526102a281610269565b9050919050565b7f4c6f616e20706572696f642073686f756c64206265206f6e652079656172206d5f8201527f696e696d756d0000000000000000000000000000000000000000000000000000602082015250565b5f61030360268361020b565b915061030e826102a9565b604082019050919050565b5f6020820190508181035f830152610330816102f7565b9050919050565b7f4e487b71000000000000000000000000000000000000000000000000000000005f52601260045260245ffd5b7f4e487b71000000000000000000000000000000000000000000000000000000005f52601160045260245ffd5b5f61039b82610160565b91506103a683610160565b9250826103b6576103b5610337565b5b828204905092915050565b5f6103cb82610160565b91506103d683610160565b92508282026103e481610160565b915082820484148315176103fb576103fa610364565b5b5092915050565b5f61040c82610160565b915061041783610160565b925082820190508082111561042f5761042e610364565b5b9291505056fea2646970667358221220ad8bd6b41f557971cbdf77009134f1c740eb4fa47ff731c45a9726ac2720e0b564736f6c634300081c0033",
			"opcodes": "PUSH1 0x80 PUSH1 0x40 MSTORE CALLVALUE DUP1 ISZERO PUSH1 0xE JUMPI PUSH0 PUSH0 REVERT JUMPDEST POP PUSH2 0x46B DUP1 PUSH2 0x1C PUSH0 CODECOPY PUSH0 RETURN INVALID PUSH1 0x80 PUSH1 0x40 MSTORE CALLVALUE DUP1 ISZERO PUSH2 0xF JUMPI PUSH0 PUSH0 REVERT JUMPDEST POP PUSH1 0x4 CALLDATASIZE LT PUSH2 0x34 JUMPI PUSH0 CALLDATALOAD PUSH1 0xE0 SHR DUP1 PUSH4 0x2C499D0C EQ PUSH2 0x38 JUMPI DUP1 PUSH4 0x2DDBD13A EQ PUSH2 0x68 JUMPI JUMPDEST PUSH0 PUSH0 REVERT JUMPDEST PUSH2 0x52 PUSH1 0x4 DUP1 CALLDATASIZE SUB DUP2 ADD SWAP1 PUSH2 0x4D SWAP2 SWAP1 PUSH2 0x193 JUMP JUMPDEST PUSH2 0x86 JUMP JUMPDEST PUSH1 0x40 MLOAD PUSH2 0x5F SWAP2 SWAP1 PUSH2 0x1F2 JUMP JUMPDEST PUSH1 0x40 MLOAD DUP1 SWAP2 SUB SWAP1 RETURN JUMPDEST PUSH2 0x70 PUSH2 0x157 JUMP JUMPDEST PUSH1 0x40 MLOAD PUSH2 0x7D SWAP2 SWAP1 PUSH2 0x1F2 JUMP JUMPDEST PUSH1 0x40 MLOAD DUP1 SWAP2 SUB SWAP1 RETURN JUMPDEST PUSH0 PUSH0 DUP4 LT DUP1 PUSH2 0x95 JUMPI POP PUSH1 0x64 DUP4 GT JUMPDEST ISZERO PUSH2 0xD5 JUMPI PUSH1 0x40 MLOAD PUSH32 0xD3CF0FCF00000000000000000000000000000000000000000000000000000000 DUP2 MSTORE PUSH1 0x4 ADD PUSH2 0xCC SWAP1 PUSH2 0x28B JUMP JUMPDEST PUSH1 0x40 MLOAD DUP1 SWAP2 SUB SWAP1 REVERT JUMPDEST PUSH1 0x1 DUP3 LT ISZERO PUSH2 0x119 JUMPI PUSH1 0x40 MLOAD PUSH32 0xEBE0867D00000000000000000000000000000000000000000000000000000000 DUP2 MSTORE PUSH1 0x4 ADD PUSH2 0x110 SWAP1 PUSH2 0x319 JUMP JUMPDEST PUSH1 0x40 MLOAD DUP1 SWAP2 SUB SWAP1 REVERT JUMPDEST PUSH1 0x64 DUP3 PUSH2 0x126 SWAP2 SWAP1 PUSH2 0x391 JUMP JUMPDEST DUP4 DUP6 PUSH2 0x132 SWAP2 SWAP1 PUSH2 0x3C1 JUMP JUMPDEST PUSH2 0x13C SWAP2 SWAP1 PUSH2 0x3C1 JUMP JUMPDEST DUP5 PUSH2 0x147 SWAP2 SWAP1 PUSH2 0x402 JUMP JUMPDEST PUSH0 DUP2 SWAP1 SSTORE POP PUSH0 SLOAD SWAP1 POP SWAP4 SWAP3 POP POP POP JUMP JUMPDEST PUSH0 SLOAD DUP2 JUMP JUMPDEST PUSH0 PUSH0 REVERT JUMPDEST PUSH0 DUP2 SWAP1 POP SWAP2 SWAP1 POP JUMP JUMPDEST PUSH2 0x172 DUP2 PUSH2 0x160 JUMP JUMPDEST DUP2 EQ PUSH2 0x17C JUMPI PUSH0 PUSH0 REVERT JUMPDEST POP JUMP JUMPDEST PUSH0 DUP2 CALLDATALOAD SWAP1 POP PUSH2 0x18D DUP2 PUSH2 0x169 JUMP JUMPDEST SWAP3 SWAP2 POP POP JUMP JUMPDEST PUSH0 PUSH0 PUSH0 PUSH1 0x60 DUP5 DUP7 SUB SLT ISZERO PUSH2 0x1AA JUMPI PUSH2 0x1A9 PUSH2 0x15C JUMP JUMPDEST JUMPDEST PUSH0 PUSH2 0x1B7 DUP7 DUP3 DUP8 ADD PUSH2 0x17F JUMP JUMPDEST SWAP4 POP POP PUSH1 0x20 PUSH2 0x1C8 DUP7 DUP3 DUP8 ADD PUSH2 0x17F JUMP JUMPDEST SWAP3 POP POP PUSH1 0x40 PUSH2 0x1D9 DUP7 DUP3 DUP8 ADD PUSH2 0x17F JUMP JUMPDEST SWAP2 POP POP SWAP3 POP SWAP3 POP SWAP3 JUMP JUMPDEST PUSH2 0x1EC DUP2 PUSH2 0x160 JUMP JUMPDEST DUP3 MSTORE POP POP JUMP JUMPDEST PUSH0 PUSH1 0x20 DUP3 ADD SWAP1 POP PUSH2 0x205 PUSH0 DUP4 ADD DUP5 PUSH2 0x1E3 JUMP JUMPDEST SWAP3 SWAP2 POP POP JUMP JUMPDEST PUSH0 DUP3 DUP3 MSTORE PUSH1 0x20 DUP3 ADD SWAP1 POP SWAP3 SWAP2 POP POP JUMP JUMPDEST PUSH32 0x496E74657265737420726174652073686F756C64206265206265747765656E20 PUSH0 DUP3 ADD MSTORE PUSH32 0x3020616E64203130300000000000000000000000000000000000000000000000 PUSH1 0x20 DUP3 ADD MSTORE POP JUMP JUMPDEST PUSH0 PUSH2 0x275 PUSH1 0x29 DUP4 PUSH2 0x20B JUMP JUMPDEST SWAP2 POP PUSH2 0x280 DUP3 PUSH2 0x21B JUMP JUMPDEST PUSH1 0x40 DUP3 ADD SWAP1 POP SWAP2 SWAP1 POP JUMP JUMPDEST PUSH0 PUSH1 0x20 DUP3 ADD SWAP1 POP DUP2 DUP2 SUB PUSH0 DUP4 ADD MSTORE PUSH2 0x2A2 DUP2 PUSH2 0x269 JUMP JUMPDEST SWAP1 POP SWAP2 SWAP1 POP JUMP JUMPDEST PUSH32 0x4C6F616E20706572696F642073686F756C64206265206F6E652079656172206D PUSH0 DUP3 ADD MSTORE PUSH32 0x696E696D756D0000000000000000000000000000000000000000000000000000 PUSH1 0x20 DUP3 ADD MSTORE POP JUMP JUMPDEST PUSH0 PUSH2 0x303 PUSH1 0x26 DUP4 PUSH2 0x20B JUMP JUMPDEST SWAP2 POP PUSH2 0x30E DUP3 PUSH2 0x2A9 JUMP JUMPDEST PUSH1 0x40 DUP3 ADD SWAP1 POP SWAP2 SWAP1 POP JUMP JUMPDEST PUSH0 PUSH1 0x20 DUP3 ADD SWAP1 POP DUP2 DUP2 SUB PUSH0 DUP4 ADD MSTORE PUSH2 0x330 DUP2 PUSH2 0x2F7 JUMP JUMPDEST SWAP1 POP SWAP2 SWAP1 POP JUMP JUMPDEST PUSH32 0x4E487B7100000000000000000000000000000000000000000000000000000000 PUSH0 MSTORE PUSH1 0x12 PUSH1 0x4 MSTORE PUSH1 0x24 PUSH0 REVERT JUMPDEST PUSH32 0x4E487B7100000000000000000000000000000000000000000000000000000000 PUSH0 MSTORE PUSH1 0x11 PUSH1 0x4 MSTORE PUSH1 0x24 PUSH0 REVERT JUMPDEST PUSH0 PUSH2 0x39B DUP3 PUSH2 0x160 JUMP JUMPDEST SWAP2 POP PUSH2 0x3A6 DUP4 PUSH2 0x160 JUMP JUMPDEST SWAP3 POP DUP3 PUSH2 0x3B6 JUMPI PUSH2 0x3B5 PUSH2 0x337 JUMP JUMPDEST JUMPDEST DUP3 DUP3 DIV SWAP1 POP SWAP3 SWAP2 POP POP JUMP JUMPDEST PUSH0 PUSH2 0x3CB DUP3 PUSH2 0x160 JUMP JUMPDEST SWAP2 POP PUSH2 0x3D6 DUP4 PUSH2 0x160 JUMP JUMPDEST SWAP3 POP DUP3 DUP3 MUL PUSH2 0x3E4 DUP2 PUSH2 0x160 JUMP JUMPDEST SWAP2 POP DUP3 DUP3 DIV DUP5 EQ DUP4 ISZERO OR PUSH2 0x3FB JUMPI PUSH2 0x3FA PUSH2 0x364 JUMP JUMPDEST JUMPDEST POP SWAP3 SWAP2 POP POP JUMP JUMPDEST PUSH0 PUSH2 0x40C DUP3 PUSH2 0x160 JUMP JUMPDEST SWAP2 POP PUSH2 0x417 DUP4 PUSH2 0x160 JUMP JUMPDEST SWAP3 POP DUP3 DUP3 ADD SWAP1 POP DUP1 DUP3 GT ISZERO PUSH2 0x42F JUMPI PUSH2 0x42E PUSH2 0x364 JUMP JUMPDEST JUMPDEST SWAP3 SWAP2 POP POP JUMP INVALID LOG2 PUSH5 0x6970667358 0x22 SLT KECCAK256 0xAD DUP12 0xD6 0xB4 0x1F SSTORE PUSH26 0x71CBDF77009134F1C740EB4FA47FF731C45A9726AC2720E0B564 PUSH20 0x6F6C634300081C00330000000000000000000000 "
		},
		"gasEstimates": {
			"creation": {
				"codeDepositCost": "226200",
				"executionCost": "267",
				"totalCost": "226467"
			},
			"external": {
				"calculateTotalPayable(uint256,uint256,uint256)": "infinite",
				"total()": "2424"
			}
		},
		"methodIdentifiers": {
			"calculateTotalPayable(uint256,uint256,uint256)": "2c499d0c",
			"total()": "2ddbd13a"
		}
	},
	"abi": [
		{
			"inputs": [
				{
					"internalType": "string",
					"name": "",
					"type": "string"
				}
			],
			"name": "interestRate",
			"type": "error"
		},
		{
			"inputs": [
				{
					"internalType": "string",
					"name": "",
					"type": "string"
				}
			],
			"name": "loanPeriod",
			"type": "error"
		},
		{
			"inputs": [
				{
					"internalType": "uint256",
					"name": "principal",
					"type": "uint256"
				},
				{
					"internalType": "uint256",
					"name": "InterestRate",
					"type": "uint256"
				},
				{
					"internalType": "uint256",
					"name": "loanPeriodInYears",
					"type": "uint256"
				}
			],
			"name": "calculateTotalPayable",
			"outputs": [
				{
					"internalType": "uint256",
					"name": "",
					"type": "uint256"
				}
			],
			"stateMutability": "nonpayable",
			"type": "function"
		},
		{
			"inputs": [],
			"name": "total",
			"outputs": [
				{
					"internalType": "uint256",
					"name": "",
					"type": "uint256"
				}
			],
			"stateMutability": "view",
			"type": "function"
		}
	]
}